{
  "contractName": "Rug_Sanctuary",
  "abi": [
    {
      "inputs": [
        {
          "internalType": "address",
          "name": "_second",
          "type": "address"
        }
      ],
      "stateMutability": "nonpayable",
      "type": "constructor"
    },
    {
      "anonymous": false,
      "inputs": [
        {
          "indexed": true,
          "internalType": "address",
          "name": "owner",
          "type": "address"
        },
        {
          "indexed": true,
          "internalType": "address",
          "name": "spender",
          "type": "address"
        },
        {
          "indexed": false,
          "internalType": "uint256",
          "name": "_pid",
          "type": "uint256"
        },
        {
          "indexed": false,
          "internalType": "uint256",
          "name": "value",
          "type": "uint256"
        }
      ],
      "name": "Approval",
      "type": "event"
    },
    {
      "anonymous": false,
      "inputs": [
        {
          "indexed": true,
          "internalType": "address",
          "name": "user",
          "type": "address"
        },
        {
          "indexed": true,
          "internalType": "uint256",
          "name": "pid",
          "type": "uint256"
        },
        {
          "indexed": false,
          "internalType": "uint256",
          "name": "amount",
          "type": "uint256"
        }
      ],
      "name": "Deposit",
      "type": "event"
    },
    {
      "anonymous": false,
      "inputs": [
        {
          "indexed": true,
          "internalType": "address",
          "name": "user",
          "type": "address"
        },
        {
          "indexed": true,
          "internalType": "uint256",
          "name": "pid",
          "type": "uint256"
        },
        {
          "indexed": false,
          "internalType": "uint256",
          "name": "amount",
          "type": "uint256"
        }
      ],
      "name": "EmergencyWithdraw",
      "type": "event"
    },
    {
      "anonymous": false,
      "inputs": [
        {
          "indexed": true,
          "internalType": "address",
          "name": "user",
          "type": "address"
        },
        {
          "indexed": true,
          "internalType": "uint256",
          "name": "pid",
          "type": "uint256"
        },
        {
          "indexed": false,
          "internalType": "uint256",
          "name": "amount",
          "type": "uint256"
        }
      ],
      "name": "Withdraw",
      "type": "event"
    },
    {
      "inputs": [],
      "name": "Treasury",
      "outputs": [
        {
          "internalType": "address",
          "name": "",
          "type": "address"
        }
      ],
      "stateMutability": "view",
      "type": "function"
    },
    {
      "inputs": [],
      "name": "contractStartBlock",
      "outputs": [
        {
          "internalType": "uint256",
          "name": "",
          "type": "uint256"
        }
      ],
      "stateMutability": "view",
      "type": "function"
    },
    {
      "inputs": [],
      "name": "cumulativeRewardsSinceStart",
      "outputs": [
        {
          "internalType": "uint256",
          "name": "",
          "type": "uint256"
        }
      ],
      "stateMutability": "view",
      "type": "function"
    },
    {
      "inputs": [],
      "name": "epoch",
      "outputs": [
        {
          "internalType": "uint256",
          "name": "",
          "type": "uint256"
        }
      ],
      "stateMutability": "view",
      "type": "function"
    },
    {
      "inputs": [],
      "name": "epochCalculationStartBlock",
      "outputs": [
        {
          "internalType": "uint256",
          "name": "",
          "type": "uint256"
        }
      ],
      "stateMutability": "view",
      "type": "function"
    },
    {
      "inputs": [
        {
          "internalType": "uint256",
          "name": "",
          "type": "uint256"
        }
      ],
      "name": "epochRewards",
      "outputs": [
        {
          "internalType": "uint256",
          "name": "",
          "type": "uint256"
        }
      ],
      "stateMutability": "view",
      "type": "function"
    },
    {
      "inputs": [],
      "name": "lockRatio100",
      "outputs": [
        {
          "internalType": "uint256",
          "name": "",
          "type": "uint256"
        }
      ],
      "stateMutability": "view",
      "type": "function"
    },
    {
      "inputs": [],
      "name": "pendingRewards",
      "outputs": [
        {
          "internalType": "uint256",
          "name": "",
          "type": "uint256"
        }
      ],
      "stateMutability": "view",
      "type": "function"
    },
    {
      "inputs": [],
      "name": "pendingTreasuryRewards",
      "outputs": [
        {
          "internalType": "uint256",
          "name": "",
          "type": "uint256"
        }
      ],
      "stateMutability": "view",
      "type": "function"
    },
    {
      "inputs": [
        {
          "internalType": "uint256",
          "name": "",
          "type": "uint256"
        }
      ],
      "name": "poolInfo",
      "outputs": [
        {
          "internalType": "address",
          "name": "stakedToken",
          "type": "address"
        },
        {
          "internalType": "uint256",
          "name": "allocPoint",
          "type": "uint256"
        },
        {
          "internalType": "uint256",
          "name": "accPerShare",
          "type": "uint256"
        },
        {
          "internalType": "bool",
          "name": "withdrawable",
          "type": "bool"
        }
      ],
      "stateMutability": "view",
      "type": "function"
    },
    {
      "inputs": [],
      "name": "rewardsInThisEpoch",
      "outputs": [
        {
          "internalType": "uint256",
          "name": "",
          "type": "uint256"
        }
      ],
      "stateMutability": "view",
      "type": "function"
    },
    {
      "inputs": [],
      "name": "second",
      "outputs": [
        {
          "internalType": "address",
          "name": "",
          "type": "address"
        }
      ],
      "stateMutability": "view",
      "type": "function"
    },
    {
      "inputs": [],
      "name": "totalAllocPoint",
      "outputs": [
        {
          "internalType": "uint256",
          "name": "",
          "type": "uint256"
        }
      ],
      "stateMutability": "view",
      "type": "function"
    },
    {
      "inputs": [],
      "name": "treasuryFee",
      "outputs": [
        {
          "internalType": "uint256",
          "name": "",
          "type": "uint256"
        }
      ],
      "stateMutability": "view",
      "type": "function"
    },
    {
      "inputs": [
        {
          "internalType": "uint256",
          "name": "",
          "type": "uint256"
        },
        {
          "internalType": "address",
          "name": "",
          "type": "address"
        }
      ],
      "name": "userInfo",
      "outputs": [
        {
          "internalType": "uint256",
          "name": "amount",
          "type": "uint256"
        },
        {
          "internalType": "uint256",
          "name": "rewardPaid",
          "type": "uint256"
        }
      ],
      "stateMutability": "view",
      "type": "function"
    },
    {
      "inputs": [],
      "name": "poolLength",
      "outputs": [
        {
          "internalType": "uint256",
          "name": "",
          "type": "uint256"
        }
      ],
      "stateMutability": "view",
      "type": "function"
    },
    {
      "inputs": [],
      "name": "averageFeesPerBlockSinceStart",
      "outputs": [
        {
          "internalType": "uint256",
          "name": "averagePerBlock",
          "type": "uint256"
        }
      ],
      "stateMutability": "view",
      "type": "function"
    },
    {
      "inputs": [],
      "name": "averageFeesPerBlockEpoch",
      "outputs": [
        {
          "internalType": "uint256",
          "name": "averagePerBlock",
          "type": "uint256"
        }
      ],
      "stateMutability": "view",
      "type": "function"
    },
    {
      "inputs": [
        {
          "internalType": "uint256",
          "name": "_allocPoint",
          "type": "uint256"
        },
        {
          "internalType": "address",
          "name": "_stakedToken",
          "type": "address"
        },
        {
          "internalType": "bool",
          "name": "_withdrawable",
          "type": "bool"
        }
      ],
      "name": "addPool",
      "outputs": [],
      "stateMutability": "nonpayable",
      "type": "function"
    },
    {
      "inputs": [
        {
          "internalType": "uint256",
          "name": "_pid",
          "type": "uint256"
        },
        {
          "internalType": "uint256",
          "name": "_allocPoint",
          "type": "uint256"
        },
        {
          "internalType": "bool",
          "name": "_withUpdate",
          "type": "bool"
        }
      ],
      "name": "setPool",
      "outputs": [],
      "stateMutability": "nonpayable",
      "type": "function"
    },
    {
      "inputs": [
        {
          "internalType": "uint256",
          "name": "_pid",
          "type": "uint256"
        },
        {
          "internalType": "bool",
          "name": "_withdrawable",
          "type": "bool"
        }
      ],
      "name": "setPoolWithdrawable",
      "outputs": [],
      "stateMutability": "nonpayable",
      "type": "function"
    },
    {
      "inputs": [],
      "name": "startNewEpoch",
      "outputs": [],
      "stateMutability": "nonpayable",
      "type": "function"
    },
    {
      "inputs": [],
      "name": "massUpdatePools",
      "outputs": [],
      "stateMutability": "nonpayable",
      "type": "function"
    },
    {
      "inputs": [],
      "name": "updateRewards",
      "outputs": [],
      "stateMutability": "nonpayable",
      "type": "function"
    },
    {
      "inputs": [
        {
          "internalType": "uint256",
          "name": "_pid",
          "type": "uint256"
        },
        {
          "internalType": "uint256",
          "name": "_amount",
          "type": "uint256"
        }
      ],
      "name": "deposit",
      "outputs": [],
      "stateMutability": "nonpayable",
      "type": "function"
    },
    {
      "inputs": [
        {
          "internalType": "uint256",
          "name": "_pid",
          "type": "uint256"
        },
        {
          "internalType": "uint256",
          "name": "_amount",
          "type": "uint256"
        }
      ],
      "name": "withdraw",
      "outputs": [],
      "stateMutability": "nonpayable",
      "type": "function"
    },
    {
      "inputs": [
        {
          "internalType": "uint256",
          "name": "_pid",
          "type": "uint256"
        },
        {
          "internalType": "address",
          "name": "_user",
          "type": "address"
        }
      ],
      "name": "pending",
      "outputs": [
        {
          "internalType": "uint256",
          "name": "",
          "type": "uint256"
        }
      ],
      "stateMutability": "view",
      "type": "function"
    },
    {
      "inputs": [],
      "name": "transferTreasuryFees",
      "outputs": [],
      "stateMutability": "nonpayable",
      "type": "function"
    },
    {
      "inputs": [
        {
          "internalType": "uint256",
          "name": "_newFee",
          "type": "uint256"
        }
      ],
      "name": "setTreasuryFee",
      "outputs": [],
      "stateMutability": "nonpayable",
      "type": "function"
    },
    {
      "inputs": [
        {
          "internalType": "address",
          "name": "_new",
          "type": "address"
        }
      ],
      "name": "chgTreasury",
      "outputs": [],
      "stateMutability": "nonpayable",
      "type": "function"
    },
    {
      "inputs": [
        {
          "internalType": "uint256",
          "name": "_UNIv2ToRelease100",
          "type": "uint256"
        }
      ],
      "name": "chgLockRatio",
      "outputs": [],
      "stateMutability": "nonpayable",
      "type": "function"
    },
    {
      "inputs": [
        {
          "internalType": "address",
          "name": "_token",
          "type": "address"
        }
      ],
      "name": "isNonWithdrawbleByAdmins",
      "outputs": [
        {
          "internalType": "bool",
          "name": "",
          "type": "bool"
        }
      ],
      "stateMutability": "view",
      "type": "function"
    },
    {
      "inputs": [
        {
          "internalType": "address",
          "name": "_recipient",
          "type": "address"
        },
        {
          "internalType": "address",
          "name": "_ERC20address",
          "type": "address"
        },
        {
          "internalType": "uint256",
          "name": "_amount",
          "type": "uint256"
        }
      ],
      "name": "_widthdrawAnyToken",
      "outputs": [
        {
          "internalType": "bool",
          "name": "",
          "type": "bool"
        }
      ],
      "stateMutability": "nonpayable",
      "type": "function"
    }
  ],
  "bytecode": "0x608060405234801561001057600080fd5b506040516134433803806134438339818101604052602081101561003357600080fd5b8101908080519060200190929190505050806000806101000a81548173ffffffffffffffffffffffffffffffffffffffff021916908373ffffffffffffffffffffffffffffffffffffffff16021790555033600160006101000a81548173ffffffffffffffffffffffffffffffffffffffff021916908373ffffffffffffffffffffffffffffffffffffffff1602179055506064600281905550604b6006819055504360098190555050613357806100ec6000396000f3fe608060405234801561001057600080fd5b50600436106101fb5760003560e01c8063608c8d3a1161011a57806393f1a40b116100ad578063cc32d1761161007c578063cc32d176146107ac578063de2ccedf146107ca578063e2bbb158146107e8578063e4c75c2714610820578063eded3fda14610882576101fb565b806393f1a40b146106ab5780639dbc2d9014610714578063b5760d2714610732578063c8ffb8731461078e576101fb565b80637687e045116100e95780637687e045146105d757806377e741c7146106055780637abceffd14610633578063900cf0cf1461068d576101fb565b8063608c8d3a1461056157806362eb59611461057f578063630b5ba1146105c357806368f7471e146105cd576101fb565b8063441a3e70116101925780635207cc0d116101615780635207cc0d14610475578063563df32f146104af5780635a8ac02d146104f95780635d577c1814610543576101fb565b8063441a3e701461039957806346ca6bea146103d157806349c5468d146104155780634dc47d3414610433576101fb565b806317caf6f1116101ce57806317caf6f1146103495780633aab0a62146103675780633ca1fe21146103715780633e158b0c1461038f576101fb565b806303dec00914610200578063081e3eda1461021e5780631156c7241461023c5780631526fe27146102c2575b600080fd5b6102086108a0565b6040518082815260200191505060405180910390f35b6102266108d0565b6040518082815260200191505060405180910390f35b6102a86004803603606081101561025257600080fd5b81019080803573ffffffffffffffffffffffffffffffffffffffff169060200190929190803573ffffffffffffffffffffffffffffffffffffffff169060200190929190803590602001909291905050506108dd565b604051808215151515815260200191505060405180910390f35b6102ee600480360360208110156102d857600080fd5b8101908080359060200190929190505050610c41565b604051808573ffffffffffffffffffffffffffffffffffffffff1673ffffffffffffffffffffffffffffffffffffffff1681526020018481526020018381526020018215151515815260200194505050505060405180910390f35b610351610cab565b6040518082815260200191505060405180910390f35b61036f610cb1565b005b610379610d86565b6040518082815260200191505060405180910390f35b610397610d8c565b005b6103cf600480360360408110156103af57600080fd5b810190808035906020019092919080359060200190929190505050610ff8565b005b610413600480360360608110156103e757600080fd5b8101908080359060200190929190803590602001909291908035151590602001909291905050506110f0565b005b61041d6112bd565b6040518082815260200191505060405180910390f35b61045f6004803603602081101561044957600080fd5b81019080803590602001909291905050506112c3565b6040518082815260200191505060405180910390f35b6104ad6004803603604081101561048b57600080fd5b81019080803590602001909291908035151590602001909291905050506112db565b005b6104b7611460565b604051808273ffffffffffffffffffffffffffffffffffffffff1673ffffffffffffffffffffffffffffffffffffffff16815260200191505060405180910390f35b610501611486565b604051808273ffffffffffffffffffffffffffffffffffffffff1673ffffffffffffffffffffffffffffffffffffffff16815260200191505060405180910390f35b61054b6114ab565b6040518082815260200191505060405180910390f35b6105696114b1565b6040518082815260200191505060405180910390f35b6105c16004803603602081101561059557600080fd5b81019080803573ffffffffffffffffffffffffffffffffffffffff1690602001909291905050506114b7565b005b6105cb611646565b005b6105d56116a8565b005b610603600480360360208110156105ed57600080fd5b810190808035906020019092919050505061199a565b005b6106316004803603602081101561061b57600080fd5b8101908080359060200190929190505050611aef565b005b61068b6004803603606081101561064957600080fd5b8101908080359060200190929190803573ffffffffffffffffffffffffffffffffffffffff169060200190929190803515159060200190929190505050611cbb565b005b6106956120e3565b6040518082815260200191505060405180910390f35b6106f7600480360360408110156106c157600080fd5b8101908080359060200190929190803573ffffffffffffffffffffffffffffffffffffffff1690602001909291905050506120e9565b604051808381526020018281526020019250505060405180910390f35b61071c61211a565b6040518082815260200191505060405180910390f35b6107746004803603602081101561074857600080fd5b81019080803573ffffffffffffffffffffffffffffffffffffffff16906020019092919050505061215e565b604051808215151515815260200191505060405180910390f35b6107966121b4565b6040518082815260200191505060405180910390f35b6107b46121ba565b6040518082815260200191505060405180910390f35b6107d26121c0565b6040518082815260200191505060405180910390f35b61081e600480360360408110156107fe57600080fd5b8101908080359060200190929190803590602001909291905050506121c6565b005b61086c6004803603604081101561083657600080fd5b8101908080359060200190929190803573ffffffffffffffffffffffffffffffffffffffff169060200190929190505050612565565b6040518082815260200191505060405180910390f35b61088a612634565b6040518082815260200191505060405180910390f35b60006108cb6108ba600a544361263a90919063ffffffff16565b600c5461268490919063ffffffff16565b905090565b6000600580549050905090565b60008060009054906101000a900473ffffffffffffffffffffffffffffffffffffffff1673ffffffffffffffffffffffffffffffffffffffff1663babcc539336040518263ffffffff1660e01b8152600401808273ffffffffffffffffffffffffffffffffffffffff1673ffffffffffffffffffffffffffffffffffffffff16815260200191505060206040518083038186803b15801561097d57600080fd5b505afa158015610991573d6000803e3d6000fd5b505050506040513d60208110156109a757600080fd5b8101908080519060200190929190505050610a2a576040517f08c379a000000000000000000000000000000000000000000000000000000000815260040180806020018281038252601b8152602001807f47726f7720736f6d65206d75737461636865206b6964646f2e2e2e000000000081525060200191505060405180910390fd5b6000809054906101000a900473ffffffffffffffffffffffffffffffffffffffff1673ffffffffffffffffffffffffffffffffffffffff168373ffffffffffffffffffffffffffffffffffffffff161415610ad0576040517f08c379a00000000000000000000000000000000000000000000000000000000081526004018080602001828103825260228152602001806132ae6022913960400191505060405180910390fd5b601160008473ffffffffffffffffffffffffffffffffffffffff1673ffffffffffffffffffffffffffffffffffffffff16815260200190815260200160002060009054906101000a900460ff1615610b73576040517f08c379a000000000000000000000000000000000000000000000000000000000815260040180806020018281038252603081526020018061325d6030913960400191505060405180910390fd5b8273ffffffffffffffffffffffffffffffffffffffff1663a9059cbb85846040518363ffffffff1660e01b8152600401808373ffffffffffffffffffffffffffffffffffffffff1673ffffffffffffffffffffffffffffffffffffffff16815260200182815260200192505050602060405180830381600087803b158015610bfa57600080fd5b505af1158015610c0e573d6000803e3d6000fd5b505050506040513d6020811015610c2457600080fd5b810190808051906020019092919050505050600190509392505050565b60058181548110610c4e57fe5b90600052602060002090600502016000915090508060000160009054906101000a900473ffffffffffffffffffffffffffffffffffffffff16908060010154908060020154908060030160009054906101000a900460ff16905084565b60075481565b4361c350600a540110610d2c576040517f08c379a00000000000000000000000000000000000000000000000000000000081526004018080602001828103825260178152602001807f4e65772065706f6368206e6f742072656164792079657400000000000000000081525060200191505060405180910390fd5b600c54600e6000600d54815260200190815260200160002081905550610d5f600c54600b546126ce90919063ffffffff16565b600b819055506000600c8190555043600a81905550600d6000815460010191905081905550565b60065481565b6000809054906101000a900473ffffffffffffffffffffffffffffffffffffffff1673ffffffffffffffffffffffffffffffffffffffff163373ffffffffffffffffffffffffffffffffffffffff1614610de557600080fd5b6000610ed4600f546000809054906101000a900473ffffffffffffffffffffffffffffffffffffffff1673ffffffffffffffffffffffffffffffffffffffff166370a08231306040518263ffffffff1660e01b8152600401808273ffffffffffffffffffffffffffffffffffffffff1673ffffffffffffffffffffffffffffffffffffffff16815260200191505060206040518083038186803b158015610e8b57600080fd5b505afa158015610e9f573d6000803e3d6000fd5b505050506040513d6020811015610eb557600080fd5b810190808051906020019092919050505061263a90919063ffffffff16565b90506000811115610ff5576000809054906101000a900473ffffffffffffffffffffffffffffffffffffffff1673ffffffffffffffffffffffffffffffffffffffff166370a08231306040518263ffffffff1660e01b8152600401808273ffffffffffffffffffffffffffffffffffffffff1673ffffffffffffffffffffffffffffffffffffffff16815260200191505060206040518083038186803b158015610f7d57600080fd5b505afa158015610f91573d6000803e3d6000fd5b505050506040513d6020811015610fa757600080fd5b8101908080519060200190929190505050600f81905550610fd3816008546126ce90919063ffffffff16565b600881905550610fee81600c546126ce90919063ffffffff16565b600c819055505b50565b33601060008273ffffffffffffffffffffffffffffffffffffffff1673ffffffffffffffffffffffffffffffffffffffff168152602001908152602001600020544311611090576040517f08c379a000000000000000000000000000000000000000000000000000000000815260040180806020018281038252602c8152602001806132f6602c913960400191505060405180910390fd5b60014301601060003373ffffffffffffffffffffffffffffffffffffffff1673ffffffffffffffffffffffffffffffffffffffff168152602001908152602001600020819055506110e383833333612756565b6110eb6116a8565b505050565b6000809054906101000a900473ffffffffffffffffffffffffffffffffffffffff1673ffffffffffffffffffffffffffffffffffffffff1663babcc539336040518263ffffffff1660e01b8152600401808273ffffffffffffffffffffffffffffffffffffffff1673ffffffffffffffffffffffffffffffffffffffff16815260200191505060206040518083038186803b15801561118e57600080fd5b505afa1580156111a2573d6000803e3d6000fd5b505050506040513d60208110156111b857600080fd5b810190808051906020019092919050505061123b576040517f08c379a000000000000000000000000000000000000000000000000000000000815260040180806020018281038252601b8152602001807f47726f7720736f6d65206d75737461636865206b6964646f2e2e2e000000000081525060200191505060405180910390fd5b801561124a57611249611646565b5b61128f826112816005868154811061125e57fe5b90600052602060002090600502016001015460075461263a90919063ffffffff16565b6126ce90919063ffffffff16565b60078190555081600584815481106112a357fe5b906000526020600020906005020160010181905550505050565b60095481565b600e6020528060005260406000206000915090505481565b6000809054906101000a900473ffffffffffffffffffffffffffffffffffffffff1673ffffffffffffffffffffffffffffffffffffffff1663babcc539336040518263ffffffff1660e01b8152600401808273ffffffffffffffffffffffffffffffffffffffff1673ffffffffffffffffffffffffffffffffffffffff16815260200191505060206040518083038186803b15801561137957600080fd5b505afa15801561138d573d6000803e3d6000fd5b505050506040513d60208110156113a357600080fd5b8101908080519060200190929190505050611426576040517f08c379a000000000000000000000000000000000000000000000000000000000815260040180806020018281038252601b8152602001807f47726f7720736f6d65206d75737461636865206b6964646f2e2e2e000000000081525060200191505060405180910390fd5b806005838154811061143457fe5b906000526020600020906005020160030160006101000a81548160ff0219169083151502179055505050565b600160009054906101000a900473ffffffffffffffffffffffffffffffffffffffff1681565b6000809054906101000a900473ffffffffffffffffffffffffffffffffffffffff1681565b600a5481565b600c5481565b6000809054906101000a900473ffffffffffffffffffffffffffffffffffffffff1673ffffffffffffffffffffffffffffffffffffffff1663babcc539336040518263ffffffff1660e01b8152600401808273ffffffffffffffffffffffffffffffffffffffff1673ffffffffffffffffffffffffffffffffffffffff16815260200191505060206040518083038186803b15801561155557600080fd5b505afa158015611569573d6000803e3d6000fd5b505050506040513d602081101561157f57600080fd5b8101908080519060200190929190505050611602576040517f08c379a000000000000000000000000000000000000000000000000000000000815260040180806020018281038252601b8152602001807f47726f7720736f6d65206d75737461636865206b6964646f2e2e2e000000000081525060200191505060405180910390fd5b80600160006101000a81548173ffffffffffffffffffffffffffffffffffffffff021916908373ffffffffffffffffffffffffffffffffffffffff16021790555050565b60006005805490509050600080600090505b828110156116885761167b61166c82612a65565b836126ce90919063ffffffff16565b9150806001019050611658565b5061169e8160085461263a90919063ffffffff16565b6008819055505050565b600060035414156116b857611998565b60008060009054906101000a900473ffffffffffffffffffffffffffffffffffffffff1673ffffffffffffffffffffffffffffffffffffffff166370a08231306040518263ffffffff1660e01b8152600401808273ffffffffffffffffffffffffffffffffffffffff1673ffffffffffffffffffffffffffffffffffffffff16815260200191505060206040518083038186803b15801561175857600080fd5b505afa15801561176c573d6000803e3d6000fd5b505050506040513d602081101561178257600080fd5b810190808051906020019092919050505090508060035411156117a757806003819055505b6000809054906101000a900473ffffffffffffffffffffffffffffffffffffffff1673ffffffffffffffffffffffffffffffffffffffff1663a9059cbb600160009054906101000a900473ffffffffffffffffffffffffffffffffffffffff166003546040518363ffffffff1660e01b8152600401808373ffffffffffffffffffffffffffffffffffffffff1673ffffffffffffffffffffffffffffffffffffffff16815260200182815260200192505050602060405180830381600087803b15801561187357600080fd5b505af1158015611887573d6000803e3d6000fd5b505050506040513d602081101561189d57600080fd5b8101908080519060200190929190505050506000809054906101000a900473ffffffffffffffffffffffffffffffffffffffff1673ffffffffffffffffffffffffffffffffffffffff166370a08231306040518263ffffffff1660e01b8152600401808273ffffffffffffffffffffffffffffffffffffffff1673ffffffffffffffffffffffffffffffffffffffff16815260200191505060206040518083038186803b15801561194d57600080fd5b505afa158015611961573d6000803e3d6000fd5b505050506040513d602081101561197757600080fd5b8101908080519060200190929190505050600f819055506000600381905550505b565b6000809054906101000a900473ffffffffffffffffffffffffffffffffffffffff1673ffffffffffffffffffffffffffffffffffffffff1663babcc539336040518263ffffffff1660e01b8152600401808273ffffffffffffffffffffffffffffffffffffffff1673ffffffffffffffffffffffffffffffffffffffff16815260200191505060206040518083038186803b158015611a3857600080fd5b505afa158015611a4c573d6000803e3d6000fd5b505050506040513d6020811015611a6257600080fd5b8101908080519060200190929190505050611ae5576040517f08c379a000000000000000000000000000000000000000000000000000000000815260040180806020018281038252601b8152602001807f47726f7720736f6d65206d75737461636865206b6964646f2e2e2e000000000081525060200191505060405180910390fd5b8060068190555050565b6000809054906101000a900473ffffffffffffffffffffffffffffffffffffffff1673ffffffffffffffffffffffffffffffffffffffff1663babcc539336040518263ffffffff1660e01b8152600401808273ffffffffffffffffffffffffffffffffffffffff1673ffffffffffffffffffffffffffffffffffffffff16815260200191505060206040518083038186803b158015611b8d57600080fd5b505afa158015611ba1573d6000803e3d6000fd5b505050506040513d6020811015611bb757600080fd5b8101908080519060200190929190505050611c3a576040517f08c379a000000000000000000000000000000000000000000000000000000000815260040180806020018281038252601b8152602001807f47726f7720736f6d65206d75737461636865206b6964646f2e2e2e000000000081525060200191505060405180910390fd5b60c8811115611cb1576040517f08c379a00000000000000000000000000000000000000000000000000000000081526004018080602001828103825260198152602001807f747265617375727946656520636170706564206174203230250000000000000081525060200191505060405180910390fd5b8060028190555050565b6000809054906101000a900473ffffffffffffffffffffffffffffffffffffffff1673ffffffffffffffffffffffffffffffffffffffff1663babcc539336040518263ffffffff1660e01b8152600401808273ffffffffffffffffffffffffffffffffffffffff1673ffffffffffffffffffffffffffffffffffffffff16815260200191505060206040518083038186803b158015611d5957600080fd5b505afa158015611d6d573d6000803e3d6000fd5b505050506040513d6020811015611d8357600080fd5b8101908080519060200190929190505050611e06576040517f08c379a000000000000000000000000000000000000000000000000000000000815260040180806020018281038252601b8152602001807f47726f7720736f6d65206d75737461636865206b6964646f2e2e2e000000000081525060200191505060405180910390fd5b60008311611e7c576040517f08c379a000000000000000000000000000000000000000000000000000000000815260040180806020018281038252601d8152602001807f5a65726f20616c6c6f6320706f696e7473206e6f7420616c6c6f77656400000081525060200191505060405180910390fd5b6001601160008473ffffffffffffffffffffffffffffffffffffffff1673ffffffffffffffffffffffffffffffffffffffff16815260200190815260200160002060006101000a81548160ff021916908315150217905550611edc611646565b6000600580549050905060008090505b81811015611fdf578373ffffffffffffffffffffffffffffffffffffffff1660058281548110611f1857fe5b906000526020600020906005020160000160009054906101000a900473ffffffffffffffffffffffffffffffffffffffff1673ffffffffffffffffffffffffffffffffffffffff161415611fd4576040517f08c379a00000000000000000000000000000000000000000000000000000000081526004018080602001828103825260188152602001807f4572726f7220706f6f6c20616c7265616479206164646564000000000000000081525060200191505060405180910390fd5b806001019050611eec565b50611ff5846007546126ce90919063ffffffff16565b600781905550600560405180608001604052808573ffffffffffffffffffffffffffffffffffffffff16815260200186815260200160008152602001841515815250908060018154018082558091505060019003906000526020600020906005020160009091909190915060008201518160000160006101000a81548173ffffffffffffffffffffffffffffffffffffffff021916908373ffffffffffffffffffffffffffffffffffffffff160217905550602082015181600101556040820151816002015560608201518160030160006101000a81548160ff021916908315150217905550505050505050565b600d5481565b6004602052816000526040600020602052806000526040600020600091509150508060000154908060010154905082565b60006121596121346009544361263a90919063ffffffff16565b61214b600c54600b546126ce90919063ffffffff16565b61268490919063ffffffff16565b905090565b6000601160008373ffffffffffffffffffffffffffffffffffffffff1673ffffffffffffffffffffffffffffffffffffffff16815260200190815260200160002060009054906101000a900460ff169050919050565b600b5481565b60025481565b60035481565b33601060008273ffffffffffffffffffffffffffffffffffffffff1673ffffffffffffffffffffffffffffffffffffffff16815260200190815260200160002054431161225e576040517f08c379a000000000000000000000000000000000000000000000000000000000815260040180806020018281038252602c8152602001806132f6602c913960400191505060405180910390fd5b60014301601060003373ffffffffffffffffffffffffffffffffffffffff1673ffffffffffffffffffffffffffffffffffffffff168152602001908152602001600020819055506000821161231b576040517f08c379a000000000000000000000000000000000000000000000000000000000815260040180806020018281038252601a8152602001807f63616e6e6f74206465706f736974207a65726f20746f6b656e7300000000000081525060200191505060405180910390fd5b60006005848154811061232a57fe5b9060005260206000209060050201905060006004600086815260200190815260200160002060003373ffffffffffffffffffffffffffffffffffffffff1673ffffffffffffffffffffffffffffffffffffffff16815260200190815260200160002090506123988533612c5c565b8160000160009054906101000a900473ffffffffffffffffffffffffffffffffffffffff1673ffffffffffffffffffffffffffffffffffffffff166323b872dd3330876040518463ffffffff1660e01b8152600401808473ffffffffffffffffffffffffffffffffffffffff1673ffffffffffffffffffffffffffffffffffffffff1681526020018373ffffffffffffffffffffffffffffffffffffffff1673ffffffffffffffffffffffffffffffffffffffff1681526020018281526020019350505050602060405180830381600087803b15801561247757600080fd5b505af115801561248b573d6000803e3d6000fd5b505050506040513d60208110156124a157600080fd5b8101908080519060200190929190505050506124ca8482600001546126ce90919063ffffffff16565b8160000181905550612507670de0b6b3a76400006124f984600201548460000154612c8190919063ffffffff16565b61268490919063ffffffff16565b8160010181905550843373ffffffffffffffffffffffffffffffffffffffff167f90890809c654f11d6e72a28fa60149770a0d11ec6c92319d6ceb2bb0a4ea1a15866040518082815260200191505060405180910390a35050505050565b6000806005848154811061257557fe5b9060005260206000209060050201905060006004600086815260200190815260200160002060008573ffffffffffffffffffffffffffffffffffffffff1673ffffffffffffffffffffffffffffffffffffffff1681526020019081526020016000209050600082600201549050612629826001015461261b670de0b6b3a764000061260d858760000154612c8190919063ffffffff16565b61268490919063ffffffff16565b61263a90919063ffffffff16565b935050505092915050565b60085481565b600061267c83836040518060400160405280601e81526020017f536166654d6174683a207375627472616374696f6e206f766572666c6f770000815250612d07565b905092915050565b60006126c683836040518060400160405280601a81526020017f536166654d6174683a206469766973696f6e206279207a65726f000000000000815250612dc7565b905092915050565b60008082840190508381101561274c576040517f08c379a000000000000000000000000000000000000000000000000000000000815260040180806020018281038252601b8152602001807f536166654d6174683a206164646974696f6e206f766572666c6f77000000000081525060200191505060405180910390fd5b8091505092915050565b60006005858154811061276557fe5b906000526020600020906005020190508060030160009054906101000a900460ff166127dc576040517f08c379a00000000000000000000000000000000000000000000000000000000081526004018080602001828103825260268152602001806132d06026913960400191505060405180910390fd5b60006004600087815260200190815260200160002060008573ffffffffffffffffffffffffffffffffffffffff1673ffffffffffffffffffffffffffffffffffffffff1681526020019081526020016000209050848160000154101561288d576040517f08c379a000000000000000000000000000000000000000000000000000000000815260040180806020018281038252602281526020018061323b6022913960400191505060405180910390fd5b6128978685612c5c565b60008511156129d1576128b785826000015461263a90919063ffffffff16565b81600001819055506128e760646128d960065488612c8190919063ffffffff16565b61268490919063ffffffff16565b94508160000160009054906101000a900473ffffffffffffffffffffffffffffffffffffffff1673ffffffffffffffffffffffffffffffffffffffff1663a9059cbb84876040518363ffffffff1660e01b8152600401808373ffffffffffffffffffffffffffffffffffffffff1673ffffffffffffffffffffffffffffffffffffffff16815260200182815260200192505050602060405180830381600087803b15801561299457600080fd5b505af11580156129a8573d6000803e3d6000fd5b505050506040513d60208110156129be57600080fd5b8101908080519060200190929190505050505b612a06670de0b6b3a76400006129f884600201548460000154612c8190919063ffffffff16565b61268490919063ffffffff16565b8160010181905550858373ffffffffffffffffffffffffffffffffffffffff167ff279e6a1f5e320cca91135676d9cb6e44ca8a08c0b88342bcdb1144f6511b568876040518082815260200191505060405180910390a3505050505050565b60008060058381548110612a7557fe5b9060005260206000209060050201905060008160000160009054906101000a900473ffffffffffffffffffffffffffffffffffffffff1673ffffffffffffffffffffffffffffffffffffffff166370a08231306040518263ffffffff1660e01b8152600401808273ffffffffffffffffffffffffffffffffffffffff1673ffffffffffffffffffffffffffffffffffffffff16815260200191505060206040518083038186803b158015612b2857600080fd5b505afa158015612b3c573d6000803e3d6000fd5b505050506040513d6020811015612b5257600080fd5b810190808051906020019092919050505090506000811415612b7957600092505050612c57565b612ba6600754612b988460010154600854612c8190919063ffffffff16565b61268490919063ffffffff16565b92506000612bd36103e8612bc560025487612c8190919063ffffffff16565b61268490919063ffffffff16565b90506000612bea828661263a90919063ffffffff16565b9050612c01826003546126ce90919063ffffffff16565b600381905550612c4a612c3784612c29670de0b6b3a764000085612c8190919063ffffffff16565b61268490919063ffffffff16565b85600201546126ce90919063ffffffff16565b8460020181905550505050505b919050565b612c64611646565b6000612c708383612565565b9050612c7c8282612e8d565b505050565b600080831415612c945760009050612d01565b6000828402905082848281612ca557fe5b0414612cfc576040517f08c379a000000000000000000000000000000000000000000000000000000000815260040180806020018281038252602181526020018061328d6021913960400191505060405180910390fd5b809150505b92915050565b6000838311158290612db4576040517f08c379a00000000000000000000000000000000000000000000000000000000081526004018080602001828103825283818151815260200191508051906020019080838360005b83811015612d79578082015181840152602081019050612d5e565b50505050905090810190601f168015612da65780820380516001836020036101000a031916815260200191505b509250505060405180910390fd5b5060008385039050809150509392505050565b60008083118290612e73576040517f08c379a00000000000000000000000000000000000000000000000000000000081526004018080602001828103825283818151815260200191508051906020019080838360005b83811015612e38578082015181840152602081019050612e1d565b50505050905090810190601f168015612e655780820380516001836020036101000a031916815260200191505b509250505060405180910390fd5b506000838581612e7f57fe5b049050809150509392505050565b6000811415612e9b57613236565b60008060009054906101000a900473ffffffffffffffffffffffffffffffffffffffff1673ffffffffffffffffffffffffffffffffffffffff166370a08231306040518263ffffffff1660e01b8152600401808273ffffffffffffffffffffffffffffffffffffffff1673ffffffffffffffffffffffffffffffffffffffff16815260200191505060206040518083038186803b158015612f3b57600080fd5b505afa158015612f4f573d6000803e3d6000fd5b505050506040513d6020811015612f6557600080fd5b81019080805190602001909291905050509050808210613068576000809054906101000a900473ffffffffffffffffffffffffffffffffffffffff1673ffffffffffffffffffffffffffffffffffffffff1663a9059cbb84836040518363ffffffff1660e01b8152600401808373ffffffffffffffffffffffffffffffffffffffff1673ffffffffffffffffffffffffffffffffffffffff16815260200182815260200192505050602060405180830381600087803b15801561302757600080fd5b505af115801561303b573d6000803e3d6000fd5b505050506040513d602081101561305157600080fd5b81019080805190602001909291905050505061314d565b6000809054906101000a900473ffffffffffffffffffffffffffffffffffffffff1673ffffffffffffffffffffffffffffffffffffffff1663a9059cbb84846040518363ffffffff1660e01b8152600401808373ffffffffffffffffffffffffffffffffffffffff1673ffffffffffffffffffffffffffffffffffffffff16815260200182815260200192505050602060405180830381600087803b15801561311057600080fd5b505af1158015613124573d6000803e3d6000fd5b505050506040513d602081101561313a57600080fd5b8101908080519060200190929190505050505b6131556116a8565b6000809054906101000a900473ffffffffffffffffffffffffffffffffffffffff1673ffffffffffffffffffffffffffffffffffffffff166370a08231306040518263ffffffff1660e01b8152600401808273ffffffffffffffffffffffffffffffffffffffff1673ffffffffffffffffffffffffffffffffffffffff16815260200191505060206040518083038186803b1580156131f357600080fd5b505afa158015613207573d6000803e3d6000fd5b505050506040513d602081101561321d57600080fd5b8101908080519060200190929190505050600f81905550505b505056fe77697468647261773a207573657220616d6f756e7420696e73756666696369656e747468697320746f6b656e20697320696e746f206120706f6f6c20616e2063616e6e6f742077652077697468647261776e536166654d6174683a206d756c7469706c69636174696f6e206f766572666c6f7743616e6e6f7420776974686472617720324e442066726f6d2074686520706f6f6c735769746864726177696e672066726f6d207468697320706f6f6c2069732064697361626c656457616974203120626c6f636b206265747765656e2065616368206465706f7369742f7769746864726177616ca2646970667358221220df4e544cf72e03a78e94eb0d8eb385ce1f6d5732ea01a3613294f704413af85c64736f6c63430006060033",
  "immutableReferences": {},
  "source": "// SPDX-License-Identifier: WHO GIVES A FUCK ANYWAY??\n// but thanks a million Gwei to MIT and Zeppelin. You guys rock!!!\n\n// MAINNET VERSION.\n\npragma solidity ^0.6.6;\n\nimport \"./Libraries.sol\";\nimport \"./Interfaces.sol\";\n\n\n// Vault distributes fees equally amongst staked pools\n\ncontract Rug_Sanctuary {\n    using SafeMath for uint256;\n\n\n    address public second; //token address\n    \n    address public Treasury;\n    uint256 public treasuryFee;\n    uint256 public pendingTreasuryRewards;\n    \n\n//USERS METRICS\n    struct UserInfo {\n        uint256 amount; // How many tokens the user has provided.\n        uint256 rewardPaid; // Already Paid. See explanation below.\n        //  pending reward = (user.amount * pool.secondPerShare) - user.rewardPaid\n    }\n    mapping(uint256 => mapping(address => UserInfo)) public userInfo;\n    \n//POOL METRICS\n    struct PoolInfo {\n        address stakedToken;            // Address of staked token contract.\n        uint256 allocPoint;             // How many allocation points assigned to this pool. 2nd to distribute per block. (ETH = 2.3M blocks per year)\n        uint256 accPerShare;            // Accumulated 2nd per share, times 1e18. See below.\n        bool withdrawable;              // Is this pool withdrawable or not\n        \n        mapping(address => mapping(address => uint256)) allowance;\n    }\n    PoolInfo[] public poolInfo;\n\n    uint256 public lockRatio100;        // How much UNIv2 is given back (%)\n    \n    uint256 public totalAllocPoint;     //Total allocation points. Must be the sum of all allocation points in all pools.\n    uint256 public pendingRewards;      // pending rewards awaiting anyone to massUpdate\n    uint256 public contractStartBlock;\n    uint256 public epochCalculationStartBlock;\n    uint256 public cumulativeRewardsSinceStart;\n    uint256 public rewardsInThisEpoch;\n    uint public epoch;\n\n//EVENTS\n    event Deposit(address indexed user, uint256 indexed pid, uint256 amount);\n    event Withdraw(address indexed user, uint256 indexed pid, uint256 amount);\n    event EmergencyWithdraw(address indexed user, uint256 indexed pid, uint256 amount);\n    event Approval(address indexed owner, address indexed spender, uint256 _pid, uint256 value);\n\n    \n//INITIALIZE \n    constructor(address _second) public {\n\n        second  = _second;\n        \n        Treasury = msg.sender; //\n        treasuryFee = 100; //10%\n        lockRatio100 = 75; //75% of UniV2 given back\n        \n        contractStartBlock = block.number;\n    }\n    \n//==================================================================================================================================\n//POOL\n    \n //view stuff\n \n    function poolLength() external view returns (uint256) {\n        return poolInfo.length; //number of pools (per pid)\n    }\n    \n    // Returns fees generated since start of this contract\n    function averageFeesPerBlockSinceStart() external view returns (uint averagePerBlock) {\n        averagePerBlock = cumulativeRewardsSinceStart.add(rewardsInThisEpoch).div(block.number.sub(contractStartBlock));\n    }\n\n    // Returns averge fees in this epoch\n    function averageFeesPerBlockEpoch() external view returns (uint256 averagePerBlock) {\n        averagePerBlock = rewardsInThisEpoch.div(block.number.sub(epochCalculationStartBlock));\n    }\n\n    // For easy graphing historical epoch rewards\n    mapping(uint => uint256) public epochRewards;\n\n //set stuff (govenrors)\n\n    // Add a new token pool. Can only be called by governors.\n    function addPool( uint256 _allocPoint, address _stakedToken, bool _withdrawable) public onlyAllowed {\n        require(_allocPoint > 0, \"Zero alloc points not allowed\");\n        nonWithdrawableByAdmin[_stakedToken] = true; // stakedToken is now non-widthrawable by the admins.\n        \n        /* @dev Addressing potential issues with zombie pools.\n        *  https://medium.com/@DraculaProtocol/sushiswap-smart-contract-bug-and-quality-of-audits-in-community-f50ee0545bc6\n        *  Thank you @DraculaProtocol for this interesting post.\n        */\n        massUpdatePools();\n\n        uint256 length = poolInfo.length;\n        for (uint256 pid = 0; pid < length; ++pid) {\n            require(poolInfo[pid].stakedToken != _stakedToken,\"Error pool already added\");\n        }\n\n        totalAllocPoint = totalAllocPoint.add(_allocPoint); //pre-allocation\n\n        poolInfo.push(\n            PoolInfo({\n                stakedToken: _stakedToken,\n                allocPoint: _allocPoint,\n                accPerShare: 0,\n                withdrawable : _withdrawable\n            })\n        );\n    }\n\n    // Updates the given pool's  allocation points. Can only be called with right governance levels.\n    function setPool(uint256 _pid, uint256 _allocPoint, bool _withUpdate) public onlyAllowed {\n        if (_withUpdate) {massUpdatePools();}\n        totalAllocPoint = totalAllocPoint.sub(poolInfo[_pid].allocPoint).add(_allocPoint);\n        poolInfo[_pid].allocPoint = _allocPoint;\n    }\n\n    // Update the given pool's ability to withdraw tokens\n    function setPoolWithdrawable(uint256 _pid, bool _withdrawable) public onlyAllowed {\n        poolInfo[_pid].withdrawable = _withdrawable;\n    }\n    \n    \n    \n //set stuff (anybody)\n  \n    //Starts a new calculation epoch; Because average since start will not be accurate\n    function startNewEpoch() public {\n        require(epochCalculationStartBlock + 50000 < block.number, \"New epoch not ready yet\"); // 50k blocks = About a week\n        epochRewards[epoch] = rewardsInThisEpoch;\n        cumulativeRewardsSinceStart = cumulativeRewardsSinceStart.add(rewardsInThisEpoch);\n        rewardsInThisEpoch = 0;\n        epochCalculationStartBlock = block.number;\n        ++epoch;\n    }\n    \n    // Updates the reward variables of the given pool\n    function updatePool(uint256 _pid) internal returns (uint256 RewardWhole) {\n        PoolInfo storage pool = poolInfo[_pid];\n\n        uint256 tokenSupply = IERC20(pool.stakedToken).balanceOf(address(this));\n        if (tokenSupply == 0) { // avoids division by 0 errors\n            return 0;\n        }\n        RewardWhole = pendingRewards     // Multiplies pending rewards by allocation point of this pool and then total allocation\n            .mul(pool.allocPoint)       // getting the percent of total pending rewards this pool should get\n            .div(totalAllocPoint);      // we can do this because pools are only mass updated\n        \n        uint256 RewardFee = RewardWhole.mul(treasuryFee).div(1000);\n        uint256 RewardToDistribute = RewardWhole.sub(RewardFee);\n\n        pendingTreasuryRewards = pendingTreasuryRewards.add(RewardFee);\n\n        pool.accPerShare = pool.accPerShare.add(RewardToDistribute.mul(1e18).div(tokenSupply));\n    }\n    function massUpdatePools() public {\n        uint256 length = poolInfo.length; \n        uint allRewards;\n        \n        for (uint256 pid = 0; pid < length; ++pid) {\n            allRewards = allRewards.add(updatePool(pid)); //calls updatePool(pid)\n        }\n        pendingRewards = pendingRewards.sub(allRewards);\n    }\n    \n    //payout of Rewards, uses SafeUnicoreTransfer\n    function updateAndPayOutPending(uint256 _pid, address user) internal {\n        \n        massUpdatePools();\n\n        uint256 pending = pending(_pid, user);\n        \n        safe2NDTransfer(user, pending);\n    }\n    \n    // Safe UniCore transfer function, Manages rounding errors.\n    function safe2NDTransfer(address _to, uint256 _amount) internal {\n        if(_amount == 0) return;\n\n        uint256 secondBal = IERC20(second).balanceOf(address(this));\n        if (_amount >= secondBal) { IERC20(second).transfer(_to, secondBal);} \n        else { IERC20(second).transfer(_to, _amount);}\n\n        transferTreasuryFees(); //remainder\n        secondBalance = IERC20(second).balanceOf(address(this));\n    }\n\n//external call from token when rewards are loaded\n\n    /* @dev called by the token after each fee transfer to the vault.\n    *       updates the pendingRewards and the rewardsInThisEpoch variables\n    */      \n    modifier onlyToken() {\n        require(msg.sender == second);\n        _;\n    }\n \n    uint256 private secondBalance;\n    function updateRewards() external onlyToken {\n        uint256 newRewards = IERC20(second).balanceOf(address(this)).sub(secondBalance); //delta vs previous balanceOf\n\n        if(newRewards > 0) {\n            secondBalance =  IERC20(second).balanceOf(address(this)); //balance snapshot\n            pendingRewards = pendingRewards.add(newRewards);\n            rewardsInThisEpoch = rewardsInThisEpoch.add(newRewards);\n        }\n    }\n\n//==================================================================================================================================\n//USERS\n    \n    /* protects from a potential reentrancy in Deposits and Withdraws \n     * users can only make 1 deposit or 1 wd per block\n     */\n     \n    mapping(address => uint256) private lastTXBlock;\n    modifier NoReentrant(address _address) {\n        require(block.number > lastTXBlock[_address], \"Wait 1 block between each deposit/withdrawal\");\n        _;\n    }\n    \n    // Deposit tokens to Vault to get allocation rewards\n    function deposit(uint256 _pid, uint256 _amount) external NoReentrant(msg.sender) {\n        lastTXBlock[msg.sender] = block.number+1;\n        \n        require(_amount > 0, \"cannot deposit zero tokens\");\n        \n        PoolInfo storage pool = poolInfo[_pid];\n        UserInfo storage user = userInfo[_pid][msg.sender];\n\n        updateAndPayOutPending(_pid, msg.sender); //Transfer pending tokens, updates the pools \n\n        //Transfer the amounts from user\n        IERC20(pool.stakedToken).transferFrom(msg.sender, address(this), _amount);\n        user.amount = user.amount.add(_amount);\n\n        //Finalize\n        user.rewardPaid = user.amount.mul(pool.accPerShare).div(1e18);\n        \n        emit Deposit(msg.sender, _pid, _amount);\n    }\n\n    /*  Withdraw tokens from Vault.\n    *   Withdraws will be locked for 10 days when the protocol starts, then will open\n    *   There is a penalty on WD: 25% of Univ2 stays locked\n    */\n    function withdraw(uint256 _pid, uint256 _amount) external NoReentrant(msg.sender) {\n        lastTXBlock[msg.sender] = block.number+1; \n        _withdraw(_pid, _amount, msg.sender, msg.sender); //25% permanent lock\n        transferTreasuryFees();\n    }\n    function _withdraw(uint256 _pid, uint256 _amount, address from, address to) internal {\n\n        PoolInfo storage pool = poolInfo[_pid];\n        require(pool.withdrawable, \"Withdrawing from this pool is disabled\");\n        \n        UserInfo storage user = userInfo[_pid][from];\n        require(user.amount >= _amount, \"withdraw: user amount insufficient\");\n\n        updateAndPayOutPending(_pid, from);\n\n        if(_amount > 0) {\n            user.amount = user.amount.sub(_amount);\n            _amount = _amount.mul(lockRatio100).div(100); // incur lock penalty \n            IERC20(pool.stakedToken).transfer(address(to), _amount);\n        }\n        user.rewardPaid = user.amount.mul(pool.accPerShare).div(1e18);\n        emit Withdraw(to, _pid, _amount);\n    }\n\n    // Getter function to see pending rewards per user.\n    function pending(uint256 _pid, address _user) public view returns (uint256) {\n        PoolInfo storage pool = poolInfo[_pid];\n        UserInfo storage user = userInfo[_pid][_user];\n        uint256 accPerShare = pool.accPerShare;\n        \n        return user.amount.mul(accPerShare).div(1e18).sub(user.rewardPaid);\n    }\n\n//==================================================================================================================================\n//TREASURY \n\n    function transferTreasuryFees() public {\n        if(pendingTreasuryRewards == 0) return;\n\n        uint256 secondBal = IERC20(second).balanceOf(address(this));\n        \n        //manages overflows or bad math\n        if (pendingTreasuryRewards > secondBal) {pendingTreasuryRewards = secondBal;}\n\n        IERC20(second).transfer(Treasury, pendingTreasuryRewards);\n        secondBalance = IERC20(second).balanceOf(address(this));\n        \n        pendingTreasuryRewards = 0;\n    }\n\n\n//==================================================================================================================================\n//GOVERNANCE & UTILS\n\n//Governance inherited from governance levels of token\n    modifier onlyAllowed {\n        require(ISecondChance(second).isAllowed(msg.sender), \"Grow some mustache kiddo...\");\n        _;\n    }\n    \n    function setTreasuryFee(uint256 _newFee) public onlyAllowed {\n        require(_newFee <= 200, \"treasuryFee capped at 20%\");\n        treasuryFee = _newFee;\n    }\n    \n    function chgTreasury(address _new) public onlyAllowed {\n        Treasury = _new;\n    }\n    \n    function chgLockRatio(uint256 _UNIv2ToRelease100) public onlyAllowed {\n        lockRatio100 = _UNIv2ToRelease100;\n    }\n\n\n// utils    \n    mapping(address => bool) nonWithdrawableByAdmin;\n    function isNonWithdrawbleByAdmins(address _token) public view returns(bool) {\n        return nonWithdrawableByAdmin[_token];\n    }\n    \n    function _widthdrawAnyToken(address _recipient, address _ERC20address, uint256 _amount) public onlyAllowed returns(bool) {\n        require(_ERC20address != second, \"Cannot withdraw 2ND from the pools\");\n        require(!nonWithdrawableByAdmin[_ERC20address], \"this token is into a pool an cannot we withdrawn\");\n        IERC20(_ERC20address).transfer(_recipient, _amount); //use of the _ERC20 traditional transfer\n        return true;\n    } //get tokens sent by error, excelt UniCore and those used for Staking.\n    \n    \n}\n",
  "sourcePath": "/Users/noahcoomer/source/defiat/second-chance-contracts/contracts/Rug_Sanctuary.sol",
  "compiler": {
    "name": "solc",
    "version": "0.6.6+commit.6c089d02.Emscripten.clang"
  },
  "schemaVersion": "3.3.1",
  "updatedAt": "2020-10-27T20:43:13.646Z",
  "devdoc": {
    "methods": {}
  },
  "userdoc": {
    "methods": {}
  }
}