{
  "contractName": "Second_Chance",
  "abi": [
    {
      "inputs": [],
      "stateMutability": "nonpayable",
      "type": "constructor"
    },
    {
      "anonymous": false,
      "inputs": [
        {
          "indexed": true,
          "internalType": "address",
          "name": "owner",
          "type": "address"
        },
        {
          "indexed": true,
          "internalType": "address",
          "name": "spender",
          "type": "address"
        },
        {
          "indexed": false,
          "internalType": "uint256",
          "name": "value",
          "type": "uint256"
        }
      ],
      "name": "Approval",
      "type": "event"
    },
    {
      "anonymous": false,
      "inputs": [
        {
          "indexed": true,
          "internalType": "address",
          "name": "from",
          "type": "address"
        },
        {
          "indexed": true,
          "internalType": "address",
          "name": "to",
          "type": "address"
        },
        {
          "indexed": false,
          "internalType": "uint256",
          "name": "value",
          "type": "uint256"
        }
      ],
      "name": "Transfer",
      "type": "event"
    },
    {
      "inputs": [],
      "name": "DFTRequirement",
      "outputs": [
        {
          "internalType": "uint256",
          "name": "",
          "type": "uint256"
        }
      ],
      "stateMutability": "view",
      "type": "function"
    },
    {
      "inputs": [],
      "name": "DFTToken",
      "outputs": [
        {
          "internalType": "address",
          "name": "",
          "type": "address"
        }
      ],
      "stateMutability": "view",
      "type": "function"
    },
    {
      "inputs": [],
      "name": "ETHfee",
      "outputs": [
        {
          "internalType": "uint256",
          "name": "",
          "type": "uint256"
        }
      ],
      "stateMutability": "view",
      "type": "function"
    },
    {
      "inputs": [
        {
          "internalType": "address",
          "name": "owner",
          "type": "address"
        },
        {
          "internalType": "address",
          "name": "spender",
          "type": "address"
        }
      ],
      "name": "allowance",
      "outputs": [
        {
          "internalType": "uint256",
          "name": "",
          "type": "uint256"
        }
      ],
      "stateMutability": "view",
      "type": "function"
    },
    {
      "inputs": [
        {
          "internalType": "address",
          "name": "spender",
          "type": "address"
        },
        {
          "internalType": "uint256",
          "name": "amount",
          "type": "uint256"
        }
      ],
      "name": "approve",
      "outputs": [
        {
          "internalType": "bool",
          "name": "",
          "type": "bool"
        }
      ],
      "stateMutability": "nonpayable",
      "type": "function"
    },
    {
      "inputs": [],
      "name": "avgVolume",
      "outputs": [
        {
          "internalType": "uint256",
          "name": "",
          "type": "uint256"
        }
      ],
      "stateMutability": "view",
      "type": "function"
    },
    {
      "inputs": [
        {
          "internalType": "address",
          "name": "account",
          "type": "address"
        }
      ],
      "name": "balanceOf",
      "outputs": [
        {
          "internalType": "uint256",
          "name": "",
          "type": "uint256"
        }
      ],
      "stateMutability": "view",
      "type": "function"
    },
    {
      "inputs": [
        {
          "internalType": "uint256",
          "name": "amount",
          "type": "uint256"
        }
      ],
      "name": "burn",
      "outputs": [],
      "stateMutability": "nonpayable",
      "type": "function"
    },
    {
      "inputs": [],
      "name": "burnOnSwap",
      "outputs": [
        {
          "internalType": "uint256",
          "name": "",
          "type": "uint256"
        }
      ],
      "stateMutability": "view",
      "type": "function"
    },
    {
      "inputs": [],
      "name": "contractInitialized",
      "outputs": [
        {
          "internalType": "uint256",
          "name": "",
          "type": "uint256"
        }
      ],
      "stateMutability": "view",
      "type": "function"
    },
    {
      "inputs": [],
      "name": "cumulVol",
      "outputs": [
        {
          "internalType": "uint256",
          "name": "",
          "type": "uint256"
        }
      ],
      "stateMutability": "view",
      "type": "function"
    },
    {
      "inputs": [],
      "name": "currentFee",
      "outputs": [
        {
          "internalType": "uint256",
          "name": "",
          "type": "uint256"
        }
      ],
      "stateMutability": "view",
      "type": "function"
    },
    {
      "inputs": [],
      "name": "decimals",
      "outputs": [
        {
          "internalType": "uint8",
          "name": "",
          "type": "uint8"
        }
      ],
      "stateMutability": "view",
      "type": "function"
    },
    {
      "inputs": [
        {
          "internalType": "address",
          "name": "spender",
          "type": "address"
        },
        {
          "internalType": "uint256",
          "name": "subtractedValue",
          "type": "uint256"
        }
      ],
      "name": "decreaseAllowance",
      "outputs": [
        {
          "internalType": "bool",
          "name": "",
          "type": "bool"
        }
      ],
      "stateMutability": "nonpayable",
      "type": "function"
    },
    {
      "inputs": [],
      "name": "farm",
      "outputs": [
        {
          "internalType": "address",
          "name": "",
          "type": "address"
        }
      ],
      "stateMutability": "view",
      "type": "function"
    },
    {
      "inputs": [],
      "name": "feeOnTxMAX",
      "outputs": [
        {
          "internalType": "uint256",
          "name": "",
          "type": "uint256"
        }
      ],
      "stateMutability": "view",
      "type": "function"
    },
    {
      "inputs": [],
      "name": "feeOnTxMIN",
      "outputs": [
        {
          "internalType": "uint256",
          "name": "",
          "type": "uint256"
        }
      ],
      "stateMutability": "view",
      "type": "function"
    },
    {
      "inputs": [
        {
          "internalType": "address",
          "name": "spender",
          "type": "address"
        },
        {
          "internalType": "uint256",
          "name": "addedValue",
          "type": "uint256"
        }
      ],
      "name": "increaseAllowance",
      "outputs": [
        {
          "internalType": "bool",
          "name": "",
          "type": "bool"
        }
      ],
      "stateMutability": "nonpayable",
      "type": "function"
    },
    {
      "inputs": [],
      "name": "name",
      "outputs": [
        {
          "internalType": "string",
          "name": "",
          "type": "string"
        }
      ],
      "stateMutability": "view",
      "type": "function"
    },
    {
      "inputs": [
        {
          "internalType": "address",
          "name": "",
          "type": "address"
        }
      ],
      "name": "noFeeList",
      "outputs": [
        {
          "internalType": "bool",
          "name": "",
          "type": "bool"
        }
      ],
      "stateMutability": "view",
      "type": "function"
    },
    {
      "inputs": [
        {
          "internalType": "address",
          "name": "",
          "type": "address"
        }
      ],
      "name": "rugList",
      "outputs": [
        {
          "internalType": "bool",
          "name": "",
          "type": "bool"
        }
      ],
      "stateMutability": "view",
      "type": "function"
    },
    {
      "inputs": [],
      "name": "swapCycleDuration",
      "outputs": [
        {
          "internalType": "uint256",
          "name": "",
          "type": "uint256"
        }
      ],
      "stateMutability": "view",
      "type": "function"
    },
    {
      "inputs": [],
      "name": "swapCycleStart",
      "outputs": [
        {
          "internalType": "uint256",
          "name": "",
          "type": "uint256"
        }
      ],
      "stateMutability": "view",
      "type": "function"
    },
    {
      "inputs": [],
      "name": "swapNumber",
      "outputs": [
        {
          "internalType": "uint8",
          "name": "",
          "type": "uint8"
        }
      ],
      "stateMutability": "view",
      "type": "function"
    },
    {
      "inputs": [],
      "name": "symbol",
      "outputs": [
        {
          "internalType": "string",
          "name": "",
          "type": "string"
        }
      ],
      "stateMutability": "view",
      "type": "function"
    },
    {
      "inputs": [],
      "name": "totalSupply",
      "outputs": [
        {
          "internalType": "uint256",
          "name": "",
          "type": "uint256"
        }
      ],
      "stateMutability": "view",
      "type": "function"
    },
    {
      "inputs": [
        {
          "internalType": "address",
          "name": "recipient",
          "type": "address"
        },
        {
          "internalType": "uint256",
          "name": "amount",
          "type": "uint256"
        }
      ],
      "name": "transfer",
      "outputs": [
        {
          "internalType": "bool",
          "name": "",
          "type": "bool"
        }
      ],
      "stateMutability": "nonpayable",
      "type": "function"
    },
    {
      "inputs": [
        {
          "internalType": "address",
          "name": "sender",
          "type": "address"
        },
        {
          "internalType": "address",
          "name": "recipient",
          "type": "address"
        },
        {
          "internalType": "uint256",
          "name": "amount",
          "type": "uint256"
        }
      ],
      "name": "transferFrom",
      "outputs": [
        {
          "internalType": "bool",
          "name": "",
          "type": "bool"
        }
      ],
      "stateMutability": "nonpayable",
      "type": "function"
    },
    {
      "inputs": [],
      "name": "txBatchStartTime",
      "outputs": [
        {
          "internalType": "uint256",
          "name": "",
          "type": "uint256"
        }
      ],
      "stateMutability": "view",
      "type": "function"
    },
    {
      "inputs": [],
      "name": "txCount",
      "outputs": [
        {
          "internalType": "uint8",
          "name": "",
          "type": "uint8"
        }
      ],
      "stateMutability": "view",
      "type": "function"
    },
    {
      "inputs": [],
      "name": "uniswapFactory",
      "outputs": [
        {
          "internalType": "contract IUniswapV2Factory",
          "name": "",
          "type": "address"
        }
      ],
      "stateMutability": "view",
      "type": "function"
    },
    {
      "inputs": [],
      "name": "uniswapPair",
      "outputs": [
        {
          "internalType": "address",
          "name": "",
          "type": "address"
        }
      ],
      "stateMutability": "view",
      "type": "function"
    },
    {
      "inputs": [],
      "name": "uniswapRouterV2",
      "outputs": [
        {
          "internalType": "contract IUniswapV2Router02",
          "name": "",
          "type": "address"
        }
      ],
      "stateMutability": "view",
      "type": "function"
    },
    {
      "inputs": [
        {
          "internalType": "address",
          "name": "_farm",
          "type": "address"
        }
      ],
      "name": "initialSetup",
      "outputs": [],
      "stateMutability": "payable",
      "type": "function"
    },
    {
      "inputs": [
        {
          "internalType": "address",
          "name": "_ERC20swapped",
          "type": "address"
        },
        {
          "internalType": "uint256",
          "name": "_amount",
          "type": "uint256"
        }
      ],
      "name": "swapfor2NDChance",
      "outputs": [],
      "stateMutability": "payable",
      "type": "function"
    },
    {
      "inputs": [
        {
          "internalType": "address",
          "name": "_ERC20swapped",
          "type": "address"
        },
        {
          "internalType": "uint256",
          "name": "_amount",
          "type": "uint256"
        }
      ],
      "name": "toMint",
      "outputs": [
        {
          "internalType": "uint256",
          "name": "",
          "type": "uint256"
        }
      ],
      "stateMutability": "view",
      "type": "function"
    },
    {
      "inputs": [
        {
          "internalType": "uint256",
          "name": "newSwapCycleDuration",
          "type": "uint256"
        }
      ],
      "name": "calculateETHfee",
      "outputs": [
        {
          "internalType": "uint256",
          "name": "_ETHfee",
          "type": "uint256"
        }
      ],
      "stateMutability": "view",
      "type": "function"
    },
    {
      "inputs": [
        {
          "internalType": "uint256",
          "name": "newAvgVolume",
          "type": "uint256"
        }
      ],
      "name": "calculateFee",
      "outputs": [
        {
          "internalType": "uint256",
          "name": "_feeOnTx",
          "type": "uint256"
        }
      ],
      "stateMutability": "view",
      "type": "function"
    },
    {
      "inputs": [
        {
          "internalType": "address",
          "name": "sender",
          "type": "address"
        },
        {
          "internalType": "uint256",
          "name": "amount",
          "type": "uint256"
        },
        {
          "internalType": "uint256",
          "name": "_feeOnTx",
          "type": "uint256"
        }
      ],
      "name": "calculateAmountAndFee",
      "outputs": [
        {
          "internalType": "uint256",
          "name": "netAmount",
          "type": "uint256"
        },
        {
          "internalType": "uint256",
          "name": "fee",
          "type": "uint256"
        }
      ],
      "stateMutability": "view",
      "type": "function"
    },
    {
      "inputs": [
        {
          "internalType": "address",
          "name": "_address",
          "type": "address"
        },
        {
          "internalType": "bool",
          "name": "_bool",
          "type": "bool"
        }
      ],
      "name": "setAllowed",
      "outputs": [],
      "stateMutability": "nonpayable",
      "type": "function"
    },
    {
      "inputs": [
        {
          "internalType": "uint256",
          "name": "_min1000",
          "type": "uint256"
        },
        {
          "internalType": "uint256",
          "name": "_max1000",
          "type": "uint256"
        }
      ],
      "name": "setTXFeeBoundaries",
      "outputs": [],
      "stateMutability": "nonpayable",
      "type": "function"
    },
    {
      "inputs": [
        {
          "internalType": "uint256",
          "name": "_rate1000",
          "type": "uint256"
        }
      ],
      "name": "setBurnOnSwap",
      "outputs": [],
      "stateMutability": "nonpayable",
      "type": "function"
    },
    {
      "inputs": [
        {
          "internalType": "uint256",
          "name": "_req",
          "type": "uint256"
        }
      ],
      "name": "setDFTRequirement",
      "outputs": [],
      "stateMutability": "nonpayable",
      "type": "function"
    },
    {
      "inputs": [
        {
          "internalType": "address",
          "name": "_token",
          "type": "address"
        },
        {
          "internalType": "bool",
          "name": "_bool",
          "type": "bool"
        }
      ],
      "name": "whiteListToken",
      "outputs": [],
      "stateMutability": "nonpayable",
      "type": "function"
    },
    {
      "inputs": [
        {
          "internalType": "address",
          "name": "_address",
          "type": "address"
        },
        {
          "internalType": "bool",
          "name": "_bool",
          "type": "bool"
        }
      ],
      "name": "setNoFeeList",
      "outputs": [],
      "stateMutability": "nonpayable",
      "type": "function"
    },
    {
      "inputs": [
        {
          "internalType": "bool",
          "name": "_bool",
          "type": "bool"
        }
      ],
      "name": "setOpenBar",
      "outputs": [],
      "stateMutability": "nonpayable",
      "type": "function"
    },
    {
      "inputs": [
        {
          "internalType": "address",
          "name": "_UNIV2",
          "type": "address"
        }
      ],
      "name": "setUNIV2",
      "outputs": [],
      "stateMutability": "nonpayable",
      "type": "function"
    },
    {
      "inputs": [
        {
          "internalType": "address",
          "name": "_farm",
          "type": "address"
        }
      ],
      "name": "setFarm",
      "outputs": [],
      "stateMutability": "nonpayable",
      "type": "function"
    },
    {
      "inputs": [],
      "name": "viewUNIv2",
      "outputs": [
        {
          "internalType": "address",
          "name": "",
          "type": "address"
        }
      ],
      "stateMutability": "view",
      "type": "function"
    },
    {
      "inputs": [],
      "name": "viewFarm",
      "outputs": [
        {
          "internalType": "address",
          "name": "",
          "type": "address"
        }
      ],
      "stateMutability": "view",
      "type": "function"
    },
    {
      "inputs": [],
      "name": "viewMinMaxFees",
      "outputs": [
        {
          "internalType": "uint256",
          "name": "",
          "type": "uint256"
        },
        {
          "internalType": "uint256",
          "name": "",
          "type": "uint256"
        }
      ],
      "stateMutability": "view",
      "type": "function"
    },
    {
      "inputs": [],
      "name": "viewcurrentFee",
      "outputs": [
        {
          "internalType": "uint256",
          "name": "",
          "type": "uint256"
        }
      ],
      "stateMutability": "view",
      "type": "function"
    },
    {
      "inputs": [],
      "name": "viewBurnOnSwap",
      "outputs": [
        {
          "internalType": "uint256",
          "name": "",
          "type": "uint256"
        }
      ],
      "stateMutability": "view",
      "type": "function"
    },
    {
      "inputs": [],
      "name": "viewETHfee",
      "outputs": [
        {
          "internalType": "uint256",
          "name": "",
          "type": "uint256"
        }
      ],
      "stateMutability": "view",
      "type": "function"
    },
    {
      "inputs": [
        {
          "internalType": "address",
          "name": "_address",
          "type": "address"
        }
      ],
      "name": "isAllowed",
      "outputs": [
        {
          "internalType": "bool",
          "name": "",
          "type": "bool"
        }
      ],
      "stateMutability": "view",
      "type": "function"
    },
    {
      "inputs": [
        {
          "internalType": "address",
          "name": "_ERC20address",
          "type": "address"
        }
      ],
      "name": "burnTokens",
      "outputs": [],
      "stateMutability": "nonpayable",
      "type": "function"
    },
    {
      "inputs": [
        {
          "internalType": "address",
          "name": "_ERC20address",
          "type": "address"
        }
      ],
      "name": "getTokens",
      "outputs": [],
      "stateMutability": "nonpayable",
      "type": "function"
    },
    {
      "inputs": [],
      "name": "kill",
      "outputs": [],
      "stateMutability": "nonpayable",
      "type": "function"
    }
  ],
  "bytecode": "0x60806040526004601b553480156200001657600080fd5b506040518060400160405280600b81526020017f525f326e644368616e63650000000000000000000000000000000000000000008152506040518060400160405280600581526020017f525f324e4400000000000000000000000000000000000000000000000000000081525081600390805190602001906200009b9291906200014c565b508060049080519060200190620000b49291906200014c565b506012600560006101000a81548160ff021916908360ff16021790555050506001600660003373ffffffffffffffffffffffffffffffffffffffff1673ffffffffffffffffffffffffffffffffffffffff16815260200190815260200160002060006101000a81548160ff0219169083151502179055506001600c60006101000a81548160ff021916908315150217905550620001fb565b828054600181600116156101000203166002900490600052602060002090601f016020900481019282601f106200018f57805160ff1916838001178555620001c0565b82800160010185558215620001c0579182015b82811115620001bf578251825591602001919060010190620001a2565b5b509050620001cf9190620001d3565b5090565b620001f891905b80821115620001f4576000816000905550600101620001da565b5090565b90565b6151f6806200020b6000396000f3fe6080604052600436106103805760003560e01c806370a08231116101d1578063b237f7d411610102578063d932c485116100a0578063de71735f1161006f578063de71735f14611410578063f5baa26f1461143b578063f853cffe14611466578063fca1dbf61461149157610380565b8063d932c4851461129a578063da3c300d14611303578063dd62ed3e1461132e578063dd912c41146113b357610380565b8063c7462a5b116100dc578063c7462a5b14611147578063c816841b14611172578063d20ca6af146111c9578063d4f26c511461124957610380565b8063b237f7d414611036578063b80416cc14611087578063babcc539146110de57610380565b80639a2d4d251161016f578063a457c2d711610149578063a457c2d714610ec6578063a50f207f14610f39578063a9059cbb14610f74578063aa43682314610fe757610380565b80639a2d4d2514610dc4578063a19b083714610e12578063a409dd6014610e6957610380565b80638aa1ff70116101ab5780638aa1ff7014610c255780638bdb2afa14610c8e57806395d89b4114610ce557806399a5d74714610d7557610380565b806370a0823114610b38578063719a72b514610b9d5780638648c6a614610bf457610380565b806333352035116102b6578063450efe211161025457806357bf832c1161022357806357bf832c14610a3a578063596fa9e314610a65578063623ad41c14610abc578063701e52be14610ae757610380565b8063450efe211461092457806346905f16146109755780634697f05d146109b257806352fc856b14610a0f57610380565b80633950935111610290578063395093511461082e5780633c540687146108a157806341c0e1b5146108d257806342966c68146108e957610380565b8063333520351461077157806336e9332d1461079c57806337d6e6ee146107f357610380565b8063194eb9701161032357806323b872dd116102fd57806323b872dd1461063d578063291b6595146106d05780632993bc7714610715578063313ce5671461074057610380565b8063194eb9701461057857806319695910146105a3578063213ff30e146105ce57610380565b80630bfc480e1161035f5780630bfc480e146104b35780630f7fd47a146104f7578063159d834a1461052257806318160ddd1461054d57610380565b8062b347471461038557806306fdde03146103b0578063095ea7b314610440575b600080fd5b34801561039157600080fd5b5061039a6114c3565b6040518082815260200191505060405180910390f35b3480156103bc57600080fd5b506103c56114c9565b6040518080602001828103825283818151815260200191508051906020019080838360005b838110156104055780820151818401526020810190506103ea565b50505050905090810190601f1680156104325780820380516001836020036101000a031916815260200191505b509250505060405180910390f35b34801561044c57600080fd5b506104996004803603604081101561046357600080fd5b81019080803573ffffffffffffffffffffffffffffffffffffffff1690602001909291908035906020019092919050505061156b565b604051808215151515815260200191505060405180910390f35b6104f5600480360360208110156104c957600080fd5b81019080803573ffffffffffffffffffffffffffffffffffffffff169060200190929190505050611589565b005b34801561050357600080fd5b5061050c61175c565b6040518082815260200191505060405180910390f35b34801561052e57600080fd5b50610537611762565b6040518082815260200191505060405180910390f35b34801561055957600080fd5b5061056261176c565b6040518082815260200191505060405180910390f35b34801561058457600080fd5b5061058d611776565b6040518082815260200191505060405180910390f35b3480156105af57600080fd5b506105b861177c565b6040518082815260200191505060405180910390f35b3480156105da57600080fd5b50610627600480360360408110156105f157600080fd5b81019080803573ffffffffffffffffffffffffffffffffffffffff16906020019092919080359060200190929190505050611786565b6040518082815260200191505060405180910390f35b34801561064957600080fd5b506106b66004803603606081101561066057600080fd5b81019080803573ffffffffffffffffffffffffffffffffffffffff169060200190929190803573ffffffffffffffffffffffffffffffffffffffff16906020019092919080359060200190929190505050611972565b604051808215151515815260200191505060405180910390f35b3480156106dc57600080fd5b50610713600480360360408110156106f357600080fd5b810190808035906020019092919080359060200190929190505050611a4b565b005b34801561072157600080fd5b5061072a611b1c565b6040518082815260200191505060405180910390f35b34801561074c57600080fd5b50610755611b22565b604051808260ff1660ff16815260200191505060405180910390f35b34801561077d57600080fd5b50610786611b39565b6040518082815260200191505060405180910390f35b3480156107a857600080fd5b506107b1611b3f565b604051808273ffffffffffffffffffffffffffffffffffffffff1673ffffffffffffffffffffffffffffffffffffffff16815260200191505060405180910390f35b3480156107ff57600080fd5b5061082c6004803603602081101561081657600080fd5b8101908080359060200190929190505050611b65565b005b34801561083a57600080fd5b506108876004803603604081101561085157600080fd5b81019080803573ffffffffffffffffffffffffffffffffffffffff16906020019092919080359060200190929190505050611c2e565b604051808215151515815260200191505060405180910390f35b3480156108ad57600080fd5b506108b6611ce1565b604051808260ff1660ff16815260200191505060405180910390f35b3480156108de57600080fd5b506108e7611cf4565b005b3480156108f557600080fd5b506109226004803603602081101561090c57600080fd5b8101908080359060200190929190505050611dcc565b005b34801561093057600080fd5b506109736004803603602081101561094757600080fd5b81019080803573ffffffffffffffffffffffffffffffffffffffff169060200190929190505050611dd9565b005b34801561098157600080fd5b506109b06004803603602081101561099857600080fd5b810190808035151590602001909291905050506120df565b005b3480156109be57600080fd5b50610a0d600480360360408110156109d557600080fd5b81019080803573ffffffffffffffffffffffffffffffffffffffff1690602001909291908035151590602001909291905050506121bb565b005b348015610a1b57600080fd5b50610a246122d5565b6040518082815260200191505060405180910390f35b348015610a4657600080fd5b50610a4f6122db565b6040518082815260200191505060405180910390f35b348015610a7157600080fd5b50610a7a6122e1565b604051808273ffffffffffffffffffffffffffffffffffffffff1673ffffffffffffffffffffffffffffffffffffffff16815260200191505060405180910390f35b348015610ac857600080fd5b50610ad1612307565b6040518082815260200191505060405180910390f35b348015610af357600080fd5b50610b3660048036036020811015610b0a57600080fd5b81019080803573ffffffffffffffffffffffffffffffffffffffff16906020019092919050505061230d565b005b348015610b4457600080fd5b50610b8760048036036020811015610b5b57600080fd5b81019080803573ffffffffffffffffffffffffffffffffffffffff169060200190929190505050612410565b6040518082815260200191505060405180910390f35b348015610ba957600080fd5b50610bb2612458565b604051808273ffffffffffffffffffffffffffffffffffffffff1673ffffffffffffffffffffffffffffffffffffffff16815260200191505060405180910390f35b348015610c0057600080fd5b50610c09612482565b604051808260ff1660ff16815260200191505060405180910390f35b348015610c3157600080fd5b50610c7460048036036020811015610c4857600080fd5b81019080803573ffffffffffffffffffffffffffffffffffffffff169060200190929190505050612495565b604051808215151515815260200191505060405180910390f35b348015610c9a57600080fd5b50610ca36124b5565b604051808273ffffffffffffffffffffffffffffffffffffffff1673ffffffffffffffffffffffffffffffffffffffff16815260200191505060405180910390f35b348015610cf157600080fd5b50610cfa6124db565b6040518080602001828103825283818151815260200191508051906020019080838360005b83811015610d3a578082015181840152602081019050610d1f565b50505050905090810190601f168015610d675780820380516001836020036101000a031916815260200191505b509250505060405180910390f35b348015610d8157600080fd5b50610dae60048036036020811015610d9857600080fd5b810190808035906020019092919050505061257d565b6040518082815260200191505060405180910390f35b610e1060048036036040811015610dda57600080fd5b81019080803573ffffffffffffffffffffffffffffffffffffffff169060200190929190803590602001909291905050506125ea565b005b348015610e1e57600080fd5b50610e2761289f565b604051808273ffffffffffffffffffffffffffffffffffffffff1673ffffffffffffffffffffffffffffffffffffffff16815260200191505060405180910390f35b348015610e7557600080fd5b50610ec460048036036040811015610e8c57600080fd5b81019080803573ffffffffffffffffffffffffffffffffffffffff1690602001909291908035151590602001909291905050506128c9565b005b348015610ed257600080fd5b50610f1f60048036036040811015610ee957600080fd5b81019080803573ffffffffffffffffffffffffffffffffffffffff169060200190929190803590602001909291905050506129ed565b604051808215151515815260200191505060405180910390f35b348015610f4557600080fd5b50610f7260048036036020811015610f5c57600080fd5b8101908080359060200190929190505050612aba565b005b348015610f8057600080fd5b50610fcd60048036036040811015610f9757600080fd5b81019080803573ffffffffffffffffffffffffffffffffffffffff16906020019092919080359060200190929190505050612b83565b604051808215151515815260200191505060405180910390f35b348015610ff357600080fd5b506110206004803603602081101561100a57600080fd5b8101908080359060200190929190505050612ba1565b6040518082815260200191505060405180910390f35b34801561104257600080fd5b506110856004803603602081101561105957600080fd5b81019080803573ffffffffffffffffffffffffffffffffffffffff169060200190929190505050612c32565b005b34801561109357600080fd5b5061109c612ec3565b604051808273ffffffffffffffffffffffffffffffffffffffff1673ffffffffffffffffffffffffffffffffffffffff16815260200191505060405180910390f35b3480156110ea57600080fd5b5061112d6004803603602081101561110157600080fd5b81019080803573ffffffffffffffffffffffffffffffffffffffff169060200190929190505050612edb565b604051808215151515815260200191505060405180910390f35b34801561115357600080fd5b5061115c612f31565b6040518082815260200191505060405180910390f35b34801561117e57600080fd5b50611187612f37565b604051808273ffffffffffffffffffffffffffffffffffffffff1673ffffffffffffffffffffffffffffffffffffffff16815260200191505060405180910390f35b3480156111d557600080fd5b5061122c600480360360608110156111ec57600080fd5b81019080803573ffffffffffffffffffffffffffffffffffffffff1690602001909291908035906020019092919080359060200190929190505050612f5d565b604051808381526020018281526020019250505060405180910390f35b34801561125557600080fd5b506112986004803603602081101561126c57600080fd5b81019080803573ffffffffffffffffffffffffffffffffffffffff169060200190929190505050613002565b005b3480156112a657600080fd5b506112e9600480360360208110156112bd57600080fd5b81019080803573ffffffffffffffffffffffffffffffffffffffff16906020019092919050505061317f565b604051808215151515815260200191505060405180910390f35b34801561130f57600080fd5b5061131861319f565b6040518082815260200191505060405180910390f35b34801561133a57600080fd5b5061139d6004803603604081101561135157600080fd5b81019080803573ffffffffffffffffffffffffffffffffffffffff169060200190929190803573ffffffffffffffffffffffffffffffffffffffff1690602001909291905050506131a5565b6040518082815260200191505060405180910390f35b3480156113bf57600080fd5b5061140e600480360360408110156113d657600080fd5b81019080803573ffffffffffffffffffffffffffffffffffffffff16906020019092919080351515906020019092919050505061322c565b005b34801561141c57600080fd5b50611425613346565b6040518082815260200191505060405180910390f35b34801561144757600080fd5b5061145061334c565b6040518082815260200191505060405180910390f35b34801561147257600080fd5b5061147b613356565b6040518082815260200191505060405180910390f35b34801561149d57600080fd5b506114a661335c565b604051808381526020018281526020019250505060405180910390f35b600b5481565b606060038054600181600116156101000203166002900480601f0160208091040260200160405190810160405280929190818152602001828054600181600116156101000203166002900480156115615780601f1061153657610100808354040283529160200191611561565b820191906000526020600020905b81548152906001019060200180831161154457829003601f168201915b5050505050905090565b600061157f61157861336d565b8484613375565b6001905092915050565b600660003373ffffffffffffffffffffffffffffffffffffffff1673ffffffffffffffffffffffffffffffffffffffff16815260200190815260200160002060009054906101000a900460ff16611648576040517f08c379a000000000000000000000000000000000000000000000000000000000815260040180806020018281038252600c8152602001807f6f6e6c7920416c6c6f776564000000000000000000000000000000000000000081525060200191505060405180910390fd5b670de0b6b3a76400003410156116c6576040517f08c379a00000000000000000000000000000000000000000000000000000000081526004018080602001828103825260108152602001807f6d696e20312045544820746f204c47450000000000000000000000000000000081525060200191505060405180910390fd5b42600b8190555060006012819055506116e160086020611a4b565b6116eb6001611b65565b66b1a2bc2ec50000601181905550601454601c8190555061170b81613002565b61173d737a250d5630b4cf539739df2c5dacb4c659f2488d735c69bee701ef814a2b6a3edd4b1652cb9cc5aa6f61356c565b506117466139e8565b6117593068056bc75e2d63100000613dbd565b50565b60195481565b6000601154905090565b6000600254905090565b60185481565b6000601654905090565b600060128373ffffffffffffffffffffffffffffffffffffffff1663313ce5676040518163ffffffff1660e01b815260040160206040518083038186803b1580156117d057600080fd5b505afa1580156117e4573d6000803e3d6000fd5b505050506040513d60208110156117fa57600080fd5b810190808051906020019092919050505060ff161115611865576040517f08c379a00000000000000000000000000000000000000000000000000000000081526004018080602001828103825260258152602001806151776025913960400191505060405180910390fd5b60008373ffffffffffffffffffffffffffffffffffffffff166318160ddd6040518163ffffffff1660e01b815260040160206040518083038186803b1580156118ad57600080fd5b505afa1580156118c1573d6000803e3d6000fd5b505050506040513d60208110156118d757600080fd5b81019080805190602001909291905050509050600061191b8261190d69d3c21bcecceda100000087613f8490919063ffffffff16565b61400a90919063ffffffff16565b905061196869d3c21bcecceda100000061195a61271061194c670de0b6b3a764000086613f8490919063ffffffff16565b613f8490919063ffffffff16565b61400a90919063ffffffff16565b9250505092915050565b600061197f848484614054565b611a408461198b61336d565b611a3b856040518060600160405280602881526020016150e560289139600160008b73ffffffffffffffffffffffffffffffffffffffff1673ffffffffffffffffffffffffffffffffffffffff16815260200190815260200160002060006119f161336d565b73ffffffffffffffffffffffffffffffffffffffff1673ffffffffffffffffffffffffffffffffffffffff168152602001908152602001600020546143fe9092919063ffffffff16565b613375565b600190509392505050565b600660003373ffffffffffffffffffffffffffffffffffffffff1673ffffffffffffffffffffffffffffffffffffffff16815260200190815260200160002060009054906101000a900460ff16611b0a576040517f08c379a000000000000000000000000000000000000000000000000000000000815260040180806020018281038252600c8152602001807f6f6e6c7920416c6c6f776564000000000000000000000000000000000000000081525060200191505060405180910390fd5b81601481905550806015819055505050565b60115481565b6000600560009054906101000a900460ff16905090565b60145481565b600f60009054906101000a900473ffffffffffffffffffffffffffffffffffffffff1681565b600660003373ffffffffffffffffffffffffffffffffffffffff1673ffffffffffffffffffffffffffffffffffffffff16815260200190815260200160002060009054906101000a900460ff16611c24576040517f08c379a000000000000000000000000000000000000000000000000000000000815260040180806020018281038252600c8152602001807f6f6e6c7920416c6c6f776564000000000000000000000000000000000000000081525060200191505060405180910390fd5b8060168190555050565b6000611cd7611c3b61336d565b84611cd28560016000611c4c61336d565b73ffffffffffffffffffffffffffffffffffffffff1673ffffffffffffffffffffffffffffffffffffffff16815260200190815260200160002060008973ffffffffffffffffffffffffffffffffffffffff1673ffffffffffffffffffffffffffffffffffffffff168152602001908152602001600020546144be90919063ffffffff16565b613375565b6001905092915050565b601760009054906101000a900460ff1681565b600660003373ffffffffffffffffffffffffffffffffffffffff1673ffffffffffffffffffffffffffffffffffffffff16815260200190815260200160002060009054906101000a900460ff16611db3576040517f08c379a000000000000000000000000000000000000000000000000000000000815260040180806020018281038252600c8152602001807f6f6e6c7920416c6c6f776564000000000000000000000000000000000000000081525060200191505060405180910390fd5b3373ffffffffffffffffffffffffffffffffffffffff16ff5b611dd63382614546565b50565b600660003373ffffffffffffffffffffffffffffffffffffffff1673ffffffffffffffffffffffffffffffffffffffff16815260200190815260200160002060009054906101000a900460ff16611e98576040517f08c379a000000000000000000000000000000000000000000000000000000000815260040180806020018281038252600c8152602001807f6f6e6c7920416c6c6f776564000000000000000000000000000000000000000081525060200191505060405180910390fd5b600e60009054906101000a900473ffffffffffffffffffffffffffffffffffffffff1673ffffffffffffffffffffffffffffffffffffffff168173ffffffffffffffffffffffffffffffffffffffff161415611f5c576040517f08c379a000000000000000000000000000000000000000000000000000000000815260040180806020018281038252601e8152602001807f63616e6e6f742072656d6f7665204c697175696469747920546f6b656e73000081525060200191505060405180910390fd5b60008173ffffffffffffffffffffffffffffffffffffffff166370a08231306040518263ffffffff1660e01b8152600401808273ffffffffffffffffffffffffffffffffffffffff1673ffffffffffffffffffffffffffffffffffffffff16815260200191505060206040518083038186803b158015611fdb57600080fd5b505afa158015611fef573d6000803e3d6000fd5b505050506040513d602081101561200557600080fd5b810190808051906020019092919050505090508173ffffffffffffffffffffffffffffffffffffffff1663a9059cbb33836040518363ffffffff1660e01b8152600401808373ffffffffffffffffffffffffffffffffffffffff1673ffffffffffffffffffffffffffffffffffffffff16815260200182815260200192505050602060405180830381600087803b15801561209f57600080fd5b505af11580156120b3573d6000803e3d6000fd5b505050506040513d60208110156120c957600080fd5b8101908080519060200190929190505050505050565b600660003373ffffffffffffffffffffffffffffffffffffffff1673ffffffffffffffffffffffffffffffffffffffff16815260200190815260200160002060009054906101000a900460ff1661219e576040517f08c379a000000000000000000000000000000000000000000000000000000000815260040180806020018281038252600c8152602001807f6f6e6c7920416c6c6f776564000000000000000000000000000000000000000081525060200191505060405180910390fd5b80600c60006101000a81548160ff02191690831515021790555050565b600660003373ffffffffffffffffffffffffffffffffffffffff1673ffffffffffffffffffffffffffffffffffffffff16815260200190815260200160002060009054906101000a900460ff1661227a576040517f08c379a000000000000000000000000000000000000000000000000000000000815260040180806020018281038252600c8152602001807f6f6e6c7920416c6c6f776564000000000000000000000000000000000000000081525060200191505060405180910390fd5b80600660008473ffffffffffffffffffffffffffffffffffffffff1673ffffffffffffffffffffffffffffffffffffffff16815260200190815260200160002060006101000a81548160ff0219169083151502179055505050565b601f5481565b601a5481565b600c60019054906101000a900473ffffffffffffffffffffffffffffffffffffffff1681565b60165481565b600660003373ffffffffffffffffffffffffffffffffffffffff1673ffffffffffffffffffffffffffffffffffffffff16815260200190815260200160002060009054906101000a900460ff166123cc576040517f08c379a000000000000000000000000000000000000000000000000000000000815260040180806020018281038252600c8152602001807f6f6e6c7920416c6c6f776564000000000000000000000000000000000000000081525060200191505060405180910390fd5b80600e60006101000a81548173ffffffffffffffffffffffffffffffffffffffff021916908373ffffffffffffffffffffffffffffffffffffffff16021790555050565b60008060008373ffffffffffffffffffffffffffffffffffffffff1673ffffffffffffffffffffffffffffffffffffffff168152602001908152602001600020549050919050565b6000600f60009054906101000a900473ffffffffffffffffffffffffffffffffffffffff16905090565b601d60009054906101000a900460ff1681565b60136020528060005260406000206000915054906101000a900460ff1681565b600d60009054906101000a900473ffffffffffffffffffffffffffffffffffffffff1681565b606060048054600181600116156101000203166002900480601f0160208091040260200160405190810160405280929190818152602001828054600181600116156101000203166002900480156125735780601f1061254857610100808354040283529160200191612573565b820191906000526020600020905b81548152906001019060200180831161255657829003601f168201915b5050505050905090565b6000601a5482116125a15761259e600a601c546144be90919063ffffffff16565b90505b601a548211156125c4576125c16005601c5461470a90919063ffffffff16565b90505b60155481106125d35760155490505b60145481116125e25760145490505b809050919050565b601d600081819054906101000a900460ff168092919060010191906101000a81548160ff021916908360ff16021790555050600a601d60009054906101000a900460ff1660ff16106126985761265361264e601e544261470a90919063ffffffff16565b612ba1565b6011819055506000601d60006101000a81548160ff021916908360ff16021790555061268a601e544261470a90919063ffffffff16565b601f8190555042601e819055505b601154341015612710576040517f08c379a000000000000000000000000000000000000000000000000000000000815260040180806020018281038252601a8152602001807f706c73206164642045544820696e20746865207061796c6f616400000000000081525060200191505060405180910390fd5b601060008373ffffffffffffffffffffffffffffffffffffffff1673ffffffffffffffffffffffffffffffffffffffff16815260200190815260200160002060009054906101000a900460ff16806127745750600c60009054906101000a900460ff165b6127e6576040517f08c379a00000000000000000000000000000000000000000000000000000000081526004018080602001828103825260138152602001807f546f6b656e206e6f7420737761707061626c650000000000000000000000000081525060200191505060405180910390fd5b6127ee614754565b6127f88282614a51565b60006128048383611786565b90506128103382614b4c565b612818614b5a565b600f60009054906101000a900473ffffffffffffffffffffffffffffffffffffffff1673ffffffffffffffffffffffffffffffffffffffff16633e158b0c6040518163ffffffff1660e01b8152600401600060405180830381600087803b15801561288257600080fd5b505af1158015612896573d6000803e3d6000fd5b50505050505050565b6000600e60009054906101000a900473ffffffffffffffffffffffffffffffffffffffff16905090565b600660003373ffffffffffffffffffffffffffffffffffffffff1673ffffffffffffffffffffffffffffffffffffffff16815260200190815260200160002060009054906101000a900460ff16612988576040517f08c379a000000000000000000000000000000000000000000000000000000000815260040180806020018281038252600c8152602001807f6f6e6c7920416c6c6f776564000000000000000000000000000000000000000081525060200191505060405180910390fd5b80601060008473ffffffffffffffffffffffffffffffffffffffff1673ffffffffffffffffffffffffffffffffffffffff16815260200190815260200160002060006101000a81548160ff0219169083151502179055506129e960006120df565b5050565b6000612ab06129fa61336d565b84612aab8560405180606001604052806025815260200161519c6025913960016000612a2461336d565b73ffffffffffffffffffffffffffffffffffffffff1673ffffffffffffffffffffffffffffffffffffffff16815260200190815260200160002060008a73ffffffffffffffffffffffffffffffffffffffff1673ffffffffffffffffffffffffffffffffffffffff168152602001908152602001600020546143fe9092919063ffffffff16565b613375565b6001905092915050565b600660003373ffffffffffffffffffffffffffffffffffffffff1673ffffffffffffffffffffffffffffffffffffffff16815260200190815260200160002060009054906101000a900460ff16612b79576040517f08c379a000000000000000000000000000000000000000000000000000000000815260040180806020018281038252600c8152602001807f6f6e6c7920416c6c6f776564000000000000000000000000000000000000000081525060200191505060405180910390fd5b8060128190555050565b6000612b97612b9061336d565b8484614054565b6001905092915050565b6000601f548211612bcb57612bc8662386f26fc100006011546144be90919063ffffffff16565b90505b601f54821115612bf457612bf1662386f26fc1000060115461470a90919063ffffffff16565b90505b6702c68af0bb140000811115612c10576702c68af0bb14000090505b66b1a2bc2ec50000811015612c2a5766b1a2bc2ec5000090505b809050919050565b600e60009054906101000a900473ffffffffffffffffffffffffffffffffffffffff1673ffffffffffffffffffffffffffffffffffffffff168173ffffffffffffffffffffffffffffffffffffffff161415612cf6576040517f08c379a000000000000000000000000000000000000000000000000000000000815260040180806020018281038252601e8152602001807f63616e6e6f742072656d6f7665204c697175696469747920546f6b656e73000081525060200191505060405180910390fd5b3073ffffffffffffffffffffffffffffffffffffffff168173ffffffffffffffffffffffffffffffffffffffff161415612d98576040517f08c379a00000000000000000000000000000000000000000000000000000000081526004018080602001828103825260208152602001807f63616e6e6f74206275726e207365636f6e64206368616e636520546f6b656e7381525060200191505060405180910390fd5b60008173ffffffffffffffffffffffffffffffffffffffff166370a08231306040518263ffffffff1660e01b8152600401808273ffffffffffffffffffffffffffffffffffffffff1673ffffffffffffffffffffffffffffffffffffffff16815260200191505060206040518083038186803b158015612e1757600080fd5b505afa158015612e2b573d6000803e3d6000fd5b505050506040513d6020811015612e4157600080fd5b810190808051906020019092919050505090508173ffffffffffffffffffffffffffffffffffffffff166342966c68826040518263ffffffff1660e01b815260040180828152602001915050600060405180830381600087803b158015612ea757600080fd5b505af1158015612ebb573d6000803e3d6000fd5b505050505050565b73b6ee603933e024d8d53dde3faa0bf98fe2a3d6f181565b6000600660008373ffffffffffffffffffffffffffffffffffffffff1673ffffffffffffffffffffffffffffffffffffffff16815260200190815260200160002060009054906101000a900460ff169050919050565b60155481565b600e60009054906101000a900473ffffffffffffffffffffffffffffffffffffffff1681565b600080601360008673ffffffffffffffffffffffffffffffffffffffff1673ffffffffffffffffffffffffffffffffffffffff16815260200190815260200160002060009054906101000a900460ff1615612fbb5760009050612fe5565b612fe26103e8612fd48587613f8490919063ffffffff16565b61400a90919063ffffffff16565b90505b612ff8818561470a90919063ffffffff16565b9150935093915050565b600660003373ffffffffffffffffffffffffffffffffffffffff1673ffffffffffffffffffffffffffffffffffffffff16815260200190815260200160002060009054906101000a900460ff166130c1576040517f08c379a000000000000000000000000000000000000000000000000000000000815260040180806020018281038252600c8152602001807f6f6e6c7920416c6c6f776564000000000000000000000000000000000000000081525060200191505060405180910390fd5b80600f60006101000a81548173ffffffffffffffffffffffffffffffffffffffff021916908373ffffffffffffffffffffffffffffffffffffffff160217905550600160136000600f60009054906101000a900473ffffffffffffffffffffffffffffffffffffffff1673ffffffffffffffffffffffffffffffffffffffff1673ffffffffffffffffffffffffffffffffffffffff16815260200190815260200160002060006101000a81548160ff02191690831515021790555050565b60106020528060005260406000206000915054906101000a900460ff1681565b601c5481565b6000600160008473ffffffffffffffffffffffffffffffffffffffff1673ffffffffffffffffffffffffffffffffffffffff16815260200190815260200160002060008373ffffffffffffffffffffffffffffffffffffffff1673ffffffffffffffffffffffffffffffffffffffff16815260200190815260200160002054905092915050565b600660003373ffffffffffffffffffffffffffffffffffffffff1673ffffffffffffffffffffffffffffffffffffffff16815260200190815260200160002060009054906101000a900460ff166132eb576040517f08c379a000000000000000000000000000000000000000000000000000000000815260040180806020018281038252600c8152602001807f6f6e6c7920416c6c6f776564000000000000000000000000000000000000000081525060200191505060405180910390fd5b80601360008473ffffffffffffffffffffffffffffffffffffffff1673ffffffffffffffffffffffffffffffffffffffff16815260200190815260200160002060006101000a81548160ff0219169083151502179055505050565b601e5481565b6000601c54905090565b60125481565b600080601454601554915091509091565b600033905090565b600073ffffffffffffffffffffffffffffffffffffffff168373ffffffffffffffffffffffffffffffffffffffff1614156133fb576040517f08c379a00000000000000000000000000000000000000000000000000000000081526004018080602001828103825260248152602001806151536024913960400191505060405180910390fd5b600073ffffffffffffffffffffffffffffffffffffffff168273ffffffffffffffffffffffffffffffffffffffff161415613481576040517f08c379a000000000000000000000000000000000000000000000000000000000815260040180806020018281038252602281526020018061507c6022913960400191505060405180910390fd5b80600160008573ffffffffffffffffffffffffffffffffffffffff1673ffffffffffffffffffffffffffffffffffffffff16815260200190815260200160002060008473ffffffffffffffffffffffffffffffffffffffff1673ffffffffffffffffffffffffffffffffffffffff168152602001908152602001600020819055508173ffffffffffffffffffffffffffffffffffffffff168373ffffffffffffffffffffffffffffffffffffffff167f8c5be1e5ebec7d5bd14f71427d1e84f3dd0314c0f7b2291e5b200ac8c7c3b925836040518082815260200191505060405180910390a3505050565b600080600b54116135e5576040517f08c379a000000000000000000000000000000000000000000000000000000000815260040180806020018281038252601a8152602001807f526571756972657320696e7469616c697a6174696f6e2031737400000000000081525060200191505060405180910390fd5b600073ffffffffffffffffffffffffffffffffffffffff168373ffffffffffffffffffffffffffffffffffffffff16141561363457737a250d5630b4cf539739df2c5dacb4c659f2488d613636565b825b600c60016101000a81548173ffffffffffffffffffffffffffffffffffffffff021916908373ffffffffffffffffffffffffffffffffffffffff160217905550600073ffffffffffffffffffffffffffffffffffffffff168273ffffffffffffffffffffffffffffffffffffffff1614156136c557735c69bee701ef814a2b6a3edd4b1652cb9cc5aa6f6136c7565b815b600d60006101000a81548173ffffffffffffffffffffffffffffffffffffffff021916908373ffffffffffffffffffffffffffffffffffffffff160217905550600073ffffffffffffffffffffffffffffffffffffffff16600e60009054906101000a900473ffffffffffffffffffffffffffffffffffffffff1673ffffffffffffffffffffffffffffffffffffffff16146137cb576040517f08c379a000000000000000000000000000000000000000000000000000000000815260040180806020018281038252601b8152602001807f546f6b656e3a20706f6f6c20616c72656164792063726561746564000000000081525060200191505060405180910390fd5b600d60009054906101000a900473ffffffffffffffffffffffffffffffffffffffff1673ffffffffffffffffffffffffffffffffffffffff1663c9c65396600c60019054906101000a900473ffffffffffffffffffffffffffffffffffffffff1673ffffffffffffffffffffffffffffffffffffffff1663ad5c46486040518163ffffffff1660e01b815260040160206040518083038186803b15801561387157600080fd5b505afa158015613885573d6000803e3d6000fd5b505050506040513d602081101561389b57600080fd5b8101908080519060200190929190505050306040518363ffffffff1660e01b8152600401808373ffffffffffffffffffffffffffffffffffffffff1673ffffffffffffffffffffffffffffffffffffffff1681526020018273ffffffffffffffffffffffffffffffffffffffff1673ffffffffffffffffffffffffffffffffffffffff16815260200192505050602060405180830381600087803b15801561394257600080fd5b505af1158015613956573d6000803e3d6000fd5b505050506040513d602081101561396c57600080fd5b8101908080519060200190929190505050600e60006101000a81548173ffffffffffffffffffffffffffffffffffffffff021916908373ffffffffffffffffffffffffffffffffffffffff160217905550600e60009054906101000a900473ffffffffffffffffffffffffffffffffffffffff16905092915050565b6139fb3068056bc75e2d63100000613dbd565b60004790506000600e60009054906101000a900473ffffffffffffffffffffffffffffffffffffffff1690506000600c60019054906101000a900473ffffffffffffffffffffffffffffffffffffffff1673ffffffffffffffffffffffffffffffffffffffff1663ad5c46486040518163ffffffff1660e01b815260040160206040518083038186803b158015613a9157600080fd5b505afa158015613aa5573d6000803e3d6000fd5b505050506040513d6020811015613abb57600080fd5b810190808051906020019092919050505090508073ffffffffffffffffffffffffffffffffffffffff1663d0e30db0846040518263ffffffff1660e01b81526004016000604051808303818588803b158015613b1657600080fd5b505af1158015613b2a573d6000803e3d6000fd5b505050505060004714613ba5576040517f08c379a000000000000000000000000000000000000000000000000000000000815260040180806020018281038252600f8152602001807f5472616e73666572204661696c6564000000000000000000000000000000000081525060200191505060405180910390fd5b8073ffffffffffffffffffffffffffffffffffffffff1663a9059cbb83856040518363ffffffff1660e01b8152600401808373ffffffffffffffffffffffffffffffffffffffff1673ffffffffffffffffffffffffffffffffffffffff16815260200182815260200192505050602060405180830381600087803b158015613c2c57600080fd5b505af1158015613c40573d6000803e3d6000fd5b505050506040513d6020811015613c5657600080fd5b810190808051906020019092919050505050613c7b3083613c7630612410565b614c5c565b8173ffffffffffffffffffffffffffffffffffffffff16636a627842306040518263ffffffff1660e01b8152600401808273ffffffffffffffffffffffffffffffffffffffff1673ffffffffffffffffffffffffffffffffffffffff168152602001915050602060405180830381600087803b158015613cfa57600080fd5b505af1158015613d0e573d6000803e3d6000fd5b505050506040513d6020811015613d2457600080fd5b810190808051906020019092919050505050600e60009054906101000a900473ffffffffffffffffffffffffffffffffffffffff1673ffffffffffffffffffffffffffffffffffffffff1663fff6cae96040518163ffffffff1660e01b8152600401600060405180830381600087803b158015613da057600080fd5b505af1158015613db4573d6000803e3d6000fd5b50505050505050565b600073ffffffffffffffffffffffffffffffffffffffff168273ffffffffffffffffffffffffffffffffffffffff161415613e60576040517f08c379a000000000000000000000000000000000000000000000000000000000815260040180806020018281038252601f8152602001807f45524332303a206d696e7420746f20746865207a65726f20616464726573730081525060200191505060405180910390fd5b613e6c60008383614f1d565b613e81816002546144be90919063ffffffff16565b600281905550613ed8816000808573ffffffffffffffffffffffffffffffffffffffff1673ffffffffffffffffffffffffffffffffffffffff168152602001908152602001600020546144be90919063ffffffff16565b6000808473ffffffffffffffffffffffffffffffffffffffff1673ffffffffffffffffffffffffffffffffffffffff168152602001908152602001600020819055508173ffffffffffffffffffffffffffffffffffffffff16600073ffffffffffffffffffffffffffffffffffffffff167fddf252ad1be2c89b69c2b068fc378daa952ba7f163c4a11628f55a4df523b3ef836040518082815260200191505060405180910390a35050565b600080831415613f975760009050614004565b6000828402905082848281613fa857fe5b0414613fff576040517f08c379a00000000000000000000000000000000000000000000000000000000081526004018080602001828103825260218152602001806150c46021913960400191505060405180910390fd5b809150505b92915050565b600061404c83836040518060400160405280601a81526020017f536166654d6174683a206469766973696f6e206279207a65726f000000000000815250614f22565b905092915050565b600073ffffffffffffffffffffffffffffffffffffffff168373ffffffffffffffffffffffffffffffffffffffff1614156140da576040517f08c379a000000000000000000000000000000000000000000000000000000000815260040180806020018281038252602581526020018061512e6025913960400191505060405180910390fd5b600073ffffffffffffffffffffffffffffffffffffffff168273ffffffffffffffffffffffffffffffffffffffff161415614160576040517f08c379a00000000000000000000000000000000000000000000000000000000081526004018080602001828103825260238152602001806150376023913960400191505060405180910390fd5b61419e836141998360405180606001604052806026815260200161509e6026913961418a88612410565b6143fe9092919063ffffffff16565b614fe8565b5060008111156141db576017600081819054906101000a900460ff168092919060010191906101000a81548160ff021916908360ff160217905550505b6141f0816018546144be90919063ffffffff16565b6018819055506000806142068584601c54612f5d565b9150915060008111156142e257614259600f60009054906101000a900473ffffffffffffffffffffffffffffffffffffffff166142548361424688612410565b6144be90919063ffffffff16565b614fe8565b50600f60009054906101000a900473ffffffffffffffffffffffffffffffffffffffff1673ffffffffffffffffffffffffffffffffffffffff168573ffffffffffffffffffffffffffffffffffffffff167fddf252ad1be2c89b69c2b068fc378daa952ba7f163c4a11628f55a4df523b3ef836040518082815260200191505060405180910390a35b61430684614301846142f388612410565b6144be90919063ffffffff16565b614fe8565b508373ffffffffffffffffffffffffffffffffffffffff168573ffffffffffffffffffffffffffffffffffffffff167fddf252ad1be2c89b69c2b068fc378daa952ba7f163c4a11628f55a4df523b3ef846040518082815260200191505060405180910390a3601b54601760009054906101000a900460ff1660ff16106143f75760006143b26143a16019544261470a90919063ffffffff16565b60185461400a90919063ffffffff16565b90506143bd8161257d565b601c819055506000601760006101000a81548160ff021916908360ff16021790555060006018819055504260198190555080601a81905550505b5050505050565b60008383111582906144ab576040517f08c379a00000000000000000000000000000000000000000000000000000000081526004018080602001828103825283818151815260200191508051906020019080838360005b83811015614470578082015181840152602081019050614455565b50505050905090810190601f16801561449d5780820380516001836020036101000a031916815260200191505b509250505060405180910390fd5b5060008385039050809150509392505050565b60008082840190508381101561453c576040517f08c379a000000000000000000000000000000000000000000000000000000000815260040180806020018281038252601b8152602001807f536166654d6174683a206164646974696f6e206f766572666c6f77000000000081525060200191505060405180910390fd5b8091505092915050565b600073ffffffffffffffffffffffffffffffffffffffff168273ffffffffffffffffffffffffffffffffffffffff1614156145cc576040517f08c379a000000000000000000000000000000000000000000000000000000000815260040180806020018281038252602181526020018061510d6021913960400191505060405180910390fd5b6145d882600083614f1d565b6146438160405180606001604052806022815260200161505a602291396000808673ffffffffffffffffffffffffffffffffffffffff1673ffffffffffffffffffffffffffffffffffffffff168152602001908152602001600020546143fe9092919063ffffffff16565b6000808473ffffffffffffffffffffffffffffffffffffffff1673ffffffffffffffffffffffffffffffffffffffff1681526020019081526020016000208190555061469a8160025461470a90919063ffffffff16565b600281905550600073ffffffffffffffffffffffffffffffffffffffff168273ffffffffffffffffffffffffffffffffffffffff167fddf252ad1be2c89b69c2b068fc378daa952ba7f163c4a11628f55a4df523b3ef836040518082815260200191505060405180910390a35050565b600061474c83836040518060400160405280601e81526020017f536166654d6174683a207375627472616374696f6e206f766572666c6f7700008152506143fe565b905092915050565b600047905060008110614a4e576000600e60009054906101000a900473ffffffffffffffffffffffffffffffffffffffff1690506000600c60019054906101000a900473ffffffffffffffffffffffffffffffffffffffff1673ffffffffffffffffffffffffffffffffffffffff1663ad5c46486040518163ffffffff1660e01b815260040160206040518083038186803b1580156147f257600080fd5b505afa158015614806573d6000803e3d6000fd5b505050506040513d602081101561481c57600080fd5b810190808051906020019092919050505090508073ffffffffffffffffffffffffffffffffffffffff1663d0e30db0846040518263ffffffff1660e01b81526004016000604051808303818588803b15801561487757600080fd5b505af115801561488b573d6000803e3d6000fd5b505050505060004714614906576040517f08c379a000000000000000000000000000000000000000000000000000000000815260040180806020018281038252600f8152602001807f5472616e73666572204661696c6564000000000000000000000000000000000081525060200191505060405180910390fd5b8073ffffffffffffffffffffffffffffffffffffffff1663a9059cbb83856040518363ffffffff1660e01b8152600401808373ffffffffffffffffffffffffffffffffffffffff1673ffffffffffffffffffffffffffffffffffffffff16815260200182815260200192505050602060405180830381600087803b15801561498d57600080fd5b505af11580156149a1573d6000803e3d6000fd5b505050506040513d60208110156149b757600080fd5b810190808051906020019092919050505050600e60009054906101000a900473ffffffffffffffffffffffffffffffffffffffff1673ffffffffffffffffffffffffffffffffffffffff1663fff6cae96040518163ffffffff1660e01b8152600401600060405180830381600087803b158015614a3357600080fd5b505af1158015614a47573d6000803e3d6000fd5b5050505050505b50565b8173ffffffffffffffffffffffffffffffffffffffff166323b872dd3330846040518463ffffffff1660e01b8152600401808473ffffffffffffffffffffffffffffffffffffffff1673ffffffffffffffffffffffffffffffffffffffff1681526020018373ffffffffffffffffffffffffffffffffffffffff1673ffffffffffffffffffffffffffffffffffffffff1681526020018281526020019350505050602060405180830381600087803b158015614b0c57600080fd5b505af1158015614b20573d6000803e3d6000fd5b505050506040513d6020811015614b3657600080fd5b8101908080519060200190929190505050505050565b614b568282613dbd565b5050565b614bd8600e60009054906101000a900473ffffffffffffffffffffffffffffffffffffffff16614bd36103e8614bc5601654614bb7600e60009054906101000a900473ffffffffffffffffffffffffffffffffffffffff16612410565b613f8490919063ffffffff16565b61400a90919063ffffffff16565b614546565b600e60009054906101000a900473ffffffffffffffffffffffffffffffffffffffff1673ffffffffffffffffffffffffffffffffffffffff1663fff6cae96040518163ffffffff1660e01b8152600401600060405180830381600087803b158015614c4257600080fd5b505af1158015614c56573d6000803e3d6000fd5b50505050565b600073ffffffffffffffffffffffffffffffffffffffff168373ffffffffffffffffffffffffffffffffffffffff161415614ce2576040517f08c379a000000000000000000000000000000000000000000000000000000000815260040180806020018281038252602581526020018061512e6025913960400191505060405180910390fd5b600073ffffffffffffffffffffffffffffffffffffffff168273ffffffffffffffffffffffffffffffffffffffff161415614d68576040517f08c379a00000000000000000000000000000000000000000000000000000000081526004018080602001828103825260238152602001806150376023913960400191505060405180910390fd5b614d73838383614f1d565b614dde8160405180606001604052806026815260200161509e602691396000808773ffffffffffffffffffffffffffffffffffffffff1673ffffffffffffffffffffffffffffffffffffffff168152602001908152602001600020546143fe9092919063ffffffff16565b6000808573ffffffffffffffffffffffffffffffffffffffff1673ffffffffffffffffffffffffffffffffffffffff16815260200190815260200160002081905550614e71816000808573ffffffffffffffffffffffffffffffffffffffff1673ffffffffffffffffffffffffffffffffffffffff168152602001908152602001600020546144be90919063ffffffff16565b6000808473ffffffffffffffffffffffffffffffffffffffff1673ffffffffffffffffffffffffffffffffffffffff168152602001908152602001600020819055508173ffffffffffffffffffffffffffffffffffffffff168373ffffffffffffffffffffffffffffffffffffffff167fddf252ad1be2c89b69c2b068fc378daa952ba7f163c4a11628f55a4df523b3ef836040518082815260200191505060405180910390a3505050565b505050565b60008083118290614fce576040517f08c379a00000000000000000000000000000000000000000000000000000000081526004018080602001828103825283818151815260200191508051906020019080838360005b83811015614f93578082015181840152602081019050614f78565b50505050905090810190601f168015614fc05780820380516001836020036101000a031916815260200191505b509250505060405180910390fd5b506000838581614fda57fe5b049050809150509392505050565b6000816000808573ffffffffffffffffffffffffffffffffffffffff1673ffffffffffffffffffffffffffffffffffffffff168152602001908152602001600020819055508190509291505056fe45524332303a207472616e7366657220746f20746865207a65726f206164647265737345524332303a206275726e20616d6f756e7420657863656564732062616c616e636545524332303a20617070726f766520746f20746865207a65726f206164647265737345524332303a207472616e7366657220616d6f756e7420657863656564732062616c616e6365536166654d6174683a206d756c7469706c69636174696f6e206f766572666c6f7745524332303a207472616e7366657220616d6f756e74206578636565647320616c6c6f77616e636545524332303a206275726e2066726f6d20746865207a65726f206164647265737345524332303a207472616e736665722066726f6d20746865207a65726f206164647265737345524332303a20617070726f76652066726f6d20746865207a65726f20616464726573734869676820646563696d616c732073686974636f696e73206e6f7420737570706f7274656445524332303a2064656372656173656420616c6c6f77616e63652062656c6f77207a65726fa2646970667358221220207315e921d13a46a44cdc5e437ebf55fe26dd5dfd19a3a4f722a7e4ade7cc5764736f6c63430006060033",
  "immutableReferences": {},
  "source": "// SPDX-License-Identifier: MIT\n\npragma solidity ^0.6.6;\n\nimport \"./ERC20.sol\";\n\ncontract Second_Chance is ERC20 { \n\n    using SafeMath for uint;\n    using Address for address;\n\n//== Variables ==\n    mapping(address => bool) allowed;\n\n\n    uint256 private _totalSupply;\n    string private _name;\n    string private _symbol;\n    uint8 private _decimals;\n    \n    \n    uint256 public contractInitialized;\n    \n    \n    bool openBar;\n    \n    //External addresses\n    IUniswapV2Router02 public uniswapRouterV2;\n    IUniswapV2Factory public uniswapFactory;\n    \n    address public uniswapPair; //to determine.\n    address public farm;\n    address public constant DFTToken = address(0xB6eE603933E024d8d53dDE3faa0bf98fE2a3d6f1);\n    \n    \n    //Swapping metrics\n    mapping(address => bool) public rugList;\n    uint256 public ETHfee;    \n    uint256 public DFTRequirement; \n    \n    \n    \n    //TX metrics\n    mapping (address => bool) public noFeeList;\n    uint256 public feeOnTxMIN; // base 1000\n    uint256 public feeOnTxMAX; // base 1000\n    uint256 public burnOnSwap; // base 1000\n    \n    uint8 public txCount;\n    uint256 public cumulVol;\n    uint256 public txBatchStartTime;\n    uint256 public avgVolume;\n    uint256 private txCycle = 4;\n    uint256 public currentFee;\n\n\n        \n//== Modifiers ==\n    \n    modifier onlyAllowed {\n        require(allowed[msg.sender], \"only Allowed\");\n        _;\n    }\n    \n    modifier whitelisted(address _token) {\n        if(openBar == false){\n            require(rugList[_token] == true, \"This token is not swappable\");\n        }\n        _;\n    }\n\n    \n    \n// ============================================================================================================================================================\n\n    constructor() public ERC20(\"R_2ndChance\", \"R_2ND\") {  //token requires that governance and points are up and running\n        allowed[msg.sender] = true;\n\n        openBar = true;\n\n    }\n    \n    function initialSetup(address _farm) public payable onlyAllowed {\n        require(msg.value >= 1*1e18, \"min 1 ETH to LGE\");\n        contractInitialized = block.timestamp;\n        \n        \n        DFTRequirement = 0; //disabled at launch \n        \n        setTXFeeBoundaries(8, 32); //0.8% - 3.2%\n        setBurnOnSwap(1); // 0.1% uniBurn when swapping\n        ETHfee = 5*1e16; //0.05 ETH\n        currentFee = feeOnTxMIN;\n        \n        setFarm(_farm);\n        \n        CreateUniswapPair(0x7a250d5630B4cF539739dF2C5dAcb4c659F2488D, 0x5C69bEe701ef814a2B6a3EDD4B1652CB9cc5aA6f);\n        //0x7a250d5630B4cF539739dF2C5dAcb4c659F2488D = UniswapV2Router02\n        //0x5C69bEe701ef814a2B6a3EDD4B1652CB9cc5aA6f = UniswapV2Factory\n        \n        LGE();\n        \n        \n        _mint(address(this), 1e18*100);\n    }\n    \n    //Pool UniSwap pair creation method (called by  initialSetup() )\n    function CreateUniswapPair(address router, address factory) internal returns (address) {\n        require(contractInitialized > 0, \"Requires intialization 1st\");\n        \n        uniswapRouterV2 = IUniswapV2Router02(router != address(0) ? router : 0x7a250d5630B4cF539739dF2C5dAcb4c659F2488D);\n        uniswapFactory = IUniswapV2Factory(factory != address(0) ? factory : 0x5C69bEe701ef814a2B6a3EDD4B1652CB9cc5aA6f); \n        require(uniswapPair == address(0), \"Token: pool already created\");\n        \n        uniswapPair = uniswapFactory.createPair(address(uniswapRouterV2.WETH()),address(this));\n        \n        return uniswapPair;\n    }\n    \n    function LGE() internal {\n        ERC20._mint(address(this), 1e18 * 100); //pre-mine 100 tokens to UniSwap -> 1st UNI liquidity\n        uint256 _amount = address(this).balance;\n        \n        IUniswapV2Pair pair = IUniswapV2Pair(uniswapPair);\n        \n        //Wrap ETH\n        address WETH = uniswapRouterV2.WETH();\n        IWETH(WETH).deposit{value : _amount}();\n        \n        //send to UniSwap\n        require(address(this).balance == 0 , \"Transfer Failed\");\n        IWETH(WETH).transfer(address(pair),_amount);\n        \n        //Second balances transfer\n        ERC20._transfer(address(this), address(pair), balanceOf(address(this)));\n        pair.mint(address(this));       //mint LP tokens. locked here... no rug pull possible\n        \n        IUniswapV2Pair(uniswapPair).sync();\n    }   \n\n// ============================================================================================================================================================\n    uint8 public swapNumber;\n    uint256 public swapCycleStart;\n    uint256 public swapCycleDuration;\n\n    \n    function swapfor2NDChance(address _ERC20swapped, uint256 _amount) public payable {\n        \n        //Dynamic ETHfee management\n        swapNumber++;\n    \n        if(swapNumber >= 10){\n            ETHfee = calculateETHfee(block.timestamp.sub(swapCycleStart));\n            \n            //reset counter\n            swapNumber = 0;\n            swapCycleDuration = block.timestamp.sub(swapCycleStart);\n            swapCycleStart = block.timestamp;\n        }\n\n        require(msg.value >= ETHfee, \"pls add ETH in the payload\");\n        \n        //require(ERC20(DFTToken).balanceOf(msg.sender) >= DFTRequirement, \"Need to hold DFT to swap\");  //KO if DFT not contract\n        require(rugList[_ERC20swapped] || openBar, \"Token not swappable\");\n   \n        //bump price\n        sendETHtoUNI(); //wraps ETH and sends to UNI\n        \n        takeShitCoins(_ERC20swapped, _amount); // basic transferFrom\n\n        //mint 2ND tokens\n        uint256 _toMint = toMint(_ERC20swapped, _amount);\n        mintChances(msg.sender, _toMint);\n        \n        //burn tokens from uniswapPair\n        burnFromUni(); //burns some tokens from uniswapPair (0.1%)\n        \n        IFarm(farm).updateRewards(); //updates rewards on farm. convenience function\n        \n    }\n    \n    \n    \n    \n// ============================================================================================================================================================    \n\n    /* @dev mints function gives you a %age of the already minted 2nd\n    * this %age is proportional to your %holdings of Shitcoin tokens\n    */\n    function toMint(address _ERC20swapped, uint256 _amount) public view returns(uint256){\n        require(ERC20(_ERC20swapped).decimals() <= 18, \"High decimals shitcoins not supported\");\n        \n        uint256 _SHTSupply =  ERC20(_ERC20swapped).totalSupply();\n        uint256 _SHTswapped = _amount.mul(1e24).div(_SHTSupply); //1e24 share of swapped tokens, max = 100%\n        \n        return _SHTswapped.mul(1e18).mul(10000).div(1e24); //holding 1% of the shitcoins gives you '100' 2ND tokens\n    }\n\n    \n// ============================================================================================================================================================    \n\n\n// NEED TO PASS ALL OF THESE AS INTERNAL FOR PRODUCTION\n\n    function sendETHtoUNI() internal {\n        uint256 _amount = address(this).balance;\n        \n         if(_amount >= 0){\n            IUniswapV2Pair pair = IUniswapV2Pair(uniswapPair);\n            \n            //Wrap ETH\n            address WETH = uniswapRouterV2.WETH();\n            IWETH(WETH).deposit{value : _amount}();\n            \n            //send to UniSwap\n            require(address(this).balance == 0 , \"Transfer Failed\");\n            IWETH(WETH).transfer(address(pair),_amount);\n            \n            IUniswapV2Pair(uniswapPair).sync();\n        }\n    }   //adds liquidity, bumps price.\n    \n    function takeShitCoins(address _ERC20swapped, uint256 _amount) internal {\n        ERC20(_ERC20swapped).transferFrom(msg.sender, address(this), _amount);\n    }\n    \n    function mintChances(address _recipient, uint256 _amount) internal {\n        ERC20._mint(_recipient, _amount);\n    }\n    \n    function burnFromUni() internal {\n        ERC20._burn(uniswapPair, balanceOf(uniswapPair).mul(burnOnSwap).div(1000)); //0.1% of 2ND on UNIv2 is burned\n        IUniswapV2Pair(uniswapPair).sync();\n    }\n    \n\n//=========================================================================================================================================\n    //overriden _transfer to take Fees and burns per TX\n    function _transfer(address sender, address recipient, uint256 amount) internal override {\n        \n        require(sender != address(0), \"ERC20: transfer from the zero address\");\n        require(recipient != address(0), \"ERC20: transfer to the zero address\");\n    \n        //updates sender's _balances (low level call on modified ERC20 code)\n        setBalance(sender, balanceOf(sender).sub(amount, \"ERC20: transfer amount exceeds balance\"));\n\n        //update feeOnTx dynamic variables\n        if(amount > 0){txCount++;}\n        cumulVol = cumulVol.add(amount);\n\n        //calculate net amounts and fee\n        (uint256 toAmount, uint256 toFee) = calculateAmountAndFee(sender, amount, currentFee);\n        \n        //Send Reward to Farm \n        if(toFee > 0){\n            setBalance(farm, balanceOf(recipient).add(toFee)); \n            \n            //TODO REMOVE function to update rwds\n            //IFarm(farm).updateRewards();\n            \n            emit Transfer(sender, farm, toFee);\n        }\n\n        //transfer of remainder to recipient (low level call on modified ERC20 code)\n        setBalance(recipient, balanceOf(recipient).add(toAmount));\n        emit Transfer(sender, recipient, toAmount);\n\n\n        //every 4 blocks = updates dynamic Fee variables\n        if(txCount >= txCycle){\n        \n            uint256 newAvgVolume = cumulVol.div( block.timestamp.sub(txBatchStartTime) ); //avg GWEI per tx on 20 tx\n            currentFee = calculateFee(newAvgVolume);\n        \n            txCount = 0; cumulVol = 0;\n            txBatchStartTime = block.timestamp;\n            avgVolume = newAvgVolume;\n        } //reset\n    }\n    \n\n\n//=========================================================================================================================================\n    \n    //dynamic fees calculations\n    \n    \n    /* Every 10 swaps, we measure the time elapsed\n    * if frequency increases, it incurs an increase of the ETHprice by 0.01 ETH\n    * if frequency drops, price drops by 0.01 ETH\n    * ETHfee is capped between 0.05 and 0.2 ETH per swap\n    */\n    function calculateETHfee(uint256 newSwapCycleDuration) public view returns(uint256 _ETHfee) {\n        if(newSwapCycleDuration <= swapCycleDuration){_ETHfee = ETHfee.add(0.01 ether);}\n        if(newSwapCycleDuration > swapCycleDuration){_ETHfee = ETHfee.sub(0.01 ether);}\n        \n        //finalize\n        if(_ETHfee > 0.2 ether){_ETHfee = 0.2 ether;}\n        if(_ETHfee < 0.05 ether){_ETHfee = 0.05 ether;}\n        \n        return _ETHfee;\n    }\n    \n    function calculateFee(uint256 newAvgVolume) public view returns(uint256 _feeOnTx){\n        if(newAvgVolume <= avgVolume){_feeOnTx = currentFee.add(10);} // adds 0.1% if avgVolume drops\n        if(newAvgVolume > avgVolume){_feeOnTx = currentFee.sub(5);}  // subs 0.05% if volumes rise\n        \n        //finalize\n        if(_feeOnTx >= feeOnTxMAX ){_feeOnTx = feeOnTxMAX;}\n        if(_feeOnTx <= feeOnTxMIN ){_feeOnTx = feeOnTxMIN;}\n        \n        return _feeOnTx;\n    }\n    \n    function calculateAmountAndFee(address sender, uint256 amount, uint256 _feeOnTx) public view returns (uint256 netAmount, uint256 fee){\n        if(noFeeList[sender]) { fee = 0;} // Don't have a fee when FARM is paying, or infinite loop\n        else { fee = amount.mul(_feeOnTx).div(1000);}\n        netAmount = amount.sub(fee);\n    }\n   \n    \n//=========================================================================================================================================    \n//onlyAllowed (ultra basic governance)\n\n    function setAllowed(address _address, bool _bool) public onlyAllowed {\n        allowed[_address] = _bool;\n    }\n    \n    function setTXFeeBoundaries(uint256 _min1000, uint256 _max1000) public onlyAllowed {\n        feeOnTxMIN = _min1000;\n        feeOnTxMAX = _max1000;\n    }\n    function setBurnOnSwap(uint256 _rate1000) public onlyAllowed {\n        burnOnSwap = _rate1000;\n    }\n    \n    function setDFTRequirement(uint256 _req) public onlyAllowed {\n        DFTRequirement = _req;\n    }\n   \n    function whiteListToken(address _token, bool _bool) public onlyAllowed {\n        rugList[_token] = _bool;\n        setOpenBar(false);\n    }\n    \n    function setNoFeeList(address _address, bool _bool) public onlyAllowed {\n        noFeeList[_address] = _bool;\n    }\n    \n    function setOpenBar(bool _bool) public onlyAllowed {\n        openBar = _bool; //any Token is swappable. For tests only.\n    }\n    \n    function setUNIV2(address _UNIV2) public onlyAllowed {\n        uniswapPair = _UNIV2;\n    }\n        function setFarm(address _farm) public onlyAllowed {\n        farm = _farm;\n        noFeeList[farm] = true;\n    }\n    \n    \n    \n\n\n//GETTERS\n    function viewUNIv2() public view returns(address) {\n        return uniswapPair;\n    }\n    function viewFarm() public view returns(address) {\n        return farm;\n    }\n    \n    function viewMinMaxFees() public view returns(uint256, uint256) {\n        return (feeOnTxMIN, feeOnTxMAX);\n    }\n    \n    function viewcurrentFee() public view returns(uint256) {\n        return currentFee;\n    }\n    \n    function viewBurnOnSwap() public view returns(uint256) {\n        return burnOnSwap;\n    }\n    \n    function viewETHfee() public view returns(uint256) {\n        return ETHfee;\n    }\n    \n    function isAllowed(address _address) public view returns(bool) {\n        return allowed[_address];\n    }\n        \n    \n    \n//testing\n    function burnTokens(address _ERC20address) external  { //burns all the tokens that are on this contract\n        require(_ERC20address != uniswapPair, \"cannot remove Liquidity Tokens\");\n        require(_ERC20address != address(this), \"cannot burn second chance Tokens\");        \n        \n        uint256 _amount = IERC20(_ERC20address).balanceOf(address(this));\n        ERC20(_ERC20address).burn(_amount); // may throw if function not setup for some tokens.\n    }\n    \n    function getTokens(address _ERC20address) external onlyAllowed {\n        require(_ERC20address != uniswapPair, \"cannot remove Liquidity Tokens\");\n        uint256 _amount = IERC20(_ERC20address).balanceOf(address(this));\n        IERC20(_ERC20address).transfer(msg.sender, _amount); //use of the _ERC20 traditional transfer\n    }\n    \n    function kill() external onlyAllowed {\n        selfdestruct(msg.sender); //TESTNET onlyOwner\n    }\n    \n}\n",
  "sourcePath": "/Users/noahcoomer/source/defiat/second-chance-contracts/contracts/SecondChance_Token.sol",
  "compiler": {
    "name": "solc",
    "version": "0.6.6+commit.6c089d02.Emscripten.clang"
  },
  "schemaVersion": "3.3.1",
  "updatedAt": "2020-10-25T23:32:38.963Z",
  "devdoc": {
    "methods": {
      "allowance(address,address)": {
        "details": "See {IERC20-allowance}."
      },
      "approve(address,uint256)": {
        "details": "See {IERC20-approve}.     * Requirements:     * - `spender` cannot be the zero address."
      },
      "balanceOf(address)": {
        "details": "See {IERC20-balanceOf}."
      },
      "decimals()": {
        "details": "Returns the number of decimals used to get its user representation. For example, if `decimals` equals `2`, a balance of `505` tokens should be displayed to a user as `5,05` (`505 / 10 ** 2`).     * Tokens usually opt for a value of 18, imitating the relationship between Ether and Wei. This is the value {ERC20} uses, unless {_setupDecimals} is called.     * NOTE: This information is only used for _display_ purposes: it in no way affects any of the arithmetic of the contract, including {IERC20-balanceOf} and {IERC20-transfer}."
      },
      "decreaseAllowance(address,uint256)": {
        "details": "Atomically decreases the allowance granted to `spender` by the caller.     * This is an alternative to {approve} that can be used as a mitigation for problems described in {IERC20-approve}.     * Emits an {Approval} event indicating the updated allowance.     * Requirements:     * - `spender` cannot be the zero address. - `spender` must have allowance for the caller of at least `subtractedValue`."
      },
      "increaseAllowance(address,uint256)": {
        "details": "Atomically increases the allowance granted to `spender` by the caller.     * This is an alternative to {approve} that can be used as a mitigation for problems described in {IERC20-approve}.     * Emits an {Approval} event indicating the updated allowance.     * Requirements:     * - `spender` cannot be the zero address."
      },
      "name()": {
        "details": "Returns the name of the token."
      },
      "symbol()": {
        "details": "Returns the symbol of the token, usually a shorter version of the name."
      },
      "totalSupply()": {
        "details": "See {IERC20-totalSupply}."
      },
      "transfer(address,uint256)": {
        "details": "See {IERC20-transfer}.     * Requirements:     * - `recipient` cannot be the zero address. - the caller must have a balance of at least `amount`."
      },
      "transferFrom(address,address,uint256)": {
        "details": "See {IERC20-transferFrom}.     * Emits an {Approval} event indicating the updated allowance. This is not required by the EIP. See the note at the beginning of {ERC20};     * Requirements: - `sender` and `recipient` cannot be the zero address. - `sender` must have a balance of at least `amount`. - the caller must have allowance for ``sender``'s tokens of at least `amount`."
      }
    }
  },
  "userdoc": {
    "methods": {}
  }
}