{
  "contractName": "Second_Chance",
  "abi": [
    {
      "inputs": [],
      "stateMutability": "nonpayable",
      "type": "constructor"
    },
    {
      "anonymous": false,
      "inputs": [
        {
          "indexed": true,
          "internalType": "address",
          "name": "owner",
          "type": "address"
        },
        {
          "indexed": true,
          "internalType": "address",
          "name": "spender",
          "type": "address"
        },
        {
          "indexed": false,
          "internalType": "uint256",
          "name": "value",
          "type": "uint256"
        }
      ],
      "name": "Approval",
      "type": "event"
    },
    {
      "anonymous": false,
      "inputs": [
        {
          "indexed": false,
          "internalType": "address",
          "name": "sender",
          "type": "address"
        },
        {
          "indexed": false,
          "internalType": "string",
          "name": "eventType",
          "type": "string"
        },
        {
          "indexed": false,
          "internalType": "uint256",
          "name": "newVariable",
          "type": "uint256"
        }
      ],
      "name": "TokenUpdate",
      "type": "event"
    },
    {
      "anonymous": false,
      "inputs": [
        {
          "indexed": false,
          "internalType": "address",
          "name": "sender",
          "type": "address"
        },
        {
          "indexed": false,
          "internalType": "string",
          "name": "eventType",
          "type": "string"
        },
        {
          "indexed": false,
          "internalType": "address",
          "name": "newAddress",
          "type": "address"
        },
        {
          "indexed": false,
          "internalType": "uint256",
          "name": "newVariable",
          "type": "uint256"
        },
        {
          "indexed": false,
          "internalType": "bool",
          "name": "newBool",
          "type": "bool"
        }
      ],
      "name": "TokenUpdate",
      "type": "event"
    },
    {
      "anonymous": false,
      "inputs": [
        {
          "indexed": true,
          "internalType": "address",
          "name": "from",
          "type": "address"
        },
        {
          "indexed": true,
          "internalType": "address",
          "name": "to",
          "type": "address"
        },
        {
          "indexed": false,
          "internalType": "uint256",
          "name": "value",
          "type": "uint256"
        }
      ],
      "name": "Transfer",
      "type": "event"
    },
    {
      "inputs": [],
      "name": "DFT",
      "outputs": [
        {
          "internalType": "address",
          "name": "",
          "type": "address"
        }
      ],
      "stateMutability": "view",
      "type": "function"
    },
    {
      "inputs": [
        {
          "internalType": "address",
          "name": "owner",
          "type": "address"
        },
        {
          "internalType": "address",
          "name": "spender",
          "type": "address"
        }
      ],
      "name": "allowance",
      "outputs": [
        {
          "internalType": "uint256",
          "name": "",
          "type": "uint256"
        }
      ],
      "stateMutability": "view",
      "type": "function"
    },
    {
      "inputs": [
        {
          "internalType": "address",
          "name": "spender",
          "type": "address"
        },
        {
          "internalType": "uint256",
          "name": "amount",
          "type": "uint256"
        }
      ],
      "name": "approve",
      "outputs": [
        {
          "internalType": "bool",
          "name": "",
          "type": "bool"
        }
      ],
      "stateMutability": "nonpayable",
      "type": "function"
    },
    {
      "inputs": [
        {
          "internalType": "address",
          "name": "account",
          "type": "address"
        }
      ],
      "name": "balanceOf",
      "outputs": [
        {
          "internalType": "uint256",
          "name": "",
          "type": "uint256"
        }
      ],
      "stateMutability": "view",
      "type": "function"
    },
    {
      "inputs": [
        {
          "internalType": "uint256",
          "name": "amount",
          "type": "uint256"
        }
      ],
      "name": "burn",
      "outputs": [],
      "stateMutability": "nonpayable",
      "type": "function"
    },
    {
      "inputs": [],
      "name": "currentFee",
      "outputs": [
        {
          "internalType": "uint256",
          "name": "",
          "type": "uint256"
        }
      ],
      "stateMutability": "view",
      "type": "function"
    },
    {
      "inputs": [],
      "name": "decimals",
      "outputs": [
        {
          "internalType": "uint8",
          "name": "",
          "type": "uint8"
        }
      ],
      "stateMutability": "view",
      "type": "function"
    },
    {
      "inputs": [
        {
          "internalType": "address",
          "name": "spender",
          "type": "address"
        },
        {
          "internalType": "uint256",
          "name": "subtractedValue",
          "type": "uint256"
        }
      ],
      "name": "decreaseAllowance",
      "outputs": [
        {
          "internalType": "bool",
          "name": "",
          "type": "bool"
        }
      ],
      "stateMutability": "nonpayable",
      "type": "function"
    },
    {
      "inputs": [],
      "name": "farm",
      "outputs": [
        {
          "internalType": "address",
          "name": "",
          "type": "address"
        }
      ],
      "stateMutability": "view",
      "type": "function"
    },
    {
      "inputs": [
        {
          "internalType": "address",
          "name": "spender",
          "type": "address"
        },
        {
          "internalType": "uint256",
          "name": "addedValue",
          "type": "uint256"
        }
      ],
      "name": "increaseAllowance",
      "outputs": [
        {
          "internalType": "bool",
          "name": "",
          "type": "bool"
        }
      ],
      "stateMutability": "nonpayable",
      "type": "function"
    },
    {
      "inputs": [],
      "name": "maxDFTBoost",
      "outputs": [
        {
          "internalType": "uint256",
          "name": "",
          "type": "uint256"
        }
      ],
      "stateMutability": "view",
      "type": "function"
    },
    {
      "inputs": [],
      "name": "name",
      "outputs": [
        {
          "internalType": "string",
          "name": "",
          "type": "string"
        }
      ],
      "stateMutability": "view",
      "type": "function"
    },
    {
      "inputs": [
        {
          "internalType": "address",
          "name": "",
          "type": "address"
        }
      ],
      "name": "noFeeList",
      "outputs": [
        {
          "internalType": "bool",
          "name": "",
          "type": "bool"
        }
      ],
      "stateMutability": "view",
      "type": "function"
    },
    {
      "inputs": [
        {
          "internalType": "address",
          "name": "",
          "type": "address"
        }
      ],
      "name": "rugList",
      "outputs": [
        {
          "internalType": "bool",
          "name": "",
          "type": "bool"
        }
      ],
      "stateMutability": "view",
      "type": "function"
    },
    {
      "inputs": [],
      "name": "swapCycleDuration",
      "outputs": [
        {
          "internalType": "uint256",
          "name": "",
          "type": "uint256"
        }
      ],
      "stateMutability": "view",
      "type": "function"
    },
    {
      "inputs": [],
      "name": "swapCycleStart",
      "outputs": [
        {
          "internalType": "uint256",
          "name": "",
          "type": "uint256"
        }
      ],
      "stateMutability": "view",
      "type": "function"
    },
    {
      "inputs": [],
      "name": "swapNumber",
      "outputs": [
        {
          "internalType": "uint8",
          "name": "",
          "type": "uint8"
        }
      ],
      "stateMutability": "view",
      "type": "function"
    },
    {
      "inputs": [],
      "name": "symbol",
      "outputs": [
        {
          "internalType": "string",
          "name": "",
          "type": "string"
        }
      ],
      "stateMutability": "view",
      "type": "function"
    },
    {
      "inputs": [],
      "name": "totalSupply",
      "outputs": [
        {
          "internalType": "uint256",
          "name": "",
          "type": "uint256"
        }
      ],
      "stateMutability": "view",
      "type": "function"
    },
    {
      "inputs": [
        {
          "internalType": "address",
          "name": "recipient",
          "type": "address"
        },
        {
          "internalType": "uint256",
          "name": "amount",
          "type": "uint256"
        }
      ],
      "name": "transfer",
      "outputs": [
        {
          "internalType": "bool",
          "name": "",
          "type": "bool"
        }
      ],
      "stateMutability": "nonpayable",
      "type": "function"
    },
    {
      "inputs": [
        {
          "internalType": "address",
          "name": "sender",
          "type": "address"
        },
        {
          "internalType": "address",
          "name": "recipient",
          "type": "address"
        },
        {
          "internalType": "uint256",
          "name": "amount",
          "type": "uint256"
        }
      ],
      "name": "transferFrom",
      "outputs": [
        {
          "internalType": "bool",
          "name": "",
          "type": "bool"
        }
      ],
      "stateMutability": "nonpayable",
      "type": "function"
    },
    {
      "inputs": [],
      "name": "uniswapFactory",
      "outputs": [
        {
          "internalType": "contract IUniswapV2Factory",
          "name": "",
          "type": "address"
        }
      ],
      "stateMutability": "view",
      "type": "function"
    },
    {
      "inputs": [],
      "name": "uniswapPair",
      "outputs": [
        {
          "internalType": "address",
          "name": "",
          "type": "address"
        }
      ],
      "stateMutability": "view",
      "type": "function"
    },
    {
      "inputs": [],
      "name": "uniswapRouterV2",
      "outputs": [
        {
          "internalType": "contract IUniswapV2Router02",
          "name": "",
          "type": "address"
        }
      ],
      "stateMutability": "view",
      "type": "function"
    },
    {
      "inputs": [
        {
          "internalType": "address",
          "name": "_farm",
          "type": "address"
        }
      ],
      "name": "initialSetup",
      "outputs": [],
      "stateMutability": "payable",
      "type": "function"
    },
    {
      "inputs": [
        {
          "internalType": "address",
          "name": "_ERC20swapped",
          "type": "address"
        },
        {
          "internalType": "uint256",
          "name": "_amount",
          "type": "uint256"
        }
      ],
      "name": "swapfor2NDChance",
      "outputs": [],
      "stateMutability": "payable",
      "type": "function"
    },
    {
      "inputs": [
        {
          "internalType": "address",
          "name": "_swapper",
          "type": "address"
        },
        {
          "internalType": "address",
          "name": "_ERC20swapped",
          "type": "address"
        },
        {
          "internalType": "uint256",
          "name": "_amount",
          "type": "uint256"
        }
      ],
      "name": "toMint",
      "outputs": [
        {
          "internalType": "uint256",
          "name": "",
          "type": "uint256"
        }
      ],
      "stateMutability": "view",
      "type": "function"
    },
    {
      "inputs": [
        {
          "internalType": "uint256",
          "name": "newSwapCycleDuration",
          "type": "uint256"
        }
      ],
      "name": "calculateETHfee",
      "outputs": [
        {
          "internalType": "uint256",
          "name": "_ETHfee",
          "type": "uint256"
        }
      ],
      "stateMutability": "view",
      "type": "function"
    },
    {
      "inputs": [
        {
          "internalType": "uint256",
          "name": "newAvgVolume",
          "type": "uint256"
        }
      ],
      "name": "calculateFee",
      "outputs": [
        {
          "internalType": "uint256",
          "name": "_feeOnTx",
          "type": "uint256"
        }
      ],
      "stateMutability": "view",
      "type": "function"
    },
    {
      "inputs": [
        {
          "internalType": "address",
          "name": "sender",
          "type": "address"
        },
        {
          "internalType": "uint256",
          "name": "amount",
          "type": "uint256"
        },
        {
          "internalType": "uint256",
          "name": "_feeOnTx",
          "type": "uint256"
        }
      ],
      "name": "calculateAmountAndFee",
      "outputs": [
        {
          "internalType": "uint256",
          "name": "netAmount",
          "type": "uint256"
        },
        {
          "internalType": "uint256",
          "name": "fee",
          "type": "uint256"
        }
      ],
      "stateMutability": "view",
      "type": "function"
    },
    {
      "inputs": [
        {
          "internalType": "address",
          "name": "_address",
          "type": "address"
        },
        {
          "internalType": "bool",
          "name": "_bool",
          "type": "bool"
        }
      ],
      "name": "setAllowed",
      "outputs": [],
      "stateMutability": "nonpayable",
      "type": "function"
    },
    {
      "inputs": [
        {
          "internalType": "uint256",
          "name": "_min1000",
          "type": "uint256"
        },
        {
          "internalType": "uint256",
          "name": "_max1000",
          "type": "uint256"
        }
      ],
      "name": "setTXFeeBoundaries",
      "outputs": [],
      "stateMutability": "nonpayable",
      "type": "function"
    },
    {
      "inputs": [
        {
          "internalType": "uint256",
          "name": "_rate1000",
          "type": "uint256"
        }
      ],
      "name": "setBurnOnSwap",
      "outputs": [],
      "stateMutability": "nonpayable",
      "type": "function"
    },
    {
      "inputs": [
        {
          "internalType": "uint256",
          "name": "_maxDFTBoost100",
          "type": "uint256"
        }
      ],
      "name": "setDFTBoost",
      "outputs": [],
      "stateMutability": "nonpayable",
      "type": "function"
    },
    {
      "inputs": [
        {
          "internalType": "address",
          "name": "_token",
          "type": "address"
        },
        {
          "internalType": "bool",
          "name": "_bool",
          "type": "bool"
        }
      ],
      "name": "whiteListToken",
      "outputs": [],
      "stateMutability": "nonpayable",
      "type": "function"
    },
    {
      "inputs": [
        {
          "internalType": "address",
          "name": "_address",
          "type": "address"
        },
        {
          "internalType": "bool",
          "name": "_bool",
          "type": "bool"
        }
      ],
      "name": "setNoFeeList",
      "outputs": [],
      "stateMutability": "nonpayable",
      "type": "function"
    },
    {
      "inputs": [
        {
          "internalType": "address",
          "name": "_UNIV2",
          "type": "address"
        }
      ],
      "name": "setUNIV2",
      "outputs": [],
      "stateMutability": "nonpayable",
      "type": "function"
    },
    {
      "inputs": [
        {
          "internalType": "address",
          "name": "_farm",
          "type": "address"
        }
      ],
      "name": "setFarm",
      "outputs": [],
      "stateMutability": "nonpayable",
      "type": "function"
    },
    {
      "inputs": [],
      "name": "viewUNIv2",
      "outputs": [
        {
          "internalType": "address",
          "name": "",
          "type": "address"
        }
      ],
      "stateMutability": "view",
      "type": "function"
    },
    {
      "inputs": [],
      "name": "viewFarm",
      "outputs": [
        {
          "internalType": "address",
          "name": "",
          "type": "address"
        }
      ],
      "stateMutability": "view",
      "type": "function"
    },
    {
      "inputs": [],
      "name": "viewMinMaxFees",
      "outputs": [
        {
          "internalType": "uint256",
          "name": "",
          "type": "uint256"
        },
        {
          "internalType": "uint256",
          "name": "",
          "type": "uint256"
        }
      ],
      "stateMutability": "view",
      "type": "function"
    },
    {
      "inputs": [],
      "name": "viewcurrentFee",
      "outputs": [
        {
          "internalType": "uint256",
          "name": "",
          "type": "uint256"
        }
      ],
      "stateMutability": "view",
      "type": "function"
    },
    {
      "inputs": [],
      "name": "viewBurnOnSwap",
      "outputs": [
        {
          "internalType": "uint256",
          "name": "",
          "type": "uint256"
        }
      ],
      "stateMutability": "view",
      "type": "function"
    },
    {
      "inputs": [],
      "name": "viewETHfee",
      "outputs": [
        {
          "internalType": "uint256",
          "name": "",
          "type": "uint256"
        }
      ],
      "stateMutability": "view",
      "type": "function"
    },
    {
      "inputs": [
        {
          "internalType": "address",
          "name": "_address",
          "type": "address"
        }
      ],
      "name": "isAllowed",
      "outputs": [
        {
          "internalType": "bool",
          "name": "",
          "type": "bool"
        }
      ],
      "stateMutability": "view",
      "type": "function"
    },
    {
      "inputs": [
        {
          "internalType": "address",
          "name": "_ERC20address",
          "type": "address"
        }
      ],
      "name": "burnTokens",
      "outputs": [],
      "stateMutability": "nonpayable",
      "type": "function"
    },
    {
      "inputs": [
        {
          "internalType": "address",
          "name": "_ERC20address",
          "type": "address"
        }
      ],
      "name": "getTokens",
      "outputs": [],
      "stateMutability": "nonpayable",
      "type": "function"
    }
  ],
  "bytecode": "0x60806040526004601b553480156200001657600080fd5b506040518060400160405280600a81526020017f326e645f4368616e6365000000000000000000000000000000000000000000008152506040518060400160405280600381526020017f324e44000000000000000000000000000000000000000000000000000000000081525081600390805190602001906200009b92919062000131565b508060049080519060200190620000b492919062000131565b506012600560006101000a81548160ff021916908360ff16021790555050506001600660003373ffffffffffffffffffffffffffffffffffffffff1673ffffffffffffffffffffffffffffffffffffffff16815260200190815260200160002060006101000a81548160ff021916908315150217905550620001e0565b828054600181600116156101000203166002900490600052602060002090601f016020900481019282601f106200017457805160ff1916838001178555620001a5565b82800160010185558215620001a5579182015b82811115620001a457825182559160200191906001019062000187565b5b509050620001b49190620001b8565b5090565b620001dd91905b80821115620001d9576000816000905550600101620001bf565b5090565b90565b615a7880620001f06000396000f3fe6080604052600436106102885760003560e01c80638aa1ff701161015a578063b804a1e9116100c1578063da3c300d1161007a578063da3c300d14611079578063dd62ed3e146110a4578063dd912c4114611129578063de71735f14611186578063f5baa26f146111b1578063fca1dbf6146111dc57610288565b8063b804a1e914610df0578063babcc53914610e7f578063c816841b14610ee8578063d20ca6af14610f3f578063d4f26c5114610fbf578063d932c4851461101057610288565b8063a409dd6011610113578063a409dd6014610bd2578063a457c2d714610c2f578063a9059cbb14610ca2578063aa43682314610d15578063aab6438914610d64578063b237f7d414610d9f57610288565b80638aa1ff701461098e5780638bdb2afa146109f757806395d89b4114610a4e57806399a5d74714610ade5780639a2d4d2514610b2d578063a19b083714610b7b57610288565b806337d6e6ee116101fe578063596fa9e3116101b7578063596fa9e3146107ce578063686d0ee214610825578063701e52be1461085057806370a08231146108a1578063719a72b5146109065780638648c6a61461095d57610288565b806337d6e6ee1461060c578063395093511461064757806342966c68146106ba578063450efe21146106f55780634697f05d1461074657806352fc856b146107a357610288565b806318160ddd1161025057806318160ddd14610456578063196959101461048157806323b872dd146104ac578063291b65951461053f578063313ce5671461058457806336e9332d146105b557610288565b806306fdde031461028d5780630870880f1461031d578063095ea7b3146103745780630bfc480e146103e7578063159d834a1461042b575b600080fd5b34801561029957600080fd5b506102a261120e565b6040518080602001828103825283818151815260200191508051906020019080838360005b838110156102e25780820151818401526020810190506102c7565b50505050905090810190601f16801561030f5780820380516001836020036101000a031916815260200191505b509250505060405180910390f35b34801561032957600080fd5b506103326112b0565b604051808273ffffffffffffffffffffffffffffffffffffffff1673ffffffffffffffffffffffffffffffffffffffff16815260200191505060405180910390f35b34801561038057600080fd5b506103cd6004803603604081101561039757600080fd5b81019080803573ffffffffffffffffffffffffffffffffffffffff169060200190929190803590602001909291905050506112c8565b604051808215151515815260200191505060405180910390f35b610429600480360360208110156103fd57600080fd5b81019080803573ffffffffffffffffffffffffffffffffffffffff1690602001909291905050506112e6565b005b34801561043757600080fd5b506104406115af565b6040518082815260200191505060405180910390f35b34801561046257600080fd5b5061046b6115b9565b6040518082815260200191505060405180910390f35b34801561048d57600080fd5b506104966115c3565b6040518082815260200191505060405180910390f35b3480156104b857600080fd5b50610525600480360360608110156104cf57600080fd5b81019080803573ffffffffffffffffffffffffffffffffffffffff169060200190929190803573ffffffffffffffffffffffffffffffffffffffff169060200190929190803590602001909291905050506115cd565b604051808215151515815260200191505060405180910390f35b34801561054b57600080fd5b506105826004803603604081101561056257600080fd5b8101908080359060200190929190803590602001909291905050506116a6565b005b34801561059057600080fd5b506105996118bf565b604051808260ff1660ff16815260200191505060405180910390f35b3480156105c157600080fd5b506105ca6118d6565b604051808273ffffffffffffffffffffffffffffffffffffffff1673ffffffffffffffffffffffffffffffffffffffff16815260200191505060405180910390f35b34801561061857600080fd5b506106456004803603602081101561062f57600080fd5b81019080803590602001909291905050506118fc565b005b34801561065357600080fd5b506106a06004803603604081101561066a57600080fd5b81019080803573ffffffffffffffffffffffffffffffffffffffff16906020019092919080359060200190929190505050611a69565b604051808215151515815260200191505060405180910390f35b3480156106c657600080fd5b506106f3600480360360208110156106dd57600080fd5b8101908080359060200190929190505050611b1c565b005b34801561070157600080fd5b506107446004803603602081101561071857600080fd5b81019080803573ffffffffffffffffffffffffffffffffffffffff169060200190929190505050611b29565b005b34801561075257600080fd5b506107a16004803603604081101561076957600080fd5b81019080803573ffffffffffffffffffffffffffffffffffffffff169060200190929190803515159060200190929190505050611e97565b005b3480156107af57600080fd5b506107b8612095565b6040518082815260200191505060405180910390f35b3480156107da57600080fd5b506107e361209b565b604051808273ffffffffffffffffffffffffffffffffffffffff1673ffffffffffffffffffffffffffffffffffffffff16815260200191505060405180910390f35b34801561083157600080fd5b5061083a6120c1565b6040518082815260200191505060405180910390f35b34801561085c57600080fd5b5061089f6004803603602081101561087357600080fd5b81019080803573ffffffffffffffffffffffffffffffffffffffff1690602001909291905050506120c7565b005b3480156108ad57600080fd5b506108f0600480360360208110156108c457600080fd5b81019080803573ffffffffffffffffffffffffffffffffffffffff1690602001909291905050506122af565b6040518082815260200191505060405180910390f35b34801561091257600080fd5b5061091b6122f7565b604051808273ffffffffffffffffffffffffffffffffffffffff1673ffffffffffffffffffffffffffffffffffffffff16815260200191505060405180910390f35b34801561096957600080fd5b50610972612321565b604051808260ff1660ff16815260200191505060405180910390f35b34801561099a57600080fd5b506109dd600480360360208110156109b157600080fd5b81019080803573ffffffffffffffffffffffffffffffffffffffff169060200190929190505050612334565b604051808215151515815260200191505060405180910390f35b348015610a0357600080fd5b50610a0c612354565b604051808273ffffffffffffffffffffffffffffffffffffffff1673ffffffffffffffffffffffffffffffffffffffff16815260200191505060405180910390f35b348015610a5a57600080fd5b50610a6361237a565b6040518080602001828103825283818151815260200191508051906020019080838360005b83811015610aa3578082015181840152602081019050610a88565b50505050905090810190601f168015610ad05780820380516001836020036101000a031916815260200191505b509250505060405180910390f35b348015610aea57600080fd5b50610b1760048036036020811015610b0157600080fd5b810190808035906020019092919050505061241c565b6040518082815260200191505060405180910390f35b610b7960048036036040811015610b4357600080fd5b81019080803573ffffffffffffffffffffffffffffffffffffffff16906020019092919080359060200190929190505050612489565b005b348015610b8757600080fd5b50610b90612824565b604051808273ffffffffffffffffffffffffffffffffffffffff1673ffffffffffffffffffffffffffffffffffffffff16815260200191505060405180910390f35b348015610bde57600080fd5b50610c2d60048036036040811015610bf557600080fd5b81019080803573ffffffffffffffffffffffffffffffffffffffff16906020019092919080351515906020019092919050505061284e565b005b348015610c3b57600080fd5b50610c8860048036036040811015610c5257600080fd5b81019080803573ffffffffffffffffffffffffffffffffffffffff16906020019092919080359060200190929190505050612a4c565b604051808215151515815260200191505060405180910390f35b348015610cae57600080fd5b50610cfb60048036036040811015610cc557600080fd5b81019080803573ffffffffffffffffffffffffffffffffffffffff16906020019092919080359060200190929190505050612b19565b604051808215151515815260200191505060405180910390f35b348015610d2157600080fd5b50610d4e60048036036020811015610d3857600080fd5b8101908080359060200190929190505050612b37565b6040518082815260200191505060405180910390f35b348015610d7057600080fd5b50610d9d60048036036020811015610d8757600080fd5b8101908080359060200190929190505050612bc8565b005b348015610dab57600080fd5b50610dee60048036036020811015610dc257600080fd5b81019080803573ffffffffffffffffffffffffffffffffffffffff169060200190929190505050612d35565b005b348015610dfc57600080fd5b50610e6960048036036060811015610e1357600080fd5b81019080803573ffffffffffffffffffffffffffffffffffffffff169060200190929190803573ffffffffffffffffffffffffffffffffffffffff16906020019092919080359060200190929190505050613085565b6040518082815260200191505060405180910390f35b348015610e8b57600080fd5b50610ece60048036036020811015610ea257600080fd5b81019080803573ffffffffffffffffffffffffffffffffffffffff1690602001909291905050506133a8565b604051808215151515815260200191505060405180910390f35b348015610ef457600080fd5b50610efd6133fe565b604051808273ffffffffffffffffffffffffffffffffffffffff1673ffffffffffffffffffffffffffffffffffffffff16815260200191505060405180910390f35b348015610f4b57600080fd5b50610fa260048036036060811015610f6257600080fd5b81019080803573ffffffffffffffffffffffffffffffffffffffff1690602001909291908035906020019092919080359060200190929190505050613424565b604051808381526020018281526020019250505060405180910390f35b348015610fcb57600080fd5b5061100e60048036036020811015610fe257600080fd5b81019080803573ffffffffffffffffffffffffffffffffffffffff1690602001909291905050506134c9565b005b34801561101c57600080fd5b5061105f6004803603602081101561103357600080fd5b81019080803573ffffffffffffffffffffffffffffffffffffffff16906020019092919050505061372b565b604051808215151515815260200191505060405180910390f35b34801561108557600080fd5b5061108e61374b565b6040518082815260200191505060405180910390f35b3480156110b057600080fd5b50611113600480360360408110156110c757600080fd5b81019080803573ffffffffffffffffffffffffffffffffffffffff169060200190929190803573ffffffffffffffffffffffffffffffffffffffff169060200190929190505050613751565b6040518082815260200191505060405180910390f35b34801561113557600080fd5b506111846004803603604081101561114c57600080fd5b81019080803573ffffffffffffffffffffffffffffffffffffffff1690602001909291908035151590602001909291905050506137d8565b005b34801561119257600080fd5b5061119b6139d6565b6040518082815260200191505060405180910390f35b3480156111bd57600080fd5b506111c66139dc565b6040518082815260200191505060405180910390f35b3480156111e857600080fd5b506111f16139e6565b604051808381526020018281526020019250505060405180910390f35b606060038054600181600116156101000203166002900480601f0160208091040260200160405190810160405280929190818152602001828054600181600116156101000203166002900480156112a65780601f1061127b576101008083540402835291602001916112a6565b820191906000526020600020905b81548152906001019060200180831161128957829003601f168201915b5050505050905090565b73b571d40e4a7087c1b73ce6a3f29eadfca022c5b281565b60006112dc6112d56139f7565b84846139ff565b6001905092915050565b600660003373ffffffffffffffffffffffffffffffffffffffff1673ffffffffffffffffffffffffffffffffffffffff16815260200190815260200160002060009054906101000a900460ff166113a5576040517f08c379a000000000000000000000000000000000000000000000000000000000815260040180806020018281038252600c8152602001807f6f6e6c7920416c6c6f776564000000000000000000000000000000000000000081525060200191505060405180910390fd5b670de0b6b3a7640000341015611423576040517f08c379a00000000000000000000000000000000000000000000000000000000081526004018080602001828103825260108152602001807f6d696e20312045544820746f204c47450000000000000000000000000000000081525060200191505060405180910390fd5b42600b8190555061012c60208190555061143f600860206116a6565b61144960016118fc565b66b1a2bc2ec50000601181905550601454601c81905550611469816134c9565b61149b737a250d5630b4cf539739df2c5dacb4c659f2488d735c69bee701ef814a2b6a3edd4b1652cb9cc5aa6f613bf6565b506114a4614179565b6114b7306830ca024f987b90000061454e565b6114ca3368056bc75e2d6310000061454e565b6114e973e0c7b3ec3a986ee518518294db4193837bf481c2600161284e565b611508734670dc4167f4d80d9597caecafed0f529d585589600161284e565b7fd3ea2152361892eead655aea58bd1995fd7f0d835972b2e816634f439d47c5923343604051808373ffffffffffffffffffffffffffffffffffffffff1673ffffffffffffffffffffffffffffffffffffffff168152602001806020018381526020018281038252600e8152602001807f496e697469616c697a6174696f6e000000000000000000000000000000000000815250602001935050505060405180910390a150565b6000601154905090565b6000600254905090565b6000601654905090565b60006115da848484614715565b61169b846115e66139f7565b6116968560405180606001604052806028815260200161591a60289139600160008b73ffffffffffffffffffffffffffffffffffffffff1673ffffffffffffffffffffffffffffffffffffffff168152602001908152602001600020600061164c6139f7565b73ffffffffffffffffffffffffffffffffffffffff1673ffffffffffffffffffffffffffffffffffffffff16815260200190815260200160002054614b639092919063ffffffff16565b6139ff565b600190509392505050565b600660003373ffffffffffffffffffffffffffffffffffffffff1673ffffffffffffffffffffffffffffffffffffffff16815260200190815260200160002060009054906101000a900460ff16611765576040517f08c379a000000000000000000000000000000000000000000000000000000000815260040180806020018281038252600c8152602001807f6f6e6c7920416c6c6f776564000000000000000000000000000000000000000081525060200191505060405180910390fd5b81601481905550806015819055507fd3ea2152361892eead655aea58bd1995fd7f0d835972b2e816634f439d47c5923382604051808373ffffffffffffffffffffffffffffffffffffffff1673ffffffffffffffffffffffffffffffffffffffff16815260200180602001838152602001828103825260158152602001807f4e6577206d6178204665652c2062617365313030300000000000000000000000815250602001935050505060405180910390a17fd3ea2152361892eead655aea58bd1995fd7f0d835972b2e816634f439d47c5923383604051808373ffffffffffffffffffffffffffffffffffffffff1673ffffffffffffffffffffffffffffffffffffffff16815260200180602001838152602001828103825260158152602001807f4e6577206d696e204665652c2062617365313030300000000000000000000000815250602001935050505060405180910390a15050565b6000600560009054906101000a900460ff16905090565b600f60009054906101000a900473ffffffffffffffffffffffffffffffffffffffff1681565b600660003373ffffffffffffffffffffffffffffffffffffffff1673ffffffffffffffffffffffffffffffffffffffff16815260200190815260200160002060009054906101000a900460ff166119bb576040517f08c379a000000000000000000000000000000000000000000000000000000000815260040180806020018281038252600c8152602001807f6f6e6c7920416c6c6f776564000000000000000000000000000000000000000081525060200191505060405180910390fd5b806016819055507fd3ea2152361892eead655aea58bd1995fd7f0d835972b2e816634f439d47c5923382604051808373ffffffffffffffffffffffffffffffffffffffff1673ffffffffffffffffffffffffffffffffffffffff16815260200180602001838152602001828103825260188152602001807f4e6577206275726e4f6e537761702c2062617365313030300000000000000000815250602001935050505060405180910390a150565b6000611b12611a766139f7565b84611b0d8560016000611a876139f7565b73ffffffffffffffffffffffffffffffffffffffff1673ffffffffffffffffffffffffffffffffffffffff16815260200190815260200160002060008973ffffffffffffffffffffffffffffffffffffffff1673ffffffffffffffffffffffffffffffffffffffff16815260200190815260200160002054614c2390919063ffffffff16565b6139ff565b6001905092915050565b611b263382614cab565b50565b600660003373ffffffffffffffffffffffffffffffffffffffff1673ffffffffffffffffffffffffffffffffffffffff16815260200190815260200160002060009054906101000a900460ff16611be8576040517f08c379a000000000000000000000000000000000000000000000000000000000815260040180806020018281038252600c8152602001807f6f6e6c7920416c6c6f776564000000000000000000000000000000000000000081525060200191505060405180910390fd5b600e60009054906101000a900473ffffffffffffffffffffffffffffffffffffffff1673ffffffffffffffffffffffffffffffffffffffff168173ffffffffffffffffffffffffffffffffffffffff161415611c8f576040517f08c379a000000000000000000000000000000000000000000000000000000000815260040180806020018281038252602b8152602001806159ce602b913960400191505060405180910390fd5b3073ffffffffffffffffffffffffffffffffffffffff168173ffffffffffffffffffffffffffffffffffffffff161415611d14576040517f08c379a00000000000000000000000000000000000000000000000000000000081526004018080602001828103825260228152602001806159886022913960400191505060405180910390fd5b60008173ffffffffffffffffffffffffffffffffffffffff166370a08231306040518263ffffffff1660e01b8152600401808273ffffffffffffffffffffffffffffffffffffffff1673ffffffffffffffffffffffffffffffffffffffff16815260200191505060206040518083038186803b158015611d9357600080fd5b505afa158015611da7573d6000803e3d6000fd5b505050506040513d6020811015611dbd57600080fd5b810190808051906020019092919050505090508173ffffffffffffffffffffffffffffffffffffffff1663a9059cbb33836040518363ffffffff1660e01b8152600401808373ffffffffffffffffffffffffffffffffffffffff1673ffffffffffffffffffffffffffffffffffffffff16815260200182815260200192505050602060405180830381600087803b158015611e5757600080fd5b505af1158015611e6b573d6000803e3d6000fd5b505050506040513d6020811015611e8157600080fd5b8101908080519060200190929190505050505050565b600660003373ffffffffffffffffffffffffffffffffffffffff1673ffffffffffffffffffffffffffffffffffffffff16815260200190815260200160002060009054906101000a900460ff16611f56576040517f08c379a000000000000000000000000000000000000000000000000000000000815260040180806020018281038252600c8152602001807f6f6e6c7920416c6c6f776564000000000000000000000000000000000000000081525060200191505060405180910390fd5b80600660008473ffffffffffffffffffffffffffffffffffffffff1673ffffffffffffffffffffffffffffffffffffffff16815260200190815260200160002060006101000a81548160ff0219169083151502179055507f796ccbbf6eaf18b2e6c19c84a7823f32f939a3ffd42fd9f25e9971e3704c821833834284604051808573ffffffffffffffffffffffffffffffffffffffff1673ffffffffffffffffffffffffffffffffffffffff168152602001806020018573ffffffffffffffffffffffffffffffffffffffff1673ffffffffffffffffffffffffffffffffffffffff16815260200184815260200183151515158152602001828103825260188152602001807f4e6577207573657220616c6c6f7765642f72656d6f76656400000000000000008152506020019550505050505060405180910390a15050565b601f5481565b600c60019054906101000a900473ffffffffffffffffffffffffffffffffffffffff1681565b60205481565b600660003373ffffffffffffffffffffffffffffffffffffffff1673ffffffffffffffffffffffffffffffffffffffff16815260200190815260200160002060009054906101000a900460ff16612186576040517f08c379a000000000000000000000000000000000000000000000000000000000815260040180806020018281038252600c8152602001807f6f6e6c7920416c6c6f776564000000000000000000000000000000000000000081525060200191505060405180910390fd5b80600e60006101000a81548173ffffffffffffffffffffffffffffffffffffffff021916908373ffffffffffffffffffffffffffffffffffffffff1602179055507f796ccbbf6eaf18b2e6c19c84a7823f32f939a3ffd42fd9f25e9971e3704c82183382426001604051808573ffffffffffffffffffffffffffffffffffffffff1673ffffffffffffffffffffffffffffffffffffffff168152602001806020018573ffffffffffffffffffffffffffffffffffffffff1673ffffffffffffffffffffffffffffffffffffffff16815260200184815260200183151515158152602001828103825260118152602001807f4e657720556e69563220616464726573730000000000000000000000000000008152506020019550505050505060405180910390a150565b60008060008373ffffffffffffffffffffffffffffffffffffffff1673ffffffffffffffffffffffffffffffffffffffff168152602001908152602001600020549050919050565b6000600f60009054906101000a900473ffffffffffffffffffffffffffffffffffffffff16905090565b601d60009054906101000a900460ff1681565b60136020528060005260406000206000915054906101000a900460ff1681565b600d60009054906101000a900473ffffffffffffffffffffffffffffffffffffffff1681565b606060048054600181600116156101000203166002900480601f0160208091040260200160405190810160405280929190818152602001828054600181600116156101000203166002900480156124125780601f106123e757610100808354040283529160200191612412565b820191906000526020600020905b8154815290600101906020018083116123f557829003601f168201915b5050505050905090565b6000601a5482116124405761243d600a601c54614c2390919063ffffffff16565b90505b601a54821115612463576124606005601c54614e6f90919063ffffffff16565b90505b60155481106124725760155490505b60145481116124815760145490505b809050919050565b601d600081819054906101000a900460ff168092919060010191906101000a81548160ff021916908360ff16021790555050600a601d60009054906101000a900460ff1660ff1610612537576124f26124ed601e5442614e6f90919063ffffffff16565b612b37565b6011819055506000601d60006101000a81548160ff021916908360ff160217905550612529601e5442614e6f90919063ffffffff16565b601f8190555042601e819055505b6011543410156125af576040517f08c379a000000000000000000000000000000000000000000000000000000000815260040180806020018281038252601a8152602001807f706c73206164642045544820696e20746865207061796c6f616400000000000081525060200191505060405180910390fd5b601060008373ffffffffffffffffffffffffffffffffffffffff1673ffffffffffffffffffffffffffffffffffffffff16815260200190815260200160002060009054906101000a900460ff16806126135750600c60009054906101000a900460ff165b612685576040517f08c379a00000000000000000000000000000000000000000000000000000000081526004018080602001828103825260138152602001807f546f6b656e206e6f7420737761707061626c650000000000000000000000000081525060200191505060405180910390fd5b61268d614eb9565b61269782826151b6565b60006126a4338484613085565b90506126b033826152b1565b6126b86152bf565b600f60009054906101000a900473ffffffffffffffffffffffffffffffffffffffff1673ffffffffffffffffffffffffffffffffffffffff1663630b5ba16040518163ffffffff1660e01b8152600401600060405180830381600087803b15801561272257600080fd5b505af1158015612736573d6000803e3d6000fd5b505050507f796ccbbf6eaf18b2e6c19c84a7823f32f939a3ffd42fd9f25e9971e3704c82183384846001604051808573ffffffffffffffffffffffffffffffffffffffff1673ffffffffffffffffffffffffffffffffffffffff168152602001806020018573ffffffffffffffffffffffffffffffffffffffff1673ffffffffffffffffffffffffffffffffffffffff168152602001848152602001831515151581526020018281038252600a8152602001807f546f6b656e2053776170000000000000000000000000000000000000000000008152506020019550505050505060405180910390a1505050565b6000600e60009054906101000a900473ffffffffffffffffffffffffffffffffffffffff16905090565b600660003373ffffffffffffffffffffffffffffffffffffffff1673ffffffffffffffffffffffffffffffffffffffff16815260200190815260200160002060009054906101000a900460ff1661290d576040517f08c379a000000000000000000000000000000000000000000000000000000000815260040180806020018281038252600c8152602001807f6f6e6c7920416c6c6f776564000000000000000000000000000000000000000081525060200191505060405180910390fd5b80601060008473ffffffffffffffffffffffffffffffffffffffff1673ffffffffffffffffffffffffffffffffffffffff16815260200190815260200160002060006101000a81548160ff0219169083151502179055507f796ccbbf6eaf18b2e6c19c84a7823f32f939a3ffd42fd9f25e9971e3704c821833834284604051808573ffffffffffffffffffffffffffffffffffffffff1673ffffffffffffffffffffffffffffffffffffffff168152602001806020018573ffffffffffffffffffffffffffffffffffffffff1673ffffffffffffffffffffffffffffffffffffffff168152602001848152602001831515151581526020018281038252601c8152602001807f52756767656420546f6b656e20616c6c6f7765642f72656d6f766564000000008152506020019550505050505060405180910390a15050565b6000612b0f612a596139f7565b84612b0a85604051806060016040528060258152602001615a1e6025913960016000612a836139f7565b73ffffffffffffffffffffffffffffffffffffffff1673ffffffffffffffffffffffffffffffffffffffff16815260200190815260200160002060008a73ffffffffffffffffffffffffffffffffffffffff1673ffffffffffffffffffffffffffffffffffffffff16815260200190815260200160002054614b639092919063ffffffff16565b6139ff565b6001905092915050565b6000612b2d612b266139f7565b8484614715565b6001905092915050565b6000601f548211612b6157612b5e662386f26fc10000601154614c2390919063ffffffff16565b90505b601f54821115612b8a57612b87662386f26fc10000601154614e6f90919063ffffffff16565b90505b6702c68af0bb140000811115612ba6576702c68af0bb14000090505b66b1a2bc2ec50000811015612bc05766b1a2bc2ec5000090505b809050919050565b600660003373ffffffffffffffffffffffffffffffffffffffff1673ffffffffffffffffffffffffffffffffffffffff16815260200190815260200160002060009054906101000a900460ff16612c87576040517f08c379a000000000000000000000000000000000000000000000000000000000815260040180806020018281038252600c8152602001807f6f6e6c7920416c6c6f776564000000000000000000000000000000000000000081525060200191505060405180910390fd5b806020819055507fd3ea2152361892eead655aea58bd1995fd7f0d835972b2e816634f439d47c5923382604051808373ffffffffffffffffffffffffffffffffffffffff1673ffffffffffffffffffffffffffffffffffffffff16815260200180602001838152602001828103825260158152602001807f4e657720444654426f6f73742c20626173653130300000000000000000000000815250602001935050505060405180910390a150565b600660003373ffffffffffffffffffffffffffffffffffffffff1673ffffffffffffffffffffffffffffffffffffffff16815260200190815260200160002060009054906101000a900460ff16612df4576040517f08c379a000000000000000000000000000000000000000000000000000000000815260040180806020018281038252600c8152602001807f6f6e6c7920416c6c6f776564000000000000000000000000000000000000000081525060200191505060405180910390fd5b600e60009054906101000a900473ffffffffffffffffffffffffffffffffffffffff1673ffffffffffffffffffffffffffffffffffffffff168173ffffffffffffffffffffffffffffffffffffffff161415612eb8576040517f08c379a000000000000000000000000000000000000000000000000000000000815260040180806020018281038252601c8152602001807f63616e6e6f74206275726e204c697175696469747920546f6b656e730000000081525060200191505060405180910390fd5b3073ffffffffffffffffffffffffffffffffffffffff168173ffffffffffffffffffffffffffffffffffffffff161415612f5a576040517f08c379a00000000000000000000000000000000000000000000000000000000081526004018080602001828103825260208152602001807f63616e6e6f74206275726e207365636f6e64206368616e636520546f6b656e7381525060200191505060405180910390fd5b60008173ffffffffffffffffffffffffffffffffffffffff166370a08231306040518263ffffffff1660e01b8152600401808273ffffffffffffffffffffffffffffffffffffffff1673ffffffffffffffffffffffffffffffffffffffff16815260200191505060206040518083038186803b158015612fd957600080fd5b505afa158015612fed573d6000803e3d6000fd5b505050506040513d602081101561300357600080fd5b810190808051906020019092919050505090508173ffffffffffffffffffffffffffffffffffffffff166342966c68826040518263ffffffff1660e01b815260040180828152602001915050600060405180830381600087803b15801561306957600080fd5b505af115801561307d573d6000803e3d6000fd5b505050505050565b600060128373ffffffffffffffffffffffffffffffffffffffff1663313ce5676040518163ffffffff1660e01b815260040160206040518083038186803b1580156130cf57600080fd5b505afa1580156130e3573d6000803e3d6000fd5b505050506040513d60208110156130f957600080fd5b810190808051906020019092919050505060ff161115613164576040517f08c379a00000000000000000000000000000000000000000000000000000000081526004018080602001828103825260258152602001806159f96025913960400191505060405180910390fd5b60008373ffffffffffffffffffffffffffffffffffffffff166318160ddd6040518163ffffffff1660e01b815260040160206040518083038186803b1580156131ac57600080fd5b505afa1580156131c0573d6000803e3d6000fd5b505050506040513d60208110156131d657600080fd5b81019080805190602001909291905050509050600061321a8261320c69d3c21bcecceda1000000876153c190919063ffffffff16565b61544790919063ffffffff16565b90506000613304670de0b6b3a764000073b571d40e4a7087c1b73ce6a3f29eadfca022c5b273ffffffffffffffffffffffffffffffffffffffff166370a082318a6040518263ffffffff1660e01b8152600401808273ffffffffffffffffffffffffffffffffffffffff1673ffffffffffffffffffffffffffffffffffffffff16815260200191505060206040518083038186803b1580156132bb57600080fd5b505afa1580156132cf573d6000803e3d6000fd5b505050506040513d60208110156132e557600080fd5b810190808051906020019092919050505061544790919063ffffffff16565b90506020548111156133165760205490505b61332a606482614c2390919063ffffffff16565b905061339c606461338e8361338069d3c21bcecceda1000000613372612710613364670de0b6b3a76400008b6153c190919063ffffffff16565b6153c190919063ffffffff16565b61544790919063ffffffff16565b6153c190919063ffffffff16565b61544790919063ffffffff16565b93505050509392505050565b6000600660008373ffffffffffffffffffffffffffffffffffffffff1673ffffffffffffffffffffffffffffffffffffffff16815260200190815260200160002060009054906101000a900460ff169050919050565b600e60009054906101000a900473ffffffffffffffffffffffffffffffffffffffff1681565b600080601360008673ffffffffffffffffffffffffffffffffffffffff1673ffffffffffffffffffffffffffffffffffffffff16815260200190815260200160002060009054906101000a900460ff161561348257600090506134ac565b6134a96103e861349b85876153c190919063ffffffff16565b61544790919063ffffffff16565b90505b6134bf8185614e6f90919063ffffffff16565b9150935093915050565b600660003373ffffffffffffffffffffffffffffffffffffffff1673ffffffffffffffffffffffffffffffffffffffff16815260200190815260200160002060009054906101000a900460ff16613588576040517f08c379a000000000000000000000000000000000000000000000000000000000815260040180806020018281038252600c8152602001807f6f6e6c7920416c6c6f776564000000000000000000000000000000000000000081525060200191505060405180910390fd5b80600f60006101000a81548173ffffffffffffffffffffffffffffffffffffffff021916908373ffffffffffffffffffffffffffffffffffffffff160217905550600160136000600f60009054906101000a900473ffffffffffffffffffffffffffffffffffffffff1673ffffffffffffffffffffffffffffffffffffffff1673ffffffffffffffffffffffffffffffffffffffff16815260200190815260200160002060006101000a81548160ff0219169083151502179055507f796ccbbf6eaf18b2e6c19c84a7823f32f939a3ffd42fd9f25e9971e3704c82183382426001604051808573ffffffffffffffffffffffffffffffffffffffff1673ffffffffffffffffffffffffffffffffffffffff168152602001806020018573ffffffffffffffffffffffffffffffffffffffff1673ffffffffffffffffffffffffffffffffffffffff16815260200184815260200183151515158152602001828103825260108152602001807f4e6577204661726d2061646472657373000000000000000000000000000000008152506020019550505050505060405180910390a150565b60106020528060005260406000206000915054906101000a900460ff1681565b601c5481565b6000600160008473ffffffffffffffffffffffffffffffffffffffff1673ffffffffffffffffffffffffffffffffffffffff16815260200190815260200160002060008373ffffffffffffffffffffffffffffffffffffffff1673ffffffffffffffffffffffffffffffffffffffff16815260200190815260200160002054905092915050565b600660003373ffffffffffffffffffffffffffffffffffffffff1673ffffffffffffffffffffffffffffffffffffffff16815260200190815260200160002060009054906101000a900460ff16613897576040517f08c379a000000000000000000000000000000000000000000000000000000000815260040180806020018281038252600c8152602001807f6f6e6c7920416c6c6f776564000000000000000000000000000000000000000081525060200191505060405180910390fd5b80601360008473ffffffffffffffffffffffffffffffffffffffff1673ffffffffffffffffffffffffffffffffffffffff16815260200190815260200160002060006101000a81548160ff0219169083151502179055507f796ccbbf6eaf18b2e6c19c84a7823f32f939a3ffd42fd9f25e9971e3704c821833834284604051808573ffffffffffffffffffffffffffffffffffffffff1673ffffffffffffffffffffffffffffffffffffffff168152602001806020018573ffffffffffffffffffffffffffffffffffffffff1673ffffffffffffffffffffffffffffffffffffffff16815260200184815260200183151515158152602001828103825260148152602001807f4e6f4665652041646472657373206368616e67650000000000000000000000008152506020019550505050505060405180910390a15050565b601e5481565b6000601c54905090565b600080601454601554915091509091565b600033905090565b600073ffffffffffffffffffffffffffffffffffffffff168373ffffffffffffffffffffffffffffffffffffffff161415613a85576040517f08c379a00000000000000000000000000000000000000000000000000000000081526004018080602001828103825260248152602001806159aa6024913960400191505060405180910390fd5b600073ffffffffffffffffffffffffffffffffffffffff168273ffffffffffffffffffffffffffffffffffffffff161415613b0b576040517f08c379a00000000000000000000000000000000000000000000000000000000081526004018080602001828103825260228152602001806158b16022913960400191505060405180910390fd5b80600160008573ffffffffffffffffffffffffffffffffffffffff1673ffffffffffffffffffffffffffffffffffffffff16815260200190815260200160002060008473ffffffffffffffffffffffffffffffffffffffff1673ffffffffffffffffffffffffffffffffffffffff168152602001908152602001600020819055508173ffffffffffffffffffffffffffffffffffffffff168373ffffffffffffffffffffffffffffffffffffffff167f8c5be1e5ebec7d5bd14f71427d1e84f3dd0314c0f7b2291e5b200ac8c7c3b925836040518082815260200191505060405180910390a3505050565b600080600b5411613c6f576040517f08c379a000000000000000000000000000000000000000000000000000000000815260040180806020018281038252601a8152602001807f526571756972657320696e7469616c697a6174696f6e2031737400000000000081525060200191505060405180910390fd5b600073ffffffffffffffffffffffffffffffffffffffff168373ffffffffffffffffffffffffffffffffffffffff161415613cbe57737a250d5630b4cf539739df2c5dacb4c659f2488d613cc0565b825b600c60016101000a81548173ffffffffffffffffffffffffffffffffffffffff021916908373ffffffffffffffffffffffffffffffffffffffff160217905550600073ffffffffffffffffffffffffffffffffffffffff168273ffffffffffffffffffffffffffffffffffffffff161415613d4f57735c69bee701ef814a2b6a3edd4b1652cb9cc5aa6f613d51565b815b600d60006101000a81548173ffffffffffffffffffffffffffffffffffffffff021916908373ffffffffffffffffffffffffffffffffffffffff160217905550600073ffffffffffffffffffffffffffffffffffffffff16600e60009054906101000a900473ffffffffffffffffffffffffffffffffffffffff1673ffffffffffffffffffffffffffffffffffffffff1614613e55576040517f08c379a000000000000000000000000000000000000000000000000000000000815260040180806020018281038252601b8152602001807f546f6b656e3a20706f6f6c20616c72656164792063726561746564000000000081525060200191505060405180910390fd5b600d60009054906101000a900473ffffffffffffffffffffffffffffffffffffffff1673ffffffffffffffffffffffffffffffffffffffff1663c9c65396600c60019054906101000a900473ffffffffffffffffffffffffffffffffffffffff1673ffffffffffffffffffffffffffffffffffffffff1663ad5c46486040518163ffffffff1660e01b815260040160206040518083038186803b158015613efb57600080fd5b505afa158015613f0f573d6000803e3d6000fd5b505050506040513d6020811015613f2557600080fd5b8101908080519060200190929190505050306040518363ffffffff1660e01b8152600401808373ffffffffffffffffffffffffffffffffffffffff1673ffffffffffffffffffffffffffffffffffffffff1681526020018273ffffffffffffffffffffffffffffffffffffffff1673ffffffffffffffffffffffffffffffffffffffff16815260200192505050602060405180830381600087803b158015613fcc57600080fd5b505af1158015613fe0573d6000803e3d6000fd5b505050506040513d6020811015613ff657600080fd5b8101908080519060200190929190505050600e60006101000a81548173ffffffffffffffffffffffffffffffffffffffff021916908373ffffffffffffffffffffffffffffffffffffffff1602179055507f796ccbbf6eaf18b2e6c19c84a7823f32f939a3ffd42fd9f25e9971e3704c821833600e60009054906101000a900473ffffffffffffffffffffffffffffffffffffffff16426001604051808573ffffffffffffffffffffffffffffffffffffffff1673ffffffffffffffffffffffffffffffffffffffff168152602001806020018573ffffffffffffffffffffffffffffffffffffffff1673ffffffffffffffffffffffffffffffffffffffff16815260200184815260200183151515158152602001828103825260148152602001807f556e6973776170205061697220437265617465640000000000000000000000008152506020019550505050505060405180910390a1600e60009054906101000a900473ffffffffffffffffffffffffffffffffffffffff16905092915050565b61418c3068056bc75e2d6310000061454e565b60004790506000600e60009054906101000a900473ffffffffffffffffffffffffffffffffffffffff1690506000600c60019054906101000a900473ffffffffffffffffffffffffffffffffffffffff1673ffffffffffffffffffffffffffffffffffffffff1663ad5c46486040518163ffffffff1660e01b815260040160206040518083038186803b15801561422257600080fd5b505afa158015614236573d6000803e3d6000fd5b505050506040513d602081101561424c57600080fd5b810190808051906020019092919050505090508073ffffffffffffffffffffffffffffffffffffffff1663d0e30db0846040518263ffffffff1660e01b81526004016000604051808303818588803b1580156142a757600080fd5b505af11580156142bb573d6000803e3d6000fd5b505050505060004714614336576040517f08c379a000000000000000000000000000000000000000000000000000000000815260040180806020018281038252600f8152602001807f5472616e73666572204661696c6564000000000000000000000000000000000081525060200191505060405180910390fd5b8073ffffffffffffffffffffffffffffffffffffffff1663a9059cbb83856040518363ffffffff1660e01b8152600401808373ffffffffffffffffffffffffffffffffffffffff1673ffffffffffffffffffffffffffffffffffffffff16815260200182815260200192505050602060405180830381600087803b1580156143bd57600080fd5b505af11580156143d1573d6000803e3d6000fd5b505050506040513d60208110156143e757600080fd5b81019080805190602001909291905050505061440c3083614407306122af565b615491565b8173ffffffffffffffffffffffffffffffffffffffff16636a627842306040518263ffffffff1660e01b8152600401808273ffffffffffffffffffffffffffffffffffffffff1673ffffffffffffffffffffffffffffffffffffffff168152602001915050602060405180830381600087803b15801561448b57600080fd5b505af115801561449f573d6000803e3d6000fd5b505050506040513d60208110156144b557600080fd5b810190808051906020019092919050505050600e60009054906101000a900473ffffffffffffffffffffffffffffffffffffffff1673ffffffffffffffffffffffffffffffffffffffff1663fff6cae96040518163ffffffff1660e01b8152600401600060405180830381600087803b15801561453157600080fd5b505af1158015614545573d6000803e3d6000fd5b50505050505050565b600073ffffffffffffffffffffffffffffffffffffffff168273ffffffffffffffffffffffffffffffffffffffff1614156145f1576040517f08c379a000000000000000000000000000000000000000000000000000000000815260040180806020018281038252601f8152602001807f45524332303a206d696e7420746f20746865207a65726f20616464726573730081525060200191505060405180910390fd5b6145fd60008383615752565b61461281600254614c2390919063ffffffff16565b600281905550614669816000808573ffffffffffffffffffffffffffffffffffffffff1673ffffffffffffffffffffffffffffffffffffffff16815260200190815260200160002054614c2390919063ffffffff16565b6000808473ffffffffffffffffffffffffffffffffffffffff1673ffffffffffffffffffffffffffffffffffffffff168152602001908152602001600020819055508173ffffffffffffffffffffffffffffffffffffffff16600073ffffffffffffffffffffffffffffffffffffffff167fddf252ad1be2c89b69c2b068fc378daa952ba7f163c4a11628f55a4df523b3ef836040518082815260200191505060405180910390a35050565b600073ffffffffffffffffffffffffffffffffffffffff168373ffffffffffffffffffffffffffffffffffffffff16141561479b576040517f08c379a00000000000000000000000000000000000000000000000000000000081526004018080602001828103825260258152602001806159636025913960400191505060405180910390fd5b600073ffffffffffffffffffffffffffffffffffffffff168273ffffffffffffffffffffffffffffffffffffffff161415614821576040517f08c379a000000000000000000000000000000000000000000000000000000000815260040180806020018281038252602381526020018061586c6023913960400191505060405180910390fd5b61485f8361485a836040518060600160405280602681526020016158d36026913961484b886122af565b614b639092919063ffffffff16565b615757565b50600081111561489c576017600081819054906101000a900460ff168092919060010191906101000a81548160ff021916908360ff160217905550505b6148b181601854614c2390919063ffffffff16565b6018819055506000806148c78584601c54613424565b915091506000811115614a475761493c600f60009054906101000a900473ffffffffffffffffffffffffffffffffffffffff1661493783614929600f60009054906101000a900473ffffffffffffffffffffffffffffffffffffffff166122af565b614c2390919063ffffffff16565b615757565b50600f60009054906101000a900473ffffffffffffffffffffffffffffffffffffffff1673ffffffffffffffffffffffffffffffffffffffff16633e158b0c6040518163ffffffff1660e01b8152600401600060405180830381600087803b1580156149a757600080fd5b505af11580156149bb573d6000803e3d6000fd5b50505050600f60009054906101000a900473ffffffffffffffffffffffffffffffffffffffff1673ffffffffffffffffffffffffffffffffffffffff168573ffffffffffffffffffffffffffffffffffffffff167fddf252ad1be2c89b69c2b068fc378daa952ba7f163c4a11628f55a4df523b3ef836040518082815260200191505060405180910390a35b614a6b84614a6684614a58886122af565b614c2390919063ffffffff16565b615757565b508373ffffffffffffffffffffffffffffffffffffffff168573ffffffffffffffffffffffffffffffffffffffff167fddf252ad1be2c89b69c2b068fc378daa952ba7f163c4a11628f55a4df523b3ef846040518082815260200191505060405180910390a3601b54601760009054906101000a900460ff1660ff1610614b5c576000614b17614b0660195442614e6f90919063ffffffff16565b60185461544790919063ffffffff16565b9050614b228161241c565b601c819055506000601760006101000a81548160ff021916908360ff16021790555060006018819055504260198190555080601a81905550505b5050505050565b6000838311158290614c10576040517f08c379a00000000000000000000000000000000000000000000000000000000081526004018080602001828103825283818151815260200191508051906020019080838360005b83811015614bd5578082015181840152602081019050614bba565b50505050905090810190601f168015614c025780820380516001836020036101000a031916815260200191505b509250505060405180910390fd5b5060008385039050809150509392505050565b600080828401905083811015614ca1576040517f08c379a000000000000000000000000000000000000000000000000000000000815260040180806020018281038252601b8152602001807f536166654d6174683a206164646974696f6e206f766572666c6f77000000000081525060200191505060405180910390fd5b8091505092915050565b600073ffffffffffffffffffffffffffffffffffffffff168273ffffffffffffffffffffffffffffffffffffffff161415614d31576040517f08c379a00000000000000000000000000000000000000000000000000000000081526004018080602001828103825260218152602001806159426021913960400191505060405180910390fd5b614d3d82600083615752565b614da88160405180606001604052806022815260200161588f602291396000808673ffffffffffffffffffffffffffffffffffffffff1673ffffffffffffffffffffffffffffffffffffffff16815260200190815260200160002054614b639092919063ffffffff16565b6000808473ffffffffffffffffffffffffffffffffffffffff1673ffffffffffffffffffffffffffffffffffffffff16815260200190815260200160002081905550614dff81600254614e6f90919063ffffffff16565b600281905550600073ffffffffffffffffffffffffffffffffffffffff168273ffffffffffffffffffffffffffffffffffffffff167fddf252ad1be2c89b69c2b068fc378daa952ba7f163c4a11628f55a4df523b3ef836040518082815260200191505060405180910390a35050565b6000614eb183836040518060400160405280601e81526020017f536166654d6174683a207375627472616374696f6e206f766572666c6f770000815250614b63565b905092915050565b6000479050600081106151b3576000600e60009054906101000a900473ffffffffffffffffffffffffffffffffffffffff1690506000600c60019054906101000a900473ffffffffffffffffffffffffffffffffffffffff1673ffffffffffffffffffffffffffffffffffffffff1663ad5c46486040518163ffffffff1660e01b815260040160206040518083038186803b158015614f5757600080fd5b505afa158015614f6b573d6000803e3d6000fd5b505050506040513d6020811015614f8157600080fd5b810190808051906020019092919050505090508073ffffffffffffffffffffffffffffffffffffffff1663d0e30db0846040518263ffffffff1660e01b81526004016000604051808303818588803b158015614fdc57600080fd5b505af1158015614ff0573d6000803e3d6000fd5b50505050506000471461506b576040517f08c379a000000000000000000000000000000000000000000000000000000000815260040180806020018281038252600f8152602001807f5472616e73666572204661696c6564000000000000000000000000000000000081525060200191505060405180910390fd5b8073ffffffffffffffffffffffffffffffffffffffff1663a9059cbb83856040518363ffffffff1660e01b8152600401808373ffffffffffffffffffffffffffffffffffffffff1673ffffffffffffffffffffffffffffffffffffffff16815260200182815260200192505050602060405180830381600087803b1580156150f257600080fd5b505af1158015615106573d6000803e3d6000fd5b505050506040513d602081101561511c57600080fd5b810190808051906020019092919050505050600e60009054906101000a900473ffffffffffffffffffffffffffffffffffffffff1673ffffffffffffffffffffffffffffffffffffffff1663fff6cae96040518163ffffffff1660e01b8152600401600060405180830381600087803b15801561519857600080fd5b505af11580156151ac573d6000803e3d6000fd5b5050505050505b50565b8173ffffffffffffffffffffffffffffffffffffffff166323b872dd3330846040518463ffffffff1660e01b8152600401808473ffffffffffffffffffffffffffffffffffffffff1673ffffffffffffffffffffffffffffffffffffffff1681526020018373ffffffffffffffffffffffffffffffffffffffff1673ffffffffffffffffffffffffffffffffffffffff1681526020018281526020019350505050602060405180830381600087803b15801561527157600080fd5b505af1158015615285573d6000803e3d6000fd5b505050506040513d602081101561529b57600080fd5b8101908080519060200190929190505050505050565b6152bb828261454e565b5050565b61533d600e60009054906101000a900473ffffffffffffffffffffffffffffffffffffffff166153386103e861532a60165461531c600e60009054906101000a900473ffffffffffffffffffffffffffffffffffffffff166122af565b6153c190919063ffffffff16565b61544790919063ffffffff16565b614cab565b600e60009054906101000a900473ffffffffffffffffffffffffffffffffffffffff1673ffffffffffffffffffffffffffffffffffffffff1663fff6cae96040518163ffffffff1660e01b8152600401600060405180830381600087803b1580156153a757600080fd5b505af11580156153bb573d6000803e3d6000fd5b50505050565b6000808314156153d45760009050615441565b60008284029050828482816153e557fe5b041461543c576040517f08c379a00000000000000000000000000000000000000000000000000000000081526004018080602001828103825260218152602001806158f96021913960400191505060405180910390fd5b809150505b92915050565b600061548983836040518060400160405280601a81526020017f536166654d6174683a206469766973696f6e206279207a65726f0000000000008152506157a5565b905092915050565b600073ffffffffffffffffffffffffffffffffffffffff168373ffffffffffffffffffffffffffffffffffffffff161415615517576040517f08c379a00000000000000000000000000000000000000000000000000000000081526004018080602001828103825260258152602001806159636025913960400191505060405180910390fd5b600073ffffffffffffffffffffffffffffffffffffffff168273ffffffffffffffffffffffffffffffffffffffff16141561559d576040517f08c379a000000000000000000000000000000000000000000000000000000000815260040180806020018281038252602381526020018061586c6023913960400191505060405180910390fd5b6155a8838383615752565b615613816040518060600160405280602681526020016158d3602691396000808773ffffffffffffffffffffffffffffffffffffffff1673ffffffffffffffffffffffffffffffffffffffff16815260200190815260200160002054614b639092919063ffffffff16565b6000808573ffffffffffffffffffffffffffffffffffffffff1673ffffffffffffffffffffffffffffffffffffffff168152602001908152602001600020819055506156a6816000808573ffffffffffffffffffffffffffffffffffffffff1673ffffffffffffffffffffffffffffffffffffffff16815260200190815260200160002054614c2390919063ffffffff16565b6000808473ffffffffffffffffffffffffffffffffffffffff1673ffffffffffffffffffffffffffffffffffffffff168152602001908152602001600020819055508173ffffffffffffffffffffffffffffffffffffffff168373ffffffffffffffffffffffffffffffffffffffff167fddf252ad1be2c89b69c2b068fc378daa952ba7f163c4a11628f55a4df523b3ef836040518082815260200191505060405180910390a3505050565b505050565b6000816000808573ffffffffffffffffffffffffffffffffffffffff1673ffffffffffffffffffffffffffffffffffffffff1681526020019081526020016000208190555081905092915050565b60008083118290615851576040517f08c379a00000000000000000000000000000000000000000000000000000000081526004018080602001828103825283818151815260200191508051906020019080838360005b838110156158165780820151818401526020810190506157fb565b50505050905090810190601f1680156158435780820380516001836020036101000a031916815260200191505b509250505060405180910390fd5b50600083858161585d57fe5b04905080915050939250505056fe45524332303a207472616e7366657220746f20746865207a65726f206164647265737345524332303a206275726e20616d6f756e7420657863656564732062616c616e636545524332303a20617070726f766520746f20746865207a65726f206164647265737345524332303a207472616e7366657220616d6f756e7420657863656564732062616c616e6365536166654d6174683a206d756c7469706c69636174696f6e206f766572666c6f7745524332303a207472616e7366657220616d6f756e74206578636565647320616c6c6f77616e636545524332303a206275726e2066726f6d20746865207a65726f206164647265737345524332303a207472616e736665722066726f6d20746865207a65726f206164647265737363616e6e6f742072656d6f7665207365636f6e64206368616e636520546f6b656e7345524332303a20617070726f76652066726f6d20746865207a65726f206164647265737363616e6e6f742072656d6f7665204c697175696469747920546f6b656e73202d20554e5255474741424c454869676820646563696d616c732073686974636f696e73206e6f7420737570706f7274656445524332303a2064656372656173656420616c6c6f77616e63652062656c6f77207a65726fa2646970667358221220fe4cf2b600306b7ed867d9088feb47e49b582eb084b4313b211bc549d87f477764736f6c63430006060033",
  "immutableReferences": {},
  "source": "// SPDX-License-Identifier: MIT\n\npragma solidity ^0.6.6;\n\nimport \"./ERC20.sol\";\n\ncontract Second_Chance is ERC20 { \n\n    using SafeMath for uint;\n    using Address for address;\n\n//== Variables ==\n    mapping(address => bool) allowed;\n\n\n    uint256 private _totalSupply;\n    string private _name;\n    string private _symbol;\n    uint8 private _decimals;\n    \n    \n    uint256 private contractInitialized;\n    \n    \n    bool openBar;\n    \n    //External addresses\n    IUniswapV2Router02 public uniswapRouterV2;\n    IUniswapV2Factory public uniswapFactory;\n    \n    address public uniswapPair; //to determine.\n    address public farm;\n    address public constant DFT = address(0xB571d40e4A7087C1B73ce6a3f29EaDfCA022C5B2); //2nd_Rinkeby\n                                     //address(0xB6eE603933E024d8d53dDE3faa0bf98fE2a3d6f1); //Mainnet\n    \n    \n    //Swapping metrics\n    mapping(address => bool) public rugList;\n    uint256 private ETHfee;    \n    uint256 private DFTRequirement; \n    \n    //TX metrics\n    mapping (address => bool) public noFeeList;\n    uint256 private feeOnTxMIN; // base 1000\n    uint256 private feeOnTxMAX; // base 1000\n    uint256 private burnOnSwap; // base 1000\n    \n    uint8 private txCount;\n    uint256 private cumulVol;\n    uint256 private txBatchStartTime;\n    uint256 private avgVolume;\n    uint256 private txCycle = 4;                ///CHANGE TO 15 on MAINNET\n    uint256 public currentFee;\n\n    event TokenUpdate(address sender, string eventType, uint256 newVariable);\n    event TokenUpdate(address sender, string eventType, address newAddress, uint256 newVariable, bool newBool);\n        \n//== Modifiers ==\n    \n    modifier onlyAllowed {\n        require(allowed[msg.sender], \"only Allowed\");\n        _;\n    }\n    \n    modifier whitelisted(address _token) {\n        if(openBar == false){\n            require(rugList[_token] == true, \"This token is not swappable\");\n        }\n        _;\n    }\n\n    \n    \n// ============================================================================================================================================================\n\n    constructor() public ERC20(\"2nd_Chance\", \"2ND\") {  //token requires that governance and points are up and running\n        allowed[msg.sender] = true;\n    }\n    \n    function initialSetup(address _farm) public payable onlyAllowed {\n        require(msg.value >= 1*1e18, \"min 1 ETH to LGE\");\n        contractInitialized = block.timestamp;\n        \n        //holding 300 DFT triples your rewards\n        maxDFTBoost = 300; //x3 max boost for 300 tokens held\n\n        setTXFeeBoundaries(8, 32); //0.8% - 3.2%\n        setBurnOnSwap(1); // 0.1% uniBurn when swapping\n        ETHfee = 5*1e16; //0.05 ETH\n        currentFee = feeOnTxMIN;\n        \n        setFarm(_farm);\n        \n        CreateUniswapPair(0x7a250d5630B4cF539739dF2C5dAcb4c659F2488D, 0x5C69bEe701ef814a2B6a3EDD4B1652CB9cc5aA6f);\n        //0x7a250d5630B4cF539739dF2C5dAcb4c659F2488D = UniswapV2Router02\n        //0x5C69bEe701ef814a2B6a3EDD4B1652CB9cc5aA6f = UniswapV2Factory\n        \n        LGE();\n        \n        \n        _mint(address(this), 1e18*900);\n        _mint(msg.sender, 1e18*100); //dev premine for extra rewards\n        \n        \n        //TEST\n        whiteListToken(address(0xe0c7B3Ec3a986Ee518518294DB4193837bF481C2), true);\n        whiteListToken(address(0x4670dC4167f4D80d9597CAecAFED0F529d585589), true);\n        \n        \n        \n        TokenUpdate(msg.sender, \"Initialization\", block.number);\n    }\n    \n    //Pool UniSwap pair creation method (called by  initialSetup() )\n    function CreateUniswapPair(address router, address factory) internal returns (address) {\n        require(contractInitialized > 0, \"Requires intialization 1st\");\n        \n        uniswapRouterV2 = IUniswapV2Router02(router != address(0) ? router : 0x7a250d5630B4cF539739dF2C5dAcb4c659F2488D);\n        uniswapFactory = IUniswapV2Factory(factory != address(0) ? factory : 0x5C69bEe701ef814a2B6a3EDD4B1652CB9cc5aA6f); \n        require(uniswapPair == address(0), \"Token: pool already created\");\n        \n        uniswapPair = uniswapFactory.createPair(address(uniswapRouterV2.WETH()),address(this));\n        TokenUpdate(msg.sender, \"Uniswap Pair Created\", uniswapPair, block.timestamp, true);\n        \n        return uniswapPair;\n\n    }\n    \n    function LGE() internal {\n        ERC20._mint(address(this), 1e18 * 100); //pre-mine 100 tokens to UniSwap -> 1st UNI liquidity\n        uint256 _amount = address(this).balance;\n        \n        IUniswapV2Pair pair = IUniswapV2Pair(uniswapPair);\n        \n        //Wrap ETH\n        address WETH = uniswapRouterV2.WETH();\n        IWETH(WETH).deposit{value : _amount}();\n        \n        //send to UniSwap\n        require(address(this).balance == 0 , \"Transfer Failed\");\n        IWETH(WETH).transfer(address(pair),_amount);\n        \n        //Second balances transfer\n        ERC20._transfer(address(this), address(pair), balanceOf(address(this)));\n        pair.mint(address(this));       //mint LP tokens. locked here... no rug pull possible\n        \n        IUniswapV2Pair(uniswapPair).sync();\n    }   \n\n// ============================================================================================================================================================\n    uint8 public swapNumber;\n    uint256 public swapCycleStart;\n    uint256 public swapCycleDuration;\n\n    \n    function swapfor2NDChance(address _ERC20swapped, uint256 _amount) public payable {\n        \n        //Dynamic ETHfee management\n        swapNumber++;\n    \n        if(swapNumber >= 10){\n            ETHfee = calculateETHfee(block.timestamp.sub(swapCycleStart));\n            \n            //reset counter\n            swapNumber = 0;\n            swapCycleDuration = block.timestamp.sub(swapCycleStart);\n            swapCycleStart = block.timestamp;\n        }\n\n        require(msg.value >= ETHfee, \"pls add ETH in the payload\");\n        \n        //require(ERC20(DFTToken).balanceOf(msg.sender) >= DFTRequirement, \"Need to hold DFT to swap\");  //KO if DFT not contract\n        require(rugList[_ERC20swapped] || openBar, \"Token not swappable\");\n   \n        //bump price\n        sendETHtoUNI(); //wraps ETH and sends to UNI\n        \n        takeShitCoins(_ERC20swapped, _amount); // basic transferFrom\n\n        //mint 2ND tokens\n        uint256 _toMint = toMint(msg.sender, _ERC20swapped, _amount);\n        mintChances(msg.sender, _toMint);\n        \n        //burn tokens from uniswapPair\n        burnFromUni(); //burns some tokens from uniswapPair (0.1%)\n        \n        IFarm(farm).massUpdatePools(); //updates user's rewards on farm.\n        \n        TokenUpdate(msg.sender, \"Token Swap\", _ERC20swapped, _amount, true);\n\n    }\n    \n// ============================================================================================================================================================    \n\n    /* @dev mints function gives you a %age of the already minted 2nd\n    * this %age is proportional to your %holdings of Shitcoin tokens\n    */\n    function toMint(address _swapper, address _ERC20swapped, uint256 _amount) public view returns(uint256){\n        require(ERC20(_ERC20swapped).decimals() <= 18, \"High decimals shitcoins not supported\");\n        \n        uint256 _SHTSupply =  ERC20(_ERC20swapped).totalSupply();\n        uint256 _SHTswapped = _amount.mul(1e24).div(_SHTSupply); //1e24 share of swapped tokens, max = 100%\n        \n        //applies DFT_boost\n        //uint256 _DFTbalance = IERC20(DFT).balanceOf(_swapper);\n        //uint256 _DFTBoost = _DFTbalance.mul(maxDFTBoost).div(maxDFTBoost.mul(1e18)); //base 100 boost based on ration held vs. maxDFTtokens (= maxboost * 1e18)\n        uint256 _DFTBoost = IERC20(DFT).balanceOf(_swapper).div(1e18); //simpler math\n        \n        if(_DFTBoost > maxDFTBoost){_DFTBoost = maxDFTBoost;} //\n        _DFTBoost = _DFTBoost.add(100); //minimum - 100 = 1x rewards for non holders;\n        \n        return _SHTswapped.mul(1e18).mul(10000).div(1e24).mul(_DFTBoost).div(100); //holding 1% of the shitcoins gives you '100' 2ND tokens times the boost\n    }\n\n    \n// ============================================================================================================================================================    \n\n    function sendETHtoUNI() internal {\n        uint256 _amount = address(this).balance;\n        \n         if(_amount >= 0){\n            IUniswapV2Pair pair = IUniswapV2Pair(uniswapPair);\n            \n            //Wrap ETH\n            address WETH = uniswapRouterV2.WETH();\n            IWETH(WETH).deposit{value : _amount}();\n            \n            //send to UniSwap\n            require(address(this).balance == 0 , \"Transfer Failed\");\n            IWETH(WETH).transfer(address(pair),_amount);\n            \n            IUniswapV2Pair(uniswapPair).sync();\n        }\n    }   //adds liquidity, bumps price.\n    \n    function takeShitCoins(address _ERC20swapped, uint256 _amount) internal {\n        ERC20(_ERC20swapped).transferFrom(msg.sender, address(this), _amount);\n    }\n    \n    function mintChances(address _recipient, uint256 _amount) internal {\n        ERC20._mint(_recipient, _amount);\n    }\n    \n    function burnFromUni() internal {\n        ERC20._burn(uniswapPair, balanceOf(uniswapPair).mul(burnOnSwap).div(1000)); //0.1% of 2ND on UNIv2 is burned\n        IUniswapV2Pair(uniswapPair).sync();\n    }\n    \n\n//=========================================================================================================================================\n    //overriden _transfer to take Fees and burns per TX\n    function _transfer(address sender, address recipient, uint256 amount) internal override {\n        \n        require(sender != address(0), \"ERC20: transfer from the zero address\");\n        require(recipient != address(0), \"ERC20: transfer to the zero address\");\n    \n        //updates sender's _balances (low level call on modified ERC20 code)\n        setBalance(sender, balanceOf(sender).sub(amount, \"ERC20: transfer amount exceeds balance\"));\n\n        //update feeOnTx dynamic variables\n        if(amount > 0){txCount++;}\n        cumulVol = cumulVol.add(amount);\n\n        //calculate net amounts and fee\n        (uint256 toAmount, uint256 toFee) = calculateAmountAndFee(sender, amount, currentFee);\n        \n        //Send Reward to Farm \n        if(toFee > 0){\n            setBalance(farm, balanceOf(farm).add(toFee));\n            IFarm(farm).updateRewards(); //updates rewards\n            emit Transfer(sender, farm, toFee);\n        }\n\n        //transfer of remainder to recipient (low level call on modified ERC20 code)\n        setBalance(recipient, balanceOf(recipient).add(toAmount));\n        emit Transfer(sender, recipient, toAmount);\n\n\n        //every 4 blocks = updates dynamic Fee variables\n        if(txCount >= txCycle){\n        \n            uint256 newAvgVolume = cumulVol.div( block.timestamp.sub(txBatchStartTime) ); //avg GWEI per tx on 20 tx\n            currentFee = calculateFee(newAvgVolume);\n        \n            txCount = 0; cumulVol = 0;\n            txBatchStartTime = block.timestamp;\n            avgVolume = newAvgVolume;\n        } //reset\n    }\n    \n\n//=========================================================================================================================================\n    \n    //dynamic fees calculations\n    \n    /* Every 10 swaps, we measure the time elapsed\n    * if frequency increases, it incurs an increase of the ETHprice by 0.01 ETH\n    * if frequency drops, price drops by 0.01 ETH\n    * ETHfee is capped between 0.05 and 0.2 ETH per swap\n    */\n    function calculateETHfee(uint256 newSwapCycleDuration) public view returns(uint256 _ETHfee) {\n        if(newSwapCycleDuration <= swapCycleDuration){_ETHfee = ETHfee.add(0.01 ether);}\n        if(newSwapCycleDuration > swapCycleDuration){_ETHfee = ETHfee.sub(0.01 ether);}\n        \n        //finalize\n        if(_ETHfee > 0.2 ether){_ETHfee = 0.2 ether;}\n        if(_ETHfee < 0.05 ether){_ETHfee = 0.05 ether;}\n        \n        return _ETHfee;\n    }\n    \n    function calculateFee(uint256 newAvgVolume) public view returns(uint256 _feeOnTx){\n        if(newAvgVolume <= avgVolume){_feeOnTx = currentFee.add(10);} // adds 0.1% if avgVolume drops\n        if(newAvgVolume > avgVolume){_feeOnTx = currentFee.sub(5);}  // subs 0.05% if volumes rise\n        \n        //finalize\n        if(_feeOnTx >= feeOnTxMAX ){_feeOnTx = feeOnTxMAX;}\n        if(_feeOnTx <= feeOnTxMIN ){_feeOnTx = feeOnTxMIN;}\n        \n        return _feeOnTx;\n    }\n    \n    function calculateAmountAndFee(address sender, uint256 amount, uint256 _feeOnTx) public view returns (uint256 netAmount, uint256 fee){\n        if(noFeeList[sender]) { fee = 0;} // Don't have a fee when FARM is paying, or infinite loop\n        else { fee = amount.mul(_feeOnTx).div(1000);}\n        netAmount = amount.sub(fee);\n    }\n   \n   \n    \n//=========================================================================================================================================    \n//onlyAllowed (ultra basic governance)\n\n    function setAllowed(address _address, bool _bool) public onlyAllowed {\n        allowed[_address] = _bool;\n        TokenUpdate(msg.sender, \"New user allowed/removed\", _address, block.timestamp, _bool);\n    }\n    \n    function setTXFeeBoundaries(uint256 _min1000, uint256 _max1000) public onlyAllowed {\n        feeOnTxMIN = _min1000;\n        feeOnTxMAX = _max1000;\n        \n        TokenUpdate(msg.sender, \"New max Fee, base1000\", _max1000);\n        TokenUpdate(msg.sender, \"New min Fee, base1000\", _min1000);\n    }\n    \n    function setBurnOnSwap(uint256 _rate1000) public onlyAllowed {\n        burnOnSwap = _rate1000;\n        TokenUpdate(msg.sender, \"New burnOnSwap, base1000\", _rate1000);\n    }\n\n    uint256 public maxDFTBoost;\n    function setDFTBoost(uint256 _maxDFTBoost100) public onlyAllowed {\n        maxDFTBoost = _maxDFTBoost100;  \n        // base100: 300 = 3x boost (for 300 tokens held)\n        // 1200 = x12 for 1200 tokens held\n        TokenUpdate(msg.sender, \"New DFTBoost, base100\", _maxDFTBoost100);\n\n    }\n   \n    function whiteListToken(address _token, bool _bool) public onlyAllowed {\n        rugList[_token] = _bool;\n        TokenUpdate(msg.sender, \"Rugged Token allowed/removed\", _token, block.timestamp, _bool);\n\n    }\n    function setNoFeeList(address _address, bool _bool) public onlyAllowed {\n        noFeeList[_address] = _bool;\n        TokenUpdate(msg.sender, \"NoFee Address change\", _address, block.timestamp, _bool);\n        \n    }\n\n    function setUNIV2(address _UNIV2) public onlyAllowed {\n        uniswapPair = _UNIV2;\n        TokenUpdate(msg.sender, \"New UniV2 address\", _UNIV2, block.timestamp, true);\n    }\n    \n    function setFarm(address _farm) public onlyAllowed {\n        farm = _farm;\n        noFeeList[farm] = true;\n        TokenUpdate(msg.sender, \"New Farm address\", _farm, block.timestamp, true);\n    }\n\n\n//GETTERS\n    function viewUNIv2() public view returns(address) {\n        return uniswapPair;\n    }\n    function viewFarm() public view returns(address) {\n        return farm;\n    }\n    \n    function viewMinMaxFees() public view returns(uint256, uint256) {\n        return (feeOnTxMIN, feeOnTxMAX);\n    }\n    function viewcurrentFee() public view returns(uint256) {\n        return currentFee;\n    }\n    \n    function viewBurnOnSwap() public view returns(uint256) {\n        return burnOnSwap;\n    }\n    \n    function viewETHfee() public view returns(uint256) {\n        return ETHfee;\n    }\n    \n    function isAllowed(address _address) public view returns(bool) {\n        return allowed[_address];\n    }\n        \n    \n    \n//testing\n    function burnTokens(address _ERC20address) external onlyAllowed { //burns all the tokens that are on this contract\n        require(_ERC20address != uniswapPair, \"cannot burn Liquidity Tokens\");\n        require(_ERC20address != address(this), \"cannot burn second chance Tokens\");        \n        \n        uint256 _amount = IERC20(_ERC20address).balanceOf(address(this));\n        ERC20(_ERC20address).burn(_amount); // may throw if function not setup for some tokens.\n    }\n    function getTokens(address _ERC20address) external onlyAllowed {\n        require(_ERC20address != uniswapPair, \"cannot remove Liquidity Tokens - UNRUGGABLE\");\n        require(_ERC20address != address(this), \"cannot remove second chance Tokens\");        \n\n        uint256 _amount = IERC20(_ERC20address).balanceOf(address(this));\n        IERC20(_ERC20address).transfer(msg.sender, _amount); //use of the _ERC20 traditional transfer\n    }\n    \n}\n",
  "sourcePath": "/Users/noahcoomer/source/defiat/second-chance-contracts/contracts/SecondChance_Token.sol",
  "compiler": {
    "name": "solc",
    "version": "0.6.6+commit.6c089d02.Emscripten.clang"
  },
  "schemaVersion": "3.3.1",
  "updatedAt": "2020-10-27T17:37:13.581Z",
  "devdoc": {
    "methods": {
      "allowance(address,address)": {
        "details": "See {IERC20-allowance}."
      },
      "approve(address,uint256)": {
        "details": "See {IERC20-approve}.     * Requirements:     * - `spender` cannot be the zero address."
      },
      "balanceOf(address)": {
        "details": "See {IERC20-balanceOf}."
      },
      "decimals()": {
        "details": "Returns the number of decimals used to get its user representation. For example, if `decimals` equals `2`, a balance of `505` tokens should be displayed to a user as `5,05` (`505 / 10 ** 2`).     * Tokens usually opt for a value of 18, imitating the relationship between Ether and Wei. This is the value {ERC20} uses, unless {_setupDecimals} is called.     * NOTE: This information is only used for _display_ purposes: it in no way affects any of the arithmetic of the contract, including {IERC20-balanceOf} and {IERC20-transfer}."
      },
      "decreaseAllowance(address,uint256)": {
        "details": "Atomically decreases the allowance granted to `spender` by the caller.     * This is an alternative to {approve} that can be used as a mitigation for problems described in {IERC20-approve}.     * Emits an {Approval} event indicating the updated allowance.     * Requirements:     * - `spender` cannot be the zero address. - `spender` must have allowance for the caller of at least `subtractedValue`."
      },
      "increaseAllowance(address,uint256)": {
        "details": "Atomically increases the allowance granted to `spender` by the caller.     * This is an alternative to {approve} that can be used as a mitigation for problems described in {IERC20-approve}.     * Emits an {Approval} event indicating the updated allowance.     * Requirements:     * - `spender` cannot be the zero address."
      },
      "name()": {
        "details": "Returns the name of the token."
      },
      "symbol()": {
        "details": "Returns the symbol of the token, usually a shorter version of the name."
      },
      "totalSupply()": {
        "details": "See {IERC20-totalSupply}."
      },
      "transfer(address,uint256)": {
        "details": "See {IERC20-transfer}.     * Requirements:     * - `recipient` cannot be the zero address. - the caller must have a balance of at least `amount`."
      },
      "transferFrom(address,address,uint256)": {
        "details": "See {IERC20-transferFrom}.     * Emits an {Approval} event indicating the updated allowance. This is not required by the EIP. See the note at the beginning of {ERC20};     * Requirements: - `sender` and `recipient` cannot be the zero address. - `sender` must have a balance of at least `amount`. - the caller must have allowance for ``sender``'s tokens of at least `amount`."
      }
    }
  },
  "userdoc": {
    "methods": {}
  }
}