{
  "contractName": "Second_Chance",
  "abi": [
    {
      "inputs": [],
      "stateMutability": "nonpayable",
      "type": "constructor"
    },
    {
      "anonymous": false,
      "inputs": [
        {
          "indexed": true,
          "internalType": "address",
          "name": "owner",
          "type": "address"
        },
        {
          "indexed": true,
          "internalType": "address",
          "name": "spender",
          "type": "address"
        },
        {
          "indexed": false,
          "internalType": "uint256",
          "name": "value",
          "type": "uint256"
        }
      ],
      "name": "Approval",
      "type": "event"
    },
    {
      "anonymous": false,
      "inputs": [
        {
          "indexed": true,
          "internalType": "address",
          "name": "from",
          "type": "address"
        },
        {
          "indexed": true,
          "internalType": "address",
          "name": "to",
          "type": "address"
        },
        {
          "indexed": false,
          "internalType": "uint256",
          "name": "value",
          "type": "uint256"
        }
      ],
      "name": "Transfer",
      "type": "event"
    },
    {
      "inputs": [],
      "name": "DFTRequirement",
      "outputs": [
        {
          "internalType": "uint256",
          "name": "",
          "type": "uint256"
        }
      ],
      "stateMutability": "view",
      "type": "function"
    },
    {
      "inputs": [],
      "name": "DFTToken",
      "outputs": [
        {
          "internalType": "address",
          "name": "",
          "type": "address"
        }
      ],
      "stateMutability": "view",
      "type": "function"
    },
    {
      "inputs": [],
      "name": "ETHfee",
      "outputs": [
        {
          "internalType": "uint256",
          "name": "",
          "type": "uint256"
        }
      ],
      "stateMutability": "view",
      "type": "function"
    },
    {
      "inputs": [
        {
          "internalType": "address",
          "name": "owner",
          "type": "address"
        },
        {
          "internalType": "address",
          "name": "spender",
          "type": "address"
        }
      ],
      "name": "allowance",
      "outputs": [
        {
          "internalType": "uint256",
          "name": "",
          "type": "uint256"
        }
      ],
      "stateMutability": "view",
      "type": "function"
    },
    {
      "inputs": [
        {
          "internalType": "address",
          "name": "spender",
          "type": "address"
        },
        {
          "internalType": "uint256",
          "name": "amount",
          "type": "uint256"
        }
      ],
      "name": "approve",
      "outputs": [
        {
          "internalType": "bool",
          "name": "",
          "type": "bool"
        }
      ],
      "stateMutability": "nonpayable",
      "type": "function"
    },
    {
      "inputs": [],
      "name": "avgVolume",
      "outputs": [
        {
          "internalType": "uint256",
          "name": "",
          "type": "uint256"
        }
      ],
      "stateMutability": "view",
      "type": "function"
    },
    {
      "inputs": [
        {
          "internalType": "address",
          "name": "account",
          "type": "address"
        }
      ],
      "name": "balanceOf",
      "outputs": [
        {
          "internalType": "uint256",
          "name": "",
          "type": "uint256"
        }
      ],
      "stateMutability": "view",
      "type": "function"
    },
    {
      "inputs": [
        {
          "internalType": "uint256",
          "name": "amount",
          "type": "uint256"
        }
      ],
      "name": "burn",
      "outputs": [],
      "stateMutability": "nonpayable",
      "type": "function"
    },
    {
      "inputs": [],
      "name": "burnOnSwap",
      "outputs": [
        {
          "internalType": "uint256",
          "name": "",
          "type": "uint256"
        }
      ],
      "stateMutability": "view",
      "type": "function"
    },
    {
      "inputs": [],
      "name": "contractInitialized",
      "outputs": [
        {
          "internalType": "uint256",
          "name": "",
          "type": "uint256"
        }
      ],
      "stateMutability": "view",
      "type": "function"
    },
    {
      "inputs": [],
      "name": "cumulVol",
      "outputs": [
        {
          "internalType": "uint256",
          "name": "",
          "type": "uint256"
        }
      ],
      "stateMutability": "view",
      "type": "function"
    },
    {
      "inputs": [],
      "name": "currentFee",
      "outputs": [
        {
          "internalType": "uint256",
          "name": "",
          "type": "uint256"
        }
      ],
      "stateMutability": "view",
      "type": "function"
    },
    {
      "inputs": [],
      "name": "decimals",
      "outputs": [
        {
          "internalType": "uint8",
          "name": "",
          "type": "uint8"
        }
      ],
      "stateMutability": "view",
      "type": "function"
    },
    {
      "inputs": [
        {
          "internalType": "address",
          "name": "spender",
          "type": "address"
        },
        {
          "internalType": "uint256",
          "name": "subtractedValue",
          "type": "uint256"
        }
      ],
      "name": "decreaseAllowance",
      "outputs": [
        {
          "internalType": "bool",
          "name": "",
          "type": "bool"
        }
      ],
      "stateMutability": "nonpayable",
      "type": "function"
    },
    {
      "inputs": [],
      "name": "farm",
      "outputs": [
        {
          "internalType": "address",
          "name": "",
          "type": "address"
        }
      ],
      "stateMutability": "view",
      "type": "function"
    },
    {
      "inputs": [],
      "name": "feeOnTxMAX",
      "outputs": [
        {
          "internalType": "uint256",
          "name": "",
          "type": "uint256"
        }
      ],
      "stateMutability": "view",
      "type": "function"
    },
    {
      "inputs": [],
      "name": "feeOnTxMIN",
      "outputs": [
        {
          "internalType": "uint256",
          "name": "",
          "type": "uint256"
        }
      ],
      "stateMutability": "view",
      "type": "function"
    },
    {
      "inputs": [
        {
          "internalType": "address",
          "name": "spender",
          "type": "address"
        },
        {
          "internalType": "uint256",
          "name": "addedValue",
          "type": "uint256"
        }
      ],
      "name": "increaseAllowance",
      "outputs": [
        {
          "internalType": "bool",
          "name": "",
          "type": "bool"
        }
      ],
      "stateMutability": "nonpayable",
      "type": "function"
    },
    {
      "inputs": [],
      "name": "name",
      "outputs": [
        {
          "internalType": "string",
          "name": "",
          "type": "string"
        }
      ],
      "stateMutability": "view",
      "type": "function"
    },
    {
      "inputs": [
        {
          "internalType": "address",
          "name": "",
          "type": "address"
        }
      ],
      "name": "noFeeList",
      "outputs": [
        {
          "internalType": "bool",
          "name": "",
          "type": "bool"
        }
      ],
      "stateMutability": "view",
      "type": "function"
    },
    {
      "inputs": [
        {
          "internalType": "address",
          "name": "",
          "type": "address"
        }
      ],
      "name": "rugList",
      "outputs": [
        {
          "internalType": "bool",
          "name": "",
          "type": "bool"
        }
      ],
      "stateMutability": "view",
      "type": "function"
    },
    {
      "inputs": [],
      "name": "swapCycleDuration",
      "outputs": [
        {
          "internalType": "uint256",
          "name": "",
          "type": "uint256"
        }
      ],
      "stateMutability": "view",
      "type": "function"
    },
    {
      "inputs": [],
      "name": "swapCycleStart",
      "outputs": [
        {
          "internalType": "uint256",
          "name": "",
          "type": "uint256"
        }
      ],
      "stateMutability": "view",
      "type": "function"
    },
    {
      "inputs": [],
      "name": "swapNumber",
      "outputs": [
        {
          "internalType": "uint8",
          "name": "",
          "type": "uint8"
        }
      ],
      "stateMutability": "view",
      "type": "function"
    },
    {
      "inputs": [],
      "name": "symbol",
      "outputs": [
        {
          "internalType": "string",
          "name": "",
          "type": "string"
        }
      ],
      "stateMutability": "view",
      "type": "function"
    },
    {
      "inputs": [],
      "name": "totalSupply",
      "outputs": [
        {
          "internalType": "uint256",
          "name": "",
          "type": "uint256"
        }
      ],
      "stateMutability": "view",
      "type": "function"
    },
    {
      "inputs": [
        {
          "internalType": "address",
          "name": "recipient",
          "type": "address"
        },
        {
          "internalType": "uint256",
          "name": "amount",
          "type": "uint256"
        }
      ],
      "name": "transfer",
      "outputs": [
        {
          "internalType": "bool",
          "name": "",
          "type": "bool"
        }
      ],
      "stateMutability": "nonpayable",
      "type": "function"
    },
    {
      "inputs": [
        {
          "internalType": "address",
          "name": "sender",
          "type": "address"
        },
        {
          "internalType": "address",
          "name": "recipient",
          "type": "address"
        },
        {
          "internalType": "uint256",
          "name": "amount",
          "type": "uint256"
        }
      ],
      "name": "transferFrom",
      "outputs": [
        {
          "internalType": "bool",
          "name": "",
          "type": "bool"
        }
      ],
      "stateMutability": "nonpayable",
      "type": "function"
    },
    {
      "inputs": [],
      "name": "txBatchStartTime",
      "outputs": [
        {
          "internalType": "uint256",
          "name": "",
          "type": "uint256"
        }
      ],
      "stateMutability": "view",
      "type": "function"
    },
    {
      "inputs": [],
      "name": "txCount",
      "outputs": [
        {
          "internalType": "uint8",
          "name": "",
          "type": "uint8"
        }
      ],
      "stateMutability": "view",
      "type": "function"
    },
    {
      "inputs": [],
      "name": "uniswapFactory",
      "outputs": [
        {
          "internalType": "contract IUniswapV2Factory",
          "name": "",
          "type": "address"
        }
      ],
      "stateMutability": "view",
      "type": "function"
    },
    {
      "inputs": [],
      "name": "uniswapPair",
      "outputs": [
        {
          "internalType": "address",
          "name": "",
          "type": "address"
        }
      ],
      "stateMutability": "view",
      "type": "function"
    },
    {
      "inputs": [],
      "name": "uniswapRouterV2",
      "outputs": [
        {
          "internalType": "contract IUniswapV2Router02",
          "name": "",
          "type": "address"
        }
      ],
      "stateMutability": "view",
      "type": "function"
    },
    {
      "inputs": [
        {
          "internalType": "address",
          "name": "_farm",
          "type": "address"
        }
      ],
      "name": "initialSetup",
      "outputs": [],
      "stateMutability": "payable",
      "type": "function"
    },
    {
      "inputs": [
        {
          "internalType": "address",
          "name": "_ERC20swapped",
          "type": "address"
        },
        {
          "internalType": "uint256",
          "name": "_amount",
          "type": "uint256"
        }
      ],
      "name": "swapfor2NDChance",
      "outputs": [],
      "stateMutability": "payable",
      "type": "function"
    },
    {
      "inputs": [
        {
          "internalType": "address",
          "name": "_ERC20swapped",
          "type": "address"
        },
        {
          "internalType": "uint256",
          "name": "_amount",
          "type": "uint256"
        }
      ],
      "name": "toMint",
      "outputs": [
        {
          "internalType": "uint256",
          "name": "",
          "type": "uint256"
        }
      ],
      "stateMutability": "view",
      "type": "function"
    },
    {
      "inputs": [
        {
          "internalType": "uint256",
          "name": "newSwapCycleDuration",
          "type": "uint256"
        }
      ],
      "name": "calculateETHfee",
      "outputs": [
        {
          "internalType": "uint256",
          "name": "_ETHfee",
          "type": "uint256"
        }
      ],
      "stateMutability": "view",
      "type": "function"
    },
    {
      "inputs": [
        {
          "internalType": "uint256",
          "name": "newAvgVolume",
          "type": "uint256"
        }
      ],
      "name": "calculateFee",
      "outputs": [
        {
          "internalType": "uint256",
          "name": "_feeOnTx",
          "type": "uint256"
        }
      ],
      "stateMutability": "view",
      "type": "function"
    },
    {
      "inputs": [
        {
          "internalType": "address",
          "name": "sender",
          "type": "address"
        },
        {
          "internalType": "uint256",
          "name": "amount",
          "type": "uint256"
        },
        {
          "internalType": "uint256",
          "name": "_feeOnTx",
          "type": "uint256"
        }
      ],
      "name": "calculateAmountAndFee",
      "outputs": [
        {
          "internalType": "uint256",
          "name": "netAmount",
          "type": "uint256"
        },
        {
          "internalType": "uint256",
          "name": "fee",
          "type": "uint256"
        }
      ],
      "stateMutability": "view",
      "type": "function"
    },
    {
      "inputs": [
        {
          "internalType": "address",
          "name": "_address",
          "type": "address"
        },
        {
          "internalType": "bool",
          "name": "_bool",
          "type": "bool"
        }
      ],
      "name": "setAllowed",
      "outputs": [],
      "stateMutability": "nonpayable",
      "type": "function"
    },
    {
      "inputs": [
        {
          "internalType": "uint256",
          "name": "_min1000",
          "type": "uint256"
        },
        {
          "internalType": "uint256",
          "name": "_max1000",
          "type": "uint256"
        }
      ],
      "name": "setTXFeeBoundaries",
      "outputs": [],
      "stateMutability": "nonpayable",
      "type": "function"
    },
    {
      "inputs": [
        {
          "internalType": "uint256",
          "name": "_rate1000",
          "type": "uint256"
        }
      ],
      "name": "setBurnOnSwap",
      "outputs": [],
      "stateMutability": "nonpayable",
      "type": "function"
    },
    {
      "inputs": [
        {
          "internalType": "uint256",
          "name": "_req",
          "type": "uint256"
        }
      ],
      "name": "setDFTRequirement",
      "outputs": [],
      "stateMutability": "nonpayable",
      "type": "function"
    },
    {
      "inputs": [
        {
          "internalType": "address",
          "name": "_token",
          "type": "address"
        },
        {
          "internalType": "bool",
          "name": "_bool",
          "type": "bool"
        }
      ],
      "name": "whiteListToken",
      "outputs": [],
      "stateMutability": "nonpayable",
      "type": "function"
    },
    {
      "inputs": [
        {
          "internalType": "address",
          "name": "_address",
          "type": "address"
        },
        {
          "internalType": "bool",
          "name": "_bool",
          "type": "bool"
        }
      ],
      "name": "setNoFeeList",
      "outputs": [],
      "stateMutability": "nonpayable",
      "type": "function"
    },
    {
      "inputs": [
        {
          "internalType": "bool",
          "name": "_bool",
          "type": "bool"
        }
      ],
      "name": "setOpenBar",
      "outputs": [],
      "stateMutability": "nonpayable",
      "type": "function"
    },
    {
      "inputs": [
        {
          "internalType": "address",
          "name": "_UNIV2",
          "type": "address"
        }
      ],
      "name": "setUNIV2",
      "outputs": [],
      "stateMutability": "nonpayable",
      "type": "function"
    },
    {
      "inputs": [
        {
          "internalType": "address",
          "name": "_farm",
          "type": "address"
        }
      ],
      "name": "setFarm",
      "outputs": [],
      "stateMutability": "nonpayable",
      "type": "function"
    },
    {
      "inputs": [],
      "name": "viewUNIv2",
      "outputs": [
        {
          "internalType": "address",
          "name": "",
          "type": "address"
        }
      ],
      "stateMutability": "view",
      "type": "function"
    },
    {
      "inputs": [],
      "name": "viewFarm",
      "outputs": [
        {
          "internalType": "address",
          "name": "",
          "type": "address"
        }
      ],
      "stateMutability": "view",
      "type": "function"
    },
    {
      "inputs": [],
      "name": "viewMinMaxFees",
      "outputs": [
        {
          "internalType": "uint256",
          "name": "",
          "type": "uint256"
        },
        {
          "internalType": "uint256",
          "name": "",
          "type": "uint256"
        }
      ],
      "stateMutability": "view",
      "type": "function"
    },
    {
      "inputs": [],
      "name": "viewcurrentFee",
      "outputs": [
        {
          "internalType": "uint256",
          "name": "",
          "type": "uint256"
        }
      ],
      "stateMutability": "view",
      "type": "function"
    },
    {
      "inputs": [],
      "name": "viewBurnOnSwap",
      "outputs": [
        {
          "internalType": "uint256",
          "name": "",
          "type": "uint256"
        }
      ],
      "stateMutability": "view",
      "type": "function"
    },
    {
      "inputs": [],
      "name": "viewETHfee",
      "outputs": [
        {
          "internalType": "uint256",
          "name": "",
          "type": "uint256"
        }
      ],
      "stateMutability": "view",
      "type": "function"
    },
    {
      "inputs": [
        {
          "internalType": "address",
          "name": "_address",
          "type": "address"
        }
      ],
      "name": "isAllowed",
      "outputs": [
        {
          "internalType": "bool",
          "name": "",
          "type": "bool"
        }
      ],
      "stateMutability": "view",
      "type": "function"
    },
    {
      "inputs": [],
      "name": "forceUpdateRewards",
      "outputs": [],
      "stateMutability": "nonpayable",
      "type": "function"
    },
    {
      "inputs": [
        {
          "internalType": "address",
          "name": "_ERC20address",
          "type": "address"
        }
      ],
      "name": "burnTokens",
      "outputs": [],
      "stateMutability": "nonpayable",
      "type": "function"
    },
    {
      "inputs": [
        {
          "internalType": "address",
          "name": "_ERC20address",
          "type": "address"
        }
      ],
      "name": "getTokens",
      "outputs": [],
      "stateMutability": "nonpayable",
      "type": "function"
    },
    {
      "inputs": [],
      "name": "kill",
      "outputs": [],
      "stateMutability": "nonpayable",
      "type": "function"
    }
  ],
  "bytecode": "0x60806040526004601b553480156200001657600080fd5b506040518060400160405280600b81526020017f326e645f52696e6b6562790000000000000000000000000000000000000000008152506040518060400160405280600581526020017f324e445f5200000000000000000000000000000000000000000000000000000081525081600390805190602001906200009b9291906200014c565b508060049080519060200190620000b49291906200014c565b506012600560006101000a81548160ff021916908360ff16021790555050506001600660003373ffffffffffffffffffffffffffffffffffffffff1673ffffffffffffffffffffffffffffffffffffffff16815260200190815260200160002060006101000a81548160ff0219169083151502179055506001600c60006101000a81548160ff021916908315150217905550620001fb565b828054600181600116156101000203166002900490600052602060002090601f016020900481019282601f106200018f57805160ff1916838001178555620001c0565b82800160010185558215620001c0579182015b82811115620001bf578251825591602001919060010190620001a2565b5b509050620001cf9190620001d3565b5090565b620001f891905b80821115620001f4576000816000905550600101620001da565b5090565b90565b6152be806200020b6000396000f3fe60806040526004361061038b5760003560e01c8063701e52be116101dc578063b237f7d411610102578063d932c485116100a0578063de71735f1161006f578063de71735f14611432578063f5baa26f1461145d578063f853cffe14611488578063fca1dbf6146114b35761038b565b8063d932c485146112bc578063da3c300d14611325578063dd62ed3e14611350578063dd912c41146113d55761038b565b8063c7462a5b116100dc578063c7462a5b14611169578063c816841b14611194578063d20ca6af146111eb578063d4f26c511461126b5761038b565b8063b237f7d414611058578063b80416cc146110a9578063babcc539146111005761038b565b806399a5d7471161017a578063a457c2d711610149578063a457c2d714610ee8578063a50f207f14610f5b578063a9059cbb14610f96578063aa436823146110095761038b565b806399a5d74714610d975780639a2d4d2514610de6578063a19b083714610e34578063a409dd6014610e8b5761038b565b80638648c6a6116101b65780638648c6a614610c165780638aa1ff7014610c475780638bdb2afa14610cb057806395d89b4114610d075761038b565b8063701e52be14610b0957806370a0823114610b5a578063719a72b514610bbf5761038b565b806333352035116102c1578063450efe211161025f57806357bf832c1161022e57806357bf832c14610a45578063596fa9e314610a70578063623ad41c14610ac7578063648e0e5c14610af25761038b565b8063450efe211461092f57806346905f16146109805780634697f05d146109bd57806352fc856b14610a1a5761038b565b8063395093511161029b57806339509351146108395780633c540687146108ac57806341c0e1b5146108dd57806342966c68146108f45761038b565b8063333520351461077c57806336e9332d146107a757806337d6e6ee146107fe5761038b565b8063194eb9701161032e57806323b872dd1161030857806323b872dd14610648578063291b6595146106db5780632993bc7714610720578063313ce5671461074b5761038b565b8063194eb9701461058357806319695910146105ae578063213ff30e146105d95761038b565b80630bfc480e1161036a5780630bfc480e146104be5780630f7fd47a14610502578063159d834a1461052d57806318160ddd146105585761038b565b8062b347471461039057806306fdde03146103bb578063095ea7b31461044b575b600080fd5b34801561039c57600080fd5b506103a56114e5565b6040518082815260200191505060405180910390f35b3480156103c757600080fd5b506103d06114eb565b6040518080602001828103825283818151815260200191508051906020019080838360005b838110156104105780820151818401526020810190506103f5565b50505050905090810190601f16801561043d5780820380516001836020036101000a031916815260200191505b509250505060405180910390f35b34801561045757600080fd5b506104a46004803603604081101561046e57600080fd5b81019080803573ffffffffffffffffffffffffffffffffffffffff1690602001909291908035906020019092919050505061158d565b604051808215151515815260200191505060405180910390f35b610500600480360360208110156104d457600080fd5b81019080803573ffffffffffffffffffffffffffffffffffffffff1690602001909291905050506115ab565b005b34801561050e57600080fd5b5061051761177e565b6040518082815260200191505060405180910390f35b34801561053957600080fd5b50610542611784565b6040518082815260200191505060405180910390f35b34801561056457600080fd5b5061056d61178e565b6040518082815260200191505060405180910390f35b34801561058f57600080fd5b50610598611798565b6040518082815260200191505060405180910390f35b3480156105ba57600080fd5b506105c361179e565b6040518082815260200191505060405180910390f35b3480156105e557600080fd5b50610632600480360360408110156105fc57600080fd5b81019080803573ffffffffffffffffffffffffffffffffffffffff169060200190929190803590602001909291905050506117a8565b6040518082815260200191505060405180910390f35b34801561065457600080fd5b506106c16004803603606081101561066b57600080fd5b81019080803573ffffffffffffffffffffffffffffffffffffffff169060200190929190803573ffffffffffffffffffffffffffffffffffffffff16906020019092919080359060200190929190505050611994565b604051808215151515815260200191505060405180910390f35b3480156106e757600080fd5b5061071e600480360360408110156106fe57600080fd5b810190808035906020019092919080359060200190929190505050611a6d565b005b34801561072c57600080fd5b50610735611b3e565b6040518082815260200191505060405180910390f35b34801561075757600080fd5b50610760611b44565b604051808260ff1660ff16815260200191505060405180910390f35b34801561078857600080fd5b50610791611b5b565b6040518082815260200191505060405180910390f35b3480156107b357600080fd5b506107bc611b61565b604051808273ffffffffffffffffffffffffffffffffffffffff1673ffffffffffffffffffffffffffffffffffffffff16815260200191505060405180910390f35b34801561080a57600080fd5b506108376004803603602081101561082157600080fd5b8101908080359060200190929190505050611b87565b005b34801561084557600080fd5b506108926004803603604081101561085c57600080fd5b81019080803573ffffffffffffffffffffffffffffffffffffffff16906020019092919080359060200190929190505050611c50565b604051808215151515815260200191505060405180910390f35b3480156108b857600080fd5b506108c1611d03565b604051808260ff1660ff16815260200191505060405180910390f35b3480156108e957600080fd5b506108f2611d16565b005b34801561090057600080fd5b5061092d6004803603602081101561091757600080fd5b8101908080359060200190929190505050611dee565b005b34801561093b57600080fd5b5061097e6004803603602081101561095257600080fd5b81019080803573ffffffffffffffffffffffffffffffffffffffff169060200190929190505050611dfb565b005b34801561098c57600080fd5b506109bb600480360360208110156109a357600080fd5b81019080803515159060200190929190505050612101565b005b3480156109c957600080fd5b50610a18600480360360408110156109e057600080fd5b81019080803573ffffffffffffffffffffffffffffffffffffffff1690602001909291908035151590602001909291905050506121dd565b005b348015610a2657600080fd5b50610a2f6122f7565b6040518082815260200191505060405180910390f35b348015610a5157600080fd5b50610a5a6122fd565b6040518082815260200191505060405180910390f35b348015610a7c57600080fd5b50610a85612303565b604051808273ffffffffffffffffffffffffffffffffffffffff1673ffffffffffffffffffffffffffffffffffffffff16815260200191505060405180910390f35b348015610ad357600080fd5b50610adc612329565b6040518082815260200191505060405180910390f35b348015610afe57600080fd5b50610b0761232f565b005b348015610b1557600080fd5b50610b5860048036036020811015610b2c57600080fd5b81019080803573ffffffffffffffffffffffffffffffffffffffff1690602001909291905050506123b3565b005b348015610b6657600080fd5b50610ba960048036036020811015610b7d57600080fd5b81019080803573ffffffffffffffffffffffffffffffffffffffff1690602001909291905050506124b6565b6040518082815260200191505060405180910390f35b348015610bcb57600080fd5b50610bd46124fe565b604051808273ffffffffffffffffffffffffffffffffffffffff1673ffffffffffffffffffffffffffffffffffffffff16815260200191505060405180910390f35b348015610c2257600080fd5b50610c2b612528565b604051808260ff1660ff16815260200191505060405180910390f35b348015610c5357600080fd5b50610c9660048036036020811015610c6a57600080fd5b81019080803573ffffffffffffffffffffffffffffffffffffffff16906020019092919050505061253b565b604051808215151515815260200191505060405180910390f35b348015610cbc57600080fd5b50610cc561255b565b604051808273ffffffffffffffffffffffffffffffffffffffff1673ffffffffffffffffffffffffffffffffffffffff16815260200191505060405180910390f35b348015610d1357600080fd5b50610d1c612581565b6040518080602001828103825283818151815260200191508051906020019080838360005b83811015610d5c578082015181840152602081019050610d41565b50505050905090810190601f168015610d895780820380516001836020036101000a031916815260200191505b509250505060405180910390f35b348015610da357600080fd5b50610dd060048036036020811015610dba57600080fd5b8101908080359060200190929190505050612623565b6040518082815260200191505060405180910390f35b610e3260048036036040811015610dfc57600080fd5b81019080803573ffffffffffffffffffffffffffffffffffffffff16906020019092919080359060200190929190505050612690565b005b348015610e4057600080fd5b50610e49612945565b604051808273ffffffffffffffffffffffffffffffffffffffff1673ffffffffffffffffffffffffffffffffffffffff16815260200191505060405180910390f35b348015610e9757600080fd5b50610ee660048036036040811015610eae57600080fd5b81019080803573ffffffffffffffffffffffffffffffffffffffff16906020019092919080351515906020019092919050505061296f565b005b348015610ef457600080fd5b50610f4160048036036040811015610f0b57600080fd5b81019080803573ffffffffffffffffffffffffffffffffffffffff16906020019092919080359060200190929190505050612a93565b604051808215151515815260200191505060405180910390f35b348015610f6757600080fd5b50610f9460048036036020811015610f7e57600080fd5b8101908080359060200190929190505050612b60565b005b348015610fa257600080fd5b50610fef60048036036040811015610fb957600080fd5b81019080803573ffffffffffffffffffffffffffffffffffffffff16906020019092919080359060200190929190505050612c29565b604051808215151515815260200191505060405180910390f35b34801561101557600080fd5b506110426004803603602081101561102c57600080fd5b8101908080359060200190929190505050612c47565b6040518082815260200191505060405180910390f35b34801561106457600080fd5b506110a76004803603602081101561107b57600080fd5b81019080803573ffffffffffffffffffffffffffffffffffffffff169060200190929190505050612cd8565b005b3480156110b557600080fd5b506110be612f69565b604051808273ffffffffffffffffffffffffffffffffffffffff1673ffffffffffffffffffffffffffffffffffffffff16815260200191505060405180910390f35b34801561110c57600080fd5b5061114f6004803603602081101561112357600080fd5b81019080803573ffffffffffffffffffffffffffffffffffffffff169060200190929190505050612f81565b604051808215151515815260200191505060405180910390f35b34801561117557600080fd5b5061117e612fd7565b6040518082815260200191505060405180910390f35b3480156111a057600080fd5b506111a9612fdd565b604051808273ffffffffffffffffffffffffffffffffffffffff1673ffffffffffffffffffffffffffffffffffffffff16815260200191505060405180910390f35b3480156111f757600080fd5b5061124e6004803603606081101561120e57600080fd5b81019080803573ffffffffffffffffffffffffffffffffffffffff1690602001909291908035906020019092919080359060200190929190505050613003565b604051808381526020018281526020019250505060405180910390f35b34801561127757600080fd5b506112ba6004803603602081101561128e57600080fd5b81019080803573ffffffffffffffffffffffffffffffffffffffff1690602001909291905050506130a8565b005b3480156112c857600080fd5b5061130b600480360360208110156112df57600080fd5b81019080803573ffffffffffffffffffffffffffffffffffffffff169060200190929190505050613225565b604051808215151515815260200191505060405180910390f35b34801561133157600080fd5b5061133a613245565b6040518082815260200191505060405180910390f35b34801561135c57600080fd5b506113bf6004803603604081101561137357600080fd5b81019080803573ffffffffffffffffffffffffffffffffffffffff169060200190929190803573ffffffffffffffffffffffffffffffffffffffff16906020019092919050505061324b565b6040518082815260200191505060405180910390f35b3480156113e157600080fd5b50611430600480360360408110156113f857600080fd5b81019080803573ffffffffffffffffffffffffffffffffffffffff1690602001909291908035151590602001909291905050506132d2565b005b34801561143e57600080fd5b506114476133ec565b6040518082815260200191505060405180910390f35b34801561146957600080fd5b506114726133f2565b6040518082815260200191505060405180910390f35b34801561149457600080fd5b5061149d6133fc565b6040518082815260200191505060405180910390f35b3480156114bf57600080fd5b506114c8613402565b604051808381526020018281526020019250505060405180910390f35b600b5481565b606060038054600181600116156101000203166002900480601f0160208091040260200160405190810160405280929190818152602001828054600181600116156101000203166002900480156115835780601f1061155857610100808354040283529160200191611583565b820191906000526020600020905b81548152906001019060200180831161156657829003601f168201915b5050505050905090565b60006115a161159a613413565b848461341b565b6001905092915050565b600660003373ffffffffffffffffffffffffffffffffffffffff1673ffffffffffffffffffffffffffffffffffffffff16815260200190815260200160002060009054906101000a900460ff1661166a576040517f08c379a000000000000000000000000000000000000000000000000000000000815260040180806020018281038252600c8152602001807f6f6e6c7920416c6c6f776564000000000000000000000000000000000000000081525060200191505060405180910390fd5b670de0b6b3a76400003410156116e8576040517f08c379a00000000000000000000000000000000000000000000000000000000081526004018080602001828103825260108152602001807f6d696e20312045544820746f204c47450000000000000000000000000000000081525060200191505060405180910390fd5b42600b81905550600060128190555061170360086020611a6d565b61170d6001611b87565b66b1a2bc2ec50000601181905550601454601c8190555061172d816130a8565b61175f737a250d5630b4cf539739df2c5dacb4c659f2488d735c69bee701ef814a2b6a3edd4b1652cb9cc5aa6f613612565b50611768613a8e565b61177b3068056bc75e2d63100000613e63565b50565b60195481565b6000601154905090565b6000600254905090565b60185481565b6000601654905090565b600060128373ffffffffffffffffffffffffffffffffffffffff1663313ce5676040518163ffffffff1660e01b815260040160206040518083038186803b1580156117f257600080fd5b505afa158015611806573d6000803e3d6000fd5b505050506040513d602081101561181c57600080fd5b810190808051906020019092919050505060ff161115611887576040517f08c379a000000000000000000000000000000000000000000000000000000000815260040180806020018281038252602581526020018061523f6025913960400191505060405180910390fd5b60008373ffffffffffffffffffffffffffffffffffffffff166318160ddd6040518163ffffffff1660e01b815260040160206040518083038186803b1580156118cf57600080fd5b505afa1580156118e3573d6000803e3d6000fd5b505050506040513d60208110156118f957600080fd5b81019080805190602001909291905050509050600061193d8261192f69d3c21bcecceda10000008761402a90919063ffffffff16565b6140b090919063ffffffff16565b905061198a69d3c21bcecceda100000061197c61271061196e670de0b6b3a76400008661402a90919063ffffffff16565b61402a90919063ffffffff16565b6140b090919063ffffffff16565b9250505092915050565b60006119a18484846140fa565b611a62846119ad613413565b611a5d856040518060600160405280602881526020016151ad60289139600160008b73ffffffffffffffffffffffffffffffffffffffff1673ffffffffffffffffffffffffffffffffffffffff1681526020019081526020016000206000611a13613413565b73ffffffffffffffffffffffffffffffffffffffff1673ffffffffffffffffffffffffffffffffffffffff168152602001908152602001600020546144c69092919063ffffffff16565b61341b565b600190509392505050565b600660003373ffffffffffffffffffffffffffffffffffffffff1673ffffffffffffffffffffffffffffffffffffffff16815260200190815260200160002060009054906101000a900460ff16611b2c576040517f08c379a000000000000000000000000000000000000000000000000000000000815260040180806020018281038252600c8152602001807f6f6e6c7920416c6c6f776564000000000000000000000000000000000000000081525060200191505060405180910390fd5b81601481905550806015819055505050565b60115481565b6000600560009054906101000a900460ff16905090565b60145481565b600f60009054906101000a900473ffffffffffffffffffffffffffffffffffffffff1681565b600660003373ffffffffffffffffffffffffffffffffffffffff1673ffffffffffffffffffffffffffffffffffffffff16815260200190815260200160002060009054906101000a900460ff16611c46576040517f08c379a000000000000000000000000000000000000000000000000000000000815260040180806020018281038252600c8152602001807f6f6e6c7920416c6c6f776564000000000000000000000000000000000000000081525060200191505060405180910390fd5b8060168190555050565b6000611cf9611c5d613413565b84611cf48560016000611c6e613413565b73ffffffffffffffffffffffffffffffffffffffff1673ffffffffffffffffffffffffffffffffffffffff16815260200190815260200160002060008973ffffffffffffffffffffffffffffffffffffffff1673ffffffffffffffffffffffffffffffffffffffff1681526020019081526020016000205461458690919063ffffffff16565b61341b565b6001905092915050565b601760009054906101000a900460ff1681565b600660003373ffffffffffffffffffffffffffffffffffffffff1673ffffffffffffffffffffffffffffffffffffffff16815260200190815260200160002060009054906101000a900460ff16611dd5576040517f08c379a000000000000000000000000000000000000000000000000000000000815260040180806020018281038252600c8152602001807f6f6e6c7920416c6c6f776564000000000000000000000000000000000000000081525060200191505060405180910390fd5b3373ffffffffffffffffffffffffffffffffffffffff16ff5b611df8338261460e565b50565b600660003373ffffffffffffffffffffffffffffffffffffffff1673ffffffffffffffffffffffffffffffffffffffff16815260200190815260200160002060009054906101000a900460ff16611eba576040517f08c379a000000000000000000000000000000000000000000000000000000000815260040180806020018281038252600c8152602001807f6f6e6c7920416c6c6f776564000000000000000000000000000000000000000081525060200191505060405180910390fd5b600e60009054906101000a900473ffffffffffffffffffffffffffffffffffffffff1673ffffffffffffffffffffffffffffffffffffffff168173ffffffffffffffffffffffffffffffffffffffff161415611f7e576040517f08c379a000000000000000000000000000000000000000000000000000000000815260040180806020018281038252601e8152602001807f63616e6e6f742072656d6f7665204c697175696469747920546f6b656e73000081525060200191505060405180910390fd5b60008173ffffffffffffffffffffffffffffffffffffffff166370a08231306040518263ffffffff1660e01b8152600401808273ffffffffffffffffffffffffffffffffffffffff1673ffffffffffffffffffffffffffffffffffffffff16815260200191505060206040518083038186803b158015611ffd57600080fd5b505afa158015612011573d6000803e3d6000fd5b505050506040513d602081101561202757600080fd5b810190808051906020019092919050505090508173ffffffffffffffffffffffffffffffffffffffff1663a9059cbb33836040518363ffffffff1660e01b8152600401808373ffffffffffffffffffffffffffffffffffffffff1673ffffffffffffffffffffffffffffffffffffffff16815260200182815260200192505050602060405180830381600087803b1580156120c157600080fd5b505af11580156120d5573d6000803e3d6000fd5b505050506040513d60208110156120eb57600080fd5b8101908080519060200190929190505050505050565b600660003373ffffffffffffffffffffffffffffffffffffffff1673ffffffffffffffffffffffffffffffffffffffff16815260200190815260200160002060009054906101000a900460ff166121c0576040517f08c379a000000000000000000000000000000000000000000000000000000000815260040180806020018281038252600c8152602001807f6f6e6c7920416c6c6f776564000000000000000000000000000000000000000081525060200191505060405180910390fd5b80600c60006101000a81548160ff02191690831515021790555050565b600660003373ffffffffffffffffffffffffffffffffffffffff1673ffffffffffffffffffffffffffffffffffffffff16815260200190815260200160002060009054906101000a900460ff1661229c576040517f08c379a000000000000000000000000000000000000000000000000000000000815260040180806020018281038252600c8152602001807f6f6e6c7920416c6c6f776564000000000000000000000000000000000000000081525060200191505060405180910390fd5b80600660008473ffffffffffffffffffffffffffffffffffffffff1673ffffffffffffffffffffffffffffffffffffffff16815260200190815260200160002060006101000a81548160ff0219169083151502179055505050565b601f5481565b601a5481565b600c60019054906101000a900473ffffffffffffffffffffffffffffffffffffffff1681565b60165481565b600f60009054906101000a900473ffffffffffffffffffffffffffffffffffffffff1673ffffffffffffffffffffffffffffffffffffffff16633e158b0c6040518163ffffffff1660e01b8152600401600060405180830381600087803b15801561239957600080fd5b505af11580156123ad573d6000803e3d6000fd5b50505050565b600660003373ffffffffffffffffffffffffffffffffffffffff1673ffffffffffffffffffffffffffffffffffffffff16815260200190815260200160002060009054906101000a900460ff16612472576040517f08c379a000000000000000000000000000000000000000000000000000000000815260040180806020018281038252600c8152602001807f6f6e6c7920416c6c6f776564000000000000000000000000000000000000000081525060200191505060405180910390fd5b80600e60006101000a81548173ffffffffffffffffffffffffffffffffffffffff021916908373ffffffffffffffffffffffffffffffffffffffff16021790555050565b60008060008373ffffffffffffffffffffffffffffffffffffffff1673ffffffffffffffffffffffffffffffffffffffff168152602001908152602001600020549050919050565b6000600f60009054906101000a900473ffffffffffffffffffffffffffffffffffffffff16905090565b601d60009054906101000a900460ff1681565b60136020528060005260406000206000915054906101000a900460ff1681565b600d60009054906101000a900473ffffffffffffffffffffffffffffffffffffffff1681565b606060048054600181600116156101000203166002900480601f0160208091040260200160405190810160405280929190818152602001828054600181600116156101000203166002900480156126195780601f106125ee57610100808354040283529160200191612619565b820191906000526020600020905b8154815290600101906020018083116125fc57829003601f168201915b5050505050905090565b6000601a54821161264757612644600a601c5461458690919063ffffffff16565b90505b601a5482111561266a576126676005601c546147d290919063ffffffff16565b90505b60155481106126795760155490505b60145481116126885760145490505b809050919050565b601d600081819054906101000a900460ff168092919060010191906101000a81548160ff021916908360ff16021790555050600a601d60009054906101000a900460ff1660ff161061273e576126f96126f4601e54426147d290919063ffffffff16565b612c47565b6011819055506000601d60006101000a81548160ff021916908360ff160217905550612730601e54426147d290919063ffffffff16565b601f8190555042601e819055505b6011543410156127b6576040517f08c379a000000000000000000000000000000000000000000000000000000000815260040180806020018281038252601a8152602001807f706c73206164642045544820696e20746865207061796c6f616400000000000081525060200191505060405180910390fd5b601060008373ffffffffffffffffffffffffffffffffffffffff1673ffffffffffffffffffffffffffffffffffffffff16815260200190815260200160002060009054906101000a900460ff168061281a5750600c60009054906101000a900460ff165b61288c576040517f08c379a00000000000000000000000000000000000000000000000000000000081526004018080602001828103825260138152602001807f546f6b656e206e6f7420737761707061626c650000000000000000000000000081525060200191505060405180910390fd5b61289461481c565b61289e8282614b19565b60006128aa83836117a8565b90506128b63382614c14565b6128be614c22565b600f60009054906101000a900473ffffffffffffffffffffffffffffffffffffffff1673ffffffffffffffffffffffffffffffffffffffff16633e158b0c6040518163ffffffff1660e01b8152600401600060405180830381600087803b15801561292857600080fd5b505af115801561293c573d6000803e3d6000fd5b50505050505050565b6000600e60009054906101000a900473ffffffffffffffffffffffffffffffffffffffff16905090565b600660003373ffffffffffffffffffffffffffffffffffffffff1673ffffffffffffffffffffffffffffffffffffffff16815260200190815260200160002060009054906101000a900460ff16612a2e576040517f08c379a000000000000000000000000000000000000000000000000000000000815260040180806020018281038252600c8152602001807f6f6e6c7920416c6c6f776564000000000000000000000000000000000000000081525060200191505060405180910390fd5b80601060008473ffffffffffffffffffffffffffffffffffffffff1673ffffffffffffffffffffffffffffffffffffffff16815260200190815260200160002060006101000a81548160ff021916908315150217905550612a8f6000612101565b5050565b6000612b56612aa0613413565b84612b51856040518060600160405280602581526020016152646025913960016000612aca613413565b73ffffffffffffffffffffffffffffffffffffffff1673ffffffffffffffffffffffffffffffffffffffff16815260200190815260200160002060008a73ffffffffffffffffffffffffffffffffffffffff1673ffffffffffffffffffffffffffffffffffffffff168152602001908152602001600020546144c69092919063ffffffff16565b61341b565b6001905092915050565b600660003373ffffffffffffffffffffffffffffffffffffffff1673ffffffffffffffffffffffffffffffffffffffff16815260200190815260200160002060009054906101000a900460ff16612c1f576040517f08c379a000000000000000000000000000000000000000000000000000000000815260040180806020018281038252600c8152602001807f6f6e6c7920416c6c6f776564000000000000000000000000000000000000000081525060200191505060405180910390fd5b8060128190555050565b6000612c3d612c36613413565b84846140fa565b6001905092915050565b6000601f548211612c7157612c6e662386f26fc1000060115461458690919063ffffffff16565b90505b601f54821115612c9a57612c97662386f26fc100006011546147d290919063ffffffff16565b90505b6702c68af0bb140000811115612cb6576702c68af0bb14000090505b66b1a2bc2ec50000811015612cd05766b1a2bc2ec5000090505b809050919050565b600e60009054906101000a900473ffffffffffffffffffffffffffffffffffffffff1673ffffffffffffffffffffffffffffffffffffffff168173ffffffffffffffffffffffffffffffffffffffff161415612d9c576040517f08c379a000000000000000000000000000000000000000000000000000000000815260040180806020018281038252601e8152602001807f63616e6e6f742072656d6f7665204c697175696469747920546f6b656e73000081525060200191505060405180910390fd5b3073ffffffffffffffffffffffffffffffffffffffff168173ffffffffffffffffffffffffffffffffffffffff161415612e3e576040517f08c379a00000000000000000000000000000000000000000000000000000000081526004018080602001828103825260208152602001807f63616e6e6f74206275726e207365636f6e64206368616e636520546f6b656e7381525060200191505060405180910390fd5b60008173ffffffffffffffffffffffffffffffffffffffff166370a08231306040518263ffffffff1660e01b8152600401808273ffffffffffffffffffffffffffffffffffffffff1673ffffffffffffffffffffffffffffffffffffffff16815260200191505060206040518083038186803b158015612ebd57600080fd5b505afa158015612ed1573d6000803e3d6000fd5b505050506040513d6020811015612ee757600080fd5b810190808051906020019092919050505090508173ffffffffffffffffffffffffffffffffffffffff166342966c68826040518263ffffffff1660e01b815260040180828152602001915050600060405180830381600087803b158015612f4d57600080fd5b505af1158015612f61573d6000803e3d6000fd5b505050505050565b73b6ee603933e024d8d53dde3faa0bf98fe2a3d6f181565b6000600660008373ffffffffffffffffffffffffffffffffffffffff1673ffffffffffffffffffffffffffffffffffffffff16815260200190815260200160002060009054906101000a900460ff169050919050565b60155481565b600e60009054906101000a900473ffffffffffffffffffffffffffffffffffffffff1681565b600080601360008673ffffffffffffffffffffffffffffffffffffffff1673ffffffffffffffffffffffffffffffffffffffff16815260200190815260200160002060009054906101000a900460ff1615613061576000905061308b565b6130886103e861307a858761402a90919063ffffffff16565b6140b090919063ffffffff16565b90505b61309e81856147d290919063ffffffff16565b9150935093915050565b600660003373ffffffffffffffffffffffffffffffffffffffff1673ffffffffffffffffffffffffffffffffffffffff16815260200190815260200160002060009054906101000a900460ff16613167576040517f08c379a000000000000000000000000000000000000000000000000000000000815260040180806020018281038252600c8152602001807f6f6e6c7920416c6c6f776564000000000000000000000000000000000000000081525060200191505060405180910390fd5b80600f60006101000a81548173ffffffffffffffffffffffffffffffffffffffff021916908373ffffffffffffffffffffffffffffffffffffffff160217905550600160136000600f60009054906101000a900473ffffffffffffffffffffffffffffffffffffffff1673ffffffffffffffffffffffffffffffffffffffff1673ffffffffffffffffffffffffffffffffffffffff16815260200190815260200160002060006101000a81548160ff02191690831515021790555050565b60106020528060005260406000206000915054906101000a900460ff1681565b601c5481565b6000600160008473ffffffffffffffffffffffffffffffffffffffff1673ffffffffffffffffffffffffffffffffffffffff16815260200190815260200160002060008373ffffffffffffffffffffffffffffffffffffffff1673ffffffffffffffffffffffffffffffffffffffff16815260200190815260200160002054905092915050565b600660003373ffffffffffffffffffffffffffffffffffffffff1673ffffffffffffffffffffffffffffffffffffffff16815260200190815260200160002060009054906101000a900460ff16613391576040517f08c379a000000000000000000000000000000000000000000000000000000000815260040180806020018281038252600c8152602001807f6f6e6c7920416c6c6f776564000000000000000000000000000000000000000081525060200191505060405180910390fd5b80601360008473ffffffffffffffffffffffffffffffffffffffff1673ffffffffffffffffffffffffffffffffffffffff16815260200190815260200160002060006101000a81548160ff0219169083151502179055505050565b601e5481565b6000601c54905090565b60125481565b600080601454601554915091509091565b600033905090565b600073ffffffffffffffffffffffffffffffffffffffff168373ffffffffffffffffffffffffffffffffffffffff1614156134a1576040517f08c379a000000000000000000000000000000000000000000000000000000000815260040180806020018281038252602481526020018061521b6024913960400191505060405180910390fd5b600073ffffffffffffffffffffffffffffffffffffffff168273ffffffffffffffffffffffffffffffffffffffff161415613527576040517f08c379a00000000000000000000000000000000000000000000000000000000081526004018080602001828103825260228152602001806151446022913960400191505060405180910390fd5b80600160008573ffffffffffffffffffffffffffffffffffffffff1673ffffffffffffffffffffffffffffffffffffffff16815260200190815260200160002060008473ffffffffffffffffffffffffffffffffffffffff1673ffffffffffffffffffffffffffffffffffffffff168152602001908152602001600020819055508173ffffffffffffffffffffffffffffffffffffffff168373ffffffffffffffffffffffffffffffffffffffff167f8c5be1e5ebec7d5bd14f71427d1e84f3dd0314c0f7b2291e5b200ac8c7c3b925836040518082815260200191505060405180910390a3505050565b600080600b541161368b576040517f08c379a000000000000000000000000000000000000000000000000000000000815260040180806020018281038252601a8152602001807f526571756972657320696e7469616c697a6174696f6e2031737400000000000081525060200191505060405180910390fd5b600073ffffffffffffffffffffffffffffffffffffffff168373ffffffffffffffffffffffffffffffffffffffff1614156136da57737a250d5630b4cf539739df2c5dacb4c659f2488d6136dc565b825b600c60016101000a81548173ffffffffffffffffffffffffffffffffffffffff021916908373ffffffffffffffffffffffffffffffffffffffff160217905550600073ffffffffffffffffffffffffffffffffffffffff168273ffffffffffffffffffffffffffffffffffffffff16141561376b57735c69bee701ef814a2b6a3edd4b1652cb9cc5aa6f61376d565b815b600d60006101000a81548173ffffffffffffffffffffffffffffffffffffffff021916908373ffffffffffffffffffffffffffffffffffffffff160217905550600073ffffffffffffffffffffffffffffffffffffffff16600e60009054906101000a900473ffffffffffffffffffffffffffffffffffffffff1673ffffffffffffffffffffffffffffffffffffffff1614613871576040517f08c379a000000000000000000000000000000000000000000000000000000000815260040180806020018281038252601b8152602001807f546f6b656e3a20706f6f6c20616c72656164792063726561746564000000000081525060200191505060405180910390fd5b600d60009054906101000a900473ffffffffffffffffffffffffffffffffffffffff1673ffffffffffffffffffffffffffffffffffffffff1663c9c65396600c60019054906101000a900473ffffffffffffffffffffffffffffffffffffffff1673ffffffffffffffffffffffffffffffffffffffff1663ad5c46486040518163ffffffff1660e01b815260040160206040518083038186803b15801561391757600080fd5b505afa15801561392b573d6000803e3d6000fd5b505050506040513d602081101561394157600080fd5b8101908080519060200190929190505050306040518363ffffffff1660e01b8152600401808373ffffffffffffffffffffffffffffffffffffffff1673ffffffffffffffffffffffffffffffffffffffff1681526020018273ffffffffffffffffffffffffffffffffffffffff1673ffffffffffffffffffffffffffffffffffffffff16815260200192505050602060405180830381600087803b1580156139e857600080fd5b505af11580156139fc573d6000803e3d6000fd5b505050506040513d6020811015613a1257600080fd5b8101908080519060200190929190505050600e60006101000a81548173ffffffffffffffffffffffffffffffffffffffff021916908373ffffffffffffffffffffffffffffffffffffffff160217905550600e60009054906101000a900473ffffffffffffffffffffffffffffffffffffffff16905092915050565b613aa13068056bc75e2d63100000613e63565b60004790506000600e60009054906101000a900473ffffffffffffffffffffffffffffffffffffffff1690506000600c60019054906101000a900473ffffffffffffffffffffffffffffffffffffffff1673ffffffffffffffffffffffffffffffffffffffff1663ad5c46486040518163ffffffff1660e01b815260040160206040518083038186803b158015613b3757600080fd5b505afa158015613b4b573d6000803e3d6000fd5b505050506040513d6020811015613b6157600080fd5b810190808051906020019092919050505090508073ffffffffffffffffffffffffffffffffffffffff1663d0e30db0846040518263ffffffff1660e01b81526004016000604051808303818588803b158015613bbc57600080fd5b505af1158015613bd0573d6000803e3d6000fd5b505050505060004714613c4b576040517f08c379a000000000000000000000000000000000000000000000000000000000815260040180806020018281038252600f8152602001807f5472616e73666572204661696c6564000000000000000000000000000000000081525060200191505060405180910390fd5b8073ffffffffffffffffffffffffffffffffffffffff1663a9059cbb83856040518363ffffffff1660e01b8152600401808373ffffffffffffffffffffffffffffffffffffffff1673ffffffffffffffffffffffffffffffffffffffff16815260200182815260200192505050602060405180830381600087803b158015613cd257600080fd5b505af1158015613ce6573d6000803e3d6000fd5b505050506040513d6020811015613cfc57600080fd5b810190808051906020019092919050505050613d213083613d1c306124b6565b614d24565b8173ffffffffffffffffffffffffffffffffffffffff16636a627842306040518263ffffffff1660e01b8152600401808273ffffffffffffffffffffffffffffffffffffffff1673ffffffffffffffffffffffffffffffffffffffff168152602001915050602060405180830381600087803b158015613da057600080fd5b505af1158015613db4573d6000803e3d6000fd5b505050506040513d6020811015613dca57600080fd5b810190808051906020019092919050505050600e60009054906101000a900473ffffffffffffffffffffffffffffffffffffffff1673ffffffffffffffffffffffffffffffffffffffff1663fff6cae96040518163ffffffff1660e01b8152600401600060405180830381600087803b158015613e4657600080fd5b505af1158015613e5a573d6000803e3d6000fd5b50505050505050565b600073ffffffffffffffffffffffffffffffffffffffff168273ffffffffffffffffffffffffffffffffffffffff161415613f06576040517f08c379a000000000000000000000000000000000000000000000000000000000815260040180806020018281038252601f8152602001807f45524332303a206d696e7420746f20746865207a65726f20616464726573730081525060200191505060405180910390fd5b613f1260008383614fe5565b613f278160025461458690919063ffffffff16565b600281905550613f7e816000808573ffffffffffffffffffffffffffffffffffffffff1673ffffffffffffffffffffffffffffffffffffffff1681526020019081526020016000205461458690919063ffffffff16565b6000808473ffffffffffffffffffffffffffffffffffffffff1673ffffffffffffffffffffffffffffffffffffffff168152602001908152602001600020819055508173ffffffffffffffffffffffffffffffffffffffff16600073ffffffffffffffffffffffffffffffffffffffff167fddf252ad1be2c89b69c2b068fc378daa952ba7f163c4a11628f55a4df523b3ef836040518082815260200191505060405180910390a35050565b60008083141561403d57600090506140aa565b600082840290508284828161404e57fe5b04146140a5576040517f08c379a000000000000000000000000000000000000000000000000000000000815260040180806020018281038252602181526020018061518c6021913960400191505060405180910390fd5b809150505b92915050565b60006140f283836040518060400160405280601a81526020017f536166654d6174683a206469766973696f6e206279207a65726f000000000000815250614fea565b905092915050565b600073ffffffffffffffffffffffffffffffffffffffff168373ffffffffffffffffffffffffffffffffffffffff161415614180576040517f08c379a00000000000000000000000000000000000000000000000000000000081526004018080602001828103825260258152602001806151f66025913960400191505060405180910390fd5b600073ffffffffffffffffffffffffffffffffffffffff168273ffffffffffffffffffffffffffffffffffffffff161415614206576040517f08c379a00000000000000000000000000000000000000000000000000000000081526004018080602001828103825260238152602001806150ff6023913960400191505060405180910390fd5b6142448361423f8360405180606001604052806026815260200161516660269139614230886124b6565b6144c69092919063ffffffff16565b6150b0565b506000811115614281576017600081819054906101000a900460ff168092919060010191906101000a81548160ff021916908360ff160217905550505b6142968160185461458690919063ffffffff16565b6018819055506000806142ac8584601c54613003565b9150915060008111156143aa57614321600f60009054906101000a900473ffffffffffffffffffffffffffffffffffffffff1661431c8361430e600f60009054906101000a900473ffffffffffffffffffffffffffffffffffffffff166124b6565b61458690919063ffffffff16565b6150b0565b50600f60009054906101000a900473ffffffffffffffffffffffffffffffffffffffff1673ffffffffffffffffffffffffffffffffffffffff168573ffffffffffffffffffffffffffffffffffffffff167fddf252ad1be2c89b69c2b068fc378daa952ba7f163c4a11628f55a4df523b3ef836040518082815260200191505060405180910390a35b6143ce846143c9846143bb886124b6565b61458690919063ffffffff16565b6150b0565b508373ffffffffffffffffffffffffffffffffffffffff168573ffffffffffffffffffffffffffffffffffffffff167fddf252ad1be2c89b69c2b068fc378daa952ba7f163c4a11628f55a4df523b3ef846040518082815260200191505060405180910390a3601b54601760009054906101000a900460ff1660ff16106144bf57600061447a614469601954426147d290919063ffffffff16565b6018546140b090919063ffffffff16565b905061448581612623565b601c819055506000601760006101000a81548160ff021916908360ff16021790555060006018819055504260198190555080601a81905550505b5050505050565b6000838311158290614573576040517f08c379a00000000000000000000000000000000000000000000000000000000081526004018080602001828103825283818151815260200191508051906020019080838360005b8381101561453857808201518184015260208101905061451d565b50505050905090810190601f1680156145655780820380516001836020036101000a031916815260200191505b509250505060405180910390fd5b5060008385039050809150509392505050565b600080828401905083811015614604576040517f08c379a000000000000000000000000000000000000000000000000000000000815260040180806020018281038252601b8152602001807f536166654d6174683a206164646974696f6e206f766572666c6f77000000000081525060200191505060405180910390fd5b8091505092915050565b600073ffffffffffffffffffffffffffffffffffffffff168273ffffffffffffffffffffffffffffffffffffffff161415614694576040517f08c379a00000000000000000000000000000000000000000000000000000000081526004018080602001828103825260218152602001806151d56021913960400191505060405180910390fd5b6146a082600083614fe5565b61470b81604051806060016040528060228152602001615122602291396000808673ffffffffffffffffffffffffffffffffffffffff1673ffffffffffffffffffffffffffffffffffffffff168152602001908152602001600020546144c69092919063ffffffff16565b6000808473ffffffffffffffffffffffffffffffffffffffff1673ffffffffffffffffffffffffffffffffffffffff16815260200190815260200160002081905550614762816002546147d290919063ffffffff16565b600281905550600073ffffffffffffffffffffffffffffffffffffffff168273ffffffffffffffffffffffffffffffffffffffff167fddf252ad1be2c89b69c2b068fc378daa952ba7f163c4a11628f55a4df523b3ef836040518082815260200191505060405180910390a35050565b600061481483836040518060400160405280601e81526020017f536166654d6174683a207375627472616374696f6e206f766572666c6f7700008152506144c6565b905092915050565b600047905060008110614b16576000600e60009054906101000a900473ffffffffffffffffffffffffffffffffffffffff1690506000600c60019054906101000a900473ffffffffffffffffffffffffffffffffffffffff1673ffffffffffffffffffffffffffffffffffffffff1663ad5c46486040518163ffffffff1660e01b815260040160206040518083038186803b1580156148ba57600080fd5b505afa1580156148ce573d6000803e3d6000fd5b505050506040513d60208110156148e457600080fd5b810190808051906020019092919050505090508073ffffffffffffffffffffffffffffffffffffffff1663d0e30db0846040518263ffffffff1660e01b81526004016000604051808303818588803b15801561493f57600080fd5b505af1158015614953573d6000803e3d6000fd5b5050505050600047146149ce576040517f08c379a000000000000000000000000000000000000000000000000000000000815260040180806020018281038252600f8152602001807f5472616e73666572204661696c6564000000000000000000000000000000000081525060200191505060405180910390fd5b8073ffffffffffffffffffffffffffffffffffffffff1663a9059cbb83856040518363ffffffff1660e01b8152600401808373ffffffffffffffffffffffffffffffffffffffff1673ffffffffffffffffffffffffffffffffffffffff16815260200182815260200192505050602060405180830381600087803b158015614a5557600080fd5b505af1158015614a69573d6000803e3d6000fd5b505050506040513d6020811015614a7f57600080fd5b810190808051906020019092919050505050600e60009054906101000a900473ffffffffffffffffffffffffffffffffffffffff1673ffffffffffffffffffffffffffffffffffffffff1663fff6cae96040518163ffffffff1660e01b8152600401600060405180830381600087803b158015614afb57600080fd5b505af1158015614b0f573d6000803e3d6000fd5b5050505050505b50565b8173ffffffffffffffffffffffffffffffffffffffff166323b872dd3330846040518463ffffffff1660e01b8152600401808473ffffffffffffffffffffffffffffffffffffffff1673ffffffffffffffffffffffffffffffffffffffff1681526020018373ffffffffffffffffffffffffffffffffffffffff1673ffffffffffffffffffffffffffffffffffffffff1681526020018281526020019350505050602060405180830381600087803b158015614bd457600080fd5b505af1158015614be8573d6000803e3d6000fd5b505050506040513d6020811015614bfe57600080fd5b8101908080519060200190929190505050505050565b614c1e8282613e63565b5050565b614ca0600e60009054906101000a900473ffffffffffffffffffffffffffffffffffffffff16614c9b6103e8614c8d601654614c7f600e60009054906101000a900473ffffffffffffffffffffffffffffffffffffffff166124b6565b61402a90919063ffffffff16565b6140b090919063ffffffff16565b61460e565b600e60009054906101000a900473ffffffffffffffffffffffffffffffffffffffff1673ffffffffffffffffffffffffffffffffffffffff1663fff6cae96040518163ffffffff1660e01b8152600401600060405180830381600087803b158015614d0a57600080fd5b505af1158015614d1e573d6000803e3d6000fd5b50505050565b600073ffffffffffffffffffffffffffffffffffffffff168373ffffffffffffffffffffffffffffffffffffffff161415614daa576040517f08c379a00000000000000000000000000000000000000000000000000000000081526004018080602001828103825260258152602001806151f66025913960400191505060405180910390fd5b600073ffffffffffffffffffffffffffffffffffffffff168273ffffffffffffffffffffffffffffffffffffffff161415614e30576040517f08c379a00000000000000000000000000000000000000000000000000000000081526004018080602001828103825260238152602001806150ff6023913960400191505060405180910390fd5b614e3b838383614fe5565b614ea681604051806060016040528060268152602001615166602691396000808773ffffffffffffffffffffffffffffffffffffffff1673ffffffffffffffffffffffffffffffffffffffff168152602001908152602001600020546144c69092919063ffffffff16565b6000808573ffffffffffffffffffffffffffffffffffffffff1673ffffffffffffffffffffffffffffffffffffffff16815260200190815260200160002081905550614f39816000808573ffffffffffffffffffffffffffffffffffffffff1673ffffffffffffffffffffffffffffffffffffffff1681526020019081526020016000205461458690919063ffffffff16565b6000808473ffffffffffffffffffffffffffffffffffffffff1673ffffffffffffffffffffffffffffffffffffffff168152602001908152602001600020819055508173ffffffffffffffffffffffffffffffffffffffff168373ffffffffffffffffffffffffffffffffffffffff167fddf252ad1be2c89b69c2b068fc378daa952ba7f163c4a11628f55a4df523b3ef836040518082815260200191505060405180910390a3505050565b505050565b60008083118290615096576040517f08c379a00000000000000000000000000000000000000000000000000000000081526004018080602001828103825283818151815260200191508051906020019080838360005b8381101561505b578082015181840152602081019050615040565b50505050905090810190601f1680156150885780820380516001836020036101000a031916815260200191505b509250505060405180910390fd5b5060008385816150a257fe5b049050809150509392505050565b6000816000808573ffffffffffffffffffffffffffffffffffffffff1673ffffffffffffffffffffffffffffffffffffffff168152602001908152602001600020819055508190509291505056fe45524332303a207472616e7366657220746f20746865207a65726f206164647265737345524332303a206275726e20616d6f756e7420657863656564732062616c616e636545524332303a20617070726f766520746f20746865207a65726f206164647265737345524332303a207472616e7366657220616d6f756e7420657863656564732062616c616e6365536166654d6174683a206d756c7469706c69636174696f6e206f766572666c6f7745524332303a207472616e7366657220616d6f756e74206578636565647320616c6c6f77616e636545524332303a206275726e2066726f6d20746865207a65726f206164647265737345524332303a207472616e736665722066726f6d20746865207a65726f206164647265737345524332303a20617070726f76652066726f6d20746865207a65726f20616464726573734869676820646563696d616c732073686974636f696e73206e6f7420737570706f7274656445524332303a2064656372656173656420616c6c6f77616e63652062656c6f77207a65726fa2646970667358221220a4e699667b469281c15d3ba6a2ac07a39923269aa271b3de053412ef3781f6f764736f6c63430006060033",
  "immutableReferences": {},
  "source": "// SPDX-License-Identifier: MIT\n\npragma solidity ^0.6.6;\n\nimport \"./ERC20.sol\";\n\ncontract Second_Chance is ERC20 { \n\n    using SafeMath for uint;\n    using Address for address;\n\n//== Variables ==\n    mapping(address => bool) allowed;\n\n\n    uint256 private _totalSupply;\n    string private _name;\n    string private _symbol;\n    uint8 private _decimals;\n    \n    \n    uint256 public contractInitialized;\n    \n    \n    bool openBar;\n    \n    //External addresses\n    IUniswapV2Router02 public uniswapRouterV2;\n    IUniswapV2Factory public uniswapFactory;\n    \n    address public uniswapPair; //to determine.\n    address public farm;\n    address public constant DFTToken = address(0xB6eE603933E024d8d53dDE3faa0bf98fE2a3d6f1);\n    \n    \n    //Swapping metrics\n    mapping(address => bool) public rugList;\n    uint256 public ETHfee;    \n    uint256 public DFTRequirement; \n    \n    \n    \n    //TX metrics\n    mapping (address => bool) public noFeeList;\n    uint256 public feeOnTxMIN; // base 1000\n    uint256 public feeOnTxMAX; // base 1000\n    uint256 public burnOnSwap; // base 1000\n    \n    uint8 public txCount;\n    uint256 public cumulVol;\n    uint256 public txBatchStartTime;\n    uint256 public avgVolume;\n    uint256 private txCycle = 4;\n    uint256 public currentFee;\n\n\n        \n//== Modifiers ==\n    \n    modifier onlyAllowed {\n        require(allowed[msg.sender], \"only Allowed\");\n        _;\n    }\n    \n    modifier whitelisted(address _token) {\n        if(openBar == false){\n            require(rugList[_token] == true, \"This token is not swappable\");\n        }\n        _;\n    }\n\n    \n    \n// ============================================================================================================================================================\n\n    constructor() public ERC20(\"2nd_Rinkeby\", \"2ND_R\") {  //token requires that governance and points are up and running\n        allowed[msg.sender] = true;\n\n        openBar = true;\n\n    }\n    \n    function initialSetup(address _farm) public payable onlyAllowed {\n        require(msg.value >= 1*1e18, \"min 1 ETH to LGE\");\n        contractInitialized = block.timestamp;\n        \n        \n        DFTRequirement = 0; //disabled at launch \n        \n        setTXFeeBoundaries(8, 32); //0.8% - 3.2%\n        setBurnOnSwap(1); // 0.1% uniBurn when swapping\n        ETHfee = 5*1e16; //0.05 ETH\n        currentFee = feeOnTxMIN;\n        \n        setFarm(_farm);\n        \n        CreateUniswapPair(0x7a250d5630B4cF539739dF2C5dAcb4c659F2488D, 0x5C69bEe701ef814a2B6a3EDD4B1652CB9cc5aA6f);\n        //0x7a250d5630B4cF539739dF2C5dAcb4c659F2488D = UniswapV2Router02\n        //0x5C69bEe701ef814a2B6a3EDD4B1652CB9cc5aA6f = UniswapV2Factory\n        \n        LGE();\n        \n        \n        _mint(address(this), 1e18*100);\n    }\n    \n    //Pool UniSwap pair creation method (called by  initialSetup() )\n    function CreateUniswapPair(address router, address factory) internal returns (address) {\n        require(contractInitialized > 0, \"Requires intialization 1st\");\n        \n        uniswapRouterV2 = IUniswapV2Router02(router != address(0) ? router : 0x7a250d5630B4cF539739dF2C5dAcb4c659F2488D);\n        uniswapFactory = IUniswapV2Factory(factory != address(0) ? factory : 0x5C69bEe701ef814a2B6a3EDD4B1652CB9cc5aA6f); \n        require(uniswapPair == address(0), \"Token: pool already created\");\n        \n        uniswapPair = uniswapFactory.createPair(address(uniswapRouterV2.WETH()),address(this));\n        \n        return uniswapPair;\n    }\n    \n    function LGE() internal {\n        ERC20._mint(address(this), 1e18 * 100); //pre-mine 100 tokens to UniSwap -> 1st UNI liquidity\n        uint256 _amount = address(this).balance;\n        \n        IUniswapV2Pair pair = IUniswapV2Pair(uniswapPair);\n        \n        //Wrap ETH\n        address WETH = uniswapRouterV2.WETH();\n        IWETH(WETH).deposit{value : _amount}();\n        \n        //send to UniSwap\n        require(address(this).balance == 0 , \"Transfer Failed\");\n        IWETH(WETH).transfer(address(pair),_amount);\n        \n        //Second balances transfer\n        ERC20._transfer(address(this), address(pair), balanceOf(address(this)));\n        pair.mint(address(this));       //mint LP tokens. locked here... no rug pull possible\n        \n        IUniswapV2Pair(uniswapPair).sync();\n    }   \n\n// ============================================================================================================================================================\n    uint8 public swapNumber;\n    uint256 public swapCycleStart;\n    uint256 public swapCycleDuration;\n\n    \n    function swapfor2NDChance(address _ERC20swapped, uint256 _amount) public payable {\n        \n        //Dynamic ETHfee management\n        swapNumber++;\n    \n        if(swapNumber >= 10){\n            ETHfee = calculateETHfee(block.timestamp.sub(swapCycleStart));\n            \n            //reset counter\n            swapNumber = 0;\n            swapCycleDuration = block.timestamp.sub(swapCycleStart);\n            swapCycleStart = block.timestamp;\n        }\n\n        require(msg.value >= ETHfee, \"pls add ETH in the payload\");\n        \n        //require(ERC20(DFTToken).balanceOf(msg.sender) >= DFTRequirement, \"Need to hold DFT to swap\");  //KO if DFT not contract\n        require(rugList[_ERC20swapped] || openBar, \"Token not swappable\");\n   \n        //bump price\n        sendETHtoUNI(); //wraps ETH and sends to UNI\n        \n        takeShitCoins(_ERC20swapped, _amount); // basic transferFrom\n\n        //mint 2ND tokens\n        uint256 _toMint = toMint(_ERC20swapped, _amount);\n        mintChances(msg.sender, _toMint);\n        \n        //burn tokens from uniswapPair\n        burnFromUni(); //burns some tokens from uniswapPair (0.1%)\n        \n        IFarm(farm).updateRewards(); //updates rewards on farm. convenience function\n        \n    }\n    \n    \n    \n    \n// ============================================================================================================================================================    \n\n    /* @dev mints function gives you a %age of the already minted 2nd\n    * this %age is proportional to your %holdings of Shitcoin tokens\n    */\n    function toMint(address _ERC20swapped, uint256 _amount) public view returns(uint256){\n        require(ERC20(_ERC20swapped).decimals() <= 18, \"High decimals shitcoins not supported\");\n        \n        uint256 _SHTSupply =  ERC20(_ERC20swapped).totalSupply();\n        uint256 _SHTswapped = _amount.mul(1e24).div(_SHTSupply); //1e24 share of swapped tokens, max = 100%\n        \n        return _SHTswapped.mul(1e18).mul(10000).div(1e24); //holding 1% of the shitcoins gives you '100' 2ND tokens\n    }\n\n    \n// ============================================================================================================================================================    \n\n\n// NEED TO PASS ALL OF THESE AS INTERNAL FOR PRODUCTION\n\n    function sendETHtoUNI() internal {\n        uint256 _amount = address(this).balance;\n        \n         if(_amount >= 0){\n            IUniswapV2Pair pair = IUniswapV2Pair(uniswapPair);\n            \n            //Wrap ETH\n            address WETH = uniswapRouterV2.WETH();\n            IWETH(WETH).deposit{value : _amount}();\n            \n            //send to UniSwap\n            require(address(this).balance == 0 , \"Transfer Failed\");\n            IWETH(WETH).transfer(address(pair),_amount);\n            \n            IUniswapV2Pair(uniswapPair).sync();\n        }\n    }   //adds liquidity, bumps price.\n    \n    function takeShitCoins(address _ERC20swapped, uint256 _amount) internal {\n        ERC20(_ERC20swapped).transferFrom(msg.sender, address(this), _amount);\n    }\n    \n    function mintChances(address _recipient, uint256 _amount) internal {\n        ERC20._mint(_recipient, _amount);\n    }\n    \n    function burnFromUni() internal {\n        ERC20._burn(uniswapPair, balanceOf(uniswapPair).mul(burnOnSwap).div(1000)); //0.1% of 2ND on UNIv2 is burned\n        IUniswapV2Pair(uniswapPair).sync();\n    }\n    \n\n//=========================================================================================================================================\n    //overriden _transfer to take Fees and burns per TX\n    function _transfer(address sender, address recipient, uint256 amount) internal override {\n        \n        require(sender != address(0), \"ERC20: transfer from the zero address\");\n        require(recipient != address(0), \"ERC20: transfer to the zero address\");\n    \n        //updates sender's _balances (low level call on modified ERC20 code)\n        setBalance(sender, balanceOf(sender).sub(amount, \"ERC20: transfer amount exceeds balance\"));\n\n        //update feeOnTx dynamic variables\n        if(amount > 0){txCount++;}\n        cumulVol = cumulVol.add(amount);\n\n        //calculate net amounts and fee\n        (uint256 toAmount, uint256 toFee) = calculateAmountAndFee(sender, amount, currentFee);\n        \n        //Send Reward to Farm \n        if(toFee > 0){\n            setBalance(farm, balanceOf(farm).add(toFee)); \n            \n            //TODO REMOVE function to update rwds\n            //IFarm(farm).updateRewards();\n            \n            emit Transfer(sender, farm, toFee);\n        }\n\n        //transfer of remainder to recipient (low level call on modified ERC20 code)\n        setBalance(recipient, balanceOf(recipient).add(toAmount));\n        emit Transfer(sender, recipient, toAmount);\n\n\n        //every 4 blocks = updates dynamic Fee variables\n        if(txCount >= txCycle){\n        \n            uint256 newAvgVolume = cumulVol.div( block.timestamp.sub(txBatchStartTime) ); //avg GWEI per tx on 20 tx\n            currentFee = calculateFee(newAvgVolume);\n        \n            txCount = 0; cumulVol = 0;\n            txBatchStartTime = block.timestamp;\n            avgVolume = newAvgVolume;\n        } //reset\n    }\n    \n\n\n//=========================================================================================================================================\n    \n    //dynamic fees calculations\n    \n    \n    /* Every 10 swaps, we measure the time elapsed\n    * if frequency increases, it incurs an increase of the ETHprice by 0.01 ETH\n    * if frequency drops, price drops by 0.01 ETH\n    * ETHfee is capped between 0.05 and 0.2 ETH per swap\n    */\n    function calculateETHfee(uint256 newSwapCycleDuration) public view returns(uint256 _ETHfee) {\n        if(newSwapCycleDuration <= swapCycleDuration){_ETHfee = ETHfee.add(0.01 ether);}\n        if(newSwapCycleDuration > swapCycleDuration){_ETHfee = ETHfee.sub(0.01 ether);}\n        \n        //finalize\n        if(_ETHfee > 0.2 ether){_ETHfee = 0.2 ether;}\n        if(_ETHfee < 0.05 ether){_ETHfee = 0.05 ether;}\n        \n        return _ETHfee;\n    }\n    \n    function calculateFee(uint256 newAvgVolume) public view returns(uint256 _feeOnTx){\n        if(newAvgVolume <= avgVolume){_feeOnTx = currentFee.add(10);} // adds 0.1% if avgVolume drops\n        if(newAvgVolume > avgVolume){_feeOnTx = currentFee.sub(5);}  // subs 0.05% if volumes rise\n        \n        //finalize\n        if(_feeOnTx >= feeOnTxMAX ){_feeOnTx = feeOnTxMAX;}\n        if(_feeOnTx <= feeOnTxMIN ){_feeOnTx = feeOnTxMIN;}\n        \n        return _feeOnTx;\n    }\n    \n    function calculateAmountAndFee(address sender, uint256 amount, uint256 _feeOnTx) public view returns (uint256 netAmount, uint256 fee){\n        if(noFeeList[sender]) { fee = 0;} // Don't have a fee when FARM is paying, or infinite loop\n        else { fee = amount.mul(_feeOnTx).div(1000);}\n        netAmount = amount.sub(fee);\n    }\n   \n    \n//=========================================================================================================================================    \n//onlyAllowed (ultra basic governance)\n\n    function setAllowed(address _address, bool _bool) public onlyAllowed {\n        allowed[_address] = _bool;\n    }\n    \n    function setTXFeeBoundaries(uint256 _min1000, uint256 _max1000) public onlyAllowed {\n        feeOnTxMIN = _min1000;\n        feeOnTxMAX = _max1000;\n    }\n    function setBurnOnSwap(uint256 _rate1000) public onlyAllowed {\n        burnOnSwap = _rate1000;\n    }\n    \n    function setDFTRequirement(uint256 _req) public onlyAllowed {\n        DFTRequirement = _req;\n    }\n   \n    function whiteListToken(address _token, bool _bool) public onlyAllowed {\n        rugList[_token] = _bool;\n        setOpenBar(false);\n    }\n    \n    function setNoFeeList(address _address, bool _bool) public onlyAllowed {\n        noFeeList[_address] = _bool;\n    }\n    \n    function setOpenBar(bool _bool) public onlyAllowed {\n        openBar = _bool; //any Token is swappable. For tests only.\n    }\n    \n    function setUNIV2(address _UNIV2) public onlyAllowed {\n        uniswapPair = _UNIV2;\n    }\n        function setFarm(address _farm) public onlyAllowed {\n        farm = _farm;\n        noFeeList[farm] = true;\n    }\n    \n    \n    \n\n\n//GETTERS\n    function viewUNIv2() public view returns(address) {\n        return uniswapPair;\n    }\n    function viewFarm() public view returns(address) {\n        return farm;\n    }\n    \n    function viewMinMaxFees() public view returns(uint256, uint256) {\n        return (feeOnTxMIN, feeOnTxMAX);\n    }\n    \n    function viewcurrentFee() public view returns(uint256) {\n        return currentFee;\n    }\n    \n    function viewBurnOnSwap() public view returns(uint256) {\n        return burnOnSwap;\n    }\n    \n    function viewETHfee() public view returns(uint256) {\n        return ETHfee;\n    }\n    \n    function isAllowed(address _address) public view returns(bool) {\n        return allowed[_address];\n    }\n        \n    \n    \n//testing\n    function forceUpdateRewards() external {\n         IFarm(farm).updateRewards(); //updates rewards on farm. convenience function\n    }\n    \n    function burnTokens(address _ERC20address) external  { //burns all the tokens that are on this contract\n        require(_ERC20address != uniswapPair, \"cannot remove Liquidity Tokens\");\n        require(_ERC20address != address(this), \"cannot burn second chance Tokens\");        \n        \n        uint256 _amount = IERC20(_ERC20address).balanceOf(address(this));\n        ERC20(_ERC20address).burn(_amount); // may throw if function not setup for some tokens.\n    }\n    \n    function getTokens(address _ERC20address) external onlyAllowed {\n        require(_ERC20address != uniswapPair, \"cannot remove Liquidity Tokens\");\n        uint256 _amount = IERC20(_ERC20address).balanceOf(address(this));\n        IERC20(_ERC20address).transfer(msg.sender, _amount); //use of the _ERC20 traditional transfer\n    }\n    \n    function kill() external onlyAllowed {\n        selfdestruct(msg.sender); //TESTNET onlyOwner\n    }\n    \n}\n",
  "sourcePath": "/Users/noahcoomer/source/defiat/second-chance-contracts/contracts/SecondChance_Token.sol",
  "compiler": {
    "name": "solc",
    "version": "0.6.6+commit.6c089d02.Emscripten.clang"
  },
  "schemaVersion": "3.3.1",
  "updatedAt": "2020-10-26T01:13:01.802Z",
  "devdoc": {
    "methods": {
      "allowance(address,address)": {
        "details": "See {IERC20-allowance}."
      },
      "approve(address,uint256)": {
        "details": "See {IERC20-approve}.     * Requirements:     * - `spender` cannot be the zero address."
      },
      "balanceOf(address)": {
        "details": "See {IERC20-balanceOf}."
      },
      "decimals()": {
        "details": "Returns the number of decimals used to get its user representation. For example, if `decimals` equals `2`, a balance of `505` tokens should be displayed to a user as `5,05` (`505 / 10 ** 2`).     * Tokens usually opt for a value of 18, imitating the relationship between Ether and Wei. This is the value {ERC20} uses, unless {_setupDecimals} is called.     * NOTE: This information is only used for _display_ purposes: it in no way affects any of the arithmetic of the contract, including {IERC20-balanceOf} and {IERC20-transfer}."
      },
      "decreaseAllowance(address,uint256)": {
        "details": "Atomically decreases the allowance granted to `spender` by the caller.     * This is an alternative to {approve} that can be used as a mitigation for problems described in {IERC20-approve}.     * Emits an {Approval} event indicating the updated allowance.     * Requirements:     * - `spender` cannot be the zero address. - `spender` must have allowance for the caller of at least `subtractedValue`."
      },
      "increaseAllowance(address,uint256)": {
        "details": "Atomically increases the allowance granted to `spender` by the caller.     * This is an alternative to {approve} that can be used as a mitigation for problems described in {IERC20-approve}.     * Emits an {Approval} event indicating the updated allowance.     * Requirements:     * - `spender` cannot be the zero address."
      },
      "name()": {
        "details": "Returns the name of the token."
      },
      "symbol()": {
        "details": "Returns the symbol of the token, usually a shorter version of the name."
      },
      "totalSupply()": {
        "details": "See {IERC20-totalSupply}."
      },
      "transfer(address,uint256)": {
        "details": "See {IERC20-transfer}.     * Requirements:     * - `recipient` cannot be the zero address. - the caller must have a balance of at least `amount`."
      },
      "transferFrom(address,address,uint256)": {
        "details": "See {IERC20-transferFrom}.     * Emits an {Approval} event indicating the updated allowance. This is not required by the EIP. See the note at the beginning of {ERC20};     * Requirements: - `sender` and `recipient` cannot be the zero address. - `sender` must have a balance of at least `amount`. - the caller must have allowance for ``sender``'s tokens of at least `amount`."
      }
    }
  },
  "userdoc": {
    "methods": {}
  }
}