{
  "contractName": "PointsThresholdVote",
  "abi": [
    {
      "inputs": [
        {
          "internalType": "address",
          "name": "_DeFiat_Points",
          "type": "address"
        },
        {
          "internalType": "address",
          "name": "_DeFiat_Gov",
          "type": "address"
        },
        {
          "internalType": "address",
          "name": "_rewardToken",
          "type": "address"
        },
        {
          "internalType": "address",
          "name": "_uniFactoryAddress",
          "type": "address"
        },
        {
          "internalType": "address",
          "name": "_wethAddress",
          "type": "address"
        }
      ],
      "stateMutability": "nonpayable",
      "type": "constructor"
    },
    {
      "anonymous": false,
      "inputs": [
        {
          "indexed": true,
          "internalType": "address",
          "name": "user",
          "type": "address"
        },
        {
          "indexed": false,
          "internalType": "uint256",
          "name": "winningChoice",
          "type": "uint256"
        },
        {
          "indexed": false,
          "internalType": "uint256",
          "name": "timestamp",
          "type": "uint256"
        }
      ],
      "name": "voteEnding",
      "type": "event"
    },
    {
      "anonymous": false,
      "inputs": [
        {
          "indexed": true,
          "internalType": "address",
          "name": "user",
          "type": "address"
        },
        {
          "indexed": false,
          "internalType": "uint256",
          "name": "voteChoice",
          "type": "uint256"
        },
        {
          "indexed": false,
          "internalType": "uint256",
          "name": "timestamp",
          "type": "uint256"
        }
      ],
      "name": "voteSending",
      "type": "event"
    },
    {
      "anonymous": false,
      "inputs": [
        {
          "indexed": false,
          "internalType": "address",
          "name": "_Defiat_Gov",
          "type": "address"
        },
        {
          "indexed": false,
          "internalType": "uint256",
          "name": "_voteStart",
          "type": "uint256"
        },
        {
          "indexed": false,
          "internalType": "uint256",
          "name": "_voteEnd",
          "type": "uint256"
        },
        {
          "indexed": false,
          "internalType": "bytes32",
          "name": "_hash",
          "type": "bytes32"
        },
        {
          "indexed": false,
          "internalType": "string",
          "name": "_voteName",
          "type": "string"
        }
      ],
      "name": "voteStarting",
      "type": "event"
    },
    {
      "inputs": [],
      "name": "DeFiat_Gov",
      "outputs": [
        {
          "internalType": "address",
          "name": "",
          "type": "address"
        }
      ],
      "stateMutability": "view",
      "type": "function"
    },
    {
      "inputs": [],
      "name": "DeFiat_Points",
      "outputs": [
        {
          "internalType": "address",
          "name": "",
          "type": "address"
        }
      ],
      "stateMutability": "view",
      "type": "function"
    },
    {
      "inputs": [],
      "name": "UNIfactory",
      "outputs": [
        {
          "internalType": "address",
          "name": "",
          "type": "address"
        }
      ],
      "stateMutability": "view",
      "type": "function"
    },
    {
      "inputs": [],
      "name": "activateDecision",
      "outputs": [],
      "stateMutability": "nonpayable",
      "type": "function"
    },
    {
      "inputs": [],
      "name": "decisionActivated",
      "outputs": [
        {
          "internalType": "bool",
          "name": "",
          "type": "bool"
        }
      ],
      "stateMutability": "view",
      "type": "function"
    },
    {
      "inputs": [
        {
          "internalType": "bool",
          "name": "_decision",
          "type": "bool"
        }
      ],
      "name": "forceDecision",
      "outputs": [],
      "stateMutability": "nonpayable",
      "type": "function"
    },
    {
      "inputs": [],
      "name": "forceVoteEnd",
      "outputs": [],
      "stateMutability": "nonpayable",
      "type": "function"
    },
    {
      "inputs": [
        {
          "internalType": "address",
          "name": "tokenAddress",
          "type": "address"
        },
        {
          "internalType": "uint256",
          "name": "stakedTokens",
          "type": "uint256"
        }
      ],
      "name": "getLiquidityTokenPower",
      "outputs": [
        {
          "internalType": "uint256",
          "name": "",
          "type": "uint256"
        }
      ],
      "stateMutability": "view",
      "type": "function"
    },
    {
      "inputs": [
        {
          "internalType": "address",
          "name": "_address",
          "type": "address"
        },
        {
          "internalType": "address",
          "name": "_poolAddress",
          "type": "address"
        }
      ],
      "name": "getStake",
      "outputs": [
        {
          "internalType": "uint256",
          "name": "",
          "type": "uint256"
        }
      ],
      "stateMutability": "view",
      "type": "function"
    },
    {
      "inputs": [
        {
          "internalType": "address",
          "name": "_token",
          "type": "address"
        }
      ],
      "name": "getTokenInfo",
      "outputs": [
        {
          "internalType": "string",
          "name": "name",
          "type": "string"
        },
        {
          "internalType": "string",
          "name": "symbol",
          "type": "string"
        },
        {
          "internalType": "uint8",
          "name": "decimals",
          "type": "uint8"
        },
        {
          "internalType": "address",
          "name": "uniPair",
          "type": "address"
        },
        {
          "internalType": "uint256",
          "name": "tokensPerETH",
          "type": "uint256"
        }
      ],
      "stateMutability": "view",
      "type": "function"
    },
    {
      "inputs": [
        {
          "internalType": "address",
          "name": "_token",
          "type": "address"
        }
      ],
      "name": "getUniPrice",
      "outputs": [
        {
          "internalType": "uint256",
          "name": "",
          "type": "uint256"
        }
      ],
      "stateMutability": "view",
      "type": "function"
    },
    {
      "inputs": [],
      "name": "kill",
      "outputs": [],
      "stateMutability": "nonpayable",
      "type": "function"
    },
    {
      "inputs": [
        {
          "internalType": "address",
          "name": "_address",
          "type": "address"
        },
        {
          "internalType": "bool",
          "name": "_bool",
          "type": "bool"
        }
      ],
      "name": "manageAllowed",
      "outputs": [],
      "stateMutability": "nonpayable",
      "type": "function"
    },
    {
      "inputs": [
        {
          "internalType": "address",
          "name": "_address",
          "type": "address"
        }
      ],
      "name": "myVotingPower",
      "outputs": [
        {
          "internalType": "uint256",
          "name": "",
          "type": "uint256"
        }
      ],
      "stateMutability": "view",
      "type": "function"
    },
    {
      "inputs": [],
      "name": "owner",
      "outputs": [
        {
          "internalType": "address",
          "name": "",
          "type": "address"
        }
      ],
      "stateMutability": "view",
      "type": "function"
    },
    {
      "inputs": [],
      "name": "popStakingPool",
      "outputs": [],
      "stateMutability": "nonpayable",
      "type": "function"
    },
    {
      "inputs": [
        {
          "internalType": "address",
          "name": "_poolAddress",
          "type": "address"
        },
        {
          "internalType": "address",
          "name": "_stakedAddress",
          "type": "address"
        }
      ],
      "name": "pushStakingPool",
      "outputs": [],
      "stateMutability": "nonpayable",
      "type": "function"
    },
    {
      "inputs": [],
      "name": "quorum",
      "outputs": [
        {
          "internalType": "uint256",
          "name": "",
          "type": "uint256"
        }
      ],
      "stateMutability": "view",
      "type": "function"
    },
    {
      "inputs": [],
      "name": "rewardAmount",
      "outputs": [
        {
          "internalType": "uint256",
          "name": "",
          "type": "uint256"
        }
      ],
      "stateMutability": "view",
      "type": "function"
    },
    {
      "inputs": [],
      "name": "rewardToken",
      "outputs": [
        {
          "internalType": "address",
          "name": "",
          "type": "address"
        }
      ],
      "stateMutability": "view",
      "type": "function"
    },
    {
      "inputs": [
        {
          "internalType": "uint256",
          "name": "",
          "type": "uint256"
        }
      ],
      "name": "stakingPools",
      "outputs": [
        {
          "internalType": "address",
          "name": "poolAddress",
          "type": "address"
        },
        {
          "internalType": "address",
          "name": "stakedAddress",
          "type": "address"
        }
      ],
      "stateMutability": "view",
      "type": "function"
    },
    {
      "inputs": [],
      "name": "totalVotes",
      "outputs": [
        {
          "internalType": "uint256",
          "name": "",
          "type": "uint256"
        }
      ],
      "stateMutability": "view",
      "type": "function"
    },
    {
      "inputs": [],
      "name": "uniSymbol",
      "outputs": [
        {
          "internalType": "string",
          "name": "",
          "type": "string"
        }
      ],
      "stateMutability": "view",
      "type": "function"
    },
    {
      "inputs": [
        {
          "internalType": "uint256",
          "name": "voteChoice",
          "type": "uint256"
        }
      ],
      "name": "vote",
      "outputs": [],
      "stateMutability": "nonpayable",
      "type": "function"
    },
    {
      "inputs": [
        {
          "internalType": "uint256",
          "name": "",
          "type": "uint256"
        }
      ],
      "name": "voteChoices",
      "outputs": [
        {
          "internalType": "uint256",
          "name": "",
          "type": "uint256"
        }
      ],
      "stateMutability": "view",
      "type": "function"
    },
    {
      "inputs": [],
      "name": "voteEnd",
      "outputs": [
        {
          "internalType": "uint256",
          "name": "",
          "type": "uint256"
        }
      ],
      "stateMutability": "view",
      "type": "function"
    },
    {
      "inputs": [],
      "name": "voteName",
      "outputs": [
        {
          "internalType": "string",
          "name": "",
          "type": "string"
        }
      ],
      "stateMutability": "view",
      "type": "function"
    },
    {
      "inputs": [],
      "name": "voteStart",
      "outputs": [
        {
          "internalType": "uint256",
          "name": "",
          "type": "uint256"
        }
      ],
      "stateMutability": "view",
      "type": "function"
    },
    {
      "inputs": [
        {
          "internalType": "address",
          "name": "",
          "type": "address"
        }
      ],
      "name": "votes",
      "outputs": [
        {
          "internalType": "uint256",
          "name": "voteChoice",
          "type": "uint256"
        },
        {
          "internalType": "uint256",
          "name": "votePower",
          "type": "uint256"
        },
        {
          "internalType": "uint256",
          "name": "timestamp",
          "type": "uint256"
        }
      ],
      "stateMutability": "view",
      "type": "function"
    },
    {
      "inputs": [],
      "name": "wETHaddress",
      "outputs": [
        {
          "internalType": "address",
          "name": "",
          "type": "address"
        }
      ],
      "stateMutability": "view",
      "type": "function"
    },
    {
      "inputs": [
        {
          "internalType": "address",
          "name": "_token",
          "type": "address"
        }
      ],
      "name": "withdrawAnyToken",
      "outputs": [
        {
          "internalType": "bool",
          "name": "",
          "type": "bool"
        }
      ],
      "stateMutability": "nonpayable",
      "type": "function"
    }
  ],
  "bytecode": "0x60806040523480156200001157600080fd5b5060405162003b4638038062003b46833981810160405260a08110156200003757600080fd5b8101908080519060200190929190805190602001909291908051906020019092919080519060200190929190805190602001909291905050508360a8806040518060400160405280601581526020017f506f696e7473205468726573686f6c6420566f746500000000000000000000008152506003600088674563918244f400008989818133600360006101000a81548173ffffffffffffffffffffffffffffffffffffffff021916908373ffffffffffffffffffffffffffffffffffffffff16021790555081600160006101000a81548173ffffffffffffffffffffffffffffffffffffffff021916908373ffffffffffffffffffffffffffffffffffffffff16021790555080600260006101000a81548173ffffffffffffffffffffffffffffffffffffffff021916908373ffffffffffffffffffffffffffffffffffffffff1602179055506040518060400160405280600681526020017f554e492d5632000000000000000000000000000000000000000000000000000081525060049080519060200190620001cc929190620005b7565b50505089600560006101000a81548173ffffffffffffffffffffffffffffffffffffffff021916908373ffffffffffffffffffffffffffffffffffffffff160217905550610e1089024201600781905550610e10880260075401600881905550866006908051906020019062000244929190620005b7565b508567ffffffffffffffff811180156200025d57600080fd5b506040519080825280602002602001820160405280156200028d5781602001602082028036833780820191505090505b50600c9080519060200190620002a59291906200063e565b5083600d60006101000a81548173ffffffffffffffffffffffffffffffffffffffff021916908373ffffffffffffffffffffffffffffffffffffffff16021790555082600e8190555084600a819055506000600960006101000a81548160ff02191690831515021790555060006002600560009054906101000a900473ffffffffffffffffffffffffffffffffffffffff16600854604051602001808373ffffffffffffffffffffffffffffffffffffffff1673ffffffffffffffffffffffffffffffffffffffff1660601b8152601401828152602001925050506040516020818303038152906040526040518082805190602001908083835b60208310620003c457805182526020820191506020810190506020830392506200039f565b6001836020036101000a038019825116818451168082178552505050505050905001915050602060405180830381855afa15801562000407573d6000803e3d6000fd5b5050506040513d60208110156200041d57600080fd5b810190808051906020019092919050505090507fca94af3117437198e5d836315ba80bc7d420cd527c5f5b7d524c69b5b7a5fe5d600560009054906101000a900473ffffffffffffffffffffffffffffffffffffffff16600754600854846006604051808673ffffffffffffffffffffffffffffffffffffffff1673ffffffffffffffffffffffffffffffffffffffff168152602001858152602001848152602001838152602001806020018281038252838181546001816001161561010002031660029004815260200191508054600181600116156101000203166002900480156200054e5780601f1062000522576101008083540402835291602001916200054e565b820191906000526020600020905b8154815290600101906020018083116200053057829003601f168201915b5050965050505050505060405180910390a1505050505050505050505084601260006101000a81548173ffffffffffffffffffffffffffffffffffffffff021916908373ffffffffffffffffffffffffffffffffffffffff1602179055505050505050620006b8565b828054600181600116156101000203166002900490600052602060002090601f016020900481019282601f10620005fa57805160ff19168380011785556200062b565b828001600101855582156200062b579182015b828111156200062a5782518255916020019190600101906200060d565b5b5090506200063a919062000690565b5090565b8280548282559060005260206000209081019282156200067d579160200282015b828111156200067c5782518255916020019190600101906200065f565b5b5090506200068c919062000690565b5090565b620006b591905b80821115620006b157600081600090555060010162000697565b5090565b90565b61347e80620006c86000396000f3fe608060405234801561001057600080fd5b50600436106101e55760003560e01c80637892766c1161010f578063c10ac53e116100a2578063ec0b080011610071578063ec0b080014610a23578063f7b2a7be14610a73578063f7c618c114610a91578063f810f82814610adb576101e5565b8063c10ac53e1461091d578063d8bff5a514610981578063ddbe8f09146109e7578063e031535b14610a05576101e5565b80638da5cb5b116100de5780638da5cb5b146107d95780638f13ee7814610823578063939acd881461086d578063b1bc3105146108c5576101e5565b80637892766c1461067857806380cbce00146106d457806382dda22d146106de57806386f5114e14610756576101e5565b80635aad6cf01161018757806366a08ec61161015657806366a08ec61461057857806367b52f541461059a5780636ffc7cf1146105e4578063734993091461062e576101e5565b80635aad6cf01461041a5780635e4e0350146104bb5780635f9be6d6146104c55780636375158314610548576101e5565b80631703a018116101c35780631703a018146102405780631f69565f1461025e57806341c0e1b5146103ce578063556696df146103d8576101e5565b80630121b93f146101ea5780630828c085146102185780630d15fd7714610222575b600080fd5b6102166004803603602081101561020057600080fd5b8101908080359060200190929190505050610b3d565b005b610220610f13565b005b61022a610f76565b6040518082815260200191505060405180910390f35b610248610f7c565b6040518082815260200191505060405180910390f35b6102a06004803603602081101561027457600080fd5b81019080803573ffffffffffffffffffffffffffffffffffffffff169060200190929190505050610f82565b6040518080602001806020018660ff1660ff1681526020018573ffffffffffffffffffffffffffffffffffffffff1673ffffffffffffffffffffffffffffffffffffffff168152602001848152602001838103835288818151815260200191508051906020019080838360005b8381101561032857808201518184015260208101905061030d565b50505050905090810190601f1680156103555780820380516001836020036101000a031916815260200191505b50838103825287818151815260200191508051906020019080838360005b8381101561038e578082015181840152602081019050610373565b50505050905090810190601f1680156103bb5780820380516001836020036101000a031916815260200191505b5097505050505050505060405180910390f35b6103d66112ae565b005b610404600480360360208110156103ee57600080fd5b810190808035906020019092919050505061139a565b6040518082815260200191505060405180910390f35b6104466004803603602081101561043057600080fd5b81019080803590602001909291905050506113bb565b604051808373ffffffffffffffffffffffffffffffffffffffff1673ffffffffffffffffffffffffffffffffffffffff1681526020018273ffffffffffffffffffffffffffffffffffffffff1673ffffffffffffffffffffffffffffffffffffffff1681526020019250505060405180910390f35b6104c361141f565b005b6104cd61158f565b6040518080602001828103825283818151815260200191508051906020019080838360005b8381101561050d5780820151818401526020810190506104f2565b50505050905090810190601f16801561053a5780820380516001836020036101000a031916815260200191505b509250505060405180910390f35b6105766004803603602081101561055e57600080fd5b8101908080351515906020019092919050505061162d565b005b6105806116a4565b604051808215151515815260200191505060405180910390f35b6105a26116b7565b604051808273ffffffffffffffffffffffffffffffffffffffff1673ffffffffffffffffffffffffffffffffffffffff16815260200191505060405180910390f35b6105ec6116dd565b604051808273ffffffffffffffffffffffffffffffffffffffff1673ffffffffffffffffffffffffffffffffffffffff16815260200191505060405180910390f35b610636611703565b604051808273ffffffffffffffffffffffffffffffffffffffff1673ffffffffffffffffffffffffffffffffffffffff16815260200191505060405180910390f35b6106ba6004803603602081101561068e57600080fd5b81019080803573ffffffffffffffffffffffffffffffffffffffff169060200190929190505050611729565b604051808215151515815260200191505060405180910390f35b6106dc6118d0565b005b610740600480360360408110156106f457600080fd5b81019080803573ffffffffffffffffffffffffffffffffffffffff169060200190929190803573ffffffffffffffffffffffffffffffffffffffff169060200190929190505050611a17565b6040518082815260200191505060405180910390f35b61075e611ad9565b6040518080602001828103825283818151815260200191508051906020019080838360005b8381101561079e578082015181840152602081019050610783565b50505050905090810190601f1680156107cb5780820380516001836020036101000a031916815260200191505b509250505060405180910390f35b6107e1611b77565b604051808273ffffffffffffffffffffffffffffffffffffffff1673ffffffffffffffffffffffffffffffffffffffff16815260200191505060405180910390f35b61082b611b9d565b604051808273ffffffffffffffffffffffffffffffffffffffff1673ffffffffffffffffffffffffffffffffffffffff16815260200191505060405180910390f35b6108af6004803603602081101561088357600080fd5b81019080803573ffffffffffffffffffffffffffffffffffffffff169060200190929190505050611bc3565b6040518082815260200191505060405180910390f35b610907600480360360208110156108db57600080fd5b81019080803573ffffffffffffffffffffffffffffffffffffffff169060200190929190505050611c14565b6040518082815260200191505060405180910390f35b61097f6004803603604081101561093357600080fd5b81019080803573ffffffffffffffffffffffffffffffffffffffff169060200190929190803573ffffffffffffffffffffffffffffffffffffffff169060200190929190505050611d52565b005b6109c36004803603602081101561099757600080fd5b81019080803573ffffffffffffffffffffffffffffffffffffffff169060200190929190505050611ea5565b60405180848152602001838152602001828152602001935050505060405180910390f35b6109ef611ecf565b6040518082815260200191505060405180910390f35b610a0d611ed5565b6040518082815260200191505060405180910390f35b610a7160048036036040811015610a3957600080fd5b81019080803573ffffffffffffffffffffffffffffffffffffffff169060200190929190803515159060200190929190505050611edb565b005b610a7b612001565b6040518082815260200191505060405180910390f35b610a99612007565b604051808273ffffffffffffffffffffffffffffffffffffffff1673ffffffffffffffffffffffffffffffffffffffff16815260200191505060405180910390f35b610b2760048036036040811015610af157600080fd5b81019080803573ffffffffffffffffffffffffffffffffffffffff1690602001909291908035906020019092919050505061202d565b6040518082815260200191505060405180910390f35b6007544211610bb4576040517f08c379a00000000000000000000000000000000000000000000000000000000081526004018080602001828103825260108152602001807f566f7465206973206e6f74206f70656e0000000000000000000000000000000081525060200191505060405180910390fd5b6008544210610c2b576040517f08c379a00000000000000000000000000000000000000000000000000000000081526004018080602001828103825260128152602001807f566f74696e67206861732065787069726564000000000000000000000000000081525060200191505060405180910390fd5b6000601060003373ffffffffffffffffffffffffffffffffffffffff1673ffffffffffffffffffffffffffffffffffffffff1681526020019081526020016000206002015414610ce3576040517f08c379a000000000000000000000000000000000000000000000000000000000815260040180806020018281038252600d8152602001807f416c726561647920766f7465640000000000000000000000000000000000000081525060200191505060405180910390fd5b6000610cee33611c14565b11610d61576040517f08c379a00000000000000000000000000000000000000000000000000000000081526004018080602001828103825260158152602001807f4f6e6c7920686f6c646572732063616e20766f7465000000000000000000000081525060200191505060405180910390fd5b600c8054905081108015610d76575060008110155b610de8576040517f08c379a00000000000000000000000000000000000000000000000000000000081526004018080602001828103825260138152602001807f496e76616c696420766f74652063686f6963650000000000000000000000000081525060200191505060405180910390fd5b6000610df333611c14565b9050604051806060016040528083815260200182815260200142815250601060003373ffffffffffffffffffffffffffffffffffffffff1673ffffffffffffffffffffffffffffffffffffffff16815260200190815260200160002060008201518160000155602082015181600101556040820151816002015590505080600c8381548110610e7e57fe5b906000526020600020015401600c8381548110610e9757fe5b906000526020600020018190555080600b5401600b81905550610eb933612441565b3373ffffffffffffffffffffffffffffffffffffffff167f4173497bdf60b458d277679ffd98f8f14cdb8d7ee725c3b779c9d721746c07ed8342604051808381526020018281526020019250505060405180910390a25050565b600360009054906101000a900473ffffffffffffffffffffffffffffffffffffffff1673ffffffffffffffffffffffffffffffffffffffff163373ffffffffffffffffffffffffffffffffffffffff1614610f6d57600080fd5b42600881905550565b600b5481565b600a5481565b60608060008060008573ffffffffffffffffffffffffffffffffffffffff166306fdde036040518163ffffffff1660e01b815260040160006040518083038186803b158015610fd057600080fd5b505afa158015610fe4573d6000803e3d6000fd5b505050506040513d6000823e3d601f19601f82011682018060405250602081101561100e57600080fd5b810190808051604051939291908464010000000082111561102e57600080fd5b8382019150602082018581111561104457600080fd5b825186600182028301116401000000008211171561106157600080fd5b8083526020830192505050908051906020019080838360005b8381101561109557808201518184015260208101905061107a565b50505050905090810190601f1680156110c25780820380516001836020036101000a031916815260200191505b506040525050508673ffffffffffffffffffffffffffffffffffffffff166395d89b416040518163ffffffff1660e01b815260040160006040518083038186803b15801561110f57600080fd5b505afa158015611123573d6000803e3d6000fd5b505050506040513d6000823e3d601f19601f82011682018060405250602081101561114d57600080fd5b810190808051604051939291908464010000000082111561116d57600080fd5b8382019150602082018581111561118357600080fd5b82518660018202830111640100000000821117156111a057600080fd5b8083526020830192505050908051906020019080838360005b838110156111d45780820151818401526020810190506111b9565b50505050905090810190601f1680156112015780820380516001836020036101000a031916815260200191505b506040525050508773ffffffffffffffffffffffffffffffffffffffff1663313ce5676040518163ffffffff1660e01b815260040160206040518083038186803b15801561124e57600080fd5b505afa158015611262573d6000803e3d6000fd5b505050506040513d602081101561127857600080fd5b81019080805190602001909291905050506112928961260e565b61129b8a611bc3565b9450945094509450945091939590929450565b600115156000806112bd61275e565b73ffffffffffffffffffffffffffffffffffffffff1673ffffffffffffffffffffffffffffffffffffffff16815260200190815260200160002060009054906101000a900460ff1615151461137a576040517f08c379a000000000000000000000000000000000000000000000000000000000815260040180806020018281038252600b8152602001807f6f6e6c79416c6c6f77656400000000000000000000000000000000000000000081525060200191505060405180910390fd5b61138261275e565b73ffffffffffffffffffffffffffffffffffffffff16ff5b600c81815481106113a757fe5b906000526020600020016000915090505481565b60116020528060005260406000206000915090508060000160009054906101000a900473ffffffffffffffffffffffffffffffffffffffff16908060010160009054906101000a900473ffffffffffffffffffffffffffffffffffffffff16905082565b4260085410611496576040517f08c379a00000000000000000000000000000000000000000000000000000000081526004018080602001828103825260148152602001807f566f74696e67207374696c6c206f6e676f696e6700000000000000000000000081525060200191505060405180910390fd5b600960009054906101000a900460ff16156114fc576040517f08c379a00000000000000000000000000000000000000000000000000000000081526004018080602001828103825260288152602001806134006028913960400191505060405180910390fd5b6001600960006101000a81548160ff0219169083151502179055506000611521612766565b905061152c816127d3565b5061153633612441565b3373ffffffffffffffffffffffffffffffffffffffff167fb1ca59ece857d299591f6cd9cdaa8d9c1f492f154ad7fd2ca75b41d153337abd8242604051808381526020018281526020019250505060405180910390a250565b60048054600181600116156101000203166002900480601f0160208091040260200160405190810160405280929190818152602001828054600181600116156101000203166002900480156116255780601f106115fa57610100808354040283529160200191611625565b820191906000526020600020905b81548152906001019060200180831161160857829003601f168201915b505050505081565b600360009054906101000a900473ffffffffffffffffffffffffffffffffffffffff1673ffffffffffffffffffffffffffffffffffffffff163373ffffffffffffffffffffffffffffffffffffffff161461168757600080fd5b80600960006101000a81548160ff02191690831515021790555050565b600960009054906101000a900460ff1681565b600160009054906101000a900473ffffffffffffffffffffffffffffffffffffffff1681565b600260009054906101000a900473ffffffffffffffffffffffffffffffffffffffff1681565b601260009054906101000a900473ffffffffffffffffffffffffffffffffffffffff1681565b60006001151560008061173a61275e565b73ffffffffffffffffffffffffffffffffffffffff1673ffffffffffffffffffffffffffffffffffffffff16815260200190815260200160002060009054906101000a900460ff161515146117f7576040517f08c379a000000000000000000000000000000000000000000000000000000000815260040180806020018281038252600b8152602001807f6f6e6c79416c6c6f77656400000000000000000000000000000000000000000081525060200191505060405180910390fd5b60008273ffffffffffffffffffffffffffffffffffffffff166370a08231306040518263ffffffff1660e01b8152600401808273ffffffffffffffffffffffffffffffffffffffff1673ffffffffffffffffffffffffffffffffffffffff16815260200191505060206040518083038186803b15801561187657600080fd5b505afa15801561188a573d6000803e3d6000fd5b505050506040513d60208110156118a057600080fd5b810190808051906020019092919050505090506118c56118be61275e565b84836128ae565b506001915050919050565b600360009054906101000a900473ffffffffffffffffffffffffffffffffffffffff1673ffffffffffffffffffffffffffffffffffffffff163373ffffffffffffffffffffffffffffffffffffffff161461192a57600080fd5b6000600f54116119a2576040517f08c379a000000000000000000000000000000000000000000000000000000000815260040180806020018281038252600f8152602001807f4e6f7468696e6720746f20706f7021000000000000000000000000000000000081525060200191505060405180910390fd5b60116000600f60008154600190039190508190558152602001908152602001600020600080820160006101000a81549073ffffffffffffffffffffffffffffffffffffffff02191690556001820160006101000a81549073ffffffffffffffffffffffffffffffffffffffff02191690555050565b60008173ffffffffffffffffffffffffffffffffffffffff1663beaa369a846040518263ffffffff1660e01b8152600401808273ffffffffffffffffffffffffffffffffffffffff1673ffffffffffffffffffffffffffffffffffffffff16815260200191505060206040518083038186803b158015611a9657600080fd5b505afa158015611aaa573d6000803e3d6000fd5b505050506040513d6020811015611ac057600080fd5b8101908080519060200190929190505050905092915050565b60068054600181600116156101000203166002900480601f016020809104026020016040519081016040528092919081815260200182805460018160011615610100020316600290048015611b6f5780601f10611b4457610100808354040283529160200191611b6f565b820191906000526020600020905b815481529060010190602001808311611b5257829003601f168201915b505050505081565b600360009054906101000a900473ffffffffffffffffffffffffffffffffffffffff1681565b600560009054906101000a900473ffffffffffffffffffffffffffffffffffffffff1681565b600080600080611bd28561297e565b8093508194505050611be385612eb8565b9050611c0a82611bfc8386612fd090919063ffffffff16565b61305690919063ffffffff16565b9350505050919050565b6000806000905060008090505b600f54811015611d4857611c336133b9565b601160008381526020019081526020016000206040518060400160405290816000820160009054906101000a900473ffffffffffffffffffffffffffffffffffffffff1673ffffffffffffffffffffffffffffffffffffffff1673ffffffffffffffffffffffffffffffffffffffff1681526020016001820160009054906101000a900473ffffffffffffffffffffffffffffffffffffffff1673ffffffffffffffffffffffffffffffffffffffff1673ffffffffffffffffffffffffffffffffffffffff168152505090506000611d0f868360000151611a17565b9050611d1e82602001516130a0565b15611d3457611d3182602001518261202d565b90505b808401935050508080600101915050611c21565b5080915050919050565b600360009054906101000a900473ffffffffffffffffffffffffffffffffffffffff1673ffffffffffffffffffffffffffffffffffffffff163373ffffffffffffffffffffffffffffffffffffffff1614611dac57600080fd5b60405180604001604052808373ffffffffffffffffffffffffffffffffffffffff1681526020018273ffffffffffffffffffffffffffffffffffffffff1681525060116000600f600081548092919060010191905055815260200190815260200160002060008201518160000160006101000a81548173ffffffffffffffffffffffffffffffffffffffff021916908373ffffffffffffffffffffffffffffffffffffffff16021790555060208201518160010160006101000a81548173ffffffffffffffffffffffffffffffffffffffff021916908373ffffffffffffffffffffffffffffffffffffffff1602179055509050505050565b60106020528060005260406000206000915090508060000154908060010154908060020154905083565b60085481565b60075481565b60011515600080611eea61275e565b73ffffffffffffffffffffffffffffffffffffffff1673ffffffffffffffffffffffffffffffffffffffff16815260200190815260200160002060009054906101000a900460ff16151514611fa7576040517f08c379a000000000000000000000000000000000000000000000000000000000815260040180806020018281038252600b8152602001807f6f6e6c79416c6c6f77656400000000000000000000000000000000000000000081525060200191505060405180910390fd5b806000808473ffffffffffffffffffffffffffffffffffffffff1673ffffffffffffffffffffffffffffffffffffffff16815260200190815260200160002060006101000a81548160ff0219169083151502179055505050565b600e5481565b600d60009054906101000a900473ffffffffffffffffffffffffffffffffffffffff1681565b60008060008060008673ffffffffffffffffffffffffffffffffffffffff16630dfe16816040518163ffffffff1660e01b815260040160206040518083038186803b15801561207b57600080fd5b505afa15801561208f573d6000803e3d6000fd5b505050506040513d60208110156120a557600080fd5b8101908080519060200190929190505050905060008773ffffffffffffffffffffffffffffffffffffffff1663d21220a76040518163ffffffff1660e01b815260040160206040518083038186803b15801561210057600080fd5b505afa158015612114573d6000803e3d6000fd5b505050506040513d602081101561212a57600080fd5b81019080805190602001909291905050509050600260009054906101000a900473ffffffffffffffffffffffffffffffffffffffff1673ffffffffffffffffffffffffffffffffffffffff168273ffffffffffffffffffffffffffffffffffffffff161415612241578773ffffffffffffffffffffffffffffffffffffffff16630902f1ac6040518163ffffffff1660e01b815260040160606040518083038186803b1580156121d957600080fd5b505afa1580156121ed573d6000803e3d6000fd5b505050506040513d606081101561220357600080fd5b8101908080519060200190929190805190602001909291908051906020019092919050505050809650819550505061223a81611bc3565b92506122eb565b8773ffffffffffffffffffffffffffffffffffffffff16630902f1ac6040518163ffffffff1660e01b815260040160606040518083038186803b15801561228757600080fd5b505afa15801561229b573d6000803e3d6000fd5b505050506040513d60608110156122b157600080fd5b810190808051906020019092919080519060200190929190805190602001909291905050505080955081965050506122e882611bc3565b92505b600061232a670de0b6b3a764000061231c86886dffffffffffffffffffffffffffff16612fd090919063ffffffff16565b61305690919063ffffffff16565b905060008973ffffffffffffffffffffffffffffffffffffffff166318160ddd6040518163ffffffff1660e01b815260040160206040518083038186803b15801561237457600080fd5b505afa158015612388573d6000803e3d6000fd5b505050506040513d602081101561239e57600080fd5b810190808051906020019092919050505090506000612402826123f4670de0b6b3a76400006123e68c6dffffffffffffffffffffffffffff168861326b90919063ffffffff16565b612fd090919063ffffffff16565b61305690919063ffffffff16565b9050612431670de0b6b3a7640000612423838d612fd090919063ffffffff16565b61305690919063ffffffff16565b9850505050505050505092915050565b600e54600d60009054906101000a900473ffffffffffffffffffffffffffffffffffffffff1673ffffffffffffffffffffffffffffffffffffffff166370a08231306040518263ffffffff1660e01b8152600401808273ffffffffffffffffffffffffffffffffffffffff1673ffffffffffffffffffffffffffffffffffffffff16815260200191505060206040518083038186803b1580156124e357600080fd5b505afa1580156124f7573d6000803e3d6000fd5b505050506040513d602081101561250d57600080fd5b81019080805190602001909291905050501061260b57600d60009054906101000a900473ffffffffffffffffffffffffffffffffffffffff1673ffffffffffffffffffffffffffffffffffffffff1663a9059cbb82600e546040518363ffffffff1660e01b8152600401808373ffffffffffffffffffffffffffffffffffffffff1673ffffffffffffffffffffffffffffffffffffffff16815260200182815260200192505050602060405180830381600087803b1580156125ce57600080fd5b505af11580156125e2573d6000803e3d6000fd5b505050506040513d60208110156125f857600080fd5b8101908080519060200190929190505050505b50565b6000612619826130a0565b1561262657819050612759565b600160009054906101000a900473ffffffffffffffffffffffffffffffffffffffff1673ffffffffffffffffffffffffffffffffffffffff1663e6a4390583600260009054906101000a900473ffffffffffffffffffffffffffffffffffffffff166040518363ffffffff1660e01b8152600401808373ffffffffffffffffffffffffffffffffffffffff1673ffffffffffffffffffffffffffffffffffffffff1681526020018273ffffffffffffffffffffffffffffffffffffffff1673ffffffffffffffffffffffffffffffffffffffff1681526020019250505060206040518083038186803b15801561271b57600080fd5b505afa15801561272f573d6000803e3d6000fd5b505050506040513d602081101561274557600080fd5b810190808051906020019092919050505090505b919050565b600033905090565b600080600080905060008090505b600c805490508110156127ca5781600c828154811061278f57fe5b9060005260206000200154106127bd57809250600c81815481106127af57fe5b906000526020600020015491505b8080600101915050612774565b50819250505090565b60008060008314156127ef57678ac7230489e800009050612817565b6001831415612809576802b5e3af16b18800009050612816565b68056bc75e2d6310000090505b5b601260009054906101000a900473ffffffffffffffffffffffffffffffffffffffff1673ffffffffffffffffffffffffffffffffffffffff166366e5e8bb826040518263ffffffff1660e01b815260040180828152602001915050600060405180830381600087803b15801561288c57600080fd5b505af11580156128a0573d6000803e3d6000fd5b505050506001915050919050565b60008273ffffffffffffffffffffffffffffffffffffffff1663a9059cbb85846040518363ffffffff1660e01b8152600401808373ffffffffffffffffffffffffffffffffffffffff1673ffffffffffffffffffffffffffffffffffffffff16815260200182815260200192505050602060405180830381600087803b15801561293757600080fd5b505af115801561294b573d6000803e3d6000fd5b505050506040513d602081101561296157600080fd5b810190808051906020019092919050505050600190509392505050565b600080600080600061298f866130a0565b15612c60578573ffffffffffffffffffffffffffffffffffffffff16630dfe16816040518163ffffffff1660e01b815260040160206040518083038186803b1580156129da57600080fd5b505afa1580156129ee573d6000803e3d6000fd5b505050506040513d6020811015612a0457600080fd5b81019080805190602001909291905050509250600260009054906101000a900473ffffffffffffffffffffffffffffffffffffffff1673ffffffffffffffffffffffffffffffffffffffff168373ffffffffffffffffffffffffffffffffffffffff161415612b10578573ffffffffffffffffffffffffffffffffffffffff16630902f1ac6040518163ffffffff1660e01b815260040160606040518083038186803b158015612ab357600080fd5b505afa158015612ac7573d6000803e3d6000fd5b505050506040513d6060811015612add57600080fd5b81019080805190602001909291908051906020019092919080519060200190929190505050508093508192505050612baf565b8573ffffffffffffffffffffffffffffffffffffffff16630902f1ac6040518163ffffffff1660e01b815260040160606040518083038186803b158015612b5657600080fd5b505afa158015612b6a573d6000803e3d6000fd5b505050506040513d6060811015612b8057600080fd5b810190808051906020019092919080519060200190929190805190602001909291905050505080925081935050505b612bd36002826dffffffffffffffffffffffffffff16612fd090919063ffffffff16565b8673ffffffffffffffffffffffffffffffffffffffff166318160ddd6040518163ffffffff1660e01b815260040160206040518083038186803b158015612c1957600080fd5b505afa158015612c2d573d6000803e3d6000fd5b505050506040513d6020811015612c4357600080fd5b810190808051906020019092919050505094509450505050612eb3565b6000612c6b8761260e565b90508073ffffffffffffffffffffffffffffffffffffffff16630dfe16816040518163ffffffff1660e01b815260040160206040518083038186803b158015612cb357600080fd5b505afa158015612cc7573d6000803e3d6000fd5b505050506040513d6020811015612cdd57600080fd5b81019080805190602001909291905050509350600260009054906101000a900473ffffffffffffffffffffffffffffffffffffffff1673ffffffffffffffffffffffffffffffffffffffff168473ffffffffffffffffffffffffffffffffffffffff161415612de9578073ffffffffffffffffffffffffffffffffffffffff16630902f1ac6040518163ffffffff1660e01b815260040160606040518083038186803b158015612d8c57600080fd5b505afa158015612da0573d6000803e3d6000fd5b505050506040513d6060811015612db657600080fd5b81019080805190602001909291908051906020019092919080519060200190929190505050508094508193505050612e88565b8073ffffffffffffffffffffffffffffffffffffffff16630902f1ac6040518163ffffffff1660e01b815260040160606040518083038186803b158015612e2f57600080fd5b505afa158015612e43573d6000803e3d6000fd5b505050506040513d6060811015612e5957600080fd5b810190808051906020019092919080519060200190929190805190602001909291905050505080935081945050505b826dffffffffffffffffffffffffffff16826dffffffffffffffffffffffffffff1695509550505050505b915091565b6000808273ffffffffffffffffffffffffffffffffffffffff1663313ce5676040518163ffffffff1660e01b815260040160206040518083038186803b158015612f0157600080fd5b505afa158015612f15573d6000803e3d6000fd5b505050506040513d6020811015612f2b57600080fd5b8101908080519060200190929190505050905060128160ff161115612fb8576040517f08c379a000000000000000000000000000000000000000000000000000000000815260040180806020018281038252601c8152602001807f4f766572466c6f77207269736b2c206e6f7420737570706f727465640000000081525060200191505060405180910390fd5b60008160ff16602403905080600a0a92505050919050565b600080831415612fe35760009050613050565b6000828402905082848281612ff457fe5b041461304b576040517f08c379a00000000000000000000000000000000000000000000000000000000081526004018080602001828103825260218152602001806134286021913960400191505060405180910390fd5b809150505b92915050565b600061309883836040518060400160405280601a81526020017f536166654d6174683a206469766973696f6e206279207a65726f0000000000008152506132f3565b905092915050565b6000600460405180828054600181600116156101000203166002900480156130ff5780601f106130dd5761010080835404028352918201916130ff565b820191906000526020600020905b8154815290600101906020018083116130eb575b505091505060405180910390208273ffffffffffffffffffffffffffffffffffffffff166395d89b416040518163ffffffff1660e01b815260040160006040518083038186803b15801561315257600080fd5b505afa158015613166573d6000803e3d6000fd5b505050506040513d6000823e3d601f19601f82011682018060405250602081101561319057600080fd5b81019080805160405193929190846401000000008211156131b057600080fd5b838201915060208201858111156131c657600080fd5b82518660018202830111640100000000821117156131e357600080fd5b8083526020830192505050908051906020019080838360005b838110156132175780820151818401526020810190506131fc565b50505050905090810190601f1680156132445780820380516001836020036101000a031916815260200191505b506040525050508051906020012014156132615760019050613266565b600090505b919050565b6000808284019050838110156132e9576040517f08c379a000000000000000000000000000000000000000000000000000000000815260040180806020018281038252601b8152602001807f536166654d6174683a206164646974696f6e206f766572666c6f77000000000081525060200191505060405180910390fd5b8091505092915050565b6000808311829061339f576040517f08c379a00000000000000000000000000000000000000000000000000000000081526004018080602001828103825283818151815260200191508051906020019080838360005b83811015613364578082015181840152602081019050613349565b50505050905090810190601f1680156133915780820380516001836020036101000a031916815260200191505b509250505060405180910390fd5b5060008385816133ab57fe5b049050809150509392505050565b6040518060400160405280600073ffffffffffffffffffffffffffffffffffffffff168152602001600073ffffffffffffffffffffffffffffffffffffffff168152509056fe566f7465206465636973696f6e2068617320616c7265616479206265656e20616374697661746564536166654d6174683a206d756c7469706c69636174696f6e206f766572666c6f77a2646970667358221220d167fccf16d01d4ecf32fccf3786508390676e8a5ac1257dac6e96fcdd63775b64736f6c63430006060033",
  "immutableReferences": {},
  "source": "pragma solidity ^0.6.0;\n\nimport \"../_Vote.sol\";\n\n// contract must be given governor rights\n\ncontract PointsThresholdVote is _Vote {\n    address public DeFiat_Points;\n\n    constructor (\n        address _DeFiat_Points,\n        address _DeFiat_Gov,\n        address _rewardToken,\n        address _uniFactoryAddress,\n        address _wethAddress\n    ) public \n        _Vote(\n            _DeFiat_Gov, \n            168, // no delay\n            168, // 4 days\n            \"Points Threshold Vote\",\n            3, // 3 choices\n            0,\n            _rewardToken, \n            5 * 1e18,\n            _uniFactoryAddress,\n            _wethAddress\n        )\n    {               \n        DeFiat_Points = _DeFiat_Points;\n    }\n\n    function proposalAction(uint winningChoice) internal override returns (bool) {\n        uint256 newRate;\n        if (winningChoice == 0) {\n            newRate = 10 * 1e18;\n        } else if (winningChoice == 1) {\n            newRate = 50 * 1e18;\n        } else {\n            newRate = 100 * 1e18;\n        }\n\n        IDeFiat_Points(DeFiat_Points).setTxTreshold(newRate);\n\n        return true;\n    }\n}",
  "sourcePath": "/Users/noahcoomer/source/defiat/defiat-contracts/contracts/proposals/PointsThresholdVote.sol",
  "compiler": {
    "name": "solc",
    "version": "0.6.6+commit.6c089d02.Emscripten.clang"
  },
  "schemaVersion": "3.3.1",
  "updatedAt": "2020-10-20T07:08:43.411Z",
  "devdoc": {
    "methods": {}
  },
  "userdoc": {
    "methods": {}
  }
}