{
  "contractName": "Uni_Price_v2",
  "abi": [
    {
      "inputs": [
        {
          "internalType": "address",
          "name": "_UNIfactory",
          "type": "address"
        },
        {
          "internalType": "address",
          "name": "_wETHaddress",
          "type": "address"
        }
      ],
      "stateMutability": "nonpayable",
      "type": "constructor"
    },
    {
      "inputs": [],
      "name": "UNIfactory",
      "outputs": [
        {
          "internalType": "address",
          "name": "",
          "type": "address"
        }
      ],
      "stateMutability": "view",
      "type": "function"
    },
    {
      "inputs": [],
      "name": "kill",
      "outputs": [],
      "stateMutability": "nonpayable",
      "type": "function"
    },
    {
      "inputs": [
        {
          "internalType": "address",
          "name": "_address",
          "type": "address"
        },
        {
          "internalType": "bool",
          "name": "_bool",
          "type": "bool"
        }
      ],
      "name": "manageAllowed",
      "outputs": [],
      "stateMutability": "nonpayable",
      "type": "function"
    },
    {
      "inputs": [],
      "name": "owner",
      "outputs": [
        {
          "internalType": "address",
          "name": "",
          "type": "address"
        }
      ],
      "stateMutability": "view",
      "type": "function"
    },
    {
      "inputs": [],
      "name": "uniSymbol",
      "outputs": [
        {
          "internalType": "string",
          "name": "",
          "type": "string"
        }
      ],
      "stateMutability": "view",
      "type": "function"
    },
    {
      "inputs": [],
      "name": "wETHaddress",
      "outputs": [
        {
          "internalType": "address",
          "name": "",
          "type": "address"
        }
      ],
      "stateMutability": "view",
      "type": "function"
    },
    {
      "inputs": [
        {
          "internalType": "address",
          "name": "_token",
          "type": "address"
        }
      ],
      "name": "withdrawAnyToken",
      "outputs": [
        {
          "internalType": "bool",
          "name": "",
          "type": "bool"
        }
      ],
      "stateMutability": "nonpayable",
      "type": "function"
    },
    {
      "inputs": [
        {
          "internalType": "address",
          "name": "_token",
          "type": "address"
        }
      ],
      "name": "getUniPrice",
      "outputs": [
        {
          "internalType": "uint256",
          "name": "",
          "type": "uint256"
        }
      ],
      "stateMutability": "view",
      "type": "function"
    },
    {
      "inputs": [
        {
          "internalType": "address",
          "name": "_token",
          "type": "address"
        }
      ],
      "name": "getTokenInfo",
      "outputs": [
        {
          "internalType": "string",
          "name": "name",
          "type": "string"
        },
        {
          "internalType": "string",
          "name": "symbol",
          "type": "string"
        },
        {
          "internalType": "uint8",
          "name": "decimals",
          "type": "uint8"
        },
        {
          "internalType": "address",
          "name": "uniPair",
          "type": "address"
        },
        {
          "internalType": "uint256",
          "name": "tokensPerETH",
          "type": "uint256"
        }
      ],
      "stateMutability": "view",
      "type": "function"
    }
  ],
  "bytecode": "0x60806040523480156200001157600080fd5b5060405162001b1938038062001b19833981810160405260408110156200003757600080fd5b81019080805190602001909291908051906020019092919050505033600360006101000a81548173ffffffffffffffffffffffffffffffffffffffff021916908373ffffffffffffffffffffffffffffffffffffffff16021790555081600160006101000a81548173ffffffffffffffffffffffffffffffffffffffff021916908373ffffffffffffffffffffffffffffffffffffffff16021790555080600260006101000a81548173ffffffffffffffffffffffffffffffffffffffff021916908373ffffffffffffffffffffffffffffffffffffffff1602179055506040518060400160405280600681526020017f554e492d5632000000000000000000000000000000000000000000000000000081525060049080519060200190620001629291906200016b565b5050506200021a565b828054600181600116156101000203166002900490600052602060002090601f016020900481019282601f10620001ae57805160ff1916838001178555620001df565b82800160010185558215620001df579182015b82811115620001de578251825591602001919060010190620001c1565b5b509050620001ee9190620001f2565b5090565b6200021791905b8082111562000213576000816000905550600101620001f9565b5090565b90565b6118ef806200022a6000396000f3fe608060405234801561001057600080fd5b50600436106100935760003560e01c80636ffc7cf1116100665780636ffc7cf1146102df5780637892766c146103295780638da5cb5b14610385578063939acd88146103cf578063ec0b08001461042757610093565b80631f69565f1461009857806341c0e1b5146102085780635f9be6d61461021257806367b52f5414610295575b600080fd5b6100da600480360360208110156100ae57600080fd5b81019080803573ffffffffffffffffffffffffffffffffffffffff169060200190929190505050610477565b6040518080602001806020018660ff1660ff1681526020018573ffffffffffffffffffffffffffffffffffffffff1673ffffffffffffffffffffffffffffffffffffffff168152602001848152602001838103835288818151815260200191508051906020019080838360005b83811015610162578082015181840152602081019050610147565b50505050905090810190601f16801561018f5780820380516001836020036101000a031916815260200191505b50838103825287818151815260200191508051906020019080838360005b838110156101c85780820151818401526020810190506101ad565b50505050905090810190601f1680156101f55780820380516001836020036101000a031916815260200191505b5097505050505050505060405180910390f35b6102106107a3565b005b61021a61088f565b6040518080602001828103825283818151815260200191508051906020019080838360005b8381101561025a57808201518184015260208101905061023f565b50505050905090810190601f1680156102875780820380516001836020036101000a031916815260200191505b509250505060405180910390f35b61029d61092d565b604051808273ffffffffffffffffffffffffffffffffffffffff1673ffffffffffffffffffffffffffffffffffffffff16815260200191505060405180910390f35b6102e7610953565b604051808273ffffffffffffffffffffffffffffffffffffffff1673ffffffffffffffffffffffffffffffffffffffff16815260200191505060405180910390f35b61036b6004803603602081101561033f57600080fd5b81019080803573ffffffffffffffffffffffffffffffffffffffff169060200190929190505050610979565b604051808215151515815260200191505060405180910390f35b61038d610b20565b604051808273ffffffffffffffffffffffffffffffffffffffff1673ffffffffffffffffffffffffffffffffffffffff16815260200191505060405180910390f35b610411600480360360208110156103e557600080fd5b81019080803573ffffffffffffffffffffffffffffffffffffffff169060200190929190505050610b46565b6040518082815260200191505060405180910390f35b6104756004803603604081101561043d57600080fd5b81019080803573ffffffffffffffffffffffffffffffffffffffff169060200190929190803515159060200190929190505050610b97565b005b60608060008060008573ffffffffffffffffffffffffffffffffffffffff166306fdde036040518163ffffffff1660e01b815260040160006040518083038186803b1580156104c557600080fd5b505afa1580156104d9573d6000803e3d6000fd5b505050506040513d6000823e3d601f19601f82011682018060405250602081101561050357600080fd5b810190808051604051939291908464010000000082111561052357600080fd5b8382019150602082018581111561053957600080fd5b825186600182028301116401000000008211171561055657600080fd5b8083526020830192505050908051906020019080838360005b8381101561058a57808201518184015260208101905061056f565b50505050905090810190601f1680156105b75780820380516001836020036101000a031916815260200191505b506040525050508673ffffffffffffffffffffffffffffffffffffffff166395d89b416040518163ffffffff1660e01b815260040160006040518083038186803b15801561060457600080fd5b505afa158015610618573d6000803e3d6000fd5b505050506040513d6000823e3d601f19601f82011682018060405250602081101561064257600080fd5b810190808051604051939291908464010000000082111561066257600080fd5b8382019150602082018581111561067857600080fd5b825186600182028301116401000000008211171561069557600080fd5b8083526020830192505050908051906020019080838360005b838110156106c95780820151818401526020810190506106ae565b50505050905090810190601f1680156106f65780820380516001836020036101000a031916815260200191505b506040525050508773ffffffffffffffffffffffffffffffffffffffff1663313ce5676040518163ffffffff1660e01b815260040160206040518083038186803b15801561074357600080fd5b505afa158015610757573d6000803e3d6000fd5b505050506040513d602081101561076d57600080fd5b810190808051906020019092919050505061078789610cbd565b6107908a610b46565b9450945094509450945091939590929450565b600115156000806107b2610e0d565b73ffffffffffffffffffffffffffffffffffffffff1673ffffffffffffffffffffffffffffffffffffffff16815260200190815260200160002060009054906101000a900460ff1615151461086f576040517f08c379a000000000000000000000000000000000000000000000000000000000815260040180806020018281038252600b8152602001807f6f6e6c79416c6c6f77656400000000000000000000000000000000000000000081525060200191505060405180910390fd5b610877610e0d565b73ffffffffffffffffffffffffffffffffffffffff16ff5b60048054600181600116156101000203166002900480601f0160208091040260200160405190810160405280929190818152602001828054600181600116156101000203166002900480156109255780601f106108fa57610100808354040283529160200191610925565b820191906000526020600020905b81548152906001019060200180831161090857829003601f168201915b505050505081565b600160009054906101000a900473ffffffffffffffffffffffffffffffffffffffff1681565b600260009054906101000a900473ffffffffffffffffffffffffffffffffffffffff1681565b60006001151560008061098a610e0d565b73ffffffffffffffffffffffffffffffffffffffff1673ffffffffffffffffffffffffffffffffffffffff16815260200190815260200160002060009054906101000a900460ff16151514610a47576040517f08c379a000000000000000000000000000000000000000000000000000000000815260040180806020018281038252600b8152602001807f6f6e6c79416c6c6f77656400000000000000000000000000000000000000000081525060200191505060405180910390fd5b60008273ffffffffffffffffffffffffffffffffffffffff166370a08231306040518263ffffffff1660e01b8152600401808273ffffffffffffffffffffffffffffffffffffffff1673ffffffffffffffffffffffffffffffffffffffff16815260200191505060206040518083038186803b158015610ac657600080fd5b505afa158015610ada573d6000803e3d6000fd5b505050506040513d6020811015610af057600080fd5b81019080805190602001909291905050509050610b15610b0e610e0d565b8483610e15565b506001915050919050565b600360009054906101000a900473ffffffffffffffffffffffffffffffffffffffff1681565b600080600080610b5585610ee5565b8093508194505050610b668561141f565b9050610b8d82610b7f838661153790919063ffffffff16565b6115bd90919063ffffffff16565b9350505050919050565b60011515600080610ba6610e0d565b73ffffffffffffffffffffffffffffffffffffffff1673ffffffffffffffffffffffffffffffffffffffff16815260200190815260200160002060009054906101000a900460ff16151514610c63576040517f08c379a000000000000000000000000000000000000000000000000000000000815260040180806020018281038252600b8152602001807f6f6e6c79416c6c6f77656400000000000000000000000000000000000000000081525060200191505060405180910390fd5b806000808473ffffffffffffffffffffffffffffffffffffffff1673ffffffffffffffffffffffffffffffffffffffff16815260200190815260200160002060006101000a81548160ff0219169083151502179055505050565b6000610cc882611607565b15610cd557819050610e08565b600160009054906101000a900473ffffffffffffffffffffffffffffffffffffffff1673ffffffffffffffffffffffffffffffffffffffff1663e6a4390583600260009054906101000a900473ffffffffffffffffffffffffffffffffffffffff166040518363ffffffff1660e01b8152600401808373ffffffffffffffffffffffffffffffffffffffff1673ffffffffffffffffffffffffffffffffffffffff1681526020018273ffffffffffffffffffffffffffffffffffffffff1673ffffffffffffffffffffffffffffffffffffffff1681526020019250505060206040518083038186803b158015610dca57600080fd5b505afa158015610dde573d6000803e3d6000fd5b505050506040513d6020811015610df457600080fd5b810190808051906020019092919050505090505b919050565b600033905090565b60008273ffffffffffffffffffffffffffffffffffffffff1663a9059cbb85846040518363ffffffff1660e01b8152600401808373ffffffffffffffffffffffffffffffffffffffff1673ffffffffffffffffffffffffffffffffffffffff16815260200182815260200192505050602060405180830381600087803b158015610e9e57600080fd5b505af1158015610eb2573d6000803e3d6000fd5b505050506040513d6020811015610ec857600080fd5b810190808051906020019092919050505050600190509392505050565b6000806000806000610ef686611607565b156111c7578573ffffffffffffffffffffffffffffffffffffffff16630dfe16816040518163ffffffff1660e01b815260040160206040518083038186803b158015610f4157600080fd5b505afa158015610f55573d6000803e3d6000fd5b505050506040513d6020811015610f6b57600080fd5b81019080805190602001909291905050509250600260009054906101000a900473ffffffffffffffffffffffffffffffffffffffff1673ffffffffffffffffffffffffffffffffffffffff168373ffffffffffffffffffffffffffffffffffffffff161415611077578573ffffffffffffffffffffffffffffffffffffffff16630902f1ac6040518163ffffffff1660e01b815260040160606040518083038186803b15801561101a57600080fd5b505afa15801561102e573d6000803e3d6000fd5b505050506040513d606081101561104457600080fd5b81019080805190602001909291908051906020019092919080519060200190929190505050508093508192505050611116565b8573ffffffffffffffffffffffffffffffffffffffff16630902f1ac6040518163ffffffff1660e01b815260040160606040518083038186803b1580156110bd57600080fd5b505afa1580156110d1573d6000803e3d6000fd5b505050506040513d60608110156110e757600080fd5b810190808051906020019092919080519060200190929190805190602001909291905050505080925081935050505b61113a6002826dffffffffffffffffffffffffffff1661153790919063ffffffff16565b8673ffffffffffffffffffffffffffffffffffffffff166318160ddd6040518163ffffffff1660e01b815260040160206040518083038186803b15801561118057600080fd5b505afa158015611194573d6000803e3d6000fd5b505050506040513d60208110156111aa57600080fd5b81019080805190602001909291905050509450945050505061141a565b60006111d287610cbd565b90508073ffffffffffffffffffffffffffffffffffffffff16630dfe16816040518163ffffffff1660e01b815260040160206040518083038186803b15801561121a57600080fd5b505afa15801561122e573d6000803e3d6000fd5b505050506040513d602081101561124457600080fd5b81019080805190602001909291905050509350600260009054906101000a900473ffffffffffffffffffffffffffffffffffffffff1673ffffffffffffffffffffffffffffffffffffffff168473ffffffffffffffffffffffffffffffffffffffff161415611350578073ffffffffffffffffffffffffffffffffffffffff16630902f1ac6040518163ffffffff1660e01b815260040160606040518083038186803b1580156112f357600080fd5b505afa158015611307573d6000803e3d6000fd5b505050506040513d606081101561131d57600080fd5b810190808051906020019092919080519060200190929190805190602001909291905050505080945081935050506113ef565b8073ffffffffffffffffffffffffffffffffffffffff16630902f1ac6040518163ffffffff1660e01b815260040160606040518083038186803b15801561139657600080fd5b505afa1580156113aa573d6000803e3d6000fd5b505050506040513d60608110156113c057600080fd5b810190808051906020019092919080519060200190929190805190602001909291905050505080935081945050505b826dffffffffffffffffffffffffffff16826dffffffffffffffffffffffffffff1695509550505050505b915091565b6000808273ffffffffffffffffffffffffffffffffffffffff1663313ce5676040518163ffffffff1660e01b815260040160206040518083038186803b15801561146857600080fd5b505afa15801561147c573d6000803e3d6000fd5b505050506040513d602081101561149257600080fd5b8101908080519060200190929190505050905060128160ff16111561151f576040517f08c379a000000000000000000000000000000000000000000000000000000000815260040180806020018281038252601c8152602001807f4f766572466c6f77207269736b2c206e6f7420737570706f727465640000000081525060200191505060405180910390fd5b60008160ff16602403905080600a0a92505050919050565b60008083141561154a57600090506115b7565b600082840290508284828161155b57fe5b04146115b2576040517f08c379a00000000000000000000000000000000000000000000000000000000081526004018080602001828103825260218152602001806118996021913960400191505060405180910390fd5b809150505b92915050565b60006115ff83836040518060400160405280601a81526020017f536166654d6174683a206469766973696f6e206279207a65726f0000000000008152506117d2565b905092915050565b6000600460405180828054600181600116156101000203166002900480156116665780601f10611644576101008083540402835291820191611666565b820191906000526020600020905b815481529060010190602001808311611652575b505091505060405180910390208273ffffffffffffffffffffffffffffffffffffffff166395d89b416040518163ffffffff1660e01b815260040160006040518083038186803b1580156116b957600080fd5b505afa1580156116cd573d6000803e3d6000fd5b505050506040513d6000823e3d601f19601f8201168201806040525060208110156116f757600080fd5b810190808051604051939291908464010000000082111561171757600080fd5b8382019150602082018581111561172d57600080fd5b825186600182028301116401000000008211171561174a57600080fd5b8083526020830192505050908051906020019080838360005b8381101561177e578082015181840152602081019050611763565b50505050905090810190601f1680156117ab5780820380516001836020036101000a031916815260200191505b506040525050508051906020012014156117c857600190506117cd565b600090505b919050565b6000808311829061187e576040517f08c379a00000000000000000000000000000000000000000000000000000000081526004018080602001828103825283818151815260200191508051906020019080838360005b83811015611843578082015181840152602081019050611828565b50505050905090810190601f1680156118705780820380516001836020036101000a031916815260200191505b509250505060405180910390fd5b50600083858161188a57fe5b04905080915050939250505056fe536166654d6174683a206d756c7469706c69636174696f6e206f766572666c6f77a26469706673582212200710236806608ff39233c86983c46037ff47cba1868b88a6b76a2c35c8e8a76164736f6c63430006060033",
  "immutableReferences": {},
  "source": "//SPDX-License-Identifier: stupid\n\n\npragma solidity >= 0.6;\n\nimport \"./SafeMath.sol\";\nimport \"./_Interfaces.sol\";\nimport \"./_ERC20.sol\";\nimport \"./ERC20_Utils.sol\";\n\n// oracle for on-chain uniswap prices w/ support for LP tokens\ncontract Uni_Price_v2 is ERC20_Utils {\n    using SafeMath for uint112;\n    using SafeMath for uint256;\n    \n    address public UNIfactory;\n    address public wETHaddress;\n    address public owner;\n    string public uniSymbol;\n \n    modifier onlyOwner {\n        require(msg.sender == owner, \"only owner\");\n        _;\n    }\n    \n    constructor(address _UNIfactory, address _wETHaddress) public {\n        owner = msg.sender;\n        UNIfactory = _UNIfactory; \n        //0x5C69bEe701ef814a2B6a3EDD4B1652CB9cc5aA6f; MAINNET ETH\n        //0x5c69bee701ef814a2b6a3edd4b1652cb9cc5aa6f; RINKEBY ETH\n\n        wETHaddress = _wETHaddress; \n        //0xc02aaa39b223fe8d0a0e5c4f27ead9083c756cc2; MAINNET ETH\n        //0xc778417E063141139Fce010982780140Aa0cD5Ab; RINKEBY ETH\n        uniSymbol = \"UNI-V2\";\n    }\n\n    function isUniLiquidityToken(address _token) internal view returns (bool) {\n        if (keccak256(bytes(_ERC20(_token).symbol())) == keccak256(bytes(uniSymbol))) {\n            return true;\n        }\n        return false;\n    }\n    \n    function getUniPair(address _token) internal view returns(address) {\n        if (isUniLiquidityToken(_token)) {\n            return _token;\n        }\n        return IUniswapV2Factory(UNIfactory).getPair(_token, wETHaddress);\n    }\n\n    function _getUint256Reserves(address _token) internal view returns(uint256 rToken, uint256 rWETH) {\n        address _token0;\n        uint112 _rTKN;\n        uint112 _rWETH;\n\n        if (isUniLiquidityToken(_token)) {\n            _token0 = IUniswapV2Pair(_token).token0();\n\n            if(_token0 == wETHaddress) {\n                (_rWETH, _rTKN, ) = IUniswapV2Pair(_token).getReserves(); //returns r0, r1, time\n            }\n            else {\n                (_rTKN, _rWETH, ) = IUniswapV2Pair(_token).getReserves();\n            }\n            // formula for eth price of lp tokens in WETH is 2 * wethReserves / totalSupplyLpTokens()\n            return (_rWETH.mul(2), _ERC20(_token).totalSupply());\n        } else {\n            address _UNIpair = getUniPair(_token);\n            _token0 = IUniswapV2Pair(_UNIpair).token0();\n            if(_token0 == wETHaddress) {\n                (_rWETH, _rTKN, ) = IUniswapV2Pair(_UNIpair).getReserves(); //returns r0, r1, time\n            }\n            else {\n                (_rTKN, _rWETH, ) = IUniswapV2Pair(_UNIpair).getReserves();\n            }\n            return (uint256(_rTKN),uint256(_rWETH)); //price in gwei, needs to be corrected by nb of decimals of _token\n            //price of 1 token in GWEI\n        }\n    }  \n    \n    function adjuster(address _token) internal view returns(uint256) {\n        uint8 _decimals = _ERC20(_token).decimals();\n        require(_decimals <= 18,\"OverFlow risk, not supported\");\n        uint256 _temp = 36 - uint256(_decimals);\n        return 10**_temp;\n    }\n    \n    function getUniPrice(address _token) public view returns(uint) {\n\n        uint256 rToken; uint256 rWETH; uint256 _adjuster;\n        (rToken, rWETH) = _getUint256Reserves(_token);\n        _adjuster = adjuster(_token);\n        \n\n        return ( (rToken).mul(_adjuster) ).div(rWETH);       //IN GWEI\n    }\n    \n    function getTokenInfo(address _token) public view returns(\n        string memory name, string memory symbol, uint8 decimals, address uniPair, uint256 tokensPerETH) {\n        return(\n            _ERC20(_token).name(), \n            _ERC20(_token).symbol(), \n            _ERC20(_token).decimals(), \n            getUniPair(_token), \n            getUniPrice(_token)\n        ); //normalized as if every token is 18 decimals\n    }\n}\n\n",
  "sourcePath": "/Users/noahcoomer/source/defiat/defiat-contracts/contracts/Uni_Price_v2.sol",
  "compiler": {
    "name": "solc",
    "version": "0.6.6+commit.6c089d02.Emscripten.clang"
  },
  "schemaVersion": "3.3.1",
  "updatedAt": "2020-10-21T12:13:36.634Z",
  "devdoc": {
    "methods": {}
  },
  "userdoc": {
    "methods": {}
  }
}