{
  "contractName": "VoteFactory",
  "abi": [
    {
      "inputs": [],
      "stateMutability": "nonpayable",
      "type": "constructor"
    },
    {
      "anonymous": false,
      "inputs": [
        {
          "indexed": true,
          "internalType": "address",
          "name": "previousOwner",
          "type": "address"
        },
        {
          "indexed": true,
          "internalType": "address",
          "name": "newOwner",
          "type": "address"
        }
      ],
      "name": "OwnershipTransferred",
      "type": "event"
    },
    {
      "inputs": [
        {
          "internalType": "uint256",
          "name": "",
          "type": "uint256"
        }
      ],
      "name": "allVotes",
      "outputs": [
        {
          "internalType": "address",
          "name": "",
          "type": "address"
        }
      ],
      "stateMutability": "view",
      "type": "function"
    },
    {
      "inputs": [],
      "name": "isOwner",
      "outputs": [
        {
          "internalType": "bool",
          "name": "",
          "type": "bool"
        }
      ],
      "stateMutability": "view",
      "type": "function"
    },
    {
      "inputs": [
        {
          "internalType": "address",
          "name": "",
          "type": "address"
        },
        {
          "internalType": "uint256",
          "name": "",
          "type": "uint256"
        }
      ],
      "name": "myVotes",
      "outputs": [
        {
          "internalType": "address",
          "name": "",
          "type": "address"
        }
      ],
      "stateMutability": "view",
      "type": "function"
    },
    {
      "inputs": [],
      "name": "nbVotes",
      "outputs": [
        {
          "internalType": "uint256",
          "name": "",
          "type": "uint256"
        }
      ],
      "stateMutability": "view",
      "type": "function"
    },
    {
      "inputs": [],
      "name": "owner",
      "outputs": [
        {
          "internalType": "address",
          "name": "",
          "type": "address"
        }
      ],
      "stateMutability": "view",
      "type": "function"
    },
    {
      "inputs": [],
      "name": "renounceOwnership",
      "outputs": [],
      "stateMutability": "nonpayable",
      "type": "function"
    },
    {
      "inputs": [],
      "name": "rugVote",
      "outputs": [
        {
          "internalType": "contract RugVote",
          "name": "",
          "type": "address"
        }
      ],
      "stateMutability": "view",
      "type": "function"
    },
    {
      "inputs": [
        {
          "internalType": "address",
          "name": "newOwner",
          "type": "address"
        }
      ],
      "name": "transferOwnership",
      "outputs": [],
      "stateMutability": "nonpayable",
      "type": "function"
    },
    {
      "inputs": [
        {
          "internalType": "address",
          "name": "_UniPair",
          "type": "address"
        },
        {
          "internalType": "address",
          "name": "_currency",
          "type": "address"
        },
        {
          "internalType": "uint256",
          "name": "_durationDays",
          "type": "uint256"
        }
      ],
      "name": "createVote",
      "outputs": [],
      "stateMutability": "nonpayable",
      "type": "function"
    },
    {
      "inputs": [
        {
          "internalType": "uint256",
          "name": "_index",
          "type": "uint256"
        }
      ],
      "name": "deleteVote",
      "outputs": [],
      "stateMutability": "nonpayable",
      "type": "function"
    },
    {
      "inputs": [
        {
          "internalType": "address",
          "name": "_address",
          "type": "address"
        }
      ],
      "name": "nbVotesOf",
      "outputs": [
        {
          "internalType": "uint256",
          "name": "",
          "type": "uint256"
        }
      ],
      "stateMutability": "view",
      "type": "function"
    },
    {
      "inputs": [
        {
          "internalType": "address",
          "name": "_address",
          "type": "address"
        },
        {
          "internalType": "uint256",
          "name": "_index",
          "type": "uint256"
        }
      ],
      "name": "votesOf",
      "outputs": [
        {
          "internalType": "address",
          "name": "",
          "type": "address"
        }
      ],
      "stateMutability": "view",
      "type": "function"
    },
    {
      "inputs": [
        {
          "internalType": "address",
          "name": "_rugVote",
          "type": "address"
        }
      ],
      "name": "getVoteInfo",
      "outputs": [
        {
          "internalType": "uint256",
          "name": "",
          "type": "uint256"
        },
        {
          "internalType": "address",
          "name": "",
          "type": "address"
        },
        {
          "internalType": "uint256",
          "name": "",
          "type": "uint256"
        },
        {
          "internalType": "uint256",
          "name": "",
          "type": "uint256"
        },
        {
          "internalType": "uint256",
          "name": "",
          "type": "uint256"
        },
        {
          "internalType": "bool",
          "name": "",
          "type": "bool"
        }
      ],
      "stateMutability": "view",
      "type": "function"
    }
  ],
  "bytecode": "0x608060405234801561001057600080fd5b5061001f6100df60201b60201c565b6000806101000a81548173ffffffffffffffffffffffffffffffffffffffff021916908373ffffffffffffffffffffffffffffffffffffffff1602179055506000809054906101000a900473ffffffffffffffffffffffffffffffffffffffff1673ffffffffffffffffffffffffffffffffffffffff16600073ffffffffffffffffffffffffffffffffffffffff167f8be0079c531659141344cd1fd0a4f28419497f9722a3daafe3b4186f6b6457e060405160405180910390a36100e7565b600033905090565b61361a806100f66000396000f3fe60806040523480156200001157600080fd5b5060043610620000e25760003560e01c8063dac4cc091162000099578063ddedc8e0116200006f578063ddedc8e01462000410578063de63f432146200046b578063eb49e35614620004dc578063f2fde38b146200050d57620000e2565b8063dac4cc091462000285578063dc1e30da1462000316578063dc60fd4714620003c457620000e2565b8063135ae13a14620000e7578063715018a614620001585780638da5cb5b14620001645780638f32d59b14620001b05780638fead55214620001d4578063a3faa1051462000265575b600080fd5b6200015660048036036060811015620000ff57600080fd5b81019080803573ffffffffffffffffffffffffffffffffffffffff169060200190929190803573ffffffffffffffffffffffffffffffffffffffff1690602001909291908035906020019092919050505062000554565b005b6200016262000752565b005b6200016e6200088e565b604051808273ffffffffffffffffffffffffffffffffffffffff1673ffffffffffffffffffffffffffffffffffffffff16815260200191505060405180910390f35b620001ba620008b7565b604051808215151515815260200191505060405180910390f35b6200022360048036036040811015620001ec57600080fd5b81019080803573ffffffffffffffffffffffffffffffffffffffff1690602001909291908035906020019092919050505062000917565b604051808273ffffffffffffffffffffffffffffffffffffffff1673ffffffffffffffffffffffffffffffffffffffff16815260200191505060405180910390f35b6200026f62000997565b6040518082815260200191505060405180910390f35b620002d4600480360360408110156200029d57600080fd5b81019080803573ffffffffffffffffffffffffffffffffffffffff169060200190929190803590602001909291905050506200099d565b604051808273ffffffffffffffffffffffffffffffffffffffff1673ffffffffffffffffffffffffffffffffffffffff16815260200191505060405180910390f35b6200035b600480360360208110156200032e57600080fd5b81019080803573ffffffffffffffffffffffffffffffffffffffff169060200190929190505050620009e9565b604051808781526020018673ffffffffffffffffffffffffffffffffffffffff1673ffffffffffffffffffffffffffffffffffffffff16815260200185815260200184815260200183815260200182151515158152602001965050505050505060405180910390f35b620003ce62000d1f565b604051808273ffffffffffffffffffffffffffffffffffffffff1673ffffffffffffffffffffffffffffffffffffffff16815260200191505060405180910390f35b62000455600480360360208110156200042857600080fd5b81019080803573ffffffffffffffffffffffffffffffffffffffff16906020019092919050505062000d45565b6040518082815260200191505060405180910390f35b6200049a600480360360208110156200048357600080fd5b810190808035906020019092919050505062000d91565b604051808273ffffffffffffffffffffffffffffffffffffffff1673ffffffffffffffffffffffffffffffffffffffff16815260200191505060405180910390f35b6200050b60048036036020811015620004f457600080fd5b810190808035906020019092919050505062000dce565b005b62000552600480360360208110156200052557600080fd5b81019080803573ffffffffffffffffffffffffffffffffffffffff16906020019092919050505062000f6c565b005b60006200056062000ff7565b848385604051620005719062001145565b808573ffffffffffffffffffffffffffffffffffffffff1673ffffffffffffffffffffffffffffffffffffffff1681526020018473ffffffffffffffffffffffffffffffffffffffff1673ffffffffffffffffffffffffffffffffffffffff1681526020018381526020018273ffffffffffffffffffffffffffffffffffffffff1673ffffffffffffffffffffffffffffffffffffffff168152602001945050505050604051809103906000f08015801562000631573d6000803e3d6000fd5b5090506002819080600181540180825580915050600190039060005260206000200160009091909190916101000a81548173ffffffffffffffffffffffffffffffffffffffff021916908373ffffffffffffffffffffffffffffffffffffffff16021790555060028054905060038190555060046000620006b162000ff7565b73ffffffffffffffffffffffffffffffffffffffff1673ffffffffffffffffffffffffffffffffffffffff168152602001908152602001600020819080600181540180825580915050600190039060005260206000200160009091909190916101000a81548173ffffffffffffffffffffffffffffffffffffffff021916908373ffffffffffffffffffffffffffffffffffffffff16021790555050505050565b6200075c620008b7565b620007cf576040517f08c379a00000000000000000000000000000000000000000000000000000000081526004018080602001828103825260208152602001807f4f776e61626c653a2063616c6c6572206973206e6f7420746865206f776e657281525060200191505060405180910390fd5b600073ffffffffffffffffffffffffffffffffffffffff166000809054906101000a900473ffffffffffffffffffffffffffffffffffffffff1673ffffffffffffffffffffffffffffffffffffffff167f8be0079c531659141344cd1fd0a4f28419497f9722a3daafe3b4186f6b6457e060405160405180910390a360008060006101000a81548173ffffffffffffffffffffffffffffffffffffffff021916908373ffffffffffffffffffffffffffffffffffffffff160217905550565b60008060009054906101000a900473ffffffffffffffffffffffffffffffffffffffff16905090565b60008060009054906101000a900473ffffffffffffffffffffffffffffffffffffffff1673ffffffffffffffffffffffffffffffffffffffff16620008fb62000ff7565b73ffffffffffffffffffffffffffffffffffffffff1614905090565b6000600460008473ffffffffffffffffffffffffffffffffffffffff1673ffffffffffffffffffffffffffffffffffffffff16815260200190815260200160002082815481106200096457fe5b9060005260206000200160009054906101000a900473ffffffffffffffffffffffffffffffffffffffff16905092915050565b60035481565b60046020528160005260406000208181548110620009b757fe5b906000526020600020016000915091509054906101000a900473ffffffffffffffffffffffffffffffffffffffff1681565b6000806000806000808673ffffffffffffffffffffffffffffffffffffffff1663a628828f6040518163ffffffff1660e01b815260040160206040518083038186803b15801562000a3957600080fd5b505afa15801562000a4e573d6000803e3d6000fd5b505050506040513d602081101562000a6557600080fd5b81019080805190602001909291905050508773ffffffffffffffffffffffffffffffffffffffff1663e5a6b10f6040518163ffffffff1660e01b815260040160206040518083038186803b15801562000abd57600080fd5b505afa15801562000ad2573d6000803e3d6000fd5b505050506040513d602081101562000ae957600080fd5b81019080805190602001909291905050508873ffffffffffffffffffffffffffffffffffffffff1663e08558e26040518163ffffffff1660e01b815260040160206040518083038186803b15801562000b4157600080fd5b505afa15801562000b56573d6000803e3d6000fd5b505050506040513d602081101562000b6d57600080fd5b81019080805190602001909291905050508973ffffffffffffffffffffffffffffffffffffffff16639a7dcac76040518163ffffffff1660e01b815260040160206040518083038186803b15801562000bc557600080fd5b505afa15801562000bda573d6000803e3d6000fd5b505050506040513d602081101562000bf157600080fd5b81019080805190602001909291905050508a73ffffffffffffffffffffffffffffffffffffffff166343961a3d6040518163ffffffff1660e01b815260040160206040518083038186803b15801562000c4957600080fd5b505afa15801562000c5e573d6000803e3d6000fd5b505050506040513d602081101562000c7557600080fd5b81019080805190602001909291905050508b73ffffffffffffffffffffffffffffffffffffffff166381c8770c6040518163ffffffff1660e01b815260040160206040518083038186803b15801562000ccd57600080fd5b505afa15801562000ce2573d6000803e3d6000fd5b505050506040513d602081101562000cf957600080fd5b810190808051906020019092919050505095509550955095509550955091939550919395565b600160009054906101000a900473ffffffffffffffffffffffffffffffffffffffff1681565b6000600460008373ffffffffffffffffffffffffffffffffffffffff1673ffffffffffffffffffffffffffffffffffffffff168152602001908152602001600020805490509050919050565b6002818154811062000d9f57fe5b906000526020600020016000915054906101000a900473ffffffffffffffffffffffffffffffffffffffff1681565b6000806004600062000ddf62000ff7565b73ffffffffffffffffffffffffffffffffffffffff1673ffffffffffffffffffffffffffffffffffffffff168152602001908152602001600020838154811062000e2557fe5b9060005260206000200160009054906101000a900473ffffffffffffffffffffffffffffffffffffffff16905062000e5d81620009e9565b9091929350909192509091509050508092505081421062000ee6576040517f08c379a00000000000000000000000000000000000000000000000000000000081526004018080602001828103825260128152602001807f6f6e6c792072656d6f766520636c6f736564000000000000000000000000000081525060200191505060405180910390fd5b6004600062000ef462000ff7565b73ffffffffffffffffffffffffffffffffffffffff1673ffffffffffffffffffffffffffffffffffffffff168152602001908152602001600020838154811062000f3a57fe5b9060005260206000200160006101000a81549073ffffffffffffffffffffffffffffffffffffffff0219169055505050565b62000f76620008b7565b62000fe9576040517f08c379a00000000000000000000000000000000000000000000000000000000081526004018080602001828103825260208152602001807f4f776e61626c653a2063616c6c6572206973206e6f7420746865206f776e657281525060200191505060405180910390fd5b62000ff48162000fff565b50565b600033905090565b600073ffffffffffffffffffffffffffffffffffffffff168173ffffffffffffffffffffffffffffffffffffffff16141562001087576040517f08c379a0000000000000000000000000000000000000000000000000000000008152600401808060200182810382526026815260200180620035bf6026913960400191505060405180910390fd5b8073ffffffffffffffffffffffffffffffffffffffff166000809054906101000a900473ffffffffffffffffffffffffffffffffffffffff1673ffffffffffffffffffffffffffffffffffffffff167f8be0079c531659141344cd1fd0a4f28419497f9722a3daafe3b4186f6b6457e060405160405180910390a3806000806101000a81548173ffffffffffffffffffffffffffffffffffffffff021916908373ffffffffffffffffffffffffffffffffffffffff16021790555050565b61246b80620011548339019056fe60806040523480156200001157600080fd5b506040516200246b3803806200246b833981810160405260808110156200003757600080fd5b810190808051906020019092919080519060200190929190805190602001909291908051906020019092919050505062000076620002b260201b60201c565b6000806101000a81548173ffffffffffffffffffffffffffffffffffffffff021916908373ffffffffffffffffffffffffffffffffffffffff1602179055506000809054906101000a900473ffffffffffffffffffffffffffffffffffffffff1673ffffffffffffffffffffffffffffffffffffffff16600073ffffffffffffffffffffffffffffffffffffffff167f8be0079c531659141344cd1fd0a4f28419497f9722a3daafe3b4186f6b6457e060405160405180910390a382600460006101000a81548173ffffffffffffffffffffffffffffffffffffffff021916908373ffffffffffffffffffffffffffffffffffffffff160217905550620001a8620001936201518084620002ba60201b620014741790919060201c565b426200034560201b6200154c1790919060201c565b60058190555080600660006101000a81548173ffffffffffffffffffffffffffffffffffffffff021916908373ffffffffffffffffffffffffffffffffffffffff1602179055506200020083620003ce60201b60201c565b6009819055506000600954116200027f576040517f08c379a000000000000000000000000000000000000000000000000000000000815260040180806020018281038252601f8152602001807f6e6f20726573657276657320666f756e6420666f72207468697320706169720081525060200191505060405180910390fd5b600460018190555060016002819055506032600381905550620002a884620004b760201b60201c565b50505050620005fd565b600033905090565b600080831415620002cf57600090506200033f565b6000828402905082848281620002e157fe5b04146200033a576040517f08c379a00000000000000000000000000000000000000000000000000000000081526004018080602001828103825260218152602001806200244a6021913960400191505060405180910390fd5b809150505b92915050565b600080828401905083811015620003c4576040517f08c379a000000000000000000000000000000000000000000000000000000000815260040180806020018281038252601b8152602001807f536166654d6174683a206164646974696f6e206f766572666c6f77000000000081525060200191505060405180910390fd5b8091505092915050565b60008060008373ffffffffffffffffffffffffffffffffffffffff16630902f1ac6040518163ffffffff1660e01b815260040160606040518083038186803b1580156200041a57600080fd5b505afa1580156200042f573d6000803e3d6000fd5b505050506040513d60608110156200044657600080fd5b81019080805190602001909291908051906020019092919080519060200190929190505050508092508193505050620004ae816dffffffffffffffffffffffffffff16836dffffffffffffffffffffffffffff166200034560201b6200154c1790919060201c565b92505050919050565b600073ffffffffffffffffffffffffffffffffffffffff168173ffffffffffffffffffffffffffffffffffffffff1614156200053f576040517f08c379a0000000000000000000000000000000000000000000000000000000008152600401808060200182810382526026815260200180620024246026913960400191505060405180910390fd5b8073ffffffffffffffffffffffffffffffffffffffff166000809054906101000a900473ffffffffffffffffffffffffffffffffffffffff1673ffffffffffffffffffffffffffffffffffffffff167f8be0079c531659141344cd1fd0a4f28419497f9722a3daafe3b4186f6b6457e060405160405180910390a3806000806101000a81548173ffffffffffffffffffffffffffffffffffffffff021916908373ffffffffffffffffffffffffffffffffffffffff16021790555050565b611e17806200060d6000396000f3fe608060405234801561001057600080fd5b506004361061012c5760003560e01c80638f32d59b116100ad578063d1f586c111610071578063d1f586c11461040c578063d3e5cf9e14610416578063e08558e214610438578063e5a6b10f14610456578063f2fde38b146104a05761012c565b80638f32d59b1461032c5780639a7dcac71461034e578063a628828f1461036c578063bb2c25561461038a578063ca44cd8d146103ee5761012c565b8063715018a6116100f4578063715018a61461026a57806373c5a1181461027457806381c8770c146102925780638cfee119146102b45780638da5cb5b146102e25761012c565b8063223deeb3146101315780632e055470146101755780633e689084146101bf57806343961a3d146101ed5780634676469b1461020b575b600080fd5b6101736004803603602081101561014757600080fd5b81019080803573ffffffffffffffffffffffffffffffffffffffff1690602001909291905050506104e4565b005b61017d6107e3565b604051808273ffffffffffffffffffffffffffffffffffffffff1673ffffffffffffffffffffffffffffffffffffffff16815260200191505060405180910390f35b6101eb600480360360208110156101d557600080fd5b8101908080359060200190929190505050610809565b005b6101f5610a59565b6040518082815260200191505060405180910390f35b61024d6004803603602081101561022157600080fd5b81019080803573ffffffffffffffffffffffffffffffffffffffff169060200190929190505050610a5f565b604051808381526020018281526020019250505060405180910390f35b610272610a83565b005b61027c610bbc565b6040518082815260200191505060405180910390f35b61029a610bc2565b604051808215151515815260200191505060405180910390f35b6102e0600480360360208110156102ca57600080fd5b8101908080359060200190929190505050610bd5565b005b6102ea610e25565b604051808273ffffffffffffffffffffffffffffffffffffffff1673ffffffffffffffffffffffffffffffffffffffff16815260200191505060405180910390f35b610334610e4e565b604051808215151515815260200191505060405180910390f35b610356610eac565b6040518082815260200191505060405180910390f35b610374610eb2565b6040518082815260200191505060405180910390f35b6103ec600480360360408110156103a057600080fd5b81019080803573ffffffffffffffffffffffffffffffffffffffff169060200190929190803573ffffffffffffffffffffffffffffffffffffffff169060200190929190505050610eb8565b005b6103f6611143565b6040518082815260200191505060405180910390f35b610414611148565b005b61041e6112db565b604051808215151515815260200191505060405180910390f35b6104406113c2565b6040518082815260200191505060405180910390f35b61045e6113c8565b604051808273ffffffffffffffffffffffffffffffffffffffff1673ffffffffffffffffffffffffffffffffffffffff16815260200191505060405180910390f35b6104e2600480360360208110156104b657600080fd5b81019080803573ffffffffffffffffffffffffffffffffffffffff1690602001909291905050506113ee565b005b60055442101580610508575060011515600a60009054906101000a900460ff161515145b61057a576040517f08c379a000000000000000000000000000000000000000000000000000000000815260040180806020018281038252601d8152602001807f5468657265206973207374696c6c20686f7069756d20686572652e2e2e00000081525060200191505060405180910390fd5b610582610e4e565b6105f4576040517f08c379a00000000000000000000000000000000000000000000000000000000081526004018080602001828103825260208152602001807f4f776e61626c653a2063616c6c6572206973206e6f7420746865206f776e657281525060200191505060405180910390fd5b60006106f86103e86106ea600154600660009054906101000a900473ffffffffffffffffffffffffffffffffffffffff1673ffffffffffffffffffffffffffffffffffffffff166370a08231306040518263ffffffff1660e01b8152600401808273ffffffffffffffffffffffffffffffffffffffff1673ffffffffffffffffffffffffffffffffffffffff16815260200191505060206040518083038186803b1580156106a157600080fd5b505afa1580156106b5573d6000803e3d6000fd5b505050506040513d60208110156106cb57600080fd5b810190808051906020019092919050505061147490919063ffffffff16565b6114fa90919063ffffffff16565b9050600660009054906101000a900473ffffffffffffffffffffffffffffffffffffffff1673ffffffffffffffffffffffffffffffffffffffff1663a9059cbb83836040518363ffffffff1660e01b8152600401808373ffffffffffffffffffffffffffffffffffffffff1673ffffffffffffffffffffffffffffffffffffffff16815260200182815260200192505050602060405180830381600087803b1580156107a357600080fd5b505af11580156107b7573d6000803e3d6000fd5b505050506040513d60208110156107cd57600080fd5b8101908080519060200190929190505050505050565b600460009054906101000a900473ffffffffffffffffffffffffffffffffffffffff1681565b600554421115610864576040517f08c379a000000000000000000000000000000000000000000000000000000000815260040180806020018281038252602d815260200180611d94602d913960400191505060405180910390fd5b600660009054906101000a900473ffffffffffffffffffffffffffffffffffffffff1673ffffffffffffffffffffffffffffffffffffffff166323b872dd6108aa611544565b30846040518463ffffffff1660e01b8152600401808473ffffffffffffffffffffffffffffffffffffffff1673ffffffffffffffffffffffffffffffffffffffff1681526020018373ffffffffffffffffffffffffffffffffffffffff1673ffffffffffffffffffffffffffffffffffffffff1681526020018281526020019350505050602060405180830381600087803b15801561094857600080fd5b505af115801561095c573d6000803e3d6000fd5b505050506040513d602081101561097257600080fd5b81019080805190602001909291905050505060006109c36103e86109b56109a660025460015461154c90919063ffffffff16565b8561147490919063ffffffff16565b6114fa90919063ffffffff16565b905060006109da82846115d490919063ffffffff16565b90506109f18160085461154c90919063ffffffff16565b600881905550610a5381600b6000610a07611544565b73ffffffffffffffffffffffffffffffffffffffff1673ffffffffffffffffffffffffffffffffffffffff1681526020019081526020016000206001015461154c90919063ffffffff16565b50505050565b60095481565b600b6020528060005260406000206000915090508060000154908060010154905082565b610a8b610e4e565b610afd576040517f08c379a00000000000000000000000000000000000000000000000000000000081526004018080602001828103825260208152602001807f4f776e61626c653a2063616c6c6572206973206e6f7420746865206f776e657281525060200191505060405180910390fd5b600073ffffffffffffffffffffffffffffffffffffffff166000809054906101000a900473ffffffffffffffffffffffffffffffffffffffff1673ffffffffffffffffffffffffffffffffffffffff167f8be0079c531659141344cd1fd0a4f28419497f9722a3daafe3b4186f6b6457e060405160405180910390a360008060006101000a81548173ffffffffffffffffffffffffffffffffffffffff021916908373ffffffffffffffffffffffffffffffffffffffff160217905550565b60035481565b600a60009054906101000a900460ff1681565b600554421115610c30576040517f08c379a000000000000000000000000000000000000000000000000000000000815260040180806020018281038252602d815260200180611d94602d913960400191505060405180910390fd5b600660009054906101000a900473ffffffffffffffffffffffffffffffffffffffff1673ffffffffffffffffffffffffffffffffffffffff166323b872dd610c76611544565b30846040518463ffffffff1660e01b8152600401808473ffffffffffffffffffffffffffffffffffffffff1673ffffffffffffffffffffffffffffffffffffffff1681526020018373ffffffffffffffffffffffffffffffffffffffff1673ffffffffffffffffffffffffffffffffffffffff1681526020018281526020019350505050602060405180830381600087803b158015610d1457600080fd5b505af1158015610d28573d6000803e3d6000fd5b505050506040513d6020811015610d3e57600080fd5b8101908080519060200190929190505050506000610d8f6103e8610d81610d7260025460015461154c90919063ffffffff16565b8561147490919063ffffffff16565b6114fa90919063ffffffff16565b90506000610da682846115d490919063ffffffff16565b9050610dbd8160075461154c90919063ffffffff16565b600881905550610e1f81600b6000610dd3611544565b73ffffffffffffffffffffffffffffffffffffffff1673ffffffffffffffffffffffffffffffffffffffff1681526020019081526020016000206000015461154c90919063ffffffff16565b50505050565b60008060009054906101000a900473ffffffffffffffffffffffffffffffffffffffff16905090565b60008060009054906101000a900473ffffffffffffffffffffffffffffffffffffffff1673ffffffffffffffffffffffffffffffffffffffff16610e90611544565b73ffffffffffffffffffffffffffffffffffffffff1614905090565b60085481565b60055481565b610ec0610e4e565b610f32576040517f08c379a00000000000000000000000000000000000000000000000000000000081526004018080602001828103825260208152602001807f4f776e61626c653a2063616c6c6572206973206e6f7420746865206f776e657281525060200191505060405180910390fd5b610f4a62093a8060055461154c90919063ffffffff16565b421015610fbf576040517f08c379a000000000000000000000000000000000000000000000000000000000815260040180806020018281038252601c8152602001807f5761697420666f7220656e64206f6620677261636520706572696f640000000081525060200191505060405180910390fd5b60008173ffffffffffffffffffffffffffffffffffffffff166370a08231306040518263ffffffff1660e01b8152600401808273ffffffffffffffffffffffffffffffffffffffff1673ffffffffffffffffffffffffffffffffffffffff16815260200191505060206040518083038186803b15801561103e57600080fd5b505afa158015611052573d6000803e3d6000fd5b505050506040513d602081101561106857600080fd5b810190808051906020019092919050505090508173ffffffffffffffffffffffffffffffffffffffff1663a9059cbb84836040518363ffffffff1660e01b8152600401808373ffffffffffffffffffffffffffffffffffffffff1673ffffffffffffffffffffffffffffffffffffffff16815260200182815260200192505050602060405180830381600087803b15801561110257600080fd5b505af1158015611116573d6000803e3d6000fd5b505050506040513d602081101561112c57600080fd5b810190808051906020019092919050505050505050565b600090565b6005544210158061116c575060011515600a60009054906101000a900460ff161515145b6111de576040517f08c379a000000000000000000000000000000000000000000000000000000000815260040180806020018281038252601d8152602001807f5468657265206973207374696c6c20686f7069756d20686572652e2e2e00000081525060200191505060405180910390fd5b600660009054906101000a900473ffffffffffffffffffffffffffffffffffffffff1673ffffffffffffffffffffffffffffffffffffffff1663a9059cbb611224611544565b61123461122f611544565b61161e565b6040518363ffffffff1660e01b8152600401808373ffffffffffffffffffffffffffffffffffffffff1673ffffffffffffffffffffffffffffffffffffffff16815260200182815260200192505050602060405180830381600087803b15801561129d57600080fd5b505af11580156112b1573d6000803e3d6000fd5b505050506040513d60208110156112c757600080fd5b810190808051906020019092919050505050565b6000600554421115611338576040517f08c379a000000000000000000000000000000000000000000000000000000000815260040180806020018281038252602d815260200180611d94602d913960400191505060405180910390fd5b6000600a60006101000a81548160ff0219169083151502179055506001151561135f611795565b151514156113ad576001600a60006101000a81548160ff021916908315150217905550611396600a426115d490919063ffffffff16565b6005819055506113ac6113a7611544565b61180f565b5b600a60009054906101000a900460ff16905090565b60075481565b600660009054906101000a900473ffffffffffffffffffffffffffffffffffffffff1681565b6113f6610e4e565b611468576040517f08c379a00000000000000000000000000000000000000000000000000000000081526004018080602001828103825260208152602001807f4f776e61626c653a2063616c6c6572206973206e6f7420746865206f776e657281525060200191505060405180910390fd5b611471816119c4565b50565b60008083141561148757600090506114f4565b600082840290508284828161149857fe5b04146114ef576040517f08c379a0000000000000000000000000000000000000000000000000000000008152600401808060200182810382526021815260200180611dc16021913960400191505060405180910390fd5b809150505b92915050565b600061153c83836040518060400160405280601a81526020017f536166654d6174683a206469766973696f6e206279207a65726f000000000000815250611b08565b905092915050565b600033905090565b6000808284019050838110156115ca576040517f08c379a000000000000000000000000000000000000000000000000000000000815260040180806020018281038252601b8152602001807f536166654d6174683a206164646974696f6e206f766572666c6f77000000000081525060200191505060405180910390fd5b8091505092915050565b600061161683836040518060400160405280601e81526020017f536166654d6174683a207375627472616374696f6e206f766572666c6f770000815250611bce565b905092915050565b6000806000905060011515600a60009054906101000a900460ff16151514156116b9576116b26007546116a4670de0b6b3a7640000600b60008873ffffffffffffffffffffffffffffffffffffffff1673ffffffffffffffffffffffffffffffffffffffff1681526020019081526020016000206000015461147490919063ffffffff16565b6114fa90919063ffffffff16565b905061174a565b60001515600a60009054906101000a900460ff161515141561174957611746600854611738670de0b6b3a7640000600b60008873ffffffffffffffffffffffffffffffffffffffff1673ffffffffffffffffffffffffffffffffffffffff1681526020019081526020016000206001015461147490919063ffffffff16565b6114fa90919063ffffffff16565b90505b5b61178d670de0b6b3a764000061177f61177060085460075461154c90919063ffffffff16565b8461147490919063ffffffff16565b6114fa90919063ffffffff16565b915050919050565b6000806117c3600460009054906101000a900473ffffffffffffffffffffffffffffffffffffffff16611c8e565b905060006117f06009546117e26103e88561147490919063ffffffff16565b6114fa90919063ffffffff16565b9050600080905060035482101561180657600190505b80935050505090565b60011515600a60009054906101000a900460ff16151514611898576040517f08c379a00000000000000000000000000000000000000000000000000000000081526004018080602001828103825260138152602001807f6e6f207275672e2e2e206e6f207265776172640000000000000000000000000081525060200191505060405180910390fd5b60006118d96103e86118cb6002546118bd60085460075461154c90919063ffffffff16565b61147490919063ffffffff16565b6114fa90919063ffffffff16565b9050600660009054906101000a900473ffffffffffffffffffffffffffffffffffffffff1673ffffffffffffffffffffffffffffffffffffffff1663a9059cbb83836040518363ffffffff1660e01b8152600401808373ffffffffffffffffffffffffffffffffffffffff1673ffffffffffffffffffffffffffffffffffffffff16815260200182815260200192505050602060405180830381600087803b15801561198457600080fd5b505af1158015611998573d6000803e3d6000fd5b505050506040513d60208110156119ae57600080fd5b8101908080519060200190929190505050505050565b600073ffffffffffffffffffffffffffffffffffffffff168173ffffffffffffffffffffffffffffffffffffffff161415611a4a576040517f08c379a0000000000000000000000000000000000000000000000000000000008152600401808060200182810382526026815260200180611d6e6026913960400191505060405180910390fd5b8073ffffffffffffffffffffffffffffffffffffffff166000809054906101000a900473ffffffffffffffffffffffffffffffffffffffff1673ffffffffffffffffffffffffffffffffffffffff167f8be0079c531659141344cd1fd0a4f28419497f9722a3daafe3b4186f6b6457e060405160405180910390a3806000806101000a81548173ffffffffffffffffffffffffffffffffffffffff021916908373ffffffffffffffffffffffffffffffffffffffff16021790555050565b60008083118290611bb4576040517f08c379a00000000000000000000000000000000000000000000000000000000081526004018080602001828103825283818151815260200191508051906020019080838360005b83811015611b79578082015181840152602081019050611b5e565b50505050905090810190601f168015611ba65780820380516001836020036101000a031916815260200191505b509250505060405180910390fd5b506000838581611bc057fe5b049050809150509392505050565b6000838311158290611c7b576040517f08c379a00000000000000000000000000000000000000000000000000000000081526004018080602001828103825283818151815260200191508051906020019080838360005b83811015611c40578082015181840152602081019050611c25565b50505050905090810190601f168015611c6d5780820380516001836020036101000a031916815260200191505b509250505060405180910390fd5b5060008385039050809150509392505050565b60008060008373ffffffffffffffffffffffffffffffffffffffff16630902f1ac6040518163ffffffff1660e01b815260040160606040518083038186803b158015611cd957600080fd5b505afa158015611ced573d6000803e3d6000fd5b505050506040513d6060811015611d0357600080fd5b81019080805190602001909291908051906020019092919080519060200190929190505050508092508193505050611d64816dffffffffffffffffffffffffffff16836dffffffffffffffffffffffffffff1661154c90919063ffffffff16565b9250505091905056fe4f776e61626c653a206e6577206f776e657220697320746865207a65726f2061646472657373546865206772656174204f7261636c65206f662052756773206861732073706f6b656e206d7920736f6e2e2e2e536166654d6174683a206d756c7469706c69636174696f6e206f766572666c6f77a2646970667358221220697eb4da2808a04b10faf2ecbbd69b438e03b6856e6ccd332f0b25ceeb8a974c64736f6c634300060600334f776e61626c653a206e6577206f776e657220697320746865207a65726f2061646472657373536166654d6174683a206d756c7469706c69636174696f6e206f766572666c6f774f776e61626c653a206e6577206f776e657220697320746865207a65726f2061646472657373a26469706673582212203d289bb8003042f38076f6f0852190fa9f5106a4e3c15f552b47d5073dfaa61b64736f6c63430006060033",
  "immutableReferences": {},
  "source": "/*\n* Copyright (c) 2020 Will_It_Rug\n*\n* Be a Chad, don't get rugged without a failsafe.\n*/ \n\n// File: @openzeppelin/contracts/math/Math.sol\n//\n\n// File: @openzeppelin/contracts/math/SafeMath.sol\npragma solidity ^0.6.0;\n\nimport \"./_Interfaces.sol\";\nimport \"./SafeMath.sol\";\nimport \"./Ownable.sol\";\n\n\ncontract RugVote is Ownable {\n    using SafeMath for uint256;\n    \n    /**\n    * @dev contract level variables \n    */\n    uint256 private houseFee; //base 1,000\n    uint256 private oracleFee; //base 1,000\n    uint256 public rugRatio; //base 1000\n\n    /**\n    * @dev vote relative variables\n    * currency needs to be an ERC20 address (use wETH instead of ETH)\n    */\n    address public UniPair;\n    uint256 public closingDate;\n    address public currency; \n    uint256 public votesYES;\n    uint256 public votesNO;\n    uint256 public reservesStart;\n    bool public hasRugged;\n\n    /**\n    * @dev variables contain the anount of tokens on each vote.\n    */\n    struct MyVote {\n        uint256 votesYES;\n        uint256 votesNO;\n    }\n    mapping(address => MyVote) public myVote; //users can do 1 vote at a time to start with\n    \n    \n// == constructor & modifers ===================================================================================\n\n    /**\n    * @dev simple time-based constructor for voteOpen\n    * voteClose also checks if hasRugged == true\n    * \n    * constructor is used by the factory to create a vote_contract.\n    * inputs:\n    *       _UniPair = UniSwap pair to watch\n    *       _currency = erc20 token used to voteOpen\n    *       _duractionDays = used to define closingDate;\n    */\n    modifier voteOpen() {\n        require(block.timestamp <= closingDate, \"The great Oracle of Rugs has spoken my son...\");\n        _;\n    }\n    modifier voteClosed() {\n        require(block.timestamp >= closingDate || hasRugged == true, \"There is still hopium here...\");\n        _;\n    }\n    \n    constructor(address _creator, address _UniPair, uint256 _durationDays, address _currency) public {\n    \n    //declared\n        UniPair = _UniPair;\n        closingDate = block.timestamp.add(_durationDays.mul(86400));\n        currency = _currency;\n        \n        reservesStart = reserves(_UniPair); //sum of TOKENS balances, independant of the decimals\n        require(reservesStart > 0, \"no reserves found for this pair\");\n        \n    //hard coded\n        houseFee = 4; //0.4$\n        oracleFee = 1; //0.1%\n        rugRatio = 50; //5% of reserves left = rug\n        \n        _transferOwnership(_creator); //contract creator is the new owner\n\n    }\n    \n// == Rug Checker ===================================================================================\n        \n    /**\n    * @dev we use the sum of reserves to measure the rug\n    * rugCHeck performs a check based on the rugRatio \n    * if reserves at the end of the period are < certain % vs. the initial period\n    * the rugCheck determines that there was a liquidity removal\n    * \n    * Like houseFee and oracleReward, rugRatio is a base1000 numeral\n    */\n    function rugCheck() internal view returns(bool) {\n        uint256 reservesNow = reserves(UniPair);\n        uint256 _rugRatio = (reservesNow).mul(1000).div(reservesStart);\n        \n        bool _rug = false;\n        if(_rugRatio < rugRatio){_rug = true;}\n        return _rug;\n    }\n\n    function reserves(address _UniPair) internal view returns(uint256){\n        uint112 r1; uint112 r2;\n        (r1, r2, ) = IUniswapV2Pair(_UniPair).getReserves();\n        return uint256(r1).add(uint256(r2));\n    }\n   \n   \n // == THe Good, The Bad, and the Voter ===================================================================================\n  \n    function voteYES(uint256 _amount) public voteOpen {\n   \n        //transfer 1st (no reentrancy)\n        IERC20(currency).transferFrom(_msgSender(), address(this), _amount);\n       \n        uint256 _feesAndReward = _amount.mul(houseFee.add(oracleFee)).div(1000);\n        uint256 _netAmount = _amount.sub(_feesAndReward);\n        \n        // updates pool and users' metric\n        votesNO = votesYES.add(_netAmount);\n        myVote[_msgSender()].votesYES.add(_netAmount);\n    }\n    \n    function voteNO(uint256 _amount) public voteOpen {\n\n        //transfer 1st (no reentrancy)\n        IERC20(currency).transferFrom(_msgSender(), address(this), _amount);\n       \n        uint256 _feesAndReward = _amount.mul(houseFee.add(oracleFee)).div(1000);\n        uint256 _netAmount = _amount.sub(_feesAndReward);\n        \n        // updates pool and users' metric\n        votesNO = votesNO.add(_netAmount);\n        myVote[_msgSender()].votesNO.add(_netAmount);\n    }\n    \n    function amountToPay(address _address) internal view returns(uint256) {\n        uint256 _voteShare = 0;\n        if(hasRugged == true){\n            _voteShare = (myVote[_address].votesYES).mul(1e18).div(votesYES);\n        }\n        else if (hasRugged == false){\n            _voteShare = (myVote[_address].votesNO).mul(1e18).div(votesNO);\n        }\n    \n        return _voteShare.mul(votesYES.add(votesNO)).div(1e18);\n    }\n     \n    function moneyTalks() public voteClosed {\n        IERC20(currency).transfer(_msgSender(), amountToPay(_msgSender()));\n    }\n\n\n// == The Mighty Oracle of Rugs===================================================================================\n\n    /**\n    * @dev Behold the great Oracle of Rugs!\n    */\n    function oracleOfRugs() public voteOpen returns(bool) {\n        hasRugged = false;\n        \n        if(rugCheck() == true){\n            hasRugged = true;\n            closingDate = block.timestamp.sub(10); //force closes pool. avoids reentrancy with voteOpen\n            rewardOracle(_msgSender());\n        }\n        return hasRugged;\n    }\n        \n    function rewardOracle(address _address) internal {\n        require(hasRugged == true, \"no rug... no reward\");\n        uint256 _reward = votesYES.add(votesNO).mul(oracleFee).div(1000);\n        IERC20(currency).transfer(_address, _reward);\n    }\n\n// == The House ===================================================================================\n    function CollectFees(address _address) public voteClosed onlyOwner{\n        uint256 _fees = IERC20(currency).balanceOf(address(this)).mul(houseFee).div(1000);\n        IERC20(currency).transfer(_address, _fees);\n    }\n    \n    //this one is tricky as pool creators can flush the pool 1 week (604800 seconds) after the end of the vote.\n    function flushPool(address _recipient, address _ERC20address) external onlyOwner {\n        require(block.timestamp >= closingDate.add(604800), \"Wait for end of grace period\");\n        uint256 _amount = IERC20(_ERC20address).balanceOf(address(this));\n        IERC20(_ERC20address).transfer(_recipient, _amount); //use of the _ERC20 traditional transfer\n    }\n    \n// == Getters ===================================================================================\n    function getYESodds() public view returns(uint256){\n        \n    }\n\n}\n\n\ncontract VoteFactory is Ownable {\n    \n    RugVote public rugVote;\n    \n    address[] public allVotes;\n    uint256 public nbVotes; \n    \n    mapping(address => address[]) public myVotes;\n\n   \n    constructor() public {\n        //call ownable constructor\n    }\n   \n    /**\n    * @dev Creates a voting contract where the owner = creator\n    */\n    function createVote(address _UniPair, address _currency, uint256 _durationDays) public {\n    address _rugVote = address(new RugVote(_msgSender(),  _UniPair, _durationDays, _currency));\n   \n    allVotes.push(_rugVote);\n    nbVotes = allVotes.length;\n    \n    myVotes[_msgSender()].push(_rugVote);\n    }\n    \n    //not sure about that one... let users delete their previous votes.\n    function deleteVote(uint256 _index) public {\n        uint256 _closingDate;\n        address _rugVote = myVotes[_msgSender()][_index];\n        (_closingDate,,,,,) =  getVoteInfo( _rugVote);\n        \n        require(block.timestamp < _closingDate, \"only remove closed\");\n        \n        delete myVotes[_msgSender()][_index];\n    }\n    \n    function nbVotesOf(address _address) public view returns(uint256) {\n        return myVotes[_address].length;\n    }\n    \n    function votesOf(address _address,uint256 _index) public view returns(address) {\n        return myVotes[_address][_index];\n    }\n    \n    \n    function getVoteInfo(address _rugVote) public view returns(uint256, address, uint256, uint256, uint256, bool){\n            return(\n                RugVote(_rugVote).closingDate(),\n                RugVote(_rugVote).currency(),\n                RugVote(_rugVote).votesYES(),\n                RugVote(_rugVote).votesNO(),\n                RugVote(_rugVote).reservesStart(),\n                RugVote(_rugVote).hasRugged()\n                );\n        }\n} \n    \n",
  "sourcePath": "/Users/noahcoomer/source/defiat/defiat-contracts/contracts/DeFiat_betting.sol",
  "compiler": {
    "name": "solc",
    "version": "0.6.6+commit.6c089d02.Emscripten.clang"
  },
  "schemaVersion": "3.3.1",
  "updatedAt": "2020-10-20T07:08:43.297Z",
  "devdoc": {
    "methods": {
      "createVote(address,address,uint256)": {
        "details": "Creates a voting contract where the owner = creator"
      },
      "isOwner()": {
        "details": "Returns true if the caller is the current owner."
      },
      "owner()": {
        "details": "Returns the address of the current owner."
      },
      "renounceOwnership()": {
        "details": "Leaves the contract without owner. It will not be possible to call `onlyOwner` functions anymore. Can only be called by the current owner.     * NOTE: Renouncing ownership will leave the contract without an owner, thereby removing any functionality that is only available to the owner."
      },
      "transferOwnership(address)": {
        "details": "Transfers ownership of the contract to a new account (`newOwner`). Can only be called by the current owner."
      }
    }
  },
  "userdoc": {
    "methods": {}
  }
}