{
  "contractName": "Vote",
  "abi": [
    {
      "inputs": [
        {
          "internalType": "address",
          "name": "_DeFiat_gov",
          "type": "address"
        },
        {
          "internalType": "uint256",
          "name": "_delayHours",
          "type": "uint256"
        },
        {
          "internalType": "uint256",
          "name": "_value",
          "type": "uint256"
        },
        {
          "internalType": "address",
          "name": "_votingPowerToken",
          "type": "address"
        },
        {
          "internalType": "address",
          "name": "_rewardToken",
          "type": "address"
        },
        {
          "internalType": "uint256",
          "name": "_rewardAmount",
          "type": "uint256"
        }
      ],
      "stateMutability": "nonpayable",
      "type": "constructor"
    },
    {
      "anonymous": false,
      "inputs": [
        {
          "indexed": false,
          "internalType": "address",
          "name": "_Defiat_Gov",
          "type": "address"
        },
        {
          "indexed": false,
          "internalType": "uint256",
          "name": "_expirationDate",
          "type": "uint256"
        },
        {
          "indexed": false,
          "internalType": "uint256",
          "name": "_value",
          "type": "uint256"
        },
        {
          "indexed": false,
          "internalType": "bytes32",
          "name": "_hash",
          "type": "bytes32"
        },
        {
          "indexed": false,
          "internalType": "string",
          "name": "_description",
          "type": "string"
        }
      ],
      "name": "voteStart",
      "type": "event"
    },
    {
      "inputs": [],
      "name": "DeFiat_gov",
      "outputs": [
        {
          "internalType": "address",
          "name": "",
          "type": "address"
        }
      ],
      "stateMutability": "view",
      "type": "function"
    },
    {
      "inputs": [],
      "name": "expirationDate",
      "outputs": [
        {
          "internalType": "uint256",
          "name": "",
          "type": "uint256"
        }
      ],
      "stateMutability": "view",
      "type": "function"
    },
    {
      "inputs": [],
      "name": "owner",
      "outputs": [
        {
          "internalType": "address",
          "name": "",
          "type": "address"
        }
      ],
      "stateMutability": "view",
      "type": "function"
    },
    {
      "inputs": [],
      "name": "rewardAmount",
      "outputs": [
        {
          "internalType": "uint256",
          "name": "",
          "type": "uint256"
        }
      ],
      "stateMutability": "view",
      "type": "function"
    },
    {
      "inputs": [],
      "name": "rewardToken",
      "outputs": [
        {
          "internalType": "address",
          "name": "",
          "type": "address"
        }
      ],
      "stateMutability": "view",
      "type": "function"
    },
    {
      "inputs": [],
      "name": "voteIsOpen",
      "outputs": [
        {
          "internalType": "bool",
          "name": "",
          "type": "bool"
        }
      ],
      "stateMutability": "view",
      "type": "function"
    },
    {
      "inputs": [],
      "name": "votedValue1",
      "outputs": [
        {
          "internalType": "uint256",
          "name": "",
          "type": "uint256"
        }
      ],
      "stateMutability": "view",
      "type": "function"
    },
    {
      "inputs": [
        {
          "internalType": "address",
          "name": "",
          "type": "address"
        }
      ],
      "name": "votes",
      "outputs": [
        {
          "internalType": "uint256",
          "name": "",
          "type": "uint256"
        }
      ],
      "stateMutability": "view",
      "type": "function"
    },
    {
      "inputs": [],
      "name": "votesNAY",
      "outputs": [
        {
          "internalType": "uint256",
          "name": "",
          "type": "uint256"
        }
      ],
      "stateMutability": "view",
      "type": "function"
    },
    {
      "inputs": [],
      "name": "votesYAY",
      "outputs": [
        {
          "internalType": "uint256",
          "name": "",
          "type": "uint256"
        }
      ],
      "stateMutability": "view",
      "type": "function"
    },
    {
      "inputs": [],
      "name": "votingPowerToken",
      "outputs": [
        {
          "internalType": "address",
          "name": "",
          "type": "address"
        }
      ],
      "stateMutability": "view",
      "type": "function"
    },
    {
      "inputs": [],
      "name": "activateDecision",
      "outputs": [],
      "stateMutability": "nonpayable",
      "type": "function"
    },
    {
      "inputs": [],
      "name": "voteYAY",
      "outputs": [],
      "stateMutability": "nonpayable",
      "type": "function"
    },
    {
      "inputs": [],
      "name": "voteNAY",
      "outputs": [],
      "stateMutability": "nonpayable",
      "type": "function"
    },
    {
      "inputs": [
        {
          "internalType": "bool",
          "name": "_open",
          "type": "bool"
        }
      ],
      "name": "forceVoteStatus",
      "outputs": [],
      "stateMutability": "nonpayable",
      "type": "function"
    }
  ],
  "bytecode": "0x608060405234801561001057600080fd5b5060405161147e38038061147e833981810160405260c081101561003357600080fd5b8101908080519060200190929190805190602001909291908051906020019092919080519060200190929190805190602001909291908051906020019092919050505085600160006101000a81548173ffffffffffffffffffffffffffffffffffffffff021916908373ffffffffffffffffffffffffffffffffffffffff16021790555084610e1002420160028190555081600960006101000a81548173ffffffffffffffffffffffffffffffffffffffff021916908373ffffffffffffffffffffffffffffffffffffffff16021790555080600a8190555082600860006101000a81548173ffffffffffffffffffffffffffffffffffffffff021916908373ffffffffffffffffffffffffffffffffffffffff160217905550336000806101000a81548173ffffffffffffffffffffffffffffffffffffffff021916908373ffffffffffffffffffffffffffffffffffffffff160217905550836003819055506001600460006101000a81548160ff02191690831515021790555060006002600160009054906101000a900473ffffffffffffffffffffffffffffffffffffffff1660025487604051602001808473ffffffffffffffffffffffffffffffffffffffff1673ffffffffffffffffffffffffffffffffffffffff1660601b815260140183815260200182815260200193505050506040516020818303038152906040526040518082805190602001908083835b602083106102695780518252602082019150602081019050602083039250610246565b6001836020036101000a038019825116818451168082178552505050505050905001915050602060405180830381855afa1580156102ab573d6000803e3d6000fd5b5050506040513d60208110156102c057600080fd5b810190808051906020019092919050505090507f64f619dc1eedaa76403f94ee1e98b1e6d87b03ce98b8fed22c5495399c6c9523600160009054906101000a900473ffffffffffffffffffffffffffffffffffffffff166002548784604051808573ffffffffffffffffffffffffffffffffffffffff1673ffffffffffffffffffffffffffffffffffffffff16815260200184815260200183815260200182815260200180602001828103825260158152602001807f50524f504f53414c20464f5220464545205241544500000000000000000000008152506020019550505050505060405180910390a1505050505050506110bd806103c16000396000f3fe608060405234801561001057600080fd5b50600436106100f55760003560e01c80638da5cb5b11610097578063e523aee411610066578063e523aee414610304578063eb8412ac1461030e578063f7b2a7be14610318578063f7c618c114610336576100f5565b80638da5cb5b146101fa5780638f62048714610244578063aa64532914610262578063d8bff5a5146102ac576100f5565b80632b0904ff116100d35780632b0904ff14610180578063369504e3146101b05780635e4e0350146101ce5780638a172b64146101d8576100f5565b8063122ae47c146100fa57806313a23d401461014457806318edfa8014610162575b600080fd5b610102610380565b604051808273ffffffffffffffffffffffffffffffffffffffff1673ffffffffffffffffffffffffffffffffffffffff16815260200191505060405180910390f35b61014c6103a6565b6040518082815260200191505060405180910390f35b61016a6103ac565b6040518082815260200191505060405180910390f35b6101ae6004803603602081101561019657600080fd5b810190808035151590602001909291905050506103b2565b005b6101b8610428565b6040518082815260200191505060405180910390f35b6101d661042e565b005b6101e0610641565b604051808215151515815260200191505060405180910390f35b610202610654565b604051808273ffffffffffffffffffffffffffffffffffffffff1673ffffffffffffffffffffffffffffffffffffffff16815260200191505060405180910390f35b61024c610679565b6040518082815260200191505060405180910390f35b61026a61067f565b604051808273ffffffffffffffffffffffffffffffffffffffff1673ffffffffffffffffffffffffffffffffffffffff16815260200191505060405180910390f35b6102ee600480360360208110156102c257600080fd5b81019080803573ffffffffffffffffffffffffffffffffffffffff1690602001909291905050506106a5565b6040518082815260200191505060405180910390f35b61030c6106bd565b005b610316610a25565b005b610320610d8d565b6040518082815260200191505060405180910390f35b61033e610d93565b604051808273ffffffffffffffffffffffffffffffffffffffff1673ffffffffffffffffffffffffffffffffffffffff16815260200191505060405180910390f35b600160009054906101000a900473ffffffffffffffffffffffffffffffffffffffff1681565b60035481565b60065481565b6000809054906101000a900473ffffffffffffffffffffffffffffffffffffffff1673ffffffffffffffffffffffffffffffffffffffff163373ffffffffffffffffffffffffffffffffffffffff161461040b57600080fd5b80600460006101000a81548160ff02191690831515021790555050565b60055481565b600654600554116104a7576040517f08c379a000000000000000000000000000000000000000000000000000000000815260040180806020018281038252600d8152602001807f566f74656420416761696e73740000000000000000000000000000000000000081525060200191505060405180910390fd5b426002541061051e576040517f08c379a00000000000000000000000000000000000000000000000000000000081526004018080602001828103825260148152602001807f566f74696e67207374696c6c206f6e676f696e6700000000000000000000000081525060200191505060405180910390fd5b4260025410610595576040517f08c379a00000000000000000000000000000000000000000000000000000000081526004018080602001828103825260148152602001807f566f74696e67207374696c6c206f6e676f696e6700000000000000000000000081525060200191505060405180910390fd5b6000600460006101000a81548160ff021916908315150217905550600160009054906101000a900473ffffffffffffffffffffffffffffffffffffffff1673ffffffffffffffffffffffffffffffffffffffff1663affca9326003546040518263ffffffff1660e01b815260040180828152602001915050600060405180830381600087803b15801561062757600080fd5b505af115801561063b573d6000803e3d6000fd5b50505050565b600460009054906101000a900460ff1681565b6000809054906101000a900473ffffffffffffffffffffffffffffffffffffffff1681565b60025481565b600860009054906101000a900473ffffffffffffffffffffffffffffffffffffffff1681565b60076020528060005260406000206000915090505481565b6001600460006101000a81548160ff0219169083151502179055610749576040517f08c379a00000000000000000000000000000000000000000000000000000000081526004018080602001828103825260108152602001807f566f7465206973206e6f74204f70656e0000000000000000000000000000000081525060200191505060405180910390fd5b42600254116107c0576040517f08c379a00000000000000000000000000000000000000000000000000000000081526004018080602001828103825260128152602001807f566f74696e67206861732065787069726564000000000000000000000000000081525060200191505060405180910390fd5b6000600760003373ffffffffffffffffffffffffffffffffffffffff1673ffffffffffffffffffffffffffffffffffffffff1681526020019081526020016000205414610875576040517f08c379a000000000000000000000000000000000000000000000000000000000815260040180806020018281038252600d8152602001807f416c726561647920566f7465640000000000000000000000000000000000000081525060200191505060405180910390fd5b6000600860009054906101000a900473ffffffffffffffffffffffffffffffffffffffff1673ffffffffffffffffffffffffffffffffffffffff166370a08231336040518263ffffffff1660e01b8152600401808273ffffffffffffffffffffffffffffffffffffffff1673ffffffffffffffffffffffffffffffffffffffff16815260200191505060206040518083038186803b15801561091657600080fd5b505afa15801561092a573d6000803e3d6000fd5b505050506040513d602081101561094057600080fd5b8101908080519060200190929190505050116109c4576040517f08c379a00000000000000000000000000000000000000000000000000000000081526004018080602001828103825260158152602001807f6f6e6c7920686f6c646572732063616e20766f7465000000000000000000000081525060200191505060405180910390fd5b43600760003373ffffffffffffffffffffffffffffffffffffffff1673ffffffffffffffffffffffffffffffffffffffff16815260200190815260200160002081905550610a10610db9565b60055401600581905550610a2333610eba565b565b6001600460006101000a81548160ff0219169083151502179055610ab1576040517f08c379a00000000000000000000000000000000000000000000000000000000081526004018080602001828103825260108152602001807f566f7465206973206e6f74204f70656e0000000000000000000000000000000081525060200191505060405180910390fd5b4260025411610b28576040517f08c379a00000000000000000000000000000000000000000000000000000000081526004018080602001828103825260128152602001807f566f74696e67206861732065787069726564000000000000000000000000000081525060200191505060405180910390fd5b6000600760003373ffffffffffffffffffffffffffffffffffffffff1673ffffffffffffffffffffffffffffffffffffffff1681526020019081526020016000205414610bdd576040517f08c379a000000000000000000000000000000000000000000000000000000000815260040180806020018281038252600d8152602001807f416c726561647920566f7465640000000000000000000000000000000000000081525060200191505060405180910390fd5b6000600860009054906101000a900473ffffffffffffffffffffffffffffffffffffffff1673ffffffffffffffffffffffffffffffffffffffff166370a08231336040518263ffffffff1660e01b8152600401808273ffffffffffffffffffffffffffffffffffffffff1673ffffffffffffffffffffffffffffffffffffffff16815260200191505060206040518083038186803b158015610c7e57600080fd5b505afa158015610c92573d6000803e3d6000fd5b505050506040513d6020811015610ca857600080fd5b810190808051906020019092919050505011610d2c576040517f08c379a00000000000000000000000000000000000000000000000000000000081526004018080602001828103825260158152602001807f6f6e6c7920686f6c646572732063616e20766f7465000000000000000000000081525060200191505060405180910390fd5b43600760003373ffffffffffffffffffffffffffffffffffffffff1673ffffffffffffffffffffffffffffffffffffffff16815260200190815260200160002081905550610d78610db9565b60065401600681905550610d8b33610eba565b565b600a5481565b600960009054906101000a900473ffffffffffffffffffffffffffffffffffffffff1681565b600080600860009054906101000a900473ffffffffffffffffffffffffffffffffffffffff1673ffffffffffffffffffffffffffffffffffffffff166370a08231336040518263ffffffff1660e01b8152600401808273ffffffffffffffffffffffffffffffffffffffff1673ffffffffffffffffffffffffffffffffffffffff16815260200191505060206040518083038186803b158015610e5b57600080fd5b505afa158015610e6f573d6000803e3d6000fd5b505050506040513d6020811015610e8557600080fd5b810190808051906020019092919050505090506000811115610ea657600190505b600a8110610eb357600a90505b8091505090565b600a54600960009054906101000a900473ffffffffffffffffffffffffffffffffffffffff1673ffffffffffffffffffffffffffffffffffffffff166370a08231306040518263ffffffff1660e01b8152600401808273ffffffffffffffffffffffffffffffffffffffff1673ffffffffffffffffffffffffffffffffffffffff16815260200191505060206040518083038186803b158015610f5c57600080fd5b505afa158015610f70573d6000803e3d6000fd5b505050506040513d6020811015610f8657600080fd5b81019080805190602001909291905050501061108457600960009054906101000a900473ffffffffffffffffffffffffffffffffffffffff1673ffffffffffffffffffffffffffffffffffffffff1663a9059cbb82600a546040518363ffffffff1660e01b8152600401808373ffffffffffffffffffffffffffffffffffffffff1673ffffffffffffffffffffffffffffffffffffffff16815260200182815260200192505050602060405180830381600087803b15801561104757600080fd5b505af115801561105b573d6000803e3d6000fd5b505050506040513d602081101561107157600080fd5b8101908080519060200190929190505050505b5056fea26469706673582212209b65d40bfbbaeea5ee17b7e55b0b33ad7fc080267af78105739f2dab366a86d964736f6c63430006060033",
  "immutableReferences": {},
  "source": "// SPDX-License-Identifier: stupid\n\n/*Readme:\nThis contract needs to be registered as a \"governor\" in the governing contract.\nBelow are the functions that can be used to generate a vote\n\n\nCOPY PASTE THESE \n//== SET EXTERNAL VARIABLES on the DeFiat_Gov contract ==  \n    function setActorLevel(address _address, uint256 _newLevel) external;\n    function changeBurnRate(uint _burnRate) external;\n    function changeFeeRate(uint _feeRate) external;\n    function setFeeDestination(address _nextDest) external;\n    \n//== SET EXTERNAL VARIABLES on the DeFiat_Points contract ==  \n    function setTxTreshold(uint _amount) external;\n    function overrideDiscount(address _address, uint256 _newDiscount) external;\n    function overrideLoyaltyPoints(address _address, uint256 _newPoints) external;\n    function setDiscountTranches(uint256 _tranche, uint256 _pointsNeeded) external;\n    }\n*/\n\n// SPDX-License-Identifier: stupid\n\npragma solidity ^0.6.0;\n\nimport \"./_Interfaces.sol\";\n//import \"https://raw.githubusercontent.com/OpenZeppelin/openzeppelin-contracts/master/contracts/token/ERC20/IERC20.sol\";\n//used to give tokens as rewards (tokens need to be loaded on the contract 1st)\n\ncontract Vote {\n\n    address public owner;\n    address public DeFiat_gov; //governance contract\n    uint256 public expirationDate;\n\n    uint256 public votedValue1;\n    //uint256 public votedValue2; //add as many as needed\n    //...\n\n    //uint256 public votedAddress; //if an address is required as input.\n\n    bool public voteIsOpen;\n    uint256 public votesYAY;\n    uint256 public votesNAY;\n    mapping (address => uint256) public votes; //votes (block.time)\n\n    address public votingPowerToken;\n    address public rewardToken;\n    uint256 public rewardAmount;\n\n    event voteStart(address _Defiat_Gov, uint256 _expirationDate, uint256 _value, bytes32 _hash, string _description);\n\n    modifier OnlyOwner() {\n        require(msg.sender == owner);\n        _;\n    }\n\n    modifier tokenHolder{\n        require(IERC20(votingPowerToken).balanceOf(msg.sender) >0, \"only holders can vote\");\n        _;\n    }\n\n    modifier VoteClosed() {\n        require(voteIsOpen != true, \"Vote is closed\");\n        _;\n    }\n\n    modifier VoteOpen() {\n        require(voteIsOpen = true, \"Vote is not Open\");\n        require(expirationDate > now, \"Voting has expired\");\n        _;\n    }\n\n    modifier CanVote()   {\n        require(votes[msg.sender] == 0, \"Already Voted\"); //block time has not been updated\n        _;\n    }\n\n    modifier VotePassed {\n        require(votesYAY > votesNAY, \"Voted Against\");\n        require(expirationDate < now, \"Voting still ongoing\");\n\n        _;\n    }\n\n\n// INITIALIZE\n    /*function setupTokens(address _votingPowerToken, address _rewardToken, uint256 _rewardAmount) external OnlyOwner {\n        rewardToken = _rewardToken;\n        rewardAmount = _rewardAmount;\n        votingPowerToken = _votingPowerToken;\n    }*/\n    constructor(address _DeFiat_gov, uint256 _delayHours, uint256 _value, \n    address _votingPowerToken, address _rewardToken, uint256 _rewardAmount) public {\n        DeFiat_gov = _DeFiat_gov;\n        expirationDate = now + (3600*_delayHours); //linux timestamp. No need for Safemath here.\n        \n        rewardToken = _rewardToken;\n        rewardAmount = _rewardAmount;\n        votingPowerToken = _votingPowerToken;\n        \n        \n        \n        owner = msg.sender;\n        //set variables (as many as needed)\n        votedValue1 = _value;\n        //...\n        //...\n        //...\n        \n        //opens vote\n        voteIsOpen = true; \n        bytes32 _hash = sha256(abi.encodePacked(DeFiat_gov, expirationDate, _value));\n        emit voteStart(DeFiat_gov, expirationDate,_value,  _hash, \"PROPOSAL FOR FEE RATE\");\n    }\n\n\n//1- define ACTIVATION function\n    function activateDecision() external VotePassed { //anybody can actovate this.\n        require(expirationDate < now, \"Voting still ongoing\");\n        \n        voteIsOpen = false; //close vote\n        \n        //activate function (copy paste the correct one)\n        IDeFiat_Gov(DeFiat_gov).changeFeeRate(votedValue1);\n    }\n\n//2- Gather votes\n    function voteYAY() external VoteOpen CanVote tokenHolder{ //this can \n        votes[msg.sender] = block.number; //registers voteNAY\n        votesYAY = votesYAY + myVotingPower(); //we can use external\n        _sendReward(msg.sender);\n    }\n    function voteNAY() external VoteOpen CanVote tokenHolder{\n        votes[msg.sender] = block.number; //registers voteNAY\n        votesNAY = votesNAY + myVotingPower();\n        _sendReward(msg.sender);\n    }\n\n//3- reward voters\n    function _sendReward(address _address) internal {\n       if(  IERC20(rewardToken).balanceOf(address(this)) >= rewardAmount){\n       IERC20(rewardToken ).transfer(_address, rewardAmount);}\n    } //rewards if enough in the pool\n    \n//0- Misc functions\n    function forceVoteStatus(bool _open) external OnlyOwner {\n        voteIsOpen = _open;\n    }\n\n    function myVotingPower() internal view returns(uint256) {\n        uint256 _power =  IERC20(votingPowerToken).balanceOf(msg.sender);\n        \n        if(_power > 0){_power = 1;} //need tokens to vote.\n        if(_power >= 10){_power = 10;} //max 10\n        \n        return _power;\n    }\n \n} //end contract",
  "sourcePath": "/Users/noahcoomer/source/defiat/defiat-contracts/contracts/Voting_contract.sol",
  "compiler": {
    "name": "solc",
    "version": "0.6.6+commit.6c089d02.Emscripten.clang"
  },
  "schemaVersion": "3.3.1",
  "updatedAt": "2020-10-21T12:13:36.664Z",
  "devdoc": {
    "methods": {}
  },
  "userdoc": {
    "methods": {}
  }
}