{
  "contractName": "AnyStake_Library",
  "abi": [
    {
      "inputs": [],
      "stateMutability": "nonpayable",
      "type": "constructor"
    },
    {
      "inputs": [],
      "name": "UNIfactory",
      "outputs": [
        {
          "internalType": "address",
          "name": "",
          "type": "address"
        }
      ],
      "stateMutability": "view",
      "type": "function"
    },
    {
      "inputs": [
        {
          "internalType": "address",
          "name": "_token",
          "type": "address"
        }
      ],
      "name": "getTokenInfo",
      "outputs": [
        {
          "internalType": "string",
          "name": "name",
          "type": "string"
        },
        {
          "internalType": "string",
          "name": "symbol",
          "type": "string"
        },
        {
          "internalType": "uint8",
          "name": "decimals",
          "type": "uint8"
        },
        {
          "internalType": "address",
          "name": "uniPair",
          "type": "address"
        },
        {
          "internalType": "uint256",
          "name": "tokensPerETH",
          "type": "uint256"
        }
      ],
      "stateMutability": "view",
      "type": "function"
    },
    {
      "inputs": [],
      "name": "kill",
      "outputs": [],
      "stateMutability": "nonpayable",
      "type": "function"
    },
    {
      "inputs": [
        {
          "internalType": "address",
          "name": "_address",
          "type": "address"
        },
        {
          "internalType": "bool",
          "name": "_bool",
          "type": "bool"
        }
      ],
      "name": "manageAllowed",
      "outputs": [],
      "stateMutability": "nonpayable",
      "type": "function"
    },
    {
      "inputs": [],
      "name": "owner",
      "outputs": [
        {
          "internalType": "address",
          "name": "",
          "type": "address"
        }
      ],
      "stateMutability": "view",
      "type": "function"
    },
    {
      "inputs": [
        {
          "internalType": "address",
          "name": "",
          "type": "address"
        }
      ],
      "name": "tokens",
      "outputs": [
        {
          "internalType": "string",
          "name": "name",
          "type": "string"
        },
        {
          "internalType": "string",
          "name": "symbol",
          "type": "string"
        },
        {
          "internalType": "uint8",
          "name": "decimals",
          "type": "uint8"
        },
        {
          "internalType": "uint256",
          "name": "spotPrice",
          "type": "uint256"
        },
        {
          "internalType": "bool",
          "name": "activated",
          "type": "bool"
        },
        {
          "internalType": "uint8",
          "name": "boost",
          "type": "uint8"
        }
      ],
      "stateMutability": "view",
      "type": "function"
    },
    {
      "inputs": [],
      "name": "wETHaddress",
      "outputs": [
        {
          "internalType": "address",
          "name": "",
          "type": "address"
        }
      ],
      "stateMutability": "view",
      "type": "function"
    },
    {
      "inputs": [
        {
          "internalType": "address",
          "name": "_token",
          "type": "address"
        }
      ],
      "name": "widthdrawAnyToken",
      "outputs": [
        {
          "internalType": "bool",
          "name": "",
          "type": "bool"
        }
      ],
      "stateMutability": "nonpayable",
      "type": "function"
    },
    {
      "inputs": [
        {
          "internalType": "address",
          "name": "_token",
          "type": "address"
        },
        {
          "internalType": "bool",
          "name": "_activated",
          "type": "bool"
        }
      ],
      "name": "addToken",
      "outputs": [],
      "stateMutability": "nonpayable",
      "type": "function"
    },
    {
      "inputs": [
        {
          "internalType": "address",
          "name": "_token",
          "type": "address"
        }
      ],
      "name": "removeToken",
      "outputs": [],
      "stateMutability": "nonpayable",
      "type": "function"
    },
    {
      "inputs": [],
      "name": "nbTokensAdded",
      "outputs": [
        {
          "internalType": "uint256",
          "name": "",
          "type": "uint256"
        }
      ],
      "stateMutability": "view",
      "type": "function"
    },
    {
      "inputs": [
        {
          "internalType": "address",
          "name": "_token",
          "type": "address"
        },
        {
          "internalType": "bool",
          "name": "_activated",
          "type": "bool"
        }
      ],
      "name": "manageActivation",
      "outputs": [],
      "stateMutability": "nonpayable",
      "type": "function"
    },
    {
      "inputs": [
        {
          "internalType": "address",
          "name": "_token",
          "type": "address"
        },
        {
          "internalType": "uint8",
          "name": "_boost",
          "type": "uint8"
        }
      ],
      "name": "manageBoost",
      "outputs": [],
      "stateMutability": "nonpayable",
      "type": "function"
    },
    {
      "inputs": [
        {
          "internalType": "uint256",
          "name": "_rank",
          "type": "uint256"
        }
      ],
      "name": "getTokenFromList",
      "outputs": [
        {
          "internalType": "string",
          "name": "name",
          "type": "string"
        },
        {
          "internalType": "string",
          "name": "symbol",
          "type": "string"
        },
        {
          "internalType": "uint8",
          "name": "decimals",
          "type": "uint8"
        },
        {
          "internalType": "uint256",
          "name": "spotPrice",
          "type": "uint256"
        },
        {
          "internalType": "bool",
          "name": "activated",
          "type": "bool"
        },
        {
          "internalType": "uint8",
          "name": "boost",
          "type": "uint8"
        }
      ],
      "stateMutability": "view",
      "type": "function"
    }
  ],
  "bytecode": "0x608060405234801561001057600080fd5b50600160008061002461012460201b60201c565b73ffffffffffffffffffffffffffffffffffffffff1673ffffffffffffffffffffffffffffffffffffffff16815260200190815260200160002060006101000a81548160ff021916908315150217905550735c69bee701ef814a2b6a3edd4b1652cb9cc5aa6f600160006101000a81548173ffffffffffffffffffffffffffffffffffffffff021916908373ffffffffffffffffffffffffffffffffffffffff16021790555073c02aaa39b223fe8d0a0e5c4f27ead9083c756cc2600260006101000a81548173ffffffffffffffffffffffffffffffffffffffff021916908373ffffffffffffffffffffffffffffffffffffffff16021790555061012c565b600033905090565b61251b8061013b6000396000f3fe608060405234801561001057600080fd5b50600436106100ea5760003560e01c806388fbd1f11161008c578063e486033911610066578063e486033914610595578063e550e073146106ea578063ec0b08001461073a578063f6252c711461078a576100ea565b806388fbd1f11461049e5780638da5cb5b146104fa578063cc97c8e314610544576100ea565b806341c0e1b5116100c857806341c0e1b5146103bc5780635fa7b584146103c657806367b52f541461040a5780636ffc7cf114610454576100ea565b80631f69565f146100ef578063385b10101461025f5780633f93020b1461039e575b600080fd5b6101316004803603602081101561010557600080fd5b81019080803573ffffffffffffffffffffffffffffffffffffffff1690602001909291905050506107da565b6040518080602001806020018660ff1660ff1681526020018573ffffffffffffffffffffffffffffffffffffffff1673ffffffffffffffffffffffffffffffffffffffff168152602001848152602001838103835288818151815260200191508051906020019080838360005b838110156101b957808201518184015260208101905061019e565b50505050905090810190601f1680156101e65780820380516001836020036101000a031916815260200191505b50838103825287818151815260200191508051906020019080838360005b8381101561021f578082015181840152602081019050610204565b50505050905090810190601f16801561024c5780820380516001836020036101000a031916815260200191505b5097505050505050505060405180910390f35b61028b6004803603602081101561027557600080fd5b8101908080359060200190929190505050610b06565b6040518080602001806020018760ff1660ff168152602001868152602001851515151581526020018460ff1660ff168152602001838103835289818151815260200191508051906020019080838360005b838110156102f75780820151818401526020810190506102dc565b50505050905090810190601f1680156103245780820380516001836020036101000a031916815260200191505b50838103825288818151815260200191508051906020019080838360005b8381101561035d578082015181840152602081019050610342565b50505050905090810190601f16801561038a5780820380516001836020036101000a031916815260200191505b509850505050505050505060405180910390f35b6103a6610e50565b6040518082815260200191505060405180910390f35b6103c4610e5d565b005b610408600480360360208110156103dc57600080fd5b81019080803573ffffffffffffffffffffffffffffffffffffffff169060200190929190505050610f49565b005b6104126110fb565b604051808273ffffffffffffffffffffffffffffffffffffffff1673ffffffffffffffffffffffffffffffffffffffff16815260200191505060405180910390f35b61045c611121565b604051808273ffffffffffffffffffffffffffffffffffffffff1673ffffffffffffffffffffffffffffffffffffffff16815260200191505060405180910390f35b6104e0600480360360208110156104b457600080fd5b81019080803573ffffffffffffffffffffffffffffffffffffffff169060200190929190505050611147565b604051808215151515815260200191505060405180910390f35b6105026112ee565b604051808273ffffffffffffffffffffffffffffffffffffffff1673ffffffffffffffffffffffffffffffffffffffff16815260200191505060405180910390f35b6105936004803603604081101561055a57600080fd5b81019080803573ffffffffffffffffffffffffffffffffffffffff169060200190929190803560ff169060200190929190505050611314565b005b6105d7600480360360208110156105ab57600080fd5b81019080803573ffffffffffffffffffffffffffffffffffffffff16906020019092919050505061143f565b6040518080602001806020018760ff1660ff168152602001868152602001851515151581526020018460ff1660ff168152602001838103835289818151815260200191508051906020019080838360005b83811015610643578082015181840152602081019050610628565b50505050905090810190601f1680156106705780820380516001836020036101000a031916815260200191505b50838103825288818151815260200191508051906020019080838360005b838110156106a957808201518184015260208101905061068e565b50505050905090810190601f1680156106d65780820380516001836020036101000a031916815260200191505b509850505050505050505060405180910390f35b6107386004803603604081101561070057600080fd5b81019080803573ffffffffffffffffffffffffffffffffffffffff1690602001909291908035151590602001909291905050506115d2565b005b6107886004803603604081101561075057600080fd5b81019080803573ffffffffffffffffffffffffffffffffffffffff1690602001909291908035151590602001909291905050506116fc565b005b6107d8600480360360408110156107a057600080fd5b81019080803573ffffffffffffffffffffffffffffffffffffffff169060200190929190803515159060200190929190505050611822565b005b60608060008060008573ffffffffffffffffffffffffffffffffffffffff166306fdde036040518163ffffffff1660e01b815260040160006040518083038186803b15801561082857600080fd5b505afa15801561083c573d6000803e3d6000fd5b505050506040513d6000823e3d601f19601f82011682018060405250602081101561086657600080fd5b810190808051604051939291908464010000000082111561088657600080fd5b8382019150602082018581111561089c57600080fd5b82518660018202830111640100000000821117156108b957600080fd5b8083526020830192505050908051906020019080838360005b838110156108ed5780820151818401526020810190506108d2565b50505050905090810190601f16801561091a5780820380516001836020036101000a031916815260200191505b506040525050508673ffffffffffffffffffffffffffffffffffffffff166395d89b416040518163ffffffff1660e01b815260040160006040518083038186803b15801561096757600080fd5b505afa15801561097b573d6000803e3d6000fd5b505050506040513d6000823e3d601f19601f8201168201806040525060208110156109a557600080fd5b81019080805160405193929190846401000000008211156109c557600080fd5b838201915060208201858111156109db57600080fd5b82518660018202830111640100000000821117156109f857600080fd5b8083526020830192505050908051906020019080838360005b83811015610a2c578082015181840152602081019050610a11565b50505050905090810190601f168015610a595780820380516001836020036101000a031916815260200191505b506040525050508773ffffffffffffffffffffffffffffffffffffffff1663313ce5676040518163ffffffff1660e01b815260040160206040518083038186803b158015610aa657600080fd5b505afa158015610aba573d6000803e3d6000fd5b505050506040513d6020811015610ad057600080fd5b8101908080519060200190929190505050610aea89611b78565b610af38a611cb1565b9450945094509450945091939590929450565b606080600080600080600060058881548110610b1e57fe5b9060005260206000200160009054906101000a900473ffffffffffffffffffffffffffffffffffffffff169050600460008273ffffffffffffffffffffffffffffffffffffffff1673ffffffffffffffffffffffffffffffffffffffff168152602001908152602001600020600001600460008373ffffffffffffffffffffffffffffffffffffffff1673ffffffffffffffffffffffffffffffffffffffff168152602001908152602001600020600101600460008473ffffffffffffffffffffffffffffffffffffffff1673ffffffffffffffffffffffffffffffffffffffff16815260200190815260200160002060020160009054906101000a900460ff16600460008573ffffffffffffffffffffffffffffffffffffffff1673ffffffffffffffffffffffffffffffffffffffff16815260200190815260200160002060030154600460008673ffffffffffffffffffffffffffffffffffffffff1673ffffffffffffffffffffffffffffffffffffffff16815260200190815260200160002060040160009054906101000a900460ff16600460008773ffffffffffffffffffffffffffffffffffffffff1673ffffffffffffffffffffffffffffffffffffffff16815260200190815260200160002060040160019054906101000a900460ff16858054600181600116156101000203166002900480601f016020809104026020016040519081016040528092919081815260200182805460018160011615610100020316600290048015610d975780601f10610d6c57610100808354040283529160200191610d97565b820191906000526020600020905b815481529060010190602001808311610d7a57829003601f168201915b50505050509550848054600181600116156101000203166002900480601f016020809104026020016040519081016040528092919081815260200182805460018160011615610100020316600290048015610e335780601f10610e0857610100808354040283529160200191610e33565b820191906000526020600020905b815481529060010190602001808311610e1657829003601f168201915b505050505094509650965096509650965096505091939550919395565b6000600580549050905090565b60011515600080610e6c611d02565b73ffffffffffffffffffffffffffffffffffffffff1673ffffffffffffffffffffffffffffffffffffffff16815260200190815260200160002060009054906101000a900460ff16151514610f29576040517f08c379a000000000000000000000000000000000000000000000000000000000815260040180806020018281038252600b8152602001807f6f6e6c79416c6c6f77656400000000000000000000000000000000000000000081525060200191505060405180910390fd5b610f31611d02565b73ffffffffffffffffffffffffffffffffffffffff16ff5b60011515600080610f58611d02565b73ffffffffffffffffffffffffffffffffffffffff1673ffffffffffffffffffffffffffffffffffffffff16815260200190815260200160002060009054906101000a900460ff16151514611015576040517f08c379a000000000000000000000000000000000000000000000000000000000815260040180806020018281038252600b8152602001807f6f6e6c79416c6c6f77656400000000000000000000000000000000000000000081525060200191505060405180910390fd5b6110208160006115d2565b600080600090505b611030610e50565b8110156110b3578273ffffffffffffffffffffffffffffffffffffffff166005828154811061105b57fe5b9060005260206000200160009054906101000a900473ffffffffffffffffffffffffffffffffffffffff1673ffffffffffffffffffffffffffffffffffffffff1614156110a6578091505b8080600101915050611028565b50600081146110f757600581815481106110c957fe5b9060005260206000200160006101000a81549073ffffffffffffffffffffffffffffffffffffffff02191690555b5050565b600160009054906101000a900473ffffffffffffffffffffffffffffffffffffffff1681565b600260009054906101000a900473ffffffffffffffffffffffffffffffffffffffff1681565b600060011515600080611158611d02565b73ffffffffffffffffffffffffffffffffffffffff1673ffffffffffffffffffffffffffffffffffffffff16815260200190815260200160002060009054906101000a900460ff16151514611215576040517f08c379a000000000000000000000000000000000000000000000000000000000815260040180806020018281038252600b8152602001807f6f6e6c79416c6c6f77656400000000000000000000000000000000000000000081525060200191505060405180910390fd5b60008273ffffffffffffffffffffffffffffffffffffffff166370a08231306040518263ffffffff1660e01b8152600401808273ffffffffffffffffffffffffffffffffffffffff1673ffffffffffffffffffffffffffffffffffffffff16815260200191505060206040518083038186803b15801561129457600080fd5b505afa1580156112a8573d6000803e3d6000fd5b505050506040513d60208110156112be57600080fd5b810190808051906020019092919050505090506112e36112dc611d02565b8483611d0a565b506001915050919050565b600360009054906101000a900473ffffffffffffffffffffffffffffffffffffffff1681565b60011515600080611323611d02565b73ffffffffffffffffffffffffffffffffffffffff1673ffffffffffffffffffffffffffffffffffffffff16815260200190815260200160002060009054906101000a900460ff161515146113e0576040517f08c379a000000000000000000000000000000000000000000000000000000000815260040180806020018281038252600b8152602001807f6f6e6c79416c6c6f77656400000000000000000000000000000000000000000081525060200191505060405180910390fd5b80600460008473ffffffffffffffffffffffffffffffffffffffff1673ffffffffffffffffffffffffffffffffffffffff16815260200190815260200160002060040160016101000a81548160ff021916908360ff1602179055505050565b6004602052806000526040600020600091509050806000018054600181600116156101000203166002900480601f0160208091040260200160405190810160405280929190818152602001828054600181600116156101000203166002900480156114eb5780601f106114c0576101008083540402835291602001916114eb565b820191906000526020600020905b8154815290600101906020018083116114ce57829003601f168201915b505050505090806001018054600181600116156101000203166002900480601f0160208091040260200160405190810160405280929190818152602001828054600181600116156101000203166002900480156115895780601f1061155e57610100808354040283529160200191611589565b820191906000526020600020905b81548152906001019060200180831161156c57829003601f168201915b5050505050908060020160009054906101000a900460ff16908060030154908060040160009054906101000a900460ff16908060040160019054906101000a900460ff16905086565b600115156000806115e1611d02565b73ffffffffffffffffffffffffffffffffffffffff1673ffffffffffffffffffffffffffffffffffffffff16815260200190815260200160002060009054906101000a900460ff1615151461169e576040517f08c379a000000000000000000000000000000000000000000000000000000000815260040180806020018281038252600b8152602001807f6f6e6c79416c6c6f77656400000000000000000000000000000000000000000081525060200191505060405180910390fd5b80600460008473ffffffffffffffffffffffffffffffffffffffff1673ffffffffffffffffffffffffffffffffffffffff16815260200190815260200160002060040160006101000a81548160ff0219169083151502179055505050565b6001151560008061170b611d02565b73ffffffffffffffffffffffffffffffffffffffff1673ffffffffffffffffffffffffffffffffffffffff16815260200190815260200160002060009054906101000a900460ff161515146117c8576040517f08c379a000000000000000000000000000000000000000000000000000000000815260040180806020018281038252600b8152602001807f6f6e6c79416c6c6f77656400000000000000000000000000000000000000000081525060200191505060405180910390fd5b806000808473ffffffffffffffffffffffffffffffffffffffff1673ffffffffffffffffffffffffffffffffffffffff16815260200190815260200160002060006101000a81548160ff0219169083151502179055505050565b60011515600080611831611d02565b73ffffffffffffffffffffffffffffffffffffffff1673ffffffffffffffffffffffffffffffffffffffff16815260200190815260200160002060009054906101000a900460ff161515146118ee576040517f08c379a000000000000000000000000000000000000000000000000000000000815260040180806020018281038252600b8152602001807f6f6e6c79416c6c6f77656400000000000000000000000000000000000000000081525060200191505060405180910390fd5b6118f7826107da565b9050600460008773ffffffffffffffffffffffffffffffffffffffff1673ffffffffffffffffffffffffffffffffffffffff1681526020019081526020016000206000016000600460008973ffffffffffffffffffffffffffffffffffffffff1673ffffffffffffffffffffffffffffffffffffffff1681526020019081526020016000206001016000600460008b73ffffffffffffffffffffffffffffffffffffffff1673ffffffffffffffffffffffffffffffffffffffff1681526020019081526020016000206002016000600460008d73ffffffffffffffffffffffffffffffffffffffff1673ffffffffffffffffffffffffffffffffffffffff168152602001908152602001600020600301600088919050558791906101000a81548160ff021916908360ff160217905550869190509080519060200190611a3e92919061241f565b50859190509080519060200190611a5692919061241f565b505050505080600460008473ffffffffffffffffffffffffffffffffffffffff1673ffffffffffffffffffffffffffffffffffffffff16815260200190815260200160002060040160006101000a81548160ff0219169083151502179055506064600460008473ffffffffffffffffffffffffffffffffffffffff1673ffffffffffffffffffffffffffffffffffffffff16815260200190815260200160002060040160016101000a81548160ff021916908360ff1602179055506005829080600181540180825580915050600190039060005260206000200160009091909190916101000a81548173ffffffffffffffffffffffffffffffffffffffff021916908373ffffffffffffffffffffffffffffffffffffffff1602179055505050565b6000600160009054906101000a900473ffffffffffffffffffffffffffffffffffffffff1673ffffffffffffffffffffffffffffffffffffffff1663e6a4390583600260009054906101000a900473ffffffffffffffffffffffffffffffffffffffff166040518363ffffffff1660e01b8152600401808373ffffffffffffffffffffffffffffffffffffffff1673ffffffffffffffffffffffffffffffffffffffff1681526020018273ffffffffffffffffffffffffffffffffffffffff1673ffffffffffffffffffffffffffffffffffffffff1681526020019250505060206040518083038186803b158015611c6f57600080fd5b505afa158015611c83573d6000803e3d6000fd5b505050506040513d6020811015611c9957600080fd5b81019080805190602001909291905050509050919050565b600080600080611cc085611dda565b8093508194505050611cd185612171565b9050611cf882611cea838661228990919063ffffffff16565b61230f90919063ffffffff16565b9350505050919050565b600033905090565b60008273ffffffffffffffffffffffffffffffffffffffff1663a9059cbb85846040518363ffffffff1660e01b8152600401808373ffffffffffffffffffffffffffffffffffffffff1673ffffffffffffffffffffffffffffffffffffffff16815260200182815260200192505050602060405180830381600087803b158015611d9357600080fd5b505af1158015611da7573d6000803e3d6000fd5b505050506040513d6020811015611dbd57600080fd5b810190808051906020019092919050505050600190509392505050565b6000806000611de884611b78565b905060008173ffffffffffffffffffffffffffffffffffffffff16630dfe16816040518163ffffffff1660e01b815260040160206040518083038186803b158015611e3257600080fd5b505afa158015611e46573d6000803e3d6000fd5b505050506040513d6020811015611e5c57600080fd5b8101908080519060200190929190505050905060008273ffffffffffffffffffffffffffffffffffffffff1663d21220a76040518163ffffffff1660e01b815260040160206040518083038186803b158015611eb757600080fd5b505afa158015611ecb573d6000803e3d6000fd5b505050506040513d6020811015611ee157600080fd5b81019080805190602001909291905050509050600260009054906101000a900473ffffffffffffffffffffffffffffffffffffffff1673ffffffffffffffffffffffffffffffffffffffff168273ffffffffffffffffffffffffffffffffffffffff161480611f9d5750600260009054906101000a900473ffffffffffffffffffffffffffffffffffffffff1673ffffffffffffffffffffffffffffffffffffffff168173ffffffffffffffffffffffffffffffffffffffff16145b611fa657600080fd5b600080600260009054906101000a900473ffffffffffffffffffffffffffffffffffffffff1673ffffffffffffffffffffffffffffffffffffffff168473ffffffffffffffffffffffffffffffffffffffff1614156120a2578473ffffffffffffffffffffffffffffffffffffffff16630902f1ac6040518163ffffffff1660e01b815260040160606040518083038186803b15801561204557600080fd5b505afa158015612059573d6000803e3d6000fd5b505050506040513d606081101561206f57600080fd5b81019080805190602001909291908051906020019092919080519060200190929190505050508093508192505050612141565b8473ffffffffffffffffffffffffffffffffffffffff16630902f1ac6040518163ffffffff1660e01b815260040160606040518083038186803b1580156120e857600080fd5b505afa1580156120fc573d6000803e3d6000fd5b505050506040513d606081101561211257600080fd5b810190808051906020019092919080519060200190929190805190602001909291905050505080925081935050505b816dffffffffffffffffffffffffffff16816dffffffffffffffffffffffffffff16965096505050505050915091565b6000808273ffffffffffffffffffffffffffffffffffffffff1663313ce5676040518163ffffffff1660e01b815260040160206040518083038186803b1580156121ba57600080fd5b505afa1580156121ce573d6000803e3d6000fd5b505050506040513d60208110156121e457600080fd5b8101908080519060200190929190505050905060128160ff161115612271576040517f08c379a000000000000000000000000000000000000000000000000000000000815260040180806020018281038252601c8152602001807f4f766572466c6f77207269736b2c206e6f7420737570706f727465640000000081525060200191505060405180910390fd5b60008160ff16602403905080600a0a92505050919050565b60008083141561229c5760009050612309565b60008284029050828482816122ad57fe5b0414612304576040517f08c379a00000000000000000000000000000000000000000000000000000000081526004018080602001828103825260218152602001806124c56021913960400191505060405180910390fd5b809150505b92915050565b600061235183836040518060400160405280601a81526020017f536166654d6174683a206469766973696f6e206279207a65726f000000000000815250612359565b905092915050565b60008083118290612405576040517f08c379a00000000000000000000000000000000000000000000000000000000081526004018080602001828103825283818151815260200191508051906020019080838360005b838110156123ca5780820151818401526020810190506123af565b50505050905090810190601f1680156123f75780820380516001836020036101000a031916815260200191505b509250505060405180910390fd5b50600083858161241157fe5b049050809150509392505050565b828054600181600116156101000203166002900490600052602060002090601f016020900481019282601f1061246057805160ff191683800117855561248e565b8280016001018555821561248e579182015b8281111561248d578251825591602001919060010190612472565b5b50905061249b919061249f565b5090565b6124c191905b808211156124bd5760008160009055506001016124a5565b5090565b9056fe536166654d6174683a206d756c7469706c69636174696f6e206f766572666c6f77a2646970667358221220ed9125b223bc26b7811c91ed6ad5714dc06995d56bda61571dd19cff61d3e43a64736f6c63430006060033",
  "immutableReferences": {},
  "source": "//SPDX-License-Identifier: stupid\n\n//Compiles and clean\n//needs to be tested on Rinkeby\n//needs front end integration (getters)\n\npragma solidity >= 0.6;\n\nlibrary SafeMath{\n    /**\n     * @dev Returns the addition of two unsigned integers, reverting on\n     * overflow.\n     *\n     * Counterpart to Solidity's `+` operator.\n     *\n     * Requirements:\n     * - Addition cannot overflow.\n     */\n    function add(uint256 a, uint256 b) internal pure returns (uint256) {\n        uint256 c = a + b;\n        require(c >= a, \"SafeMath: addition overflow\");\n\n        return c;\n    }\n\n    /**\n     * @dev Returns the subtraction of two unsigned integers, reverting on\n     * overflow (when the result is negative).\n     *\n     * Counterpart to Solidity's `-` operator.\n     *\n     * Requirements:\n     * - Subtraction cannot overflow.\n     */\n    function sub(uint256 a, uint256 b) internal pure returns (uint256) {\n        return sub(a, b, \"SafeMath: subtraction overflow\");\n    }\n\n    /**\n     * @dev Returns the subtraction of two unsigned integers, reverting with custom message on\n     * overflow (when the result is negative).\n     *\n     * Counterpart to Solidity's `-` operator.\n     *\n     * Requirements:\n     * - Subtraction cannot overflow.\n     *\n     * _Available since v2.4.0._\n     */\n    function sub(uint256 a, uint256 b, string memory errorMessage) internal pure returns (uint256) {\n        require(b <= a, errorMessage);\n        uint256 c = a - b;\n\n        return c;\n    }\n\n    /**\n     * @dev Returns the multiplication of two unsigned integers, reverting on\n     * overflow.\n     *\n     * Counterpart to Solidity's `*` operator.\n     *\n     * Requirements:\n     * - Multiplication cannot overflow.\n     */\n    function mul(uint256 a, uint256 b) internal pure returns (uint256) {\n        // Gas optimization: this is cheaper than requiring 'a' not being zero, but the\n        // benefit is lost if 'b' is also tested.\n        // See: https://github.com/OpenZeppelin/openzeppelin-contracts/pull/522\n        if (a == 0) {\n            return 0;\n        }\n\n        uint256 c = a * b;\n        require(c / a == b, \"SafeMath: multiplication overflow\");\n\n        return c;\n    }\n\n    /**\n     * @dev Returns the integer division of two unsigned integers. Reverts on\n     * division by zero. The result is rounded towards zero.\n     *\n     * Counterpart to Solidity's `/` operator. Note: this function uses a\n     * `revert` opcode (which leaves remaining gas untouched) while Solidity\n     * uses an invalid opcode to revert (consuming all remaining gas).\n     *\n     * Requirements:\n     * - The divisor cannot be zero.\n     */\n    function div(uint256 a, uint256 b) internal pure returns (uint256) {\n        return div(a, b, \"SafeMath: division by zero\");\n    }\n\n    /**\n     * @dev Returns the integer division of two unsigned integers. Reverts with custom message on\n     * division by zero. The result is rounded towards zero.\n     *\n     * Counterpart to Solidity's `/` operator. Note: this function uses a\n     * `revert` opcode (which leaves remaining gas untouched) while Solidity\n     * uses an invalid opcode to revert (consuming all remaining gas).\n     *\n     * Requirements:\n     * - The divisor cannot be zero.\n     *\n     * _Available since v2.4.0._\n     */\n    function div(uint256 a, uint256 b, string memory errorMessage) internal pure returns (uint256) {\n        // Solidity only automatically asserts when dividing by 0\n        require(b > 0, errorMessage);\n        uint256 c = a / b;\n        // assert(a == b * c + a % b); // There is no case in which this doesn't hold\n\n        return c;\n    }\n\n    /**\n     * @dev Returns the remainder of dividing two unsigned integers. (unsigned integer modulo),\n     * Reverts when dividing by zero.\n     *\n     * Counterpart to Solidity's `%` operator. This function uses a `revert`\n     * opcode (which leaves remaining gas untouched) while Solidity uses an\n     * invalid opcode to revert (consuming all remaining gas).\n     *\n     * Requirements:\n     * - The divisor cannot be zero.\n     */\n    function mod(uint256 a, uint256 b) internal pure returns (uint256) {\n        return mod(a, b, \"SafeMath: modulo by zero\");\n    }\n\n    /**\n     * @dev Returns the remainder of dividing two unsigned integers. (unsigned integer modulo),\n     * Reverts with custom message when dividing by zero.\n     *\n     * Counterpart to Solidity's `%` operator. This function uses a `revert`\n     * opcode (which leaves remaining gas untouched) while Solidity uses an\n     * invalid opcode to revert (consuming all remaining gas).\n     *\n     * Requirements:\n     * - The divisor cannot be zero.\n     *\n     * _Available since v2.4.0._\n     */\n    function mod(uint256 a, uint256 b, string memory errorMessage) internal pure returns (uint256) {\n        require(b != 0, errorMessage);\n        return a % b;\n    }\n    \n        /**\n     * @dev Returns the largest of two numbers.\n     */\n    function max(uint256 a, uint256 b) internal pure returns (uint256) {\n        return a >= b ? a : b;\n    }\n\n    /**\n     * @dev Returns the smallest of two numbers.\n     */\n    function min(uint256 a, uint256 b) internal pure returns (uint256) {\n        return a < b ? a : b;\n    }\n\n    /**\n     * @dev Returns the average of two numbers. The result is rounded towards\n     * zero.\n     */\n    function average(uint256 a, uint256 b) internal pure returns (uint256) {\n        // (a + b) / 2 can overflow, so we distribute\n        return (a / 2) + (b / 2) + ((a % 2 + b % 2) / 2);\n    }\n}\nlibrary Address {\n    /**\n     * @dev Returns true if `account` is a contract.\n     *\n     * This test is non-exhaustive, and there may be false-negatives: during the\n     * execution of a contract's constructor, its address will be reported as\n     * not containing a contract.\n     *\n     * IMPORTANT: It is unsafe to assume that an address for which this\n     * function returns false is an externally-owned account (EOA) and not a\n     * contract.\n     */\n    function isContract(address account) internal view returns (bool) {\n        // This method relies in extcodesize, which returns 0 for contracts in\n        // construction, since the code is only stored at the end of the\n        // constructor execution.\n\n        // According to EIP-1052, 0x0 is the value returned for not-yet created accounts\n        // and 0xc5d2460186f7233c927e7db2dcc703c0e500b653ca82273b7bfad8045d85a470 is returned\n        // for accounts without code, i.e. `keccak256('')`\n        bytes32 codehash;\n        bytes32 accountHash = 0xc5d2460186f7233c927e7db2dcc703c0e500b653ca82273b7bfad8045d85a470;\n        // solhint-disable-next-line no-inline-assembly\n        assembly { codehash := extcodehash(account) }\n        return (codehash != 0x0 && codehash != accountHash);\n    }\n\n    /**\n     * @dev Converts an `address` into `address payable`. Note that this is\n     * simply a type cast: the actual underlying value is not changed.\n     *\n     * _Available since v2.4.0._\n     */\n    function toPayable(address account) internal pure returns (address payable) {\n        return address(uint160(account));\n    }\n\n    /**\n     * @dev Replacement for Solidity's `transfer`: sends `amount` wei to\n     * `recipient`, forwarding all available gas and reverting on errors.\n     *\n     * https://eips.ethereum.org/EIPS/eip-1884[EIP1884] increases the gas cost\n     * of certain opcodes, possibly making contracts go over the 2300 gas limit\n     * imposed by `transfer`, making them unable to receive funds via\n     * `transfer`. {sendValue} removes this limitation.\n     *\n     * https://diligence.consensys.net/posts/2019/09/stop-using-soliditys-transfer-now/[Learn more].\n     *\n     * IMPORTANT: because control is transferred to `recipient`, care must be\n     * taken to not create reentrancy vulnerabilities. Consider using\n     * {ReentrancyGuard} or the\n     * https://solidity.readthedocs.io/en/v0.5.11/security-considerations.html#use-the-checks-effects-interactions-pattern[checks-effects-interactions pattern].\n     *\n     * _Available since v2.4.0._\n     */\n    function sendValue(address payable recipient, uint256 amount) internal {\n        require(address(this).balance >= amount, \"Address: insufficient balance\");\n\n        // solhint-disable-next-line avoid-call-value\n        (bool success, ) = recipient.call.value(amount)(\"\");\n        require(success, \"Address: unable to send value, recipient may have reverted\");\n    }\n} // File: @openzeppelin/contracts/utils/Address.sol\ninterface IERC20 {\n    /**\n     * @dev Returns the amount of tokens in existence.\n     */\n    function name() external view returns (string memory);\n    function symbol() external view returns (string memory);\n    function decimals() external view returns (uint8);\n\n    \n    function totalSupply() external view returns (uint256);\n\n    /**\n     * @dev Returns the amount of tokens owned by `account`.\n     */\n    function balanceOf(address account) external view returns (uint256);\n\n    /**\n     * @dev Moves `amount` tokens from the caller's account to `recipient`.\n     *\n     * Returns a boolean value indicating whether the operation succeeded.\n     *\n     * Emits a {Transfer} event.\n     */\n    function transfer(address recipient, uint256 amount) external returns (bool);\n\n    /**\n     * @dev Returns the remaining number of tokens that `spender` will be\n     * allowed to spend on behalf of `owner` through {transferFrom}. This is\n     * zero by default.\n     *\n     * This value changes when {approve} or {transferFrom} are called.\n     */\n    function allowance(address owner, address spender) external view returns (uint256);\n\n    /**\n     * @dev Sets `amount` as the allowance of `spender` over the caller's tokens.\n     *\n     * Returns a boolean value indicating whether the operation succeeded.\n     *\n     * IMPORTANT: Beware that changing an allowance with this method brings the risk\n     * that someone may use both the old and the new allowance by unfortunate\n     * transaction ordering. One possible solution to mitigate this race\n     * condition is to first reduce the spender's allowance to 0 and set the\n     * desired value afterwards:\n     * https://github.com/ethereum/EIPs/issues/20#issuecomment-263524729\n     *\n     * Emits an {Approval} event.\n     */\n    function approve(address spender, uint256 amount) external returns (bool);\n\n    /**\n     * @dev Moves `amount` tokens from `sender` to `recipient` using the\n     * allowance mechanism. `amount` is then deducted from the caller's\n     * allowance.\n     *\n     * Returns a boolean value indicating whether the operation succeeded.\n     *\n     * Emits a {Transfer} event.\n     */\n    function transferFrom(address sender, address recipient, uint256 amount) external returns (bool);\n\n    /**\n     * @dev Emitted when `value` tokens are moved from one account (`from`) to\n     * another (`to`).\n     *\n     * Note that `value` may be zero.\n     */\n    event Transfer(address indexed from, address indexed to, uint256 value);\n\n    /**\n     * @dev Emitted when the allowance of a `spender` for an `owner` is set by\n     * a call to {approve}. `value` is the new allowance.\n     */\n    event Approval(address indexed owner, address indexed spender, uint256 value);\n}\ninterface IUniswapV2Factory {\n    function getPair(address tokenA, address tokenB) external view returns (address pair);\n    function allPairs(uint) external view returns (address pair);\n    function allPairsLength() external view returns (uint);\n}\ninterface IUniswapV2Pair {\n\n    function factory() external view returns (address);\n    function token0() external view returns (address);\n    function token1() external view returns (address);\n    function getReserves() external view returns (uint112 reserve0, uint112 reserve1, uint32 blockTimestampLast);\n    function price0CumulativeLast() external view returns (uint);\n    function price1CumulativeLast() external view returns (uint);\n    \n}\ncontract Context {\n    // Empty internal constructor, to prevent people from mistakenly deploying\n    // an instance of this contract, which should be used via inheritance.\n    constructor () internal { }\n    // solhint-disable-previous-line no-empty-blocks\n\n    function _msgSender() internal view returns (address payable) {\n        return msg.sender;\n    }\n\n    function _msgData() internal view returns (bytes memory) {\n        this; // silence state mutability warning without generating bytecode - see https://github.com/ethereum/solidity/issues/2691\n        return msg.data;\n    }\n} // File: @openzeppelin/contracts/GSN/Context.sol\n\ncontract Allowable is Context {\n        \n    mapping(address => bool) allowed;\n    \n    modifier onlyAllowed() {\n        require(allowed[_msgSender()] == true, \"onlyAllowed\");\n        _;\n    }\n    function manageAllowed(address _address, bool _bool) public onlyAllowed {\n        allowed[_address] = _bool;\n    }\n    \n}\ncontract ERC20_Utils is Allowable{\n    //ERC20_utils  \n    function widthdrawAnyToken(address _token) external onlyAllowed returns (bool) {\n        uint256 _amount = IERC20(_token).balanceOf(address(this));\n        _widthdrawAnyToken(_msgSender(), _token, _amount);\n        return true;\n    } //get tokens sent by error to contract\n    function _widthdrawAnyToken(address _recipient, address _ERC20address, uint256 _amount) internal returns (bool) {\n        IERC20(_ERC20address).transfer(_recipient, _amount); //use of the _ERC20 traditional transfer\n        return true;\n    } //get tokens sent by error\n    function kill() public onlyAllowed{\n            selfdestruct(_msgSender());\n        } //frees space on the ETH chain\n}\ncontract Any_Price is ERC20_Utils{\n    using SafeMath for uint112;\n    using SafeMath for uint256;\n    \n    address public UNIfactory;\n    address public wETHaddress;\n    address public owner;\n \n\n    function getUNIpair(address _token) internal view returns(address) {\n        return IUniswapV2Factory(UNIfactory).getPair(_token, wETHaddress);\n    }\n    function _getUint256Reserves(address _token) internal view returns(uint256 rToken, uint256 rWETH) {\n        address _UNIpair = getUNIpair(_token);\n                \n        address _token0 = IUniswapV2Pair(_UNIpair).token0(); \n        address _token1 = IUniswapV2Pair(_UNIpair).token1(); \n        require(_token0 == wETHaddress || _token1 == wETHaddress);\n        \n        uint112 _rTKN; uint112 _rWETH;\n        \n        if(_token0 == wETHaddress) {\n        (_rWETH, _rTKN, ) = IUniswapV2Pair(_UNIpair).getReserves(); //returns r0, r1, time\n        }\n        else {\n        (_rTKN, _rWETH, ) = IUniswapV2Pair(_UNIpair).getReserves();\n        }\n        \n        return (uint256(_rTKN),uint256(_rWETH)); //price in gwei, needs to be corrected by nb of decimals of _token\n         //price of 1 token in GWEI\n    }  \n    \n    function adjuster(address _token) internal view returns(uint256) {\n        uint8 _decimals = IERC20(_token).decimals();\n        require(_decimals <= 18,\"OverFlow risk, not supported\");\n        uint256 _temp = 36 - uint256(_decimals);\n        return 10**_temp;\n    }\n    \n    function getUNIprice(address _token) internal view returns(uint) {\n\n        uint256 rToken; uint256 rWETH; uint256 _adjuster;\n        (rToken, rWETH) = _getUint256Reserves(_token);\n        _adjuster = adjuster(_token);\n        \n\n        return ( (rToken).mul(_adjuster) ).div(rWETH);       //IN GWEI\n    }\n    \n    function getTokenInfo(address _token) public view returns(\n        string memory name, string memory symbol, uint8 decimals, address uniPair, uint256 tokensPerETH) {\n        return(\n            IERC20(_token).name(), \n            IERC20(_token).symbol(), \n            IERC20(_token).decimals(), \n            getUNIpair(_token), \n            getUNIprice(_token)\n            ); //normalized as if every token is 18 decimals\n    }\n}\n\ncontract AnyStake_Library is Any_Price {\n    \n    using SafeMath for uint256;\n    using Address for address;\n\n    struct Token {\n        string name;\n        string symbol;\n        uint8 decimals; \n        uint256 spotPrice;\n        bool activated; \n        uint8 boost;\n    }\n    mapping(address => Token) public tokens;\n    address[] tokenList;\n    \n    constructor() public {\n        allowed[_msgSender()] = true;\n\n        UNIfactory = address(0x5C69bEe701ef814a2B6a3EDD4B1652CB9cc5aA6f); //mainnet \n        //0x5C69bEe701ef814a2B6a3EDD4B1652CB9cc5aA6f; MAINNET ETH\n        \n       wETHaddress = address(0xC02aaA39b223FE8D0A0e5C4F27eAD9083C756Cc2); //mainnet \n        //0xC02aaA39b223FE8D0A0e5C4F27eAD9083C756Cc2; MAINNET ETH\n    }\n    \n//getters for AnyStake are in Any_Price\n\n//Token Library Management\n    \n    function addToken(address _token, bool _activated) public onlyAllowed {\n       \n    //mapping update\n        (tokens[_token].name,\n        tokens[_token].symbol,\n        tokens[_token].decimals,\n        ,\n        tokens[_token].spotPrice)\n        = getTokenInfo(_token);\n        \n        tokens[_token].activated = _activated;\n        tokens[_token].boost = 100; //no boost\n        \n    //array update\n        tokenList.push(_token);\n    }\n    \n    function removeToken(address _token) public onlyAllowed {\n        manageActivation(_token, false);\n        \n        //find _token and delete array entry\n        uint256 _rank;\n        for(uint i=0;i<nbTokensAdded(); i++){\n            if(tokenList[i] == _token){_rank = i;}\n        }\n        if(_rank !=0){delete tokenList[_rank];}\n        \n        \n    }\n\n    function nbTokensAdded() public view returns(uint256) {\n        return tokenList.length;\n    }\n    \n    function manageActivation(address _token, bool _activated) public onlyAllowed {\n        tokens[_token].activated = _activated;\n    }\n    \n   function manageBoost(address _token, uint8 _boost) public onlyAllowed {\n        tokens[_token].boost = _boost;\n    }\n    \n    function getTokenFromList(uint256 _rank) public view returns(\n        string memory name, string memory symbol, uint8 decimals, uint256 spotPrice, bool activated, uint8 boost) {\n            \n            address _token = tokenList[_rank];\n            return(\n                tokens[_token].name,\n                tokens[_token].symbol,\n                tokens[_token].decimals,\n                tokens[_token].spotPrice,\n                tokens[_token].activated,\n                tokens[_token].boost);\n        }\n  \n    \n}\n",
  "sourcePath": "/Users/noahcoomer/source/defiat/contracts/AnyStake_Library.sol",
  "compiler": {
    "name": "solc",
    "version": "0.6.6+commit.6c089d02.Emscripten.clang"
  },
  "schemaVersion": "3.2.3",
  "updatedAt": "2020-09-24T15:43:47.881Z",
  "devdoc": {
    "methods": {}
  },
  "userdoc": {
    "methods": {}
  }
}