{
  "contractName": "DeFiat_Farming_v7",
  "abi": [
    {
      "inputs": [
        {
          "internalType": "address",
          "name": "_stakedToken",
          "type": "address"
        },
        {
          "internalType": "address",
          "name": "_rewardToken",
          "type": "address"
        },
        {
          "internalType": "uint256",
          "name": "_feeBase1000",
          "type": "uint256"
        },
        {
          "internalType": "uint256",
          "name": "_durationHours",
          "type": "uint256"
        },
        {
          "internalType": "uint256",
          "name": "_delayStartHours",
          "type": "uint256"
        }
      ],
      "stateMutability": "nonpayable",
      "type": "constructor"
    },
    {
      "anonymous": false,
      "inputs": [
        {
          "indexed": false,
          "internalType": "uint256",
          "name": "amountAdded",
          "type": "uint256"
        },
        {
          "indexed": false,
          "internalType": "string",
          "name": "_desc",
          "type": "string"
        }
      ],
      "name": "PoolInitalized",
      "type": "event"
    },
    {
      "anonymous": false,
      "inputs": [
        {
          "indexed": true,
          "internalType": "address",
          "name": "user",
          "type": "address"
        },
        {
          "indexed": false,
          "internalType": "uint256",
          "name": "reward",
          "type": "uint256"
        },
        {
          "indexed": false,
          "internalType": "string",
          "name": "_desc",
          "type": "string"
        }
      ],
      "name": "RewardTaken",
      "type": "event"
    },
    {
      "anonymous": false,
      "inputs": [
        {
          "indexed": true,
          "internalType": "address",
          "name": "user",
          "type": "address"
        },
        {
          "indexed": false,
          "internalType": "uint256",
          "name": "amount",
          "type": "uint256"
        },
        {
          "indexed": false,
          "internalType": "string",
          "name": "_desc",
          "type": "string"
        }
      ],
      "name": "userStaking",
      "type": "event"
    },
    {
      "anonymous": false,
      "inputs": [
        {
          "indexed": true,
          "internalType": "address",
          "name": "user",
          "type": "address"
        },
        {
          "indexed": false,
          "internalType": "uint256",
          "name": "amount",
          "type": "uint256"
        },
        {
          "indexed": false,
          "internalType": "string",
          "name": "_desc",
          "type": "string"
        }
      ],
      "name": "userWithdrawal",
      "type": "event"
    },
    {
      "inputs": [],
      "name": "FullRewards",
      "outputs": [
        {
          "internalType": "bool",
          "name": "",
          "type": "bool"
        }
      ],
      "stateMutability": "view",
      "type": "function"
    },
    {
      "inputs": [],
      "name": "poolMetrics",
      "outputs": [
        {
          "internalType": "address",
          "name": "stakedToken",
          "type": "address"
        },
        {
          "internalType": "uint256",
          "name": "staked",
          "type": "uint256"
        },
        {
          "internalType": "uint256",
          "name": "stakingFee",
          "type": "uint256"
        },
        {
          "internalType": "uint256",
          "name": "stakingPoints",
          "type": "uint256"
        },
        {
          "internalType": "address",
          "name": "rewardToken",
          "type": "address"
        },
        {
          "internalType": "uint256",
          "name": "rewards",
          "type": "uint256"
        },
        {
          "internalType": "uint256",
          "name": "startTime",
          "type": "uint256"
        },
        {
          "internalType": "uint256",
          "name": "closingTime",
          "type": "uint256"
        },
        {
          "internalType": "uint256",
          "name": "duration",
          "type": "uint256"
        },
        {
          "internalType": "uint256",
          "name": "lastEvent",
          "type": "uint256"
        },
        {
          "internalType": "uint256",
          "name": "ratePerToken",
          "type": "uint256"
        }
      ],
      "stateMutability": "view",
      "type": "function"
    },
    {
      "inputs": [],
      "name": "poolOperator",
      "outputs": [
        {
          "internalType": "address",
          "name": "",
          "type": "address"
        }
      ],
      "stateMutability": "view",
      "type": "function"
    },
    {
      "inputs": [
        {
          "internalType": "address",
          "name": "",
          "type": "address"
        }
      ],
      "name": "userMetrics",
      "outputs": [
        {
          "internalType": "uint256",
          "name": "stake",
          "type": "uint256"
        },
        {
          "internalType": "uint256",
          "name": "stakingPoints",
          "type": "uint256"
        },
        {
          "internalType": "uint256",
          "name": "lastEvent",
          "type": "uint256"
        },
        {
          "internalType": "uint256",
          "name": "rewardAccrued",
          "type": "uint256"
        },
        {
          "internalType": "uint256",
          "name": "rewardsPaid",
          "type": "uint256"
        },
        {
          "internalType": "uint256",
          "name": "lastTxBlock",
          "type": "uint256"
        }
      ],
      "stateMutability": "view",
      "type": "function"
    },
    {
      "inputs": [],
      "name": "currentTime",
      "outputs": [
        {
          "internalType": "uint256",
          "name": "",
          "type": "uint256"
        }
      ],
      "stateMutability": "view",
      "type": "function"
    },
    {
      "inputs": [],
      "name": "viewPoolPoints",
      "outputs": [
        {
          "internalType": "uint256",
          "name": "",
          "type": "uint256"
        }
      ],
      "stateMutability": "view",
      "type": "function"
    },
    {
      "inputs": [
        {
          "internalType": "address",
          "name": "_address",
          "type": "address"
        }
      ],
      "name": "viewPointsOf",
      "outputs": [
        {
          "internalType": "uint256",
          "name": "",
          "type": "uint256"
        }
      ],
      "stateMutability": "view",
      "type": "function"
    },
    {
      "inputs": [],
      "name": "takeRewards",
      "outputs": [],
      "stateMutability": "nonpayable",
      "type": "function"
    },
    {
      "inputs": [
        {
          "internalType": "uint256",
          "name": "_amount",
          "type": "uint256"
        }
      ],
      "name": "stake",
      "outputs": [],
      "stateMutability": "nonpayable",
      "type": "function"
    },
    {
      "inputs": [
        {
          "internalType": "uint256",
          "name": "amount",
          "type": "uint256"
        }
      ],
      "name": "unStake",
      "outputs": [],
      "stateMutability": "nonpayable",
      "type": "function"
    },
    {
      "inputs": [],
      "name": "myStake",
      "outputs": [
        {
          "internalType": "uint256",
          "name": "",
          "type": "uint256"
        }
      ],
      "stateMutability": "view",
      "type": "function"
    },
    {
      "inputs": [],
      "name": "myStakeShare",
      "outputs": [
        {
          "internalType": "uint256",
          "name": "",
          "type": "uint256"
        }
      ],
      "stateMutability": "view",
      "type": "function"
    },
    {
      "inputs": [],
      "name": "myRewards",
      "outputs": [
        {
          "internalType": "uint256",
          "name": "",
          "type": "uint256"
        }
      ],
      "stateMutability": "view",
      "type": "function"
    },
    {
      "inputs": [
        {
          "internalType": "address",
          "name": "_address",
          "type": "address"
        }
      ],
      "name": "setPoolOperator",
      "outputs": [],
      "stateMutability": "nonpayable",
      "type": "function"
    },
    {
      "inputs": [
        {
          "internalType": "bool",
          "name": "_bool",
          "type": "bool"
        }
      ],
      "name": "setFullRewards",
      "outputs": [],
      "stateMutability": "nonpayable",
      "type": "function"
    },
    {
      "inputs": [
        {
          "internalType": "uint256",
          "name": "_amount",
          "type": "uint256"
        }
      ],
      "name": "loadRewards",
      "outputs": [],
      "stateMutability": "nonpayable",
      "type": "function"
    },
    {
      "inputs": [
        {
          "internalType": "uint256",
          "name": "_fee",
          "type": "uint256"
        }
      ],
      "name": "setFee",
      "outputs": [],
      "stateMutability": "nonpayable",
      "type": "function"
    },
    {
      "inputs": [
        {
          "internalType": "address",
          "name": "_recipient",
          "type": "address"
        },
        {
          "internalType": "address",
          "name": "_ERC20address",
          "type": "address"
        }
      ],
      "name": "flushPool",
      "outputs": [],
      "stateMutability": "nonpayable",
      "type": "function"
    },
    {
      "inputs": [],
      "name": "killPool",
      "outputs": [],
      "stateMutability": "nonpayable",
      "type": "function"
    }
  ],
  "bytecode": "0x60806040523480156200001157600080fd5b5060405162002f0738038062002f07833981810160405260a08110156200003757600080fd5b81019080805190602001909291908051906020019092919080519060200190929190805190602001909291908051906020019092919050505033600c60006101000a81548173ffffffffffffffffffffffffffffffffffffffff021916908373ffffffffffffffffffffffffffffffffffffffff160217905550846000800160006101000a81548173ffffffffffffffffffffffffffffffffffffffff021916908373ffffffffffffffffffffffffffffffffffffffff16021790555083600060040160006101000a81548173ffffffffffffffffffffffffffffffffffffffff021916908373ffffffffffffffffffffffffffffffffffffffff160217905550826000600201819055506200015e610e1083620001c560201b620026dc1790919060201c565b60006008018190555062000183610e1082620001c560201b620026dc1790919060201c565b420160006006018190555060006008015442016000600701819055506001600c60146101000a81548160ff021916908315150217905550505050505062000250565b600080831415620001da57600090506200024a565b6000828402905082848281620001ec57fe5b041462000245576040517f08c379a000000000000000000000000000000000000000000000000000000000815260040180806020018281038252602181526020018062002ee66021913960400191505060405180910390fd5b809150505b92915050565b612c8680620002606000396000f3fe608060405234801561001057600080fd5b50600436106101215760003560e01c80637e44010b116100ad578063cf604bc911610071578063cf604bc9146103d9578063d18e81b314610423578063d745d3cf14610441578063f62849be14610471578063fcecc4df1461049f57610121565b80637e44010b146102b3578063955cdfb1146102d15780639e05da6a146102ef578063a694fc3a14610347578063bb2c25561461037557610121565b80635d3eea91116100f45780635d3eea9114610221578063682c93c01461024f57806369fe0e2d146102715780637a39b8d81461029f5780637adaa21a146102a957610121565b80631f227e481461012657806335ad1e03146101a157806342a7afe2146101e55780635c6187aa14610203575b600080fd5b6101686004803603602081101561013c57600080fd5b81019080803573ffffffffffffffffffffffffffffffffffffffff16906020019092919050505061055b565b60405180878152602001868152602001858152602001848152602001838152602001828152602001965050505050505060405180910390f35b6101e3600480360360208110156101b757600080fd5b81019080803573ffffffffffffffffffffffffffffffffffffffff169060200190929190505050610597565b005b6101ed6106fb565b6040518082815260200191505060405180910390f35b61020b610774565b6040518082815260200191505060405180910390f35b61024d6004803603602081101561023757600080fd5b81019080803590602001909291905050506107e6565b005b610257610d01565b604051808215151515815260200191505060405180910390f35b61029d6004803603602081101561028757600080fd5b8101908080359060200190929190505050610d14565b005b6102a7610dc7565b005b6102b1610f00565b005b6102bb61132e565b6040518082815260200191505060405180910390f35b6102d96113a4565b6040518082815260200191505060405180910390f35b6103316004803603602081101561030557600080fd5b81019080803573ffffffffffffffffffffffffffffffffffffffff1690602001909291905050506113ee565b6040518082815260200191505060405180910390f35b6103736004803603602081101561035d57600080fd5b8101908080359060200190929190505050611536565b005b6103d76004803603604081101561038b57600080fd5b81019080803573ffffffffffffffffffffffffffffffffffffffff169060200190929190803573ffffffffffffffffffffffffffffffffffffffff169060200190929190505050611d25565b005b6103e1611fc9565b604051808273ffffffffffffffffffffffffffffffffffffffff1673ffffffffffffffffffffffffffffffffffffffff16815260200191505060405180910390f35b61042b611fef565b6040518082815260200191505060405180910390f35b61046f6004803603602081101561045757600080fd5b81019080803515159060200190929190505050612005565b005b61049d6004803603602081101561048757600080fd5b81019080803590602001909291905050506120c8565b005b6104a76123fa565b604051808c73ffffffffffffffffffffffffffffffffffffffff1673ffffffffffffffffffffffffffffffffffffffff1681526020018b81526020018a81526020018981526020018873ffffffffffffffffffffffffffffffffffffffff1673ffffffffffffffffffffffffffffffffffffffff1681526020018781526020018681526020018581526020018481526020018381526020018281526020019b50505050505050505050505060405180910390f35b600b6020528060005260406000206000915090508060000154908060010154908060020154908060030154908060040154908060050154905086565b600c60009054906101000a900473ffffffffffffffffffffffffffffffffffffffff1673ffffffffffffffffffffffffffffffffffffffff163373ffffffffffffffffffffffffffffffffffffffff161461063d576040517f08c379a0000000000000000000000000000000000000000000000000000000008152600401808060200182810382526029815260200180612c076029913960400191505060405180910390fd5b60006007015442116106b7576040517f08c379a00000000000000000000000000000000000000000000000000000000081526004018080602001828103825260148152602001807f506f6f6c206e6f7420737461727465642059657400000000000000000000000081525060200191505060405180910390fd5b80600c60006101000a81548173ffffffffffffffffffffffffffffffffffffffff021916908373ffffffffffffffffffffffffffffffffffffffff16021790555050565b6000806006015442116107115760009050610771565b61076e61071d33612482565b600b60003373ffffffffffffffffffffffffffffffffffffffff1673ffffffffffffffffffffffffffffffffffffffff168152602001908152602001600020600301546125f090919063ffffffff16565b90505b90565b600080600060030154905060008060010154905060006107b76107a1600060090154600060060154612678565b6107a9611fef565b61269290919063ffffffff16565b90506107de6107cf82846126dc90919063ffffffff16565b846125f090919063ffffffff16565b935050505090565b600161083d81600b60003373ffffffffffffffffffffffffffffffffffffffff1673ffffffffffffffffffffffffffffffffffffffff168152602001908152602001600020600501546125f090919063ffffffff16565b4311610894576040517f08c379a0000000000000000000000000000000000000000000000000000000008152600401808060200182810382526021815260200180612be66021913960400191505060405180910390fd5b43600b60003373ffffffffffffffffffffffffffffffffffffffff1673ffffffffffffffffffffffffffffffffffffffff16815260200190815260200160002060050181905550600060060154421015610956576040517f08c379a00000000000000000000000000000000000000000000000000000000081526004018080602001828103825260148152602001807f506f6f6c206e6f7420737461727465642059657400000000000000000000000081525060200191505060405180910390fd5b600082116109cc576040517f08c379a00000000000000000000000000000000000000000000000000000000081526004018080602001828103825260118152602001807f43616e6e6f74207769746864726177203000000000000000000000000000000081525060200191505060405180910390fd5b600b60003373ffffffffffffffffffffffffffffffffffffffff1673ffffffffffffffffffffffffffffffffffffffff16815260200190815260200160002060000154821115610a84576040517f08c379a000000000000000000000000000000000000000000000000000000000815260040180806020018281038252601f8152602001807f43616e6e6f74207769746864726177206d6f7265207468616e207374616b650081525060200191505060405180910390fd5b6000800160009054906101000a900473ffffffffffffffffffffffffffffffffffffffff1673ffffffffffffffffffffffffffffffffffffffff1663a9059cbb33846040518363ffffffff1660e01b8152600401808373ffffffffffffffffffffffffffffffffffffffff1673ffffffffffffffffffffffffffffffffffffffff16815260200182815260200192505050602060405180830381600087803b158015610b2f57600080fd5b505af1158015610b43573d6000803e3d6000fd5b505050506040513d6020811015610b5957600080fd5b810190808051906020019092919050505050610b7433612762565b600b60003373ffffffffffffffffffffffffffffffffffffffff1673ffffffffffffffffffffffffffffffffffffffff16815260200190815260200160002060030181905550610bd28260006001015461269290919063ffffffff16565b600060010181905550610c3082600b60003373ffffffffffffffffffffffffffffffffffffffff1673ffffffffffffffffffffffffffffffffffffffff1681526020019081526020016000206000015461269290919063ffffffff16565b600b60003373ffffffffffffffffffffffffffffffffffffffff1673ffffffffffffffffffffffffffffffffffffffff168152602001908152602001600020600001819055503373ffffffffffffffffffffffffffffffffffffffff167ff81475acca41b6158ffa94b90c0570165f1052684e7df9ab735e66ca1f57435f8360405180828152602001806020018281038252600b8152602001807f576964687464726177616c0000000000000000000000000000000000000000008152506020019250505060405180910390a25050565b600c60149054906101000a900460ff1681565b600c60009054906101000a900473ffffffffffffffffffffffffffffffffffffffff1673ffffffffffffffffffffffffffffffffffffffff163373ffffffffffffffffffffffffffffffffffffffff1614610dba576040517f08c379a0000000000000000000000000000000000000000000000000000000008152600401808060200182810382526029815260200180612c076029913960400191505060405180910390fd5b8060006002018190555050565b600c60009054906101000a900473ffffffffffffffffffffffffffffffffffffffff1673ffffffffffffffffffffffffffffffffffffffff163373ffffffffffffffffffffffffffffffffffffffff1614610e6d576040517f08c379a0000000000000000000000000000000000000000000000000000000008152600401808060200182810382526029815260200180612c076029913960400191505060405180910390fd5b6000600701544211610ee7576040517f08c379a00000000000000000000000000000000000000000000000000000000081526004018080602001828103825260148152602001807f506f6f6c206e6f7420737461727465642059657400000000000000000000000081525060200191505060405180910390fd5b3373ffffffffffffffffffffffffffffffffffffffff16ff5b6001610f5781600b60003373ffffffffffffffffffffffffffffffffffffffff1673ffffffffffffffffffffffffffffffffffffffff168152602001908152602001600020600501546125f090919063ffffffff16565b4311610fae576040517f08c379a0000000000000000000000000000000000000000000000000000000008152600401808060200182810382526021815260200180612be66021913960400191505060405180910390fd5b43600b60003373ffffffffffffffffffffffffffffffffffffffff1673ffffffffffffffffffffffffffffffffffffffff16815260200190815260200160002060050181905550600060060154421015611070576040517f08c379a00000000000000000000000000000000000000000000000000000000081526004018080602001828103825260148152602001807f506f6f6c206e6f7420737461727465642059657400000000000000000000000081525060200191505060405180910390fd5b60008060050154116110ea576040517f08c379a00000000000000000000000000000000000000000000000000000000081526004018080602001828103825260168152602001807f4e6f205265776172647320696e2074686520506f6f6c0000000000000000000081525060200191505060405180910390fd5b60006110f533612762565b9050600081111561132a5780600b60003373ffffffffffffffffffffffffffffffffffffffff1673ffffffffffffffffffffffffffffffffffffffff168152602001908152602001600020600401819055506000600b60003373ffffffffffffffffffffffffffffffffffffffff1673ffffffffffffffffffffffffffffffffffffffff168152602001908152602001600020600301819055506111a78160006005015461269290919063ffffffff16565b600060050181905550600060040160009054906101000a900473ffffffffffffffffffffffffffffffffffffffff1673ffffffffffffffffffffffffffffffffffffffff1663a9059cbb33836040518363ffffffff1660e01b8152600401808373ffffffffffffffffffffffffffffffffffffffff1673ffffffffffffffffffffffffffffffffffffffff16815260200182815260200192505050602060405180830381600087803b15801561125c57600080fd5b505af1158015611270573d6000803e3d6000fd5b505050506040513d602081101561128657600080fd5b8101908080519060200190929190505050506112a133612762565b503373ffffffffffffffffffffffffffffffffffffffff167f2fc029baad553950fe705b54adac427ede59ec14428d842ec4f83ee1a090e8fb8260405180828152602001806020018281038252600c8152602001807f526577617264732053656e7400000000000000000000000000000000000000008152506020019250505060405180910390a25b5050565b600061139f600060010154611391620186a0600b60003373ffffffffffffffffffffffffffffffffffffffff1673ffffffffffffffffffffffffffffffffffffffff168152602001908152602001600020600001546126dc90919063ffffffff16565b61286090919063ffffffff16565b905090565b6000600b60003373ffffffffffffffffffffffffffffffffffffffff1673ffffffffffffffffffffffffffffffffffffffff16815260200190815260200160002060000154905090565b600080600b60008473ffffffffffffffffffffffffffffffffffffffff1673ffffffffffffffffffffffffffffffffffffffff1681526020019081526020016000206001015490506000600b60008573ffffffffffffffffffffffffffffffffffffffff1673ffffffffffffffffffffffffffffffffffffffff16815260200190815260200160002060000154905060006114e96114d3600b60008873ffffffffffffffffffffffffffffffffffffffff1673ffffffffffffffffffffffffffffffffffffffff16815260200190815260200160002060020154600060060154612678565b6114db611fef565b61269290919063ffffffff16565b9050600061151261150383856126dc90919063ffffffff16565b856125f090919063ffffffff16565b905060006003015481111561152a5760006003015490505b80945050505050919050565b6000600601544210156115b1576040517f08c379a00000000000000000000000000000000000000000000000000000000081526004018080602001828103825260148152602001807f506f6f6c206e6f7420737461727465642059657400000000000000000000000081525060200191505060405180910390fd5b60006007015442111561162c576040517f08c379a000000000000000000000000000000000000000000000000000000000815260040180806020018281038252600b8152602001807f506f6f6c20636c6f73656400000000000000000000000000000000000000000081525060200191505060405180910390fd5b600161168381600b60003373ffffffffffffffffffffffffffffffffffffffff1673ffffffffffffffffffffffffffffffffffffffff168152602001908152602001600020600501546125f090919063ffffffff16565b43116116da576040517f08c379a0000000000000000000000000000000000000000000000000000000008152600401808060200182810382526021815260200180612be66021913960400191505060405180910390fd5b43600b60003373ffffffffffffffffffffffffffffffffffffffff1673ffffffffffffffffffffffffffffffffffffffff1681526020019081526020016000206005018190555081601461174f6000600101546117416064856126dc90919063ffffffff16565b61286090919063ffffffff16565b106117c2576040517f08c379a000000000000000000000000000000000000000000000000000000000815260040180806020018281038252601c8152602001807f4d6178207374616b6520697320323025206f662074686520706f6f6c0000000081525060200191505060405180910390fd5b60008311611838576040517f08c379a000000000000000000000000000000000000000000000000000000000815260040180806020018281038252600e8152602001807f43616e6e6f74207374616b65203000000000000000000000000000000000000081525060200191505060405180910390fd5b61184133612762565b600b60003373ffffffffffffffffffffffffffffffffffffffff1673ffffffffffffffffffffffffffffffffffffffff1681526020019081526020016000206003018190555060008060000160009054906101000a900473ffffffffffffffffffffffffffffffffffffffff1673ffffffffffffffffffffffffffffffffffffffff166370a08231306040518263ffffffff1660e01b8152600401808273ffffffffffffffffffffffffffffffffffffffff1673ffffffffffffffffffffffffffffffffffffffff16815260200191505060206040518083038186803b15801561192a57600080fd5b505afa15801561193e573d6000803e3d6000fd5b505050506040513d602081101561195457600080fd5b810190808051906020019092919050505090506000800160009054906101000a900473ffffffffffffffffffffffffffffffffffffffff1673ffffffffffffffffffffffffffffffffffffffff166323b872dd3330876040518463ffffffff1660e01b8152600401808473ffffffffffffffffffffffffffffffffffffffff1673ffffffffffffffffffffffffffffffffffffffff1681526020018373ffffffffffffffffffffffffffffffffffffffff1673ffffffffffffffffffffffffffffffffffffffff1681526020018281526020019350505050602060405180830381600087803b158015611a4657600080fd5b505af1158015611a5a573d6000803e3d6000fd5b505050506040513d6020811015611a7057600080fd5b8101908080519060200190929190505050506000611b72826000800160009054906101000a900473ffffffffffffffffffffffffffffffffffffffff1673ffffffffffffffffffffffffffffffffffffffff166370a08231306040518263ffffffff1660e01b8152600401808273ffffffffffffffffffffffffffffffffffffffff1673ffffffffffffffffffffffffffffffffffffffff16815260200191505060206040518083038186803b158015611b2957600080fd5b505afa158015611b3d573d6000803e3d6000fd5b505050506040513d6020811015611b5357600080fd5b810190808051906020019092919050505061269290919063ffffffff16565b90506000611ba26103e8611b94600060020154856126dc90919063ffffffff16565b61286090919063ffffffff16565b9050611bb7818361269290919063ffffffff16565b9150611bd1816000600501546125f090919063ffffffff16565b600060050181905550611bf2826000600101546125f090919063ffffffff16565b600060010181905550611c5082600b60003373ffffffffffffffffffffffffffffffffffffffff1673ffffffffffffffffffffffffffffffffffffffff168152602001908152602001600020600001546125f090919063ffffffff16565b600b60003373ffffffffffffffffffffffffffffffffffffffff1673ffffffffffffffffffffffffffffffffffffffff168152602001908152602001600020600001819055503373ffffffffffffffffffffffffffffffffffffffff167f167ca5543be7bdd4d64d74a1255ec46c74aa0b2ad274a73b1a5c910f8d65d26f8360405180828152602001806020018281038252600f8152602001807f5374616b696e672e2e2e202e2e2e2000000000000000000000000000000000008152506020019250505060405180910390a2505050505050565b600c60009054906101000a900473ffffffffffffffffffffffffffffffffffffffff1673ffffffffffffffffffffffffffffffffffffffff163373ffffffffffffffffffffffffffffffffffffffff1614611dcb576040517f08c379a0000000000000000000000000000000000000000000000000000000008152600401808060200182810382526029815260200180612c076029913960400191505060405180910390fd5b6000600701544211611e45576040517f08c379a00000000000000000000000000000000000000000000000000000000081526004018080602001828103825260148152602001807f506f6f6c206e6f7420737461727465642059657400000000000000000000000081525060200191505060405180910390fd5b60008173ffffffffffffffffffffffffffffffffffffffff166370a08231306040518263ffffffff1660e01b8152600401808273ffffffffffffffffffffffffffffffffffffffff1673ffffffffffffffffffffffffffffffffffffffff16815260200191505060206040518083038186803b158015611ec457600080fd5b505afa158015611ed8573d6000803e3d6000fd5b505050506040513d6020811015611eee57600080fd5b810190808051906020019092919050505090508173ffffffffffffffffffffffffffffffffffffffff1663a9059cbb84836040518363ffffffff1660e01b8152600401808373ffffffffffffffffffffffffffffffffffffffff1673ffffffffffffffffffffffffffffffffffffffff16815260200182815260200192505050602060405180830381600087803b158015611f8857600080fd5b505af1158015611f9c573d6000803e3d6000fd5b505050506040513d6020811015611fb257600080fd5b810190808051906020019092919050505050505050565b600c60009054906101000a900473ffffffffffffffffffffffffffffffffffffffff1681565b6000612000426000600701546128aa565b905090565b600c60009054906101000a900473ffffffffffffffffffffffffffffffffffffffff1673ffffffffffffffffffffffffffffffffffffffff163373ffffffffffffffffffffffffffffffffffffffff16146120ab576040517f08c379a0000000000000000000000000000000000000000000000000000000008152600401808060200182810382526029815260200180612c076029913960400191505060405180910390fd5b80600c60146101000a81548160ff02191690831515021790555050565b60008060040160009054906101000a900473ffffffffffffffffffffffffffffffffffffffff1673ffffffffffffffffffffffffffffffffffffffff166370a08231306040518263ffffffff1660e01b8152600401808273ffffffffffffffffffffffffffffffffffffffff1673ffffffffffffffffffffffffffffffffffffffff16815260200191505060206040518083038186803b15801561216b57600080fd5b505afa15801561217f573d6000803e3d6000fd5b505050506040513d602081101561219557600080fd5b81019080805190602001909291905050509050600060040160009054906101000a900473ffffffffffffffffffffffffffffffffffffffff1673ffffffffffffffffffffffffffffffffffffffff166323b872dd3330856040518463ffffffff1660e01b8152600401808473ffffffffffffffffffffffffffffffffffffffff1673ffffffffffffffffffffffffffffffffffffffff1681526020018373ffffffffffffffffffffffffffffffffffffffff1673ffffffffffffffffffffffffffffffffffffffff1681526020018281526020019350505050602060405180830381600087803b15801561228857600080fd5b505af115801561229c573d6000803e3d6000fd5b505050506040513d60208110156122b257600080fd5b81019080805190602001909291905050505060006123b582600060040160009054906101000a900473ffffffffffffffffffffffffffffffffffffffff1673ffffffffffffffffffffffffffffffffffffffff166370a08231306040518263ffffffff1660e01b8152600401808273ffffffffffffffffffffffffffffffffffffffff1673ffffffffffffffffffffffffffffffffffffffff16815260200191505060206040518083038186803b15801561236c57600080fd5b505afa158015612380573d6000803e3d6000fd5b505050506040513d602081101561239657600080fd5b810190808051906020019092919050505061269290919063ffffffff16565b90506000806005015414156123dd576123d3600060010154826125f0565b6000600101819055505b6123ec600060050154826125f0565b600060050181905550505050565b60008060000160009054906101000a900473ffffffffffffffffffffffffffffffffffffffff16908060010154908060020154908060030154908060040160009054906101000a900473ffffffffffffffffffffffffffffffffffffffff169080600501549080600601549080600701549080600801549080600901549080600a015490508b565b600080600060050154116124fe576040517f08c379a00000000000000000000000000000000000000000000000000000000081526004018080602001828103825260168152602001807f4e6f205265776172647320696e2074686520506f6f6c0000000000000000000081525060200191505060405180910390fd5b600061253c61250b610774565b61252e670de0b6b3a7640000612520876113ee565b6126dc90919063ffffffff16565b61286090919063ffffffff16565b905060006125aa612594600b60008773ffffffffffffffffffffffffffffffffffffffff1673ffffffffffffffffffffffffffffffffffffffff16815260200190815260200160002060020154600060060154612678565b61259c611fef565b61269290919063ffffffff16565b905060006125e3670de0b6b3a76400006125d5856125c7866128c3565b6126dc90919063ffffffff16565b61286090919063ffffffff16565b9050809350505050919050565b60008082840190508381101561266e576040517f08c379a000000000000000000000000000000000000000000000000000000000815260040180806020018281038252601b8152602001807f536166654d6174683a206164646974696f6e206f766572666c6f77000000000081525060200191505060405180910390fd5b8091505092915050565b600081831015612688578161268a565b825b905092915050565b60006126d483836040518060400160405280601e81526020017f536166654d6174683a207375627472616374696f6e206f766572666c6f77000081525061296a565b905092915050565b6000808314156126ef576000905061275c565b600082840290508284828161270057fe5b0414612757576040517f08c379a0000000000000000000000000000000000000000000000000000000008152600401808060200182810382526021815260200180612c306021913960400191505060405180910390fd5b809150505b92915050565b60008061276e83612482565b905061277983612a2a565b506127cf81600b60008673ffffffffffffffffffffffffffffffffffffffff1673ffffffffffffffffffffffffffffffffffffffff168152602001908152602001600020600301546125f090919063ffffffff16565b600b60008573ffffffffffffffffffffffffffffffffffffffff1673ffffffffffffffffffffffffffffffffffffffff16815260200190815260200160002060030181905550600b60008473ffffffffffffffffffffffffffffffffffffffff1673ffffffffffffffffffffffffffffffffffffffff16815260200190815260200160002060030154915050919050565b60006128a283836040518060400160405280601a81526020017f536166654d6174683a206469766973696f6e206279207a65726f000000000000815250612a48565b905092915050565b60008183106128b957816128bb565b825b905092915050565b600080600060050154905060001515600c60149054906101000a900460ff1615151415612901576128fe6000600101546000600501546128aa565b90505b6000612935600060080154612927670de0b6b3a7640000876126dc90919063ffffffff16565b61286090919063ffffffff16565b905061296160006008015461295383856126dc90919063ffffffff16565b61286090919063ffffffff16565b92505050919050565b6000838311158290612a17576040517f08c379a00000000000000000000000000000000000000000000000000000000081526004018080602001828103825283818151815260200191508051906020019080838360005b838110156129dc5780820151818401526020810190506129c1565b50505050905090810190601f168015612a095780820380516001836020036101000a031916815260200191505b509250505060405180910390fd5b5060008385039050809150509392505050565b6000612a3582612b0e565b50612a3e612bb8565b5060019050919050565b60008083118290612af4576040517f08c379a00000000000000000000000000000000000000000000000000000000081526004018080602001828103825283818151815260200191508051906020019080838360005b83811015612ab9578082015181840152602081019050612a9e565b50505050905090810190601f168015612ae65780820380516001836020036101000a031916815260200191505b509250505060405180910390fd5b506000838581612b0057fe5b049050809150509392505050565b600080612b1a836113ee565b9050612b24611fef565b600b60008573ffffffffffffffffffffffffffffffffffffffff1673ffffffffffffffffffffffffffffffffffffffff1681526020019081526020016000206002018190555080600b60008573ffffffffffffffffffffffffffffffffffffffff1673ffffffffffffffffffffffffffffffffffffffff168152602001908152602001600020600101819055915050919050565b600080612bc3610774565b9050612bcd611fef565b6000600901819055508060006003018190559150509056fe57616974203120424c4f434b206265747765656e205472616e73616374696f6e736d73672e73656e646572206973206e6f7420616c6c6f77656420746f206f70657261746520506f6f6c536166654d6174683a206d756c7469706c69636174696f6e206f766572666c6f77a26469706673582212209edf6810e827f4d522337b6a92cf14811065966484dceaf8efb75aaf83df342164736f6c63430006060033536166654d6174683a206d756c7469706c69636174696f6e206f766572666c6f77",
  "immutableReferences": {},
  "source": "\n\n// 10000000000000000000000 = 10,000 tokens\n\n// r.DFT: 0xB571d40e4A7087C1B73ce6a3f29EaDfCA022C5B2\n// r.UNI: 0xB571d40e4A7087C1B73ce6a3f29EaDfCA022C5B2\n// r.DFTP: 0x70c7d7856e1558210cfbf27b7f17853655752453\n\n\n\n\n/*\n* Copyright (c) 2020 DeFiat.net\n*\n* Permission is hereby granted, free of charge, to any person obtaining a copy\n* of this software and associated documentation files (the \"Software\"), to deal\n* in the Software without restriction, including without limitation the rights\n* to use, copy, modify, merge, publish, distribute, sublicense, and/or sell\n* copies of the Software, and to permit persons to whom the Software is\n* furnished to do so, subject to the following conditions:\n*\n* The above copyright notice and this permission notice shall be included in all\n* copies or substantial portions of the Software.\n*\n* THE SOFTWARE IS PROVIDED \"AS IS\", WITHOUT WARRANTY OF ANY KIND, EXPRESS OR\n* IMPLIED, INCLUDING BUT NOT LIMITED TO THE WARRANTIES OF MERCHANTABILITY,\n* FITNESS FOR A PARTICULAR PURPOSE AND NONINFRINGEMENT. IN NO EVENT SHALL THE\n* AUTHORS OR COPYRIGHT HOLDERS BE LIABLE FOR ANY CLAIM, DAMAGES OR OTHER\n* LIABILITY, WHETHER IN AN ACTION OF CONTRACT, TORT OR OTHERWISE, ARISING FROM,\n* OUT OF OR IN CONNECTION WITH THE SOFTWARE OR THE USE OR OTHER DEALINGS IN THE\n*/\n\n// File: @openzeppelin/contracts/math/Math.sol\n//\n\n// File: @openzeppelin/contracts/math/SafeMath.sol\npragma solidity ^0.6.0;\n/**\n * @dev Wrappers over Solidity's arithmetic operations with added overflow\n * checks.\n *\n * Arithmetic operations in Solidity wrap on overflow. This can easily result\n * in bugs, because programmers usually assume that an overflow raises an\n * error, which is the standard behavior in high level programming languages.\n * `SafeMath` restores this intuition by reverting the transaction when an\n * operation overflows.\n *\n * Using this library instead of the unchecked operations eliminates an entire\n * class of bugs, so it's recommended to use it always.\n */\nlibrary SafeMath{\n    /**\n     * @dev Returns the addition of two unsigned integers, reverting on\n     * overflow.\n     *\n     * Counterpart to Solidity's `+` operator.\n     *\n     * Requirements:\n     * - Addition cannot overflow.\n     */\n    function add(uint256 a, uint256 b) internal pure returns (uint256) {\n        uint256 c = a + b;\n        require(c >= a, \"SafeMath: addition overflow\");\n\n        return c;\n    }\n\n    /**\n     * @dev Returns the subtraction of two unsigned integers, reverting on\n     * overflow (when the result is negative).\n     *\n     * Counterpart to Solidity's `-` operator.\n     *\n     * Requirements:\n     * - Subtraction cannot overflow.\n     */\n    function sub(uint256 a, uint256 b) internal pure returns (uint256) {\n        return sub(a, b, \"SafeMath: subtraction overflow\");\n    }\n\n    /**\n     * @dev Returns the subtraction of two unsigned integers, reverting with custom message on\n     * overflow (when the result is negative).\n     *\n     * Counterpart to Solidity's `-` operator.\n     *\n     * Requirements:\n     * - Subtraction cannot overflow.\n     *\n     * _Available since v2.4.0._\n     */\n    function sub(uint256 a, uint256 b, string memory errorMessage) internal pure returns (uint256) {\n        require(b <= a, errorMessage);\n        uint256 c = a - b;\n\n        return c;\n    }\n\n    /**\n     * @dev Returns the multiplication of two unsigned integers, reverting on\n     * overflow.\n     *\n     * Counterpart to Solidity's `*` operator.\n     *\n     * Requirements:\n     * - Multiplication cannot overflow.\n     */\n    function mul(uint256 a, uint256 b) internal pure returns (uint256) {\n        // Gas optimization: this is cheaper than requiring 'a' not being zero, but the\n        // benefit is lost if 'b' is also tested.\n        // See: https://github.com/OpenZeppelin/openzeppelin-contracts/pull/522\n        if (a == 0) {\n            return 0;\n        }\n\n        uint256 c = a * b;\n        require(c / a == b, \"SafeMath: multiplication overflow\");\n\n        return c;\n    }\n\n    /**\n     * @dev Returns the integer division of two unsigned integers. Reverts on\n     * division by zero. The result is rounded towards zero.\n     *\n     * Counterpart to Solidity's `/` operator. Note: this function uses a\n     * `revert` opcode (which leaves remaining gas untouched) while Solidity\n     * uses an invalid opcode to revert (consuming all remaining gas).\n     *\n     * Requirements:\n     * - The divisor cannot be zero.\n     */\n    function div(uint256 a, uint256 b) internal pure returns (uint256) {\n        return div(a, b, \"SafeMath: division by zero\");\n    }\n\n    /**\n     * @dev Returns the integer division of two unsigned integers. Reverts with custom message on\n     * division by zero. The result is rounded towards zero.\n     *\n     * Counterpart to Solidity's `/` operator. Note: this function uses a\n     * `revert` opcode (which leaves remaining gas untouched) while Solidity\n     * uses an invalid opcode to revert (consuming all remaining gas).\n     *\n     * Requirements:\n     * - The divisor cannot be zero.\n     *\n     * _Available since v2.4.0._\n     */\n    function div(uint256 a, uint256 b, string memory errorMessage) internal pure returns (uint256) {\n        // Solidity only automatically asserts when dividing by 0\n        require(b > 0, errorMessage);\n        uint256 c = a / b;\n        // assert(a == b * c + a % b); // There is no case in which this doesn't hold\n\n        return c;\n    }\n\n    /**\n     * @dev Returns the remainder of dividing two unsigned integers. (unsigned integer modulo),\n     * Reverts when dividing by zero.\n     *\n     * Counterpart to Solidity's `%` operator. This function uses a `revert`\n     * opcode (which leaves remaining gas untouched) while Solidity uses an\n     * invalid opcode to revert (consuming all remaining gas).\n     *\n     * Requirements:\n     * - The divisor cannot be zero.\n     */\n    function mod(uint256 a, uint256 b) internal pure returns (uint256) {\n        return mod(a, b, \"SafeMath: modulo by zero\");\n    }\n\n    /**\n     * @dev Returns the remainder of dividing two unsigned integers. (unsigned integer modulo),\n     * Reverts with custom message when dividing by zero.\n     *\n     * Counterpart to Solidity's `%` operator. This function uses a `revert`\n     * opcode (which leaves remaining gas untouched) while Solidity uses an\n     * invalid opcode to revert (consuming all remaining gas).\n     *\n     * Requirements:\n     * - The divisor cannot be zero.\n     *\n     * _Available since v2.4.0._\n     */\n    function mod(uint256 a, uint256 b, string memory errorMessage) internal pure returns (uint256) {\n        require(b != 0, errorMessage);\n        return a % b;\n    }\n    \n        /**\n     * @dev Returns the largest of two numbers.\n     */\n    function max(uint256 a, uint256 b) internal pure returns (uint256) {\n        return a >= b ? a : b;\n    }\n\n    /**\n     * @dev Returns the smallest of two numbers.\n     */\n    function min(uint256 a, uint256 b) internal pure returns (uint256) {\n        return a < b ? a : b;\n    }\n\n    /**\n     * @dev Returns the average of two numbers. The result is rounded towards\n     * zero.\n     */\n    function average(uint256 a, uint256 b) internal pure returns (uint256) {\n        // (a + b) / 2 can overflow, so we distribute\n        return (a / 2) + (b / 2) + ((a % 2 + b % 2) / 2);\n    }\n}\n\n// File: @openzeppelin/contracts/GSN/Context.sol\n/*\n * @dev Provides information about the current execution context, including the\n * sender of the transaction and its data. While these are generally available\n * via msg.sender and msg.data, they should not be accessed in such a direct\n * manner, since when dealing with GSN meta-transactions the account sending and\n * paying for execution may not be the actual sender (as far as an application\n * is concerned).\n *\n * This contract is only required for intermediate, library-like contracts.\n */\ncontract Context {\n    // Empty internal constructor, to prevent people from mistakenly deploying\n    // an instance of this contract, which should be used via inheritance.\n    constructor () internal { }\n    // solhint-disable-previous-line no-empty-blocks\n\n    function _msgSender() internal view returns (address payable) {\n        return msg.sender;\n    }\n\n    function _msgData() internal view returns (bytes memory) {\n        this; // silence state mutability warning without generating bytecode - see https://github.com/ethereum/solidity/issues/2691\n        return msg.data;\n    }\n}\n\n// File: @openzeppelin/contracts/ownership/Ownable.sol\n/**\n * @dev Contract module which provides a basic access control mechanism, where\n * there is an account (an owner) that can be granted exclusive access to\n * specific functions.\n *\n * This module is used through inheritance. It will make available the modifier\n * `onlyOwner`, which can be applied to your functions to restrict their use to\n * the owner.\n */\ncontract Ownable is Context {\n    address private _owner;\n\n    event OwnershipTransferred(address indexed previousOwner, address indexed newOwner);\n\n    /**\n     * @dev Initializes the contract setting the deployer as the initial owner.\n     */\n    constructor () internal {\n        _owner = _msgSender();\n        emit OwnershipTransferred(address(0), _owner);\n    }\n\n    /**\n     * @dev Returns the address of the current owner.\n     */\n    function owner() public view returns (address) {\n        return _owner;\n    }\n\n    /**\n     * @dev Throws if called by any account other than the owner.\n     */\n    modifier onlyOwner() {\n        require(isOwner(), \"Ownable: caller is not the owner\");\n        _;\n    }\n\n\n    /**\n     * @dev Returns true if the caller is the current owner.\n     */\n    function isOwner() public view returns (bool) {\n        return _msgSender() == _owner;\n    }\n\n    /**\n     * @dev Leaves the contract without owner. It will not be possible to call\n     * `onlyOwner` functions anymore. Can only be called by the current owner.\n     *\n     * NOTE: Renouncing ownership will leave the contract without an owner,\n     * thereby removing any functionality that is only available to the owner.\n     */\n    function renounceOwnership() public onlyOwner {\n        emit OwnershipTransferred(_owner, address(0));\n        _owner = address(0);\n    }\n\n    /**\n     * @dev Transfers ownership of the contract to a new account (`newOwner`).\n     * Can only be called by the current owner.\n     */\n    function transferOwnership(address newOwner) public onlyOwner {\n        _transferOwnership(newOwner);\n    }\n\n    /**\n     * @dev Transfers ownership of the contract to a new account (`newOwner`).\n     */\n    function _transferOwnership(address newOwner) internal {\n        require(newOwner != address(0), \"Ownable: new owner is the zero address\");\n        emit OwnershipTransferred(_owner, newOwner);\n        _owner = newOwner;\n    }\n} //adding ALLOWED method\n\n// File: @openzeppelin/contracts/token/ERC20/IERC20.sol\n/**\n * @dev Interface of the ERC20 standard as defined in the EIP. Does not include\n * the optional functions; to access them see {ERC20Detailed}.\n */\ninterface IERC20 {\n    function totalSupply() external view returns (uint256);\n    function balanceOf(address account) external view returns (uint256);\n    function transfer(address recipient, uint256 amount) external returns (bool);\n    function allowance(address owner, address spender) external view returns (uint256);\n    function approve(address spender, uint256 amount) external returns (bool);\n    function transferFrom(address sender, address recipient, uint256 amount) external returns (bool);\n    event Transfer(address indexed from, address indexed to, uint256 value);\n    event Approval(address indexed owner, address indexed spender, uint256 value);\n}\n\n// File: @openzeppelin/contracts/utils/Address.sol\n/**\n * @dev Collection of functions related to the address type\n */\nlibrary Address {\n    /**\n     * @dev Returns true if `account` is a contract.\n     *\n     * This test is non-exhaustive, and there may be false-negatives: during the\n     * execution of a contract's constructor, its address will be reported as\n     * not containing a contract.\n     *\n     * IMPORTANT: It is unsafe to assume that an address for which this\n     * function returns false is an externally-owned account (EOA) and not a\n     * contract.\n     */\n    function isContract(address account) internal view returns (bool) {\n        // This method relies in extcodesize, which returns 0 for contracts in\n        // construction, since the code is only stored at the end of the\n        // constructor execution.\n\n        // According to EIP-1052, 0x0 is the value returned for not-yet created accounts\n        // and 0xc5d2460186f7233c927e7db2dcc703c0e500b653ca82273b7bfad8045d85a470 is returned\n        // for accounts without code, i.e. `keccak256('')`\n        bytes32 codehash;\n        bytes32 accountHash = 0xc5d2460186f7233c927e7db2dcc703c0e500b653ca82273b7bfad8045d85a470;\n        // solhint-disable-next-line no-inline-assembly\n        assembly { codehash := extcodehash(account) }\n        return (codehash != 0x0 && codehash != accountHash);\n    }\n\n    /**\n     * @dev Converts an `address` into `address payable`. Note that this is\n     * simply a type cast: the actual underlying value is not changed.\n     *\n     * _Available since v2.4.0._\n     */\n    function toPayable(address account) internal pure returns (address payable) {\n        return address(uint160(account));\n    }\n\n    /**\n     * @dev Replacement for Solidity's `transfer`: sends `amount` wei to\n     * `recipient`, forwarding all available gas and reverting on errors.\n     *\n     * https://eips.ethereum.org/EIPS/eip-1884[EIP1884] increases the gas cost\n     * of certain opcodes, possibly making contracts go over the 2300 gas limit\n     * imposed by `transfer`, making them unable to receive funds via\n     * `transfer`. {sendValue} removes this limitation.\n     *\n     * https://diligence.consensys.net/posts/2019/09/stop-using-soliditys-transfer-now/[Learn more].\n     *\n     * IMPORTANT: because control is transferred to `recipient`, care must be\n     * taken to not create reentrancy vulnerabilities. Consider using\n     * {ReentrancyGuard} or the\n     * https://solidity.readthedocs.io/en/v0.5.11/security-considerations.html#use-the-checks-effects-interactions-pattern[checks-effects-interactions pattern].\n     *\n     * _Available since v2.4.0._\n     */\n    function sendValue(address payable recipient, uint256 amount) internal {\n        require(address(this).balance >= amount, \"Address: insufficient balance\");\n\n        // solhint-disable-next-line avoid-call-value\n        (bool success, ) = recipient.call.value(amount)(\"\");\n        require(success, \"Address: unable to send value, recipient may have reverted\");\n    }\n}\n\n\n//========\n\n\ncontract DeFiat_Farming_v7 {\n    using SafeMath for uint256;\n\n    //Structs\n    struct PoolMetrics {\n        address stakedToken;\n        uint256 staked;             // sum of tokens staked in the contract\n        uint256 stakingFee;         // entry fee\n        \n        uint256 stakingPoints;\n\n        address rewardToken;\n        uint256 rewards;        // current rewards in the pool\n\n        uint256 startTime;      // when the pool opens\n        uint256 closingTime;    // when the pool closes. \n        uint256 duration;       // duration of the staking\n        uint256 lastEvent;   // last time metrics were updated.\n        \n        uint256  ratePerToken;      // CALCULATED pool reward Rate per Token (calculated based on total stake and time)\n    }\n    PoolMetrics public poolMetrics;\n\n    struct UserMetrics {\n            uint256 stake;          // native token stake (balanceOf)\n            uint256 stakingPoints;  // acrrued over time. Does not take into account current ones\n            uint256 lastEvent;\n\n            uint256 rewardAccrued;  // accrued rewards over time based on staking points\n            uint256 rewardsPaid;    // what the user already consumed, to remove from rewardsAccrued\n\n            uint256 lastTxBlock;    // latest transaction from the user (antiSpam)\n    }\n    mapping(address => UserMetrics) public userMetrics;\n\n//== constructor \n    constructor(address _stakedToken, address _rewardToken, uint256 _feeBase1000, uint256 _durationHours, uint256 _delayStartHours) public {\n    poolOperator = msg.sender;\n    \n    poolMetrics.stakedToken = address(_stakedToken);\n    poolMetrics.rewardToken = address(_rewardToken);\n    poolMetrics.stakingFee = _feeBase1000; //10 = 1%\n    \n    poolMetrics.duration = _durationHours.mul(3600); //\n    poolMetrics.startTime = block.timestamp + _delayStartHours.mul(3600);\n    poolMetrics.closingTime = block.timestamp + poolMetrics.duration;\n    \n    FullRewards = true;\n    }\n\n//==EVENTS\n    event PoolInitalized(uint256 amountAdded, string  _desc);\n    event RewardTaken(address indexed user, uint256 reward, string  _desc);\n\n    event userStaking(address indexed user, uint256 amount, string  _desc);\n    event userWithdrawal(address indexed user, uint256 amount, string  _desc);\n\n    modifier poolLive() {\n        require(block.timestamp >= poolMetrics.startTime,\"Pool not started Yet\"); //good for delayed starts.\n        require(block.timestamp <= poolMetrics.closingTime,\"Pool closed\"); //good for delayed starts.\n        _;\n    }\n    modifier poolStarted() {\n        require(block.timestamp >= poolMetrics.startTime,\"Pool not started Yet\"); //good for delayed starts.\n        _;\n    }\n    modifier poolEnded() {\n        require(block.timestamp > poolMetrics.closingTime,\"Pool not started Yet\"); //good for delayed starts.\n        _;\n    }\n    modifier antiSpam(uint256 _blocks) {\n        require(block.number > userMetrics[msg.sender].lastTxBlock.add(_blocks), \"Wait 1 BLOCK between Transactions\");\n        userMetrics[msg.sender].lastTxBlock = block.number; //update\n        _;\n    } \n \n\n    \n//BASICS \n    function currentTime() public view returns (uint256) {\n        return SafeMath.min(block.timestamp, poolMetrics.closingTime); //allows expiration\n    } // SafeMath.min(now, endTime)\n    \n//Points locking    \n    function viewPoolPoints() public view returns(uint256) {\n            uint256 _previousPoints = poolMetrics.stakingPoints;    // previous points shapshot \n            uint256 _previousStake = poolMetrics.staked;             // previous stake snapshot\n            \n            uint256 _timeHeld = currentTime().sub(\n                        SafeMath.max(poolMetrics.lastEvent, poolMetrics.startTime)\n                                                 );                 // time held with _previous Event\n                                                 \n            return  _previousPoints.add(_previousStake.mul(_timeHeld));    //generated points since event\n    }\n    function lockPoolPoints() internal returns (uint256 ) { //ON STAKE/UNSTAKE EVENT\n            uint256 _currentPoints = viewPoolPoints() ;     // snapshot\n            poolMetrics.lastEvent = currentTime();   // update lastStakingEvent\n            return poolMetrics.stakingPoints = _currentPoints;\n        } \n    \n    function viewPointsOf(address _address) public view returns(uint256) {\n            uint256 _previousPoints = userMetrics[_address].stakingPoints;    // snapshot\n            uint256 _previousStake = userMetrics[_address].stake;            // stake before event\n        \n            uint256 _timeHeld = currentTime().sub(\n                        SafeMath.max(userMetrics[_address].lastEvent, poolMetrics.startTime)\n                                                 );                          // time held since lastEvent (take RWD, STK, unSTK)\n            \n            uint256 _result = _previousPoints.add(_previousStake.mul(_timeHeld));   \n            \n            if(_result > poolMetrics.stakingPoints){_result = poolMetrics.stakingPoints;}\n            return _result;\n    }\n    function lockPointsOf(address _address) internal returns (uint256) {\n            uint256 _currentPoints =  viewPointsOf(_address); \n            userMetrics[_address].lastEvent = currentTime(); \n            return userMetrics[_address].stakingPoints = _currentPoints;\n    }\n    function pointsSnapshot(address _address) internal returns (bool) {\n        lockPointsOf(_address);lockPoolPoints();\n        return true;\n    }\n    \n//Rewards\n    function viewTrancheReward(uint256 _period) internal view returns(uint256) {\n        uint256 _poolRewards = poolMetrics.rewards;\n        if(FullRewards == false){ _poolRewards = SafeMath.min(poolMetrics.staked, poolMetrics.rewards);} \n        // baseline is the min( staked, rewards); avoids ultra_farming > staking pool - EXPERIMENTAL\n        \n        uint256 _timeRate = _period.mul(1e18).div(poolMetrics.duration);\n        return _poolRewards.mul(_timeRate).div(poolMetrics.duration); //tranche of rewards on period\n    }\n    function viewAdditionalRewardOf(address _address) internal view returns(uint256) { // rewards generated since last Event\n        require(poolMetrics.rewards > 0, \"No Rewards in the Pool\");\n        \n        // user weighted average share of Pool sice day1\n        uint256 _userRate =  viewPointsOf(_address).mul(1e18).div(viewPoolPoints()); //can drop if pool size increases -> slows rewards generation\n        \n        // Pool Yield Rate \n        uint256 _elapsed = currentTime().sub(\n                            SafeMath.max(userMetrics[_address].lastEvent, poolMetrics.startTime)  \n                            );        // time elapsed since last reward or pool started (if never taken rewards)\n\n        uint256 _reward = viewTrancheReward(_elapsed).mul(_userRate).div(1e18);  //user rate on pool rewards' tranche\n\n        return _reward;\n    }\n    \n    \n    function eligibleRewardOf(address _address) internal returns(uint256) {\n        uint256 _additional = viewAdditionalRewardOf(_address); //stakeShare * poolRewards(sinceLastEvent)\n        pointsSnapshot(_address); //updates lastEvent\n        userMetrics[_address].rewardAccrued = userMetrics[_address].rewardAccrued.add(_additional); //updates user's accrued\n        return userMetrics[_address].rewardAccrued;\n    }  \n    \n    function takeRewards() public antiSpam(1) poolStarted{ //1 blocks between rewards\n        require(poolMetrics.rewards > 0, \"No Rewards in the Pool\");\n        uint256 _reward = eligibleRewardOf(msg.sender); //returns already accrued + additional (also resets time counters)\n         //update Staking Event\n        \n        if (_reward > 0) { //gas saver\n            userMetrics[msg.sender].rewardsPaid = _reward;   // update user paid rewards\n            userMetrics[msg.sender].rewardAccrued = 0; //flush previously accrued rewards\n            poolMetrics.rewards = poolMetrics.rewards.sub(_reward);           // update pool rewards\n            \n            IERC20(poolMetrics.rewardToken).transfer(msg.sender, _reward);  // transfer\n            \n            eligibleRewardOf(msg.sender); //relaunch counter\n            \n            emit RewardTaken(msg.sender, _reward, \"Rewards Sent\");          \n            \n        }\n    }\n    \n//staking & unstaking\n\n    modifier antiWhale(uint256 _amount) {\n        require(_amount.mul(100).div(poolMetrics.staked) < 20, \"Max stake is 20% of the pool\");\n        _;\n    } // avoids large chinks being deposited and limits small holders rewards shrinking because of lost share of pool\n    function stake(uint256 _amount) public poolLive antiSpam(1) antiWhale(_amount){\n        require(_amount > 0, \"Cannot stake 0\");\n        \n        //initialize\n        userMetrics[msg.sender].rewardAccrued = eligibleRewardOf(msg.sender); //Locks previous eligible rewards based on lastRewardEvent and lastStakingEvent\n\n        //receive staked\n        uint256 _balanceNow = IERC20(address(poolMetrics.stakedToken)).balanceOf(address(this));\n        IERC20(poolMetrics.stakedToken).transferFrom(msg.sender, address(this), _amount); //will require allowance\n        uint256 amount = IERC20(address(poolMetrics.stakedToken)).balanceOf(address(this)).sub(_balanceNow); //actually received\n        \n        //update pool and user based on stake and fee\n        uint256 _fee = amount.mul(poolMetrics.stakingFee).div(1000);\n        amount = amount.sub(_fee);\n        \n        poolMetrics.rewards = poolMetrics.rewards.add(_fee);\n        poolMetrics.staked = poolMetrics.staked.add(amount);\n        userMetrics[msg.sender].stake = userMetrics[msg.sender].stake.add(amount);\n\n        //finalize\n        emit userStaking(msg.sender, amount, \"Staking... ... \");\n        \n    } // stake visibility is public and  overriding StakeToken's stake() function\n    function unStake(uint256 amount) public antiSpam(1) poolStarted{ \n        require(amount > 0, \"Cannot withdraw 0\");\n        require(amount <= userMetrics[msg.sender].stake, \"Cannot withdraw more than stake\");\n        \n        // transfer unstaked\n        IERC20(poolMetrics.stakedToken).transfer(msg.sender, amount);\n        \n        //initialize\n        userMetrics[msg.sender].rewardAccrued = eligibleRewardOf(msg.sender); //snapshot of  previous eligible rewards based on lastStakingEvent\n\n        \n        // update metrics\n        poolMetrics.staked = poolMetrics.staked.sub(amount);\n        userMetrics[msg.sender].stake = userMetrics[msg.sender].stake.sub(amount);\n        \n        //finalize\n        emit userWithdrawal(msg.sender, amount, \"Widhtdrawal\");\n    }\n \n\n    function myStake() public view returns(uint256) {\n        return userMetrics[msg.sender].stake;\n    }\n    function myStakeShare() public view returns(uint256) {\n        return (userMetrics[msg.sender].stake).mul(100000).div(poolMetrics.staked);\n    } //base 100,000\n    function myRewards() public view returns(uint256) {\n        //delayed start obfuscation (avoids disturbances in the force...)\n        if(block.timestamp <= poolMetrics.startTime){return 0;}\n        else { return userMetrics[msg.sender].rewardAccrued.add(viewAdditionalRewardOf(msg.sender));} //previousLock + time based extra\n    }\n\n\n//== OPERATOR FUNCTIONS ==\n\n    address public poolOperator;\n    \n    function setPoolOperator(address _address) public onlyPoolOperator poolEnded {\n        poolOperator = _address;\n    }\n    modifier onlyPoolOperator() {\n        require(msg.sender == poolOperator, \"msg.sender is not allowed to operate Pool\");\n        _;\n    }\n    \n    bool public FullRewards;\n    function setFullRewards(bool _bool) public onlyPoolOperator {\n        FullRewards = _bool;\n    }\n    function loadRewards(uint256 _amount) public { //load tokens in the rewards pool.\n        \n        uint256 _balanceNow = IERC20(address(poolMetrics.rewardToken)).balanceOf(address(this));\n        IERC20(address(poolMetrics.rewardToken)).transferFrom( msg.sender,  address(this),  _amount);\n        uint256 amount = IERC20(address(poolMetrics.rewardToken)).balanceOf(address(this)).sub(_balanceNow); //actually received\n        \n\n        if(poolMetrics.rewards == 0){                                   // initialization\n        poolMetrics.staked = SafeMath.add(poolMetrics.staked,amount);}  // creates baseline for pool. Avoids massive movements on rewards\n        \n        poolMetrics.rewards = SafeMath.add(poolMetrics.rewards,amount);\n    }    \n    function setFee(uint256 _fee) public onlyPoolOperator {\n        poolMetrics.stakingFee = _fee;\n    }\n    \n    function flushPool(address _recipient, address _ERC20address) external onlyPoolOperator poolEnded { // poolEnded returns(bool) {\n            uint256 _amount = IERC20(_ERC20address).balanceOf(address(this));\n            IERC20(_ERC20address).transfer(_recipient, _amount); //use of the _ERC20 traditional transfer\n            //return true;\n        } //get tokens sent by error to contract\n    function killPool() public onlyPoolOperator poolEnded { //onlyPoolOperator poolEnded returns(bool) {\n            selfdestruct(msg.sender);\n            //return true;\n        } //frees space on the ETH chain\n\n}\n\n\n//== END CONTRACT ==\npragma solidity ^0.6.0;\ninterface X_DFTfarming {\n    // at address: \n    function stake(uint256 amount) external; //stake shitcoins\n    function unStake(uint256 amount) external; //wd Stake only\n    function takeReward() external; //wd reward\n\n    function myRewards() external view returns(uint256);\n    function myStake() external view returns(uint256);\n    // 100000000000000000000 = 100 TOKENS\n}\n\ninterface X_Defiat_Token {\n    // at address: 0xB571d40e4A7087C1B73ce6a3f29EaDfCA022C5B2\n    function balanceOf(address account) external ;\n    function approve(address spender, uint256 amount) external;\n}\ninterface X_Defiat_Points {\n    // 0x70C7d7856E1558210CFbf27b7F17853655752453\n    function overrideDiscount(address _address, uint256 _newDiscount) external;\n    //whitelist the Locking Contract at 100 (100%) discount\n}\n",
  "sourcePath": "/Users/noahcoomer/source/defiat/contracts/DeFiat_Farming.sol",
  "compiler": {
    "name": "solc",
    "version": "0.6.6+commit.6c089d02.Emscripten.clang"
  },
  "schemaVersion": "3.2.3",
  "updatedAt": "2020-09-03T16:54:32.551Z",
  "devdoc": {
    "methods": {}
  },
  "userdoc": {
    "methods": {}
  }
}