{
  "contractName": "DeFiat_Bonds",
  "abi": [
    {
      "inputs": [
        {
          "internalType": "address",
          "name": "_token",
          "type": "address"
        },
        {
          "internalType": "uint256",
          "name": "_nbDays",
          "type": "uint256"
        },
        {
          "internalType": "uint256",
          "name": "_yield",
          "type": "uint256"
        },
        {
          "internalType": "uint256",
          "name": "_penalty",
          "type": "uint256"
        },
        {
          "internalType": "uint256",
          "name": "_entryReq",
          "type": "uint256"
        }
      ],
      "stateMutability": "nonpayable",
      "type": "constructor"
    },
    {
      "inputs": [],
      "name": "DefiatDungeon",
      "outputs": [
        {
          "internalType": "address",
          "name": "",
          "type": "address"
        }
      ],
      "stateMutability": "view",
      "type": "function"
    },
    {
      "inputs": [
        {
          "internalType": "address",
          "name": "",
          "type": "address"
        }
      ],
      "name": "allowed",
      "outputs": [
        {
          "internalType": "bool",
          "name": "",
          "type": "bool"
        }
      ],
      "stateMutability": "view",
      "type": "function"
    },
    {
      "inputs": [],
      "name": "bond",
      "outputs": [
        {
          "internalType": "address",
          "name": "token",
          "type": "address"
        },
        {
          "internalType": "uint256",
          "name": "duration",
          "type": "uint256"
        },
        {
          "internalType": "uint256",
          "name": "yield",
          "type": "uint256"
        },
        {
          "internalType": "uint256",
          "name": "penalty",
          "type": "uint256"
        },
        {
          "internalType": "uint256",
          "name": "entryReq",
          "type": "uint256"
        },
        {
          "internalType": "uint256",
          "name": "staked",
          "type": "uint256"
        }
      ],
      "stateMutability": "view",
      "type": "function"
    },
    {
      "inputs": [
        {
          "internalType": "address",
          "name": "",
          "type": "address"
        }
      ],
      "name": "clients",
      "outputs": [
        {
          "internalType": "uint256",
          "name": "deposited",
          "type": "uint256"
        },
        {
          "internalType": "uint256",
          "name": "depositDate",
          "type": "uint256"
        }
      ],
      "stateMutability": "view",
      "type": "function"
    },
    {
      "inputs": [
        {
          "internalType": "address",
          "name": "_address",
          "type": "address"
        }
      ],
      "name": "myDungeonStake",
      "outputs": [
        {
          "internalType": "uint256",
          "name": "",
          "type": "uint256"
        }
      ],
      "stateMutability": "view",
      "type": "function"
    },
    {
      "inputs": [
        {
          "internalType": "uint256",
          "name": "_amount",
          "type": "uint256"
        }
      ],
      "name": "deposit",
      "outputs": [],
      "stateMutability": "nonpayable",
      "type": "function"
    },
    {
      "inputs": [],
      "name": "withdraw",
      "outputs": [],
      "stateMutability": "nonpayable",
      "type": "function"
    },
    {
      "inputs": [],
      "name": "cancel",
      "outputs": [],
      "stateMutability": "nonpayable",
      "type": "function"
    },
    {
      "inputs": [
        {
          "internalType": "address",
          "name": "_address",
          "type": "address"
        }
      ],
      "name": "canWithdraw",
      "outputs": [
        {
          "internalType": "bool",
          "name": "",
          "type": "bool"
        }
      ],
      "stateMutability": "view",
      "type": "function"
    },
    {
      "inputs": [
        {
          "internalType": "address",
          "name": "_address",
          "type": "address"
        }
      ],
      "name": "maturity",
      "outputs": [
        {
          "internalType": "uint256",
          "name": "",
          "type": "uint256"
        }
      ],
      "stateMutability": "view",
      "type": "function"
    }
  ],
  "bytecode": "0x608060405234801561001057600080fd5b50604051620014ed380380620014ed833981810160405260a081101561003557600080fd5b81019080805190602001909291908051906020019092919080519060200190929190805190602001909291908051906020019092919050505084600160000160006101000a81548173ffffffffffffffffffffffffffffffffffffffff021916908373ffffffffffffffffffffffffffffffffffffffff1602179055508362015180026001800181905550826001600201819055506100e9670de0b6b3a7640000826101bf60201b610f771790919060201c565b6001600401819055508160016003018190555073b508dd7eed4517bc66462cd384c0849d99b160fc600760006101000a81548173ffffffffffffffffffffffffffffffffffffffff021916908373ffffffffffffffffffffffffffffffffffffffff160217905550600160008061016461024660201b60201c565b73ffffffffffffffffffffffffffffffffffffffff1673ffffffffffffffffffffffffffffffffffffffff16815260200190815260200160002060006101000a81548160ff021916908315150217905550505050505061024e565b6000808314156101d25760009050610240565b60008284029050828482816101e357fe5b041461023b576040517f08c379a0000000000000000000000000000000000000000000000000000000008152600401808060200182810382526021815260200180620014cc6021913960400191505060405180910390fd5b809150505b92915050565b600033905090565b61126e806200025e6000396000f3fe608060405234801561001057600080fd5b506004361061009e5760003560e01c8063b679805711610066578063b67980571461022d578063b6b55f2514610277578063d63a8e11146102a5578063e57b33a014610301578063ea8a1af0146103595761009e565b806319262d30146100a3578063216cb9fd146100ff5780633ccfd60b1461015757806361eed2a91461016157806364c9ec6f146101c0575b600080fd5b6100e5600480360360208110156100b957600080fd5b81019080803573ffffffffffffffffffffffffffffffffffffffff169060200190929190505050610363565b604051808215151515815260200191505060405180910390f35b6101416004803603602081101561011557600080fd5b81019080803573ffffffffffffffffffffffffffffffffffffffff169060200190929190505050610387565b6040518082815260200191505060405180910390f35b61015f61046a565b005b6101a36004803603602081101561017757600080fd5b81019080803573ffffffffffffffffffffffffffffffffffffffff169060200190929190505050610528565b604051808381526020018281526020019250505060405180910390f35b6101c861054c565b604051808773ffffffffffffffffffffffffffffffffffffffff1673ffffffffffffffffffffffffffffffffffffffff168152602001868152602001858152602001848152602001838152602001828152602001965050505050505060405180910390f35b610235610596565b604051808273ffffffffffffffffffffffffffffffffffffffff1673ffffffffffffffffffffffffffffffffffffffff16815260200191505060405180910390f35b6102a36004803603602081101561028d57600080fd5b81019080803590602001909291905050506105bc565b005b6102e7600480360360208110156102bb57600080fd5b81019080803573ffffffffffffffffffffffffffffffffffffffff16906020019092919050505061065c565b604051808215151515815260200191505060405180910390f35b6103436004803603602081101561031757600080fd5b81019080803573ffffffffffffffffffffffffffffffffffffffff16906020019092919050505061067c565b6040518082815260200191505060405180910390f35b6103616106de565b005b600080600090506103738361067c565b421061037e57600190505b80915050919050565b6000600760009054906101000a900473ffffffffffffffffffffffffffffffffffffffff1673ffffffffffffffffffffffffffffffffffffffff1663beaa369a836040518263ffffffff1660e01b8152600401808273ffffffffffffffffffffffffffffffffffffffff1673ffffffffffffffffffffffffffffffffffffffff16815260200191505060206040518083038186803b15801561042857600080fd5b505afa15801561043c573d6000803e3d6000fd5b505050506040513d602081101561045257600080fd5b81019080805190602001909291905050509050919050565b6104726106f0565b60016004015461048182610387565b10156104f5576040517f08c379a000000000000000000000000000000000000000000000000000000000815260040180806020018281038252601d8152602001807f4e65656420746f207374616b65206d6f726520696e2044756e67656f6e00000081525060200191505060405180910390fd5b600115156105096105046106f0565b610363565b15151461051557600080fd5b6105256105206106f0565b6106f8565b50565b60086020528060005260406000206000915090508060000154908060010154905082565b60018060000160009054906101000a900473ffffffffffffffffffffffffffffffffffffffff16908060010154908060020154908060030154908060040154908060050154905086565b600760009054906101000a900473ffffffffffffffffffffffffffffffffffffffff1681565b6105c46106f0565b6001600401546105d382610387565b1015610647576040517f08c379a000000000000000000000000000000000000000000000000000000000815260040180806020018281038252601d8152602001807f4e65656420746f207374616b65206d6f726520696e2044756e67656f6e00000081525060200191505060405180910390fd5b6106586106526106f0565b8361098a565b5050565b60006020528060005260406000206000915054906101000a900460ff1681565b60006106d76001800154600860008573ffffffffffffffffffffffffffffffffffffffff1673ffffffffffffffffffffffffffffffffffffffff16815260200190815260200160002060010154610c9990919063ffffffff16565b9050919050565b6106ee6106e96106f0565b610d21565b565b600033905090565b42600860008373ffffffffffffffffffffffffffffffffffffffff1673ffffffffffffffffffffffffffffffffffffffff1681526020019081526020016000206001018190555060006107ae60646107a0600160020154600860008773ffffffffffffffffffffffffffffffffffffffff1673ffffffffffffffffffffffffffffffffffffffff16815260200190815260200160002060000154610f7790919063ffffffff16565b610ffd90919063ffffffff16565b9050600160000160009054906101000a900473ffffffffffffffffffffffffffffffffffffffff1673ffffffffffffffffffffffffffffffffffffffff1663a9059cbb836108e184600160000160009054906101000a900473ffffffffffffffffffffffffffffffffffffffff1673ffffffffffffffffffffffffffffffffffffffff166370a08231886040518263ffffffff1660e01b8152600401808273ffffffffffffffffffffffffffffffffffffffff1673ffffffffffffffffffffffffffffffffffffffff16815260200191505060206040518083038186803b15801561089857600080fd5b505afa1580156108ac573d6000803e3d6000fd5b505050506040513d60208110156108c257600080fd5b8101908080519060200190929190505050610c9990919063ffffffff16565b6040518363ffffffff1660e01b8152600401808373ffffffffffffffffffffffffffffffffffffffff1673ffffffffffffffffffffffffffffffffffffffff16815260200182815260200192505050602060405180830381600087803b15801561094a57600080fd5b505af115801561095e573d6000803e3d6000fd5b505050506040513d602081101561097457600080fd5b8101908080519060200190929190505050505050565b8160016004015461099a82610387565b1015610a0e576040517f08c379a000000000000000000000000000000000000000000000000000000000815260040180806020018281038252601d8152602001807f4e65656420746f207374616b65206d6f726520696e2044756e67656f6e00000081525060200191505060405180910390fd5b42600860008573ffffffffffffffffffffffffffffffffffffffff1673ffffffffffffffffffffffffffffffffffffffff16815260200190815260200160002060010181905550600160000160009054906101000a900473ffffffffffffffffffffffffffffffffffffffff1673ffffffffffffffffffffffffffffffffffffffff166323b872dd8430856040518463ffffffff1660e01b8152600401808473ffffffffffffffffffffffffffffffffffffffff1673ffffffffffffffffffffffffffffffffffffffff1681526020018373ffffffffffffffffffffffffffffffffffffffff1673ffffffffffffffffffffffffffffffffffffffff1681526020018281526020019350505050602060405180830381600087803b158015610b3557600080fd5b505af1158015610b49573d6000803e3d6000fd5b505050506040513d6020811015610b5f57600080fd5b810190808051906020019092919050505050600160000160009054906101000a900473ffffffffffffffffffffffffffffffffffffffff1673ffffffffffffffffffffffffffffffffffffffff166370a08231846040518263ffffffff1660e01b8152600401808273ffffffffffffffffffffffffffffffffffffffff1673ffffffffffffffffffffffffffffffffffffffff16815260200191505060206040518083038186803b158015610c1357600080fd5b505afa158015610c27573d6000803e3d6000fd5b505050506040513d6020811015610c3d57600080fd5b8101908080519060200190929190505050600860008573ffffffffffffffffffffffffffffffffffffffff1673ffffffffffffffffffffffffffffffffffffffff16815260200190815260200160002060000181905550505050565b600080828401905083811015610d17576040517f08c379a000000000000000000000000000000000000000000000000000000000815260040180806020018281038252601b8152602001807f536166654d6174683a206164646974696f6e206f766572666c6f77000000000081525060200191505060405180910390fd5b8091505092915050565b42600860008373ffffffffffffffffffffffffffffffffffffffff1673ffffffffffffffffffffffffffffffffffffffff168152602001908152602001600020600101819055506000600160000160009054906101000a900473ffffffffffffffffffffffffffffffffffffffff1673ffffffffffffffffffffffffffffffffffffffff166370a08231836040518263ffffffff1660e01b8152600401808273ffffffffffffffffffffffffffffffffffffffff1673ffffffffffffffffffffffffffffffffffffffff16815260200191505060206040518083038186803b158015610e0c57600080fd5b505afa158015610e20573d6000803e3d6000fd5b505050506040513d6020811015610e3657600080fd5b810190808051906020019092919050505090506000610e766064610e6860016003015485610f7790919063ffffffff16565b610ffd90919063ffffffff16565b9050600160000160009054906101000a900473ffffffffffffffffffffffffffffffffffffffff1673ffffffffffffffffffffffffffffffffffffffff1663a9059cbb84610ecd848661104790919063ffffffff16565b6040518363ffffffff1660e01b8152600401808373ffffffffffffffffffffffffffffffffffffffff1673ffffffffffffffffffffffffffffffffffffffff16815260200182815260200192505050602060405180830381600087803b158015610f3657600080fd5b505af1158015610f4a573d6000803e3d6000fd5b505050506040513d6020811015610f6057600080fd5b810190808051906020019092919050505050505050565b600080831415610f8a5760009050610ff7565b6000828402905082848281610f9b57fe5b0414610ff2576040517f08c379a00000000000000000000000000000000000000000000000000000000081526004018080602001828103825260218152602001806112186021913960400191505060405180910390fd5b809150505b92915050565b600061103f83836040518060400160405280601a81526020017f536166654d6174683a206469766973696f6e206279207a65726f000000000000815250611091565b905092915050565b600061108983836040518060400160405280601e81526020017f536166654d6174683a207375627472616374696f6e206f766572666c6f770000815250611157565b905092915050565b6000808311829061113d576040517f08c379a00000000000000000000000000000000000000000000000000000000081526004018080602001828103825283818151815260200191508051906020019080838360005b838110156111025780820151818401526020810190506110e7565b50505050905090810190601f16801561112f5780820380516001836020036101000a031916815260200191505b509250505060405180910390fd5b50600083858161114957fe5b049050809150509392505050565b6000838311158290611204576040517f08c379a00000000000000000000000000000000000000000000000000000000081526004018080602001828103825283818151815260200191508051906020019080838360005b838110156111c95780820151818401526020810190506111ae565b50505050905090810190601f1680156111f65780820380516001836020036101000a031916815260200191505b509250505060405180910390fd5b506000838503905080915050939250505056fe536166654d6174683a206d756c7469706c69636174696f6e206f766572666c6f77a264697066735822122025838f273fc9d291f2701c8eefee11363c6503d11fe5b730aefb639c749b0b1e64736f6c63430006060033536166654d6174683a206d756c7469706c69636174696f6e206f766572666c6f77",
  "immutableReferences": {},
  "source": "//SPDX-Licence-Identifier: DeFiat.net\n\npragma solidity ^0.6.0;\n\nimport \"./_Interfaces.sol\";\nimport \"./Context.sol\";\nimport \"./SafeMath.sol\";\n\ninterface Dungeon {\n    function myStake(address _address) external view returns(uint256);\n}\n\ncontract DeFiat_Bonds is Context {\n\n    using SafeMath for uint256;\n\n    mapping(address => bool) public allowed;\n    modifier onlyAllowed() {\n        require(allowed[_msgSender()] == true, \"onlyAllowed\");\n        _;\n    }\n\n    struct Bond {\n        address token;\n        uint256 duration;\n        uint256 yield;\n        uint256 penalty;    // base 100 penalty for exiting early.\n        uint256 entryReq;   // entry requirement\n        uint256 staked;     // total amount of tokens staked\n    }\n    Bond public bond;\n    \n    address public DefiatDungeon;\n    \n    \n    struct Clients {\n        uint256 deposited;  // needed to avoid people sending tokens without reseting the maturity.\n        uint256 depositDate;\n    }\n    mapping(address => Clients) public clients;\n\n\n    constructor(address _token, uint256 _nbDays, uint256 _yield, uint256 _penalty, uint256 _entryReq) public {\n        \n        bond.token = _token;\n        bond.duration = 24*3600*_nbDays;\n        bond.yield = _yield;                    // base 100 yield = 150 = +50%;\n        bond.entryReq = _entryReq.mul(1e18);    // nb tokens staked in the DFT contract\n        bond.penalty = _penalty;\n\n        DefiatDungeon = address(0xB508Dd7EeD4517bc66462cd384c0849d99B160fc);\n        allowed[_msgSender()] = true;\n    }\n    \n    \n    function myDungeonStake(address _address) public view returns(uint256) {\n        return Dungeon(DefiatDungeon).myStake(_address);\n    }\n        \n    modifier canParticpate(address _address) {\n        require(myDungeonStake(_address)>= bond.entryReq, \"Need to stake more in Dungeon\");\n        _;\n    }\n \n \n    /**\n     * @dev allows clients to lock their tokens back + the bond's yield\n     * at the end of the maturity period.\n     * \n     * Every time a client deposits, it resets their maturity counter\n     * If a client sent tokens to the contract, sending 0 tokens to it \n     * will have them to account in the bond.\n     */\n    function _deposit(address _address, uint256 _amount) internal canParticpate (_address){\n        clients[_address].depositDate = block.timestamp; //before to avoid reentrancy\n        IERC20(bond.token).transferFrom(_address, address(this), _amount);\n        \n        clients[_address].deposited = IERC20(bond.token).balanceOf(_address); //manages deflationary tokens\n    }\n    \n    \n    /**\n     * @dev client's widthdrawal of tokens at the end of the maturity period\n     * triggers yield for the bond.\n     * \n     * The use of 'balanceOf' allows the users to retrive  tokens \n     * they may have sent to the contract instead of using the 'deposit' function.\n     */\n    function _widthdraw(address _address) internal {\n        clients[_address].depositDate = block.timestamp;\n        uint256 _yield = clients[_address].deposited.mul(bond.yield).div(100);\n        IERC20(bond.token).transfer(_address, IERC20(bond.token).balanceOf(_address).add(_yield));\n    }\n    \n    \n    /**\n     * @dev clients widthdrawal of tokens before the maturity period\n     * incurs a penalty and no yield is generated.\n     * \n     * The use of 'balanceOf' allows the users to retrive  tokens \n     * they may have sent to the contract instead of using the 'deposit' function.\n     * \n     */\n    function _cancel(address _address) internal {\n        clients[_address].depositDate = block.timestamp;\n        uint256 _amount = IERC20(bond.token).balanceOf(_address);\n        uint256 _fee = _amount.mul(bond.penalty).div(100);\n        IERC20(bond.token).transfer(_address, _amount.sub(_fee));\n    }\n\n\n//external functions\n    function deposit(uint256 _amount) external canParticpate(_msgSender()) {\n        _deposit(_msgSender(), _amount);\n    }\n    \n    function withdraw() external canParticpate(_msgSender()) {\n        require(canWithdraw(_msgSender()) == true);\n        _widthdraw(_msgSender());\n    }\n    \n    function cancel() external {\n        _cancel(_msgSender());\n    }\n\n//getters\n    function canWithdraw(address _address) public view returns(bool) {\n      bool _canWd = false;\n      if(block.timestamp >= maturity(_address)){_canWd = true;}\n      return _canWd;\n    }\n    \n    function maturity(address _address) public view returns(uint256) {\n        return clients[_address].depositDate.add(bond.duration);\n    }\n}\n\n\n",
  "sourcePath": "/Users/noahcoomer/source/defiat/contracts/Defiat_Bonds.sol",
  "compiler": {
    "name": "solc",
    "version": "0.6.6+commit.6c089d02.Emscripten.clang"
  },
  "schemaVersion": "3.2.3",
  "updatedAt": "2020-09-27T09:09:48.941Z",
  "devdoc": {
    "methods": {}
  },
  "userdoc": {
    "methods": {}
  }
}