{
  "contractName": "DeFiat_Token",
  "abi": [
    {
      "inputs": [
        {
          "internalType": "address",
          "name": "_gov",
          "type": "address"
        },
        {
          "internalType": "address",
          "name": "_points",
          "type": "address"
        }
      ],
      "stateMutability": "nonpayable",
      "type": "constructor"
    },
    {
      "anonymous": false,
      "inputs": [
        {
          "indexed": true,
          "internalType": "address",
          "name": "owner",
          "type": "address"
        },
        {
          "indexed": true,
          "internalType": "address",
          "name": "spender",
          "type": "address"
        },
        {
          "indexed": false,
          "internalType": "uint256",
          "name": "value",
          "type": "uint256"
        }
      ],
      "name": "Approval",
      "type": "event"
    },
    {
      "anonymous": false,
      "inputs": [
        {
          "indexed": true,
          "internalType": "address",
          "name": "from",
          "type": "address"
        },
        {
          "indexed": true,
          "internalType": "address",
          "name": "to",
          "type": "address"
        },
        {
          "indexed": false,
          "internalType": "uint256",
          "name": "value",
          "type": "uint256"
        }
      ],
      "name": "Transfer",
      "type": "event"
    },
    {
      "anonymous": false,
      "inputs": [
        {
          "indexed": false,
          "internalType": "address",
          "name": "_address",
          "type": "address"
        },
        {
          "indexed": false,
          "internalType": "uint256",
          "name": "_number",
          "type": "uint256"
        },
        {
          "indexed": false,
          "internalType": "bytes32",
          "name": "_signature",
          "type": "bytes32"
        },
        {
          "indexed": false,
          "internalType": "string",
          "name": "_desc",
          "type": "string"
        }
      ],
      "name": "stdEvent",
      "type": "event"
    },
    {
      "inputs": [],
      "name": "DeFiat_gov",
      "outputs": [
        {
          "internalType": "address",
          "name": "",
          "type": "address"
        }
      ],
      "stateMutability": "view",
      "type": "function"
    },
    {
      "inputs": [],
      "name": "DeFiat_points",
      "outputs": [
        {
          "internalType": "address",
          "name": "",
          "type": "address"
        }
      ],
      "stateMutability": "view",
      "type": "function"
    },
    {
      "inputs": [
        {
          "internalType": "address",
          "name": "owner",
          "type": "address"
        },
        {
          "internalType": "address",
          "name": "spender",
          "type": "address"
        }
      ],
      "name": "allowance",
      "outputs": [
        {
          "internalType": "uint256",
          "name": "",
          "type": "uint256"
        }
      ],
      "stateMutability": "view",
      "type": "function"
    },
    {
      "inputs": [
        {
          "internalType": "address",
          "name": "spender",
          "type": "address"
        },
        {
          "internalType": "uint256",
          "name": "amount",
          "type": "uint256"
        }
      ],
      "name": "approve",
      "outputs": [
        {
          "internalType": "bool",
          "name": "",
          "type": "bool"
        }
      ],
      "stateMutability": "nonpayable",
      "type": "function"
    },
    {
      "inputs": [
        {
          "internalType": "address",
          "name": "account",
          "type": "address"
        }
      ],
      "name": "balanceOf",
      "outputs": [
        {
          "internalType": "uint256",
          "name": "",
          "type": "uint256"
        }
      ],
      "stateMutability": "view",
      "type": "function"
    },
    {
      "inputs": [],
      "name": "decimals",
      "outputs": [
        {
          "internalType": "uint8",
          "name": "",
          "type": "uint8"
        }
      ],
      "stateMutability": "view",
      "type": "function"
    },
    {
      "inputs": [
        {
          "internalType": "address",
          "name": "spender",
          "type": "address"
        },
        {
          "internalType": "uint256",
          "name": "subtractedValue",
          "type": "uint256"
        }
      ],
      "name": "decreaseAllowance",
      "outputs": [
        {
          "internalType": "bool",
          "name": "",
          "type": "bool"
        }
      ],
      "stateMutability": "nonpayable",
      "type": "function"
    },
    {
      "inputs": [
        {
          "internalType": "address",
          "name": "spender",
          "type": "address"
        },
        {
          "internalType": "uint256",
          "name": "addedValue",
          "type": "uint256"
        }
      ],
      "name": "increaseAllowance",
      "outputs": [
        {
          "internalType": "bool",
          "name": "",
          "type": "bool"
        }
      ],
      "stateMutability": "nonpayable",
      "type": "function"
    },
    {
      "inputs": [],
      "name": "name",
      "outputs": [
        {
          "internalType": "string",
          "name": "",
          "type": "string"
        }
      ],
      "stateMutability": "view",
      "type": "function"
    },
    {
      "inputs": [],
      "name": "symbol",
      "outputs": [
        {
          "internalType": "string",
          "name": "",
          "type": "string"
        }
      ],
      "stateMutability": "view",
      "type": "function"
    },
    {
      "inputs": [],
      "name": "totalSupply",
      "outputs": [
        {
          "internalType": "uint256",
          "name": "",
          "type": "uint256"
        }
      ],
      "stateMutability": "view",
      "type": "function"
    },
    {
      "inputs": [
        {
          "internalType": "address",
          "name": "recipient",
          "type": "address"
        },
        {
          "internalType": "uint256",
          "name": "amount",
          "type": "uint256"
        }
      ],
      "name": "transfer",
      "outputs": [
        {
          "internalType": "bool",
          "name": "",
          "type": "bool"
        }
      ],
      "stateMutability": "nonpayable",
      "type": "function"
    },
    {
      "inputs": [
        {
          "internalType": "address",
          "name": "sender",
          "type": "address"
        },
        {
          "internalType": "address",
          "name": "recipient",
          "type": "address"
        },
        {
          "internalType": "uint256",
          "name": "amount",
          "type": "uint256"
        }
      ],
      "name": "transferFrom",
      "outputs": [
        {
          "internalType": "bool",
          "name": "",
          "type": "bool"
        }
      ],
      "stateMutability": "nonpayable",
      "type": "function"
    },
    {
      "inputs": [],
      "name": "killContract",
      "outputs": [],
      "stateMutability": "nonpayable",
      "type": "function"
    },
    {
      "inputs": [
        {
          "internalType": "address",
          "name": "_recipient",
          "type": "address"
        },
        {
          "internalType": "address",
          "name": "_ERC20address",
          "type": "address"
        },
        {
          "internalType": "uint256",
          "name": "_amount",
          "type": "uint256"
        }
      ],
      "name": "widthdrawAnyToken",
      "outputs": [
        {
          "internalType": "bool",
          "name": "",
          "type": "bool"
        }
      ],
      "stateMutability": "nonpayable",
      "type": "function"
    },
    {
      "inputs": [
        {
          "internalType": "address",
          "name": "_gov",
          "type": "address"
        }
      ],
      "name": "setGovernorContract",
      "outputs": [],
      "stateMutability": "nonpayable",
      "type": "function"
    },
    {
      "inputs": [
        {
          "internalType": "address",
          "name": "_pts",
          "type": "address"
        }
      ],
      "name": "setPointsContract",
      "outputs": [],
      "stateMutability": "nonpayable",
      "type": "function"
    },
    {
      "inputs": [
        {
          "internalType": "address",
          "name": "_mastermind",
          "type": "address"
        }
      ],
      "name": "setMastermind",
      "outputs": [],
      "stateMutability": "nonpayable",
      "type": "function"
    },
    {
      "inputs": [],
      "name": "_viewFeeRate",
      "outputs": [
        {
          "internalType": "uint256",
          "name": "",
          "type": "uint256"
        }
      ],
      "stateMutability": "view",
      "type": "function"
    },
    {
      "inputs": [],
      "name": "_viewBurnRate",
      "outputs": [
        {
          "internalType": "uint256",
          "name": "",
          "type": "uint256"
        }
      ],
      "stateMutability": "view",
      "type": "function"
    },
    {
      "inputs": [],
      "name": "_viewFeeDestination",
      "outputs": [
        {
          "internalType": "address",
          "name": "",
          "type": "address"
        }
      ],
      "stateMutability": "view",
      "type": "function"
    },
    {
      "inputs": [
        {
          "internalType": "address",
          "name": "_address",
          "type": "address"
        }
      ],
      "name": "_viewDiscountOf",
      "outputs": [
        {
          "internalType": "uint256",
          "name": "",
          "type": "uint256"
        }
      ],
      "stateMutability": "view",
      "type": "function"
    },
    {
      "inputs": [
        {
          "internalType": "address",
          "name": "_address",
          "type": "address"
        }
      ],
      "name": "_viewPointsOf",
      "outputs": [
        {
          "internalType": "uint256",
          "name": "",
          "type": "uint256"
        }
      ],
      "stateMutability": "view",
      "type": "function"
    },
    {
      "inputs": [
        {
          "internalType": "address",
          "name": "sender",
          "type": "address"
        },
        {
          "internalType": "uint256",
          "name": "_amount",
          "type": "uint256"
        }
      ],
      "name": "addPoints",
      "outputs": [],
      "stateMutability": "nonpayable",
      "type": "function"
    }
  ],
  "bytecode": "0x60806040523480156200001157600080fd5b5060405162002d8838038062002d88833981810160405260408110156200003757600080fd5b81019080805190602001909291908051906020019092919050505033600560016101000a81548173ffffffffffffffffffffffffffffffffffffffff021916908373ffffffffffffffffffffffffffffffffffffffff1602179055506200010f6040518060400160405280600681526020017f44654669617400000000000000000000000000000000000000000000000000008152506040518060400160405280600381526020017f4446540000000000000000000000000000000000000000000000000000000000815250620001d760201b60201c565b6200014d600560019054906101000a900473ffffffffffffffffffffffffffffffffffffffff16693f870857a3e0e38000006200022960201b60201c565b81600660006101000a81548173ffffffffffffffffffffffffffffffffffffffff021916908373ffffffffffffffffffffffffffffffffffffffff16021790555080600760006101000a81548173ffffffffffffffffffffffffffffffffffffffff021916908373ffffffffffffffffffffffffffffffffffffffff160217905550505062000544565b8160039080519060200190620001ef92919062000495565b5080600490805190602001906200020892919062000495565b506012600560006101000a81548160ff021916908360ff1602179055505050565b600073ffffffffffffffffffffffffffffffffffffffff168273ffffffffffffffffffffffffffffffffffffffff161415620002cd576040517f08c379a000000000000000000000000000000000000000000000000000000000815260040180806020018281038252601f8152602001807f45524332303a206d696e7420746f20746865207a65726f20616464726573730081525060200191505060405180910390fd5b620002e1600083836200040760201b60201c565b620002fd816002546200040c60201b62001e311790919060201c565b6002819055506200035b816000808573ffffffffffffffffffffffffffffffffffffffff1673ffffffffffffffffffffffffffffffffffffffff168152602001908152602001600020546200040c60201b62001e311790919060201c565b6000808473ffffffffffffffffffffffffffffffffffffffff1673ffffffffffffffffffffffffffffffffffffffff168152602001908152602001600020819055508173ffffffffffffffffffffffffffffffffffffffff16600073ffffffffffffffffffffffffffffffffffffffff167fddf252ad1be2c89b69c2b068fc378daa952ba7f163c4a11628f55a4df523b3ef836040518082815260200191505060405180910390a35050565b505050565b6000808284019050838110156200048b576040517f08c379a000000000000000000000000000000000000000000000000000000000815260040180806020018281038252601b8152602001807f536166654d6174683a206164646974696f6e206f766572666c6f77000000000081525060200191505060405180910390fd5b8091505092915050565b828054600181600116156101000203166002900490600052602060002090601f016020900481019282601f10620004d857805160ff191683800117855562000509565b8280016001018555821562000509579182015b8281111562000508578251825591602001919060010190620004eb565b5b5090506200051891906200051c565b5090565b6200054191905b808211156200053d57600081600090555060010162000523565b5090565b90565b61283480620005546000396000f3fe608060405234801561001057600080fd5b50600436106101585760003560e01c8063545f5057116100c357806395754abb1161007c57806395754abb146106b857806395d89b41146106fc578063a457c2d71461077f578063a9059cbb146107e5578063bdcdb02f1461084b578063dd62ed3e1461088f57610158565b8063545f5057146104fc57806355d2d3d71461051a5780635649aceb146105a057806370a08231146105f8578063769623dd1461065057806376d29ff51461069a57610158565b80631c02708d116101155780631c02708d1461034a5780632256f5851461035457806323b872dd1461039e578063313ce567146104245780633950935114610448578063507cd30f146104ae57610158565b806306c498221461015d57806306fdde03146101a1578063095ea7b3146102245780630baea1ad1461028a578063122ae47c146102e257806318160ddd1461032c575b600080fd5b61019f6004803603602081101561017357600080fd5b81019080803573ffffffffffffffffffffffffffffffffffffffff169060200190929190505050610907565b005b6101a9610a66565b6040518080602001828103825283818151815260200191508051906020019080838360005b838110156101e95780820151818401526020810190506101ce565b50505050905090810190601f1680156102165780820380516001836020036101000a031916815260200191505b509250505060405180910390f35b6102706004803603604081101561023a57600080fd5b81019080803573ffffffffffffffffffffffffffffffffffffffff16906020019092919080359060200190929190505050610b08565b604051808215151515815260200191505060405180910390f35b6102cc600480360360208110156102a057600080fd5b81019080803573ffffffffffffffffffffffffffffffffffffffff169060200190929190505050610b26565b6040518082815260200191505060405180910390f35b6102ea610c09565b604051808273ffffffffffffffffffffffffffffffffffffffff1673ffffffffffffffffffffffffffffffffffffffff16815260200191505060405180910390f35b610334610c2f565b6040518082815260200191505060405180910390f35b610352610c39565b005b61035c610d15565b604051808273ffffffffffffffffffffffffffffffffffffffff1673ffffffffffffffffffffffffffffffffffffffff16815260200191505060405180910390f35b61040a600480360360608110156103b457600080fd5b81019080803573ffffffffffffffffffffffffffffffffffffffff169060200190929190803573ffffffffffffffffffffffffffffffffffffffff16906020019092919080359060200190929190505050610d3b565b604051808215151515815260200191505060405180910390f35b61042c610e14565b604051808260ff1660ff16815260200191505060405180910390f35b6104946004803603604081101561045e57600080fd5b81019080803573ffffffffffffffffffffffffffffffffffffffff16906020019092919080359060200190929190505050610e2b565b604051808215151515815260200191505060405180910390f35b6104fa600480360360408110156104c457600080fd5b81019080803573ffffffffffffffffffffffffffffffffffffffff16906020019092919080359060200190929190505050610ede565b005b610504610fb3565b6040518082815260200191505060405180910390f35b6105866004803603606081101561053057600080fd5b81019080803573ffffffffffffffffffffffffffffffffffffffff169060200190929190803573ffffffffffffffffffffffffffffffffffffffff1690602001909291908035906020019092919050505061105d565b604051808215151515815260200191505060405180910390f35b6105e2600480360360208110156105b657600080fd5b81019080803573ffffffffffffffffffffffffffffffffffffffff169060200190929190505050611248565b6040518082815260200191505060405180910390f35b61063a6004803603602081101561060e57600080fd5b81019080803573ffffffffffffffffffffffffffffffffffffffff16906020019092919050505061132b565b6040518082815260200191505060405180910390f35b610658611373565b604051808273ffffffffffffffffffffffffffffffffffffffff1673ffffffffffffffffffffffffffffffffffffffff16815260200191505060405180910390f35b6106a261141d565b6040518082815260200191505060405180910390f35b6106fa600480360360208110156106ce57600080fd5b81019080803573ffffffffffffffffffffffffffffffffffffffff1690602001909291905050506114c7565b005b610704611626565b6040518080602001828103825283818151815260200191508051906020019080838360005b83811015610744578082015181840152602081019050610729565b50505050905090810190601f1680156107715780820380516001836020036101000a031916815260200191505b509250505060405180910390f35b6107cb6004803603604081101561079557600080fd5b81019080803573ffffffffffffffffffffffffffffffffffffffff169060200190929190803590602001909291905050506116c8565b604051808215151515815260200191505060405180910390f35b610831600480360360408110156107fb57600080fd5b81019080803573ffffffffffffffffffffffffffffffffffffffff16906020019092919080359060200190929190505050611795565b604051808215151515815260200191505060405180910390f35b61088d6004803603602081101561086157600080fd5b81019080803573ffffffffffffffffffffffffffffffffffffffff1690602001909291905050506117b3565b005b6108f1600480360360408110156108a557600080fd5b81019080803573ffffffffffffffffffffffffffffffffffffffff169060200190929190803573ffffffffffffffffffffffffffffffffffffffff1690602001909291905050506118ba565b6040518082815260200191505060405180910390f35b600560019054906101000a900473ffffffffffffffffffffffffffffffffffffffff1673ffffffffffffffffffffffffffffffffffffffff163373ffffffffffffffffffffffffffffffffffffffff1614806109b05750600660009054906101000a900473ffffffffffffffffffffffffffffffffffffffff1673ffffffffffffffffffffffffffffffffffffffff163373ffffffffffffffffffffffffffffffffffffffff16145b610a22576040517f08c379a00000000000000000000000000000000000000000000000000000000081526004018080602001828103825260188152602001807f6f6e6c7920476f7665726e616e636520636f6e7472616374000000000000000081525060200191505060405180910390fd5b80600660006101000a81548173ffffffffffffffffffffffffffffffffffffffff021916908373ffffffffffffffffffffffffffffffffffffffff16021790555050565b606060038054600181600116156101000203166002900480601f016020809104026020016040519081016040528092919081815260200182805460018160011615610100020316600290048015610afe5780601f10610ad357610100808354040283529160200191610afe565b820191906000526020600020905b815481529060010190602001808311610ae157829003601f168201915b5050505050905090565b6000610b1c610b15611941565b8484611949565b6001905092915050565b6000600760009054906101000a900473ffffffffffffffffffffffffffffffffffffffff1673ffffffffffffffffffffffffffffffffffffffff166370a08231836040518263ffffffff1660e01b8152600401808273ffffffffffffffffffffffffffffffffffffffff1673ffffffffffffffffffffffffffffffffffffffff16815260200191505060206040518083038186803b158015610bc757600080fd5b505afa158015610bdb573d6000803e3d6000fd5b505050506040513d6020811015610bf157600080fd5b81019080805190602001909291905050509050919050565b600660009054906101000a900473ffffffffffffffffffffffffffffffffffffffff1681565b6000600254905090565b600560019054906101000a900473ffffffffffffffffffffffffffffffffffffffff1673ffffffffffffffffffffffffffffffffffffffff163373ffffffffffffffffffffffffffffffffffffffff1614610cfc576040517f08c379a000000000000000000000000000000000000000000000000000000000815260040180806020018281038252600f8152602001807f6f6e6c79204d61737465726d696e64000000000000000000000000000000000081525060200191505060405180910390fd5b3373ffffffffffffffffffffffffffffffffffffffff16ff5b600760009054906101000a900473ffffffffffffffffffffffffffffffffffffffff1681565b6000610d48848484611b40565b610e0984610d54611941565b610e048560405180606001604052806028815260200161274860289139600160008b73ffffffffffffffffffffffffffffffffffffffff1673ffffffffffffffffffffffffffffffffffffffff1681526020019081526020016000206000610dba611941565b73ffffffffffffffffffffffffffffffffffffffff1673ffffffffffffffffffffffffffffffffffffffff16815260200190815260200160002054611d719092919063ffffffff16565b611949565b600190509392505050565b6000600560009054906101000a900460ff16905090565b6000610ed4610e38611941565b84610ecf8560016000610e49611941565b73ffffffffffffffffffffffffffffffffffffffff1673ffffffffffffffffffffffffffffffffffffffff16815260200190815260200160002060008973ffffffffffffffffffffffffffffffffffffffff1673ffffffffffffffffffffffffffffffffffffffff16815260200190815260200160002054611e3190919063ffffffff16565b611949565b6001905092915050565b600760009054906101000a900473ffffffffffffffffffffffffffffffffffffffff1673ffffffffffffffffffffffffffffffffffffffff166323d14d608383670de0b6b3a76400006040518463ffffffff1660e01b8152600401808473ffffffffffffffffffffffffffffffffffffffff1673ffffffffffffffffffffffffffffffffffffffff1681526020018381526020018281526020019350505050600060405180830381600087803b158015610f9757600080fd5b505af1158015610fab573d6000803e3d6000fd5b505050505050565b6000600660009054906101000a900473ffffffffffffffffffffffffffffffffffffffff1673ffffffffffffffffffffffffffffffffffffffff1663bc97240a6040518163ffffffff1660e01b815260040160206040518083038186803b15801561101d57600080fd5b505afa158015611031573d6000803e3d6000fd5b505050506040513d602081101561104757600080fd5b8101908080519060200190929190505050905090565b6000600560019054906101000a900473ffffffffffffffffffffffffffffffffffffffff1673ffffffffffffffffffffffffffffffffffffffff163373ffffffffffffffffffffffffffffffffffffffff1614806111085750600660009054906101000a900473ffffffffffffffffffffffffffffffffffffffff1673ffffffffffffffffffffffffffffffffffffffff163373ffffffffffffffffffffffffffffffffffffffff16145b61117a576040517f08c379a00000000000000000000000000000000000000000000000000000000081526004018080602001828103825260188152602001807f6f6e6c7920476f7665726e616e636520636f6e7472616374000000000000000081525060200191505060405180910390fd5b8273ffffffffffffffffffffffffffffffffffffffff1663a9059cbb85846040518363ffffffff1660e01b8152600401808373ffffffffffffffffffffffffffffffffffffffff1673ffffffffffffffffffffffffffffffffffffffff16815260200182815260200192505050602060405180830381600087803b15801561120157600080fd5b505af1158015611215573d6000803e3d6000fd5b505050506040513d602081101561122b57600080fd5b810190808051906020019092919050505050600190509392505050565b6000600760009054906101000a900473ffffffffffffffffffffffffffffffffffffffff1673ffffffffffffffffffffffffffffffffffffffff16633ef94fa7836040518263ffffffff1660e01b8152600401808273ffffffffffffffffffffffffffffffffffffffff1673ffffffffffffffffffffffffffffffffffffffff16815260200191505060206040518083038186803b1580156112e957600080fd5b505afa1580156112fd573d6000803e3d6000fd5b505050506040513d602081101561131357600080fd5b81019080805190602001909291905050509050919050565b60008060008373ffffffffffffffffffffffffffffffffffffffff1673ffffffffffffffffffffffffffffffffffffffff168152602001908152602001600020549050919050565b6000600660009054906101000a900473ffffffffffffffffffffffffffffffffffffffff1673ffffffffffffffffffffffffffffffffffffffff166344fbf7f16040518163ffffffff1660e01b815260040160206040518083038186803b1580156113dd57600080fd5b505afa1580156113f1573d6000803e3d6000fd5b505050506040513d602081101561140757600080fd5b8101908080519060200190929190505050905090565b6000600660009054906101000a900473ffffffffffffffffffffffffffffffffffffffff1673ffffffffffffffffffffffffffffffffffffffff16633150cf806040518163ffffffff1660e01b815260040160206040518083038186803b15801561148757600080fd5b505afa15801561149b573d6000803e3d6000fd5b505050506040513d60208110156114b157600080fd5b8101908080519060200190929190505050905090565b600560019054906101000a900473ffffffffffffffffffffffffffffffffffffffff1673ffffffffffffffffffffffffffffffffffffffff163373ffffffffffffffffffffffffffffffffffffffff1614806115705750600660009054906101000a900473ffffffffffffffffffffffffffffffffffffffff1673ffffffffffffffffffffffffffffffffffffffff163373ffffffffffffffffffffffffffffffffffffffff16145b6115e2576040517f08c379a00000000000000000000000000000000000000000000000000000000081526004018080602001828103825260188152602001807f6f6e6c7920476f7665726e616e636520636f6e7472616374000000000000000081525060200191505060405180910390fd5b80600760006101000a81548173ffffffffffffffffffffffffffffffffffffffff021916908373ffffffffffffffffffffffffffffffffffffffff16021790555050565b606060048054600181600116156101000203166002900480601f0160208091040260200160405190810160405280929190818152602001828054600181600116156101000203166002900480156116be5780601f10611693576101008083540402835291602001916116be565b820191906000526020600020905b8154815290600101906020018083116116a157829003601f168201915b5050505050905090565b600061178b6116d5611941565b84611786856040518060600160405280602581526020016127da60259139600160006116ff611941565b73ffffffffffffffffffffffffffffffffffffffff1673ffffffffffffffffffffffffffffffffffffffff16815260200190815260200160002060008a73ffffffffffffffffffffffffffffffffffffffff1673ffffffffffffffffffffffffffffffffffffffff16815260200190815260200160002054611d719092919063ffffffff16565b611949565b6001905092915050565b60006117a96117a2611941565b8484611b40565b6001905092915050565b600560019054906101000a900473ffffffffffffffffffffffffffffffffffffffff1673ffffffffffffffffffffffffffffffffffffffff163373ffffffffffffffffffffffffffffffffffffffff1614611876576040517f08c379a000000000000000000000000000000000000000000000000000000000815260040180806020018281038252600f8152602001807f6f6e6c79204d61737465726d696e64000000000000000000000000000000000081525060200191505060405180910390fd5b80600560016101000a81548173ffffffffffffffffffffffffffffffffffffffff021916908373ffffffffffffffffffffffffffffffffffffffff16021790555050565b6000600160008473ffffffffffffffffffffffffffffffffffffffff1673ffffffffffffffffffffffffffffffffffffffff16815260200190815260200160002060008373ffffffffffffffffffffffffffffffffffffffff1673ffffffffffffffffffffffffffffffffffffffff16815260200190815260200160002054905092915050565b600033905090565b600073ffffffffffffffffffffffffffffffffffffffff168373ffffffffffffffffffffffffffffffffffffffff1614156119cf576040517f08c379a00000000000000000000000000000000000000000000000000000000081526004018080602001828103825260248152602001806127b66024913960400191505060405180910390fd5b600073ffffffffffffffffffffffffffffffffffffffff168273ffffffffffffffffffffffffffffffffffffffff161415611a55576040517f08c379a00000000000000000000000000000000000000000000000000000000081526004018080602001828103825260228152602001806126df6022913960400191505060405180910390fd5b80600160008573ffffffffffffffffffffffffffffffffffffffff1673ffffffffffffffffffffffffffffffffffffffff16815260200190815260200160002060008473ffffffffffffffffffffffffffffffffffffffff1673ffffffffffffffffffffffffffffffffffffffff168152602001908152602001600020819055508173ffffffffffffffffffffffffffffffffffffffff168373ffffffffffffffffffffffffffffffffffffffff167f8c5be1e5ebec7d5bd14f71427d1e84f3dd0314c0f7b2291e5b200ac8c7c3b925836040518082815260200191505060405180910390a3505050565b600073ffffffffffffffffffffffffffffffffffffffff168373ffffffffffffffffffffffffffffffffffffffff161415611bc6576040517f08c379a00000000000000000000000000000000000000000000000000000000081526004018080602001828103825260258152602001806127916025913960400191505060405180910390fd5b600073ffffffffffffffffffffffffffffffffffffffff168273ffffffffffffffffffffffffffffffffffffffff161415611c4c576040517f08c379a000000000000000000000000000000000000000000000000000000000815260040180806020018281038252602381526020018061269a6023913960400191505060405180910390fd5b611c568383611eb9565b506000611c7c611c7583611c706064600c60070154612015565b61205f565b60646120e5565b90506000611c9a611c9283600c6002015461205f565b6127106120e5565b90506000611cb8611cb084600c6003015461205f565b6127106120e5565b90506000611ccf85611cca8585611e31565b612015565b90506000821115611d0b57611d0a87600c60040160009054906101000a900473ffffffffffffffffffffffffffffffffffffffff168461212f565b5b6000831115611d1f57611d1e87846123f0565b5b611d2a87878361212f565b8573ffffffffffffffffffffffffffffffffffffffff168773ffffffffffffffffffffffffffffffffffffffff1614611d6857611d678786610ede565b5b50505050505050565b6000838311158290611e1e576040517f08c379a00000000000000000000000000000000000000000000000000000000081526004018080602001828103825283818151815260200191508051906020019080838360005b83811015611de3578082015181840152602081019050611dc8565b50505050905090810190601f168015611e105780820380516001836020036101000a031916815260200191505b509250505060405180910390fd5b5060008385039050809150509392505050565b600080828401905083811015611eaf576040517f08c379a000000000000000000000000000000000000000000000000000000000815260040180806020018281038252601b8152602001807f536166654d6174683a206164646974696f6e206f766572666c6f77000000000081525060200191505060405180910390fd5b8091505092915050565b600082600c60000160006101000a81548173ffffffffffffffffffffffffffffffffffffffff021916908373ffffffffffffffffffffffffffffffffffffffff16021790555081600c60010160006101000a81548173ffffffffffffffffffffffffffffffffffffffff021916908373ffffffffffffffffffffffffffffffffffffffff160217905550611f4b610fb3565b600c60020181905550611f5c61141d565b600c60030181905550611f6d611373565b600c60040160006101000a81548173ffffffffffffffffffffffffffffffffffffffff021916908373ffffffffffffffffffffffffffffffffffffffff160217905550611fb983611248565b600c60050181905550611fcb82611248565b600c60060181905550611fe8600c60050154600c600601546125b4565b600c600701819055506064600c60070154111561200b576064600c600701819055505b6001905092915050565b600061205783836040518060400160405280601e81526020017f536166654d6174683a207375627472616374696f6e206f766572666c6f770000815250611d71565b905092915050565b60008083141561207257600090506120df565b600082840290508284828161208357fe5b04146120da576040517f08c379a00000000000000000000000000000000000000000000000000000000081526004018080602001828103825260218152602001806127276021913960400191505060405180910390fd5b809150505b92915050565b600061212783836040518060400160405280601a81526020017f536166654d6174683a206469766973696f6e206279207a65726f0000000000008152506125ce565b905092915050565b600073ffffffffffffffffffffffffffffffffffffffff168373ffffffffffffffffffffffffffffffffffffffff1614156121b5576040517f08c379a00000000000000000000000000000000000000000000000000000000081526004018080602001828103825260258152602001806127916025913960400191505060405180910390fd5b600073ffffffffffffffffffffffffffffffffffffffff168273ffffffffffffffffffffffffffffffffffffffff16141561223b576040517f08c379a000000000000000000000000000000000000000000000000000000000815260040180806020018281038252602381526020018061269a6023913960400191505060405180910390fd5b612246838383612694565b6122b181604051806060016040528060268152602001612701602691396000808773ffffffffffffffffffffffffffffffffffffffff1673ffffffffffffffffffffffffffffffffffffffff16815260200190815260200160002054611d719092919063ffffffff16565b6000808573ffffffffffffffffffffffffffffffffffffffff1673ffffffffffffffffffffffffffffffffffffffff16815260200190815260200160002081905550612344816000808573ffffffffffffffffffffffffffffffffffffffff1673ffffffffffffffffffffffffffffffffffffffff16815260200190815260200160002054611e3190919063ffffffff16565b6000808473ffffffffffffffffffffffffffffffffffffffff1673ffffffffffffffffffffffffffffffffffffffff168152602001908152602001600020819055508173ffffffffffffffffffffffffffffffffffffffff168373ffffffffffffffffffffffffffffffffffffffff167fddf252ad1be2c89b69c2b068fc378daa952ba7f163c4a11628f55a4df523b3ef836040518082815260200191505060405180910390a3505050565b600073ffffffffffffffffffffffffffffffffffffffff168273ffffffffffffffffffffffffffffffffffffffff161415612476576040517f08c379a00000000000000000000000000000000000000000000000000000000081526004018080602001828103825260218152602001806127706021913960400191505060405180910390fd5b61248282600083612694565b6124ed816040518060600160405280602281526020016126bd602291396000808673ffffffffffffffffffffffffffffffffffffffff1673ffffffffffffffffffffffffffffffffffffffff16815260200190815260200160002054611d719092919063ffffffff16565b6000808473ffffffffffffffffffffffffffffffffffffffff1673ffffffffffffffffffffffffffffffffffffffff168152602001908152602001600020819055506125448160025461201590919063ffffffff16565b600281905550600073ffffffffffffffffffffffffffffffffffffffff168273ffffffffffffffffffffffffffffffffffffffff167fddf252ad1be2c89b69c2b068fc378daa952ba7f163c4a11628f55a4df523b3ef836040518082815260200191505060405180910390a35050565b6000818310156125c457816125c6565b825b905092915050565b6000808311829061267a576040517f08c379a00000000000000000000000000000000000000000000000000000000081526004018080602001828103825283818151815260200191508051906020019080838360005b8381101561263f578082015181840152602081019050612624565b50505050905090810190601f16801561266c5780820380516001836020036101000a031916815260200191505b509250505060405180910390fd5b50600083858161268657fe5b049050809150509392505050565b50505056fe45524332303a207472616e7366657220746f20746865207a65726f206164647265737345524332303a206275726e20616d6f756e7420657863656564732062616c616e636545524332303a20617070726f766520746f20746865207a65726f206164647265737345524332303a207472616e7366657220616d6f756e7420657863656564732062616c616e6365536166654d6174683a206d756c7469706c69636174696f6e206f766572666c6f7745524332303a207472616e7366657220616d6f756e74206578636565647320616c6c6f77616e636545524332303a206275726e2066726f6d20746865207a65726f206164647265737345524332303a207472616e736665722066726f6d20746865207a65726f206164647265737345524332303a20617070726f76652066726f6d20746865207a65726f206164647265737345524332303a2064656372656173656420616c6c6f77616e63652062656c6f77207a65726fa2646970667358221220aeddbdb361a492082e911293f32f0ca6e5b3d48913254b7fc5bba97f73b836a764736f6c63430006060033",
  "immutableReferences": {},
  "source": "// SPDX-License-Identifier: stupid\n\npragma solidity ^0.6.0;\nimport \"_ERC20.sol\";\nimport \"DeFiat_Governance.sol\";\nimport \"DeFiat_Points.sol\";\n\ncontract DeFiat_Token is _ERC20 {  //overrides the _transfer function and adds burn capabilities\n\n    using SafeMath for uint;\n\n//== Variables ==\n    address private mastermind;     // token creator.\n    address public DeFiat_gov;      // contract governing the Token\n    address public DeFiat_points;   // ERC20 loyalty TOKEN\n\n    uint256 private _totalSupply;\n    string private _name;\n    string private _symbol;\n    uint8 private _decimals;\n    \n    struct Transaction {\n        address sender;\n        address recipient;\n        uint256 burnRate;\n        uint256 feeRate;\n        address feeDestination;\n        uint256 senderDiscount;\n        uint256 recipientDiscount;\n        uint256 actualDiscount;\n    }\n    Transaction private transaction;\n        \n//== Modifiers ==\n    modifier onlyMastermind {\n    require(msg.sender == mastermind, \"only Mastermind\");\n    _;\n    }\n    modifier onlyGovernor {\n    require(msg.sender == mastermind || msg.sender == DeFiat_gov, \"only Governance contract\");\n    _;\n    } //only Governance managing contract\n    modifier onlyPoints {\n    require(msg.sender == mastermind || msg.sender == DeFiat_points, \" only Points contract\");\n    _;\n    }   //only Points managing contract\n\n\n    \n//== Events ==\n    event stdEvent(address _address, uint256 _number, bytes32 _signature, string _desc);\n \n//== Token generation ==\n    constructor (address _gov, address _points) public {  //token requires that governance and points are up and running\n        mastermind = msg.sender;\n        _constructor(\"DeFiat\",\"DFT\"); //calls the ERC20 _constructor\n        _mint(mastermind, 1e18 * 300000); //mint 300,000 tokens\n        \n        DeFiat_gov = _gov;      // contract governing the Token\n        DeFiat_points = _points;   // ERC20 loyalty TOKEN\n    }\n    \n//== mastermind ==\n    function killContract() public onlyMastermind {\n        selfdestruct(msg.sender); //destroys the contract\n    } // TESTNET only Mastermind can kill contract\n    \n    function widthdrawAnyToken(address _recipient, address _ERC20address, uint256 _amount) public onlyGovernor returns (bool) {\n        IERC20(_ERC20address).transfer(_recipient, _amount); //use of the _ERC20 traditional transfer\n        return true;\n    } //get tokens sent by error to contract\n    function setGovernorContract(address _gov) external onlyGovernor {\n        DeFiat_gov = _gov;\n    }    // -> governance transfer\n    function setPointsContract(address _pts) external onlyGovernor {\n        DeFiat_points = _pts;\n    }      // -> new points management contract\n    \n    function setMastermind(address _mastermind) external onlyMastermind {\n        mastermind = _mastermind; //use the 0x0 address to resign\n    }\n\n//== View variables from external contracts ==\n    function _viewFeeRate() public view returns(uint256){\n       return DeFiat_Gov(DeFiat_gov).viewFeeRate();\n    }\n    function _viewBurnRate() public view returns(uint256){\n        return DeFiat_Gov(DeFiat_gov).viewBurnRate();\n    }\n    function _viewFeeDestination() public view returns(address){\n        return DeFiat_Gov(DeFiat_gov).viewFeeDestination();\n    }\n    function _viewDiscountOf(address _address) public view returns(uint256){\n        return DeFiat_Points(DeFiat_points).viewDiscountOf(_address);\n    }\n    function _viewPointsOf(address _address) public view returns(uint256){\n        return DeFiat_Points(DeFiat_points).balanceOf(_address);\n    }\n  \n//== override _transfer function in the ERC20Simple contract ==    \n    function updateTxStruct(address sender, address recipient) internal returns(bool){\n        transaction.sender = sender;\n        transaction.recipient = recipient;\n        transaction.burnRate = _viewBurnRate();\n        transaction.feeRate = _viewFeeRate();\n        transaction.feeDestination = _viewFeeDestination();\n        transaction.senderDiscount = _viewDiscountOf(sender);\n        transaction.recipientDiscount = _viewDiscountOf(recipient);\n        transaction.actualDiscount = SafeMath.max(transaction.senderDiscount, transaction.recipientDiscount);\n        \n         if( transaction.actualDiscount > 100){transaction.actualDiscount = 100;} //manages \"forever pools\"\n    \n        return true;\n    } //struct used to prevent \"stack too deep\" error\n    \n    function addPoints(address sender, uint256 _amount) public {\n    \n    DeFiat_Points(DeFiat_points).addPoints(sender, _amount, 1e18); //Update user's loyalty points +1 = +1e18\n    }\n    \n    function _transfer(address sender, address recipient, uint256 amount) internal override { //overrides the inherited ERC20 _transfer\n        require(sender != address(0), \"ERC20: transfer from the zero address\");\n        require(recipient != address(0), \"ERC20: transfer to the zero address\");\n        \n    //load transaction Struct (gets info from external contracts)\n        updateTxStruct(sender, recipient);\n        \n    //get discounts and apply them. You get the MAX discounts of the sender x recipient. discount is base100\n           \n        uint256 dAmount = \n        SafeMath.div(\n            SafeMath.mul(amount, \n                                SafeMath.sub(100, transaction.actualDiscount))\n        ,100);     //amount discounted to calculate fees\n\n    //Calculates burn and fees on discounted amount (burn and fees are 0.0X% ie base 10000)\n        uint _toBurn = SafeMath.div(SafeMath.mul(dAmount,transaction.burnRate),10000); \n        uint _toFee = SafeMath.div(SafeMath.mul(dAmount,transaction.feeRate),10000); \n        uint _amount = SafeMath.sub(amount, SafeMath.add(_toBurn,_toFee)); //calculates the remaning amount to be sent\n   \n    //transfers -> forcing _ERC20 level\n        if(_toFee > 0) {\n        _ERC20._transfer(sender, transaction.feeDestination, _toFee); //native _transfer + emit\n        } //transfer fee\n        \n        if(_toBurn > 0) {_ERC20._burn(sender,_toBurn);} //native _burn tokens from sender\n        \n        //transfer remaining amount. + emit\n        _ERC20._transfer(sender, recipient, _amount); //native _transfer + emit\n\n        //mint loyalty points and update lastTX\n        if(sender != recipient){addPoints(sender, amount);} //uses the full amount to determine point minting\n\n    }\n}\n",
  "sourcePath": "/Users/noahcoomer/source/defiat/contracts/DeFiat_Token.sol",
  "compiler": {
    "name": "solc",
    "version": "0.6.6+commit.6c089d02.Emscripten.clang"
  },
  "schemaVersion": "3.2.3",
  "updatedAt": "2020-08-13T05:13:43.377Z",
  "devdoc": {
    "methods": {
      "allowance(address,address)": {
        "details": "See {IERC20-allowance}."
      },
      "approve(address,uint256)": {
        "details": "See {IERC20-approve}.     * Requirements:     * - `spender` cannot be the zero address."
      },
      "balanceOf(address)": {
        "details": "See {IERC20-balanceOf}."
      },
      "decimals()": {
        "details": "Returns the number of decimals used to get its user representation. For example, if `decimals` equals `2`, a balance of `505` tokens should be displayed to a user as `5,05` (`505 / 10 ** 2`).     * Tokens usually opt for a value of 18, imitating the relationship between Ether and Wei. This is the value {ERC20} uses, unless {_setupDecimals} is called.     * NOTE: This information is only used for _display_ purposes: it in no way affects any of the arithmetic of the contract, including {IERC20-balanceOf} and {IERC20-transfer}."
      },
      "decreaseAllowance(address,uint256)": {
        "details": "Atomically decreases the allowance granted to `spender` by the caller.     * This is an alternative to {approve} that can be used as a mitigation for problems described in {IERC20-approve}.     * Emits an {Approval} event indicating the updated allowance.     * Requirements:     * - `spender` cannot be the zero address. - `spender` must have allowance for the caller of at least `subtractedValue`."
      },
      "increaseAllowance(address,uint256)": {
        "details": "Atomically increases the allowance granted to `spender` by the caller.     * This is an alternative to {approve} that can be used as a mitigation for problems described in {IERC20-approve}.     * Emits an {Approval} event indicating the updated allowance.     * Requirements:     * - `spender` cannot be the zero address."
      },
      "name()": {
        "details": "Returns the name of the token."
      },
      "symbol()": {
        "details": "Returns the symbol of the token, usually a shorter version of the name."
      },
      "totalSupply()": {
        "details": "See {IERC20-totalSupply}."
      },
      "transfer(address,uint256)": {
        "details": "See {IERC20-transfer}.     * Requirements:     * - `recipient` cannot be the zero address. - the caller must have a balance of at least `amount`."
      },
      "transferFrom(address,address,uint256)": {
        "details": "See {IERC20-transferFrom}.     * Emits an {Approval} event indicating the updated allowance. This is not required by the EIP. See the note at the beginning of {ERC20};     * Requirements: - `sender` and `recipient` cannot be the zero address. - `sender` must have a balance of at least `amount`. - the caller must have allowance for ``sender``'s tokens of at least `amount`."
      }
    }
  },
  "userdoc": {
    "methods": {}
  }
}