{
  "contractName": "DeFiat_Farming_v15exp",
  "abi": [
    {
      "inputs": [
        {
          "internalType": "address",
          "name": "_stakedToken",
          "type": "address"
        },
        {
          "internalType": "address",
          "name": "_rewardToken",
          "type": "address"
        },
        {
          "internalType": "uint256",
          "name": "_feeBase1000",
          "type": "uint256"
        },
        {
          "internalType": "uint256",
          "name": "_durationHours",
          "type": "uint256"
        },
        {
          "internalType": "uint256",
          "name": "_delayStartHours",
          "type": "uint256"
        }
      ],
      "stateMutability": "nonpayable",
      "type": "constructor"
    },
    {
      "anonymous": false,
      "inputs": [
        {
          "indexed": false,
          "internalType": "uint256",
          "name": "amountAdded",
          "type": "uint256"
        },
        {
          "indexed": false,
          "internalType": "string",
          "name": "_desc",
          "type": "string"
        }
      ],
      "name": "PoolInitalized",
      "type": "event"
    },
    {
      "anonymous": false,
      "inputs": [
        {
          "indexed": true,
          "internalType": "address",
          "name": "user",
          "type": "address"
        },
        {
          "indexed": false,
          "internalType": "uint256",
          "name": "reward",
          "type": "uint256"
        },
        {
          "indexed": false,
          "internalType": "string",
          "name": "_desc",
          "type": "string"
        }
      ],
      "name": "RewardTaken",
      "type": "event"
    },
    {
      "anonymous": false,
      "inputs": [
        {
          "indexed": true,
          "internalType": "address",
          "name": "user",
          "type": "address"
        },
        {
          "indexed": false,
          "internalType": "uint256",
          "name": "amount",
          "type": "uint256"
        },
        {
          "indexed": false,
          "internalType": "string",
          "name": "_desc",
          "type": "string"
        }
      ],
      "name": "userStaking",
      "type": "event"
    },
    {
      "anonymous": false,
      "inputs": [
        {
          "indexed": true,
          "internalType": "address",
          "name": "user",
          "type": "address"
        },
        {
          "indexed": false,
          "internalType": "uint256",
          "name": "amount",
          "type": "uint256"
        },
        {
          "indexed": false,
          "internalType": "string",
          "name": "_desc",
          "type": "string"
        }
      ],
      "name": "userWithdrawal",
      "type": "event"
    },
    {
      "inputs": [],
      "name": "FullRewards",
      "outputs": [
        {
          "internalType": "bool",
          "name": "",
          "type": "bool"
        }
      ],
      "stateMutability": "view",
      "type": "function"
    },
    {
      "inputs": [
        {
          "internalType": "address",
          "name": "",
          "type": "address"
        }
      ],
      "name": "assHoles",
      "outputs": [
        {
          "internalType": "bool",
          "name": "",
          "type": "bool"
        }
      ],
      "stateMutability": "view",
      "type": "function"
    },
    {
      "inputs": [],
      "name": "poolMetrics",
      "outputs": [
        {
          "internalType": "address",
          "name": "stakedToken",
          "type": "address"
        },
        {
          "internalType": "uint256",
          "name": "staked",
          "type": "uint256"
        },
        {
          "internalType": "uint256",
          "name": "stakingFee",
          "type": "uint256"
        },
        {
          "internalType": "uint256",
          "name": "stakingPoints",
          "type": "uint256"
        },
        {
          "internalType": "address",
          "name": "rewardToken",
          "type": "address"
        },
        {
          "internalType": "uint256",
          "name": "rewards",
          "type": "uint256"
        },
        {
          "internalType": "uint256",
          "name": "startTime",
          "type": "uint256"
        },
        {
          "internalType": "uint256",
          "name": "closingTime",
          "type": "uint256"
        },
        {
          "internalType": "uint256",
          "name": "duration",
          "type": "uint256"
        },
        {
          "internalType": "uint256",
          "name": "lastEvent",
          "type": "uint256"
        },
        {
          "internalType": "uint256",
          "name": "ratePerToken",
          "type": "uint256"
        }
      ],
      "stateMutability": "view",
      "type": "function"
    },
    {
      "inputs": [],
      "name": "poolOperator",
      "outputs": [
        {
          "internalType": "address",
          "name": "",
          "type": "address"
        }
      ],
      "stateMutability": "view",
      "type": "function"
    },
    {
      "inputs": [
        {
          "internalType": "address",
          "name": "",
          "type": "address"
        }
      ],
      "name": "userMetrics",
      "outputs": [
        {
          "internalType": "uint256",
          "name": "stake",
          "type": "uint256"
        },
        {
          "internalType": "uint256",
          "name": "stakingPoints",
          "type": "uint256"
        },
        {
          "internalType": "uint256",
          "name": "poolPoints",
          "type": "uint256"
        },
        {
          "internalType": "uint256",
          "name": "lastEvent",
          "type": "uint256"
        },
        {
          "internalType": "uint256",
          "name": "rewardAccrued",
          "type": "uint256"
        },
        {
          "internalType": "uint256",
          "name": "rewardsPaid",
          "type": "uint256"
        },
        {
          "internalType": "uint256",
          "name": "lastTxBlock",
          "type": "uint256"
        }
      ],
      "stateMutability": "view",
      "type": "function"
    },
    {
      "inputs": [],
      "name": "currentTime",
      "outputs": [
        {
          "internalType": "uint256",
          "name": "",
          "type": "uint256"
        }
      ],
      "stateMutability": "view",
      "type": "function"
    },
    {
      "inputs": [],
      "name": "viewPoolPoints",
      "outputs": [
        {
          "internalType": "uint256",
          "name": "",
          "type": "uint256"
        }
      ],
      "stateMutability": "view",
      "type": "function"
    },
    {
      "inputs": [
        {
          "internalType": "address",
          "name": "_address",
          "type": "address"
        }
      ],
      "name": "viewPointsOf",
      "outputs": [
        {
          "internalType": "uint256",
          "name": "",
          "type": "uint256"
        }
      ],
      "stateMutability": "view",
      "type": "function"
    },
    {
      "inputs": [
        {
          "internalType": "address",
          "name": "_address",
          "type": "address"
        }
      ],
      "name": "pointsSnapshot",
      "outputs": [
        {
          "internalType": "bool",
          "name": "",
          "type": "bool"
        }
      ],
      "stateMutability": "nonpayable",
      "type": "function"
    },
    {
      "inputs": [
        {
          "internalType": "address",
          "name": "_address",
          "type": "address"
        }
      ],
      "name": "userRateOnPeriod",
      "outputs": [
        {
          "internalType": "uint256",
          "name": "",
          "type": "uint256"
        }
      ],
      "stateMutability": "view",
      "type": "function"
    },
    {
      "inputs": [
        {
          "internalType": "address",
          "name": "_address",
          "type": "address"
        }
      ],
      "name": "viewAdditionalRewardOf",
      "outputs": [
        {
          "internalType": "uint256",
          "name": "",
          "type": "uint256"
        }
      ],
      "stateMutability": "view",
      "type": "function"
    },
    {
      "inputs": [
        {
          "internalType": "address",
          "name": "_address",
          "type": "address"
        }
      ],
      "name": "lockRewardOf",
      "outputs": [
        {
          "internalType": "uint256",
          "name": "",
          "type": "uint256"
        }
      ],
      "stateMutability": "nonpayable",
      "type": "function"
    },
    {
      "inputs": [],
      "name": "takeRewards",
      "outputs": [],
      "stateMutability": "nonpayable",
      "type": "function"
    },
    {
      "inputs": [
        {
          "internalType": "uint256",
          "name": "_amount",
          "type": "uint256"
        }
      ],
      "name": "stake",
      "outputs": [],
      "stateMutability": "nonpayable",
      "type": "function"
    },
    {
      "inputs": [
        {
          "internalType": "uint256",
          "name": "_amount",
          "type": "uint256"
        }
      ],
      "name": "unStake",
      "outputs": [],
      "stateMutability": "nonpayable",
      "type": "function"
    },
    {
      "inputs": [
        {
          "internalType": "address",
          "name": "_address",
          "type": "address"
        }
      ],
      "name": "myStake",
      "outputs": [
        {
          "internalType": "uint256",
          "name": "",
          "type": "uint256"
        }
      ],
      "stateMutability": "view",
      "type": "function"
    },
    {
      "inputs": [
        {
          "internalType": "address",
          "name": "_address",
          "type": "address"
        }
      ],
      "name": "myStakeShare",
      "outputs": [
        {
          "internalType": "uint256",
          "name": "",
          "type": "uint256"
        }
      ],
      "stateMutability": "view",
      "type": "function"
    },
    {
      "inputs": [
        {
          "internalType": "address",
          "name": "_address",
          "type": "address"
        }
      ],
      "name": "myPointsShare",
      "outputs": [
        {
          "internalType": "uint256",
          "name": "",
          "type": "uint256"
        }
      ],
      "stateMutability": "view",
      "type": "function"
    },
    {
      "inputs": [
        {
          "internalType": "address",
          "name": "_address",
          "type": "address"
        }
      ],
      "name": "myRewards",
      "outputs": [
        {
          "internalType": "uint256",
          "name": "",
          "type": "uint256"
        }
      ],
      "stateMutability": "view",
      "type": "function"
    },
    {
      "inputs": [
        {
          "internalType": "address",
          "name": "_address",
          "type": "address"
        }
      ],
      "name": "setAsshole",
      "outputs": [],
      "stateMutability": "nonpayable",
      "type": "function"
    },
    {
      "inputs": [
        {
          "internalType": "address",
          "name": "_address",
          "type": "address"
        }
      ],
      "name": "setPoolOperator",
      "outputs": [],
      "stateMutability": "nonpayable",
      "type": "function"
    },
    {
      "inputs": [
        {
          "internalType": "bool",
          "name": "_bool",
          "type": "bool"
        }
      ],
      "name": "setFullRewards",
      "outputs": [],
      "stateMutability": "nonpayable",
      "type": "function"
    },
    {
      "inputs": [
        {
          "internalType": "uint256",
          "name": "_amount",
          "type": "uint256"
        },
        {
          "internalType": "uint256",
          "name": "_preStake",
          "type": "uint256"
        }
      ],
      "name": "loadRewards",
      "outputs": [],
      "stateMutability": "nonpayable",
      "type": "function"
    },
    {
      "inputs": [
        {
          "internalType": "uint256",
          "name": "_fee",
          "type": "uint256"
        }
      ],
      "name": "setFee",
      "outputs": [],
      "stateMutability": "nonpayable",
      "type": "function"
    },
    {
      "inputs": [
        {
          "internalType": "address",
          "name": "_recipient",
          "type": "address"
        },
        {
          "internalType": "address",
          "name": "_ERC20address",
          "type": "address"
        }
      ],
      "name": "flushPool",
      "outputs": [],
      "stateMutability": "nonpayable",
      "type": "function"
    },
    {
      "inputs": [],
      "name": "killPool",
      "outputs": [
        {
          "internalType": "bool",
          "name": "",
          "type": "bool"
        }
      ],
      "stateMutability": "nonpayable",
      "type": "function"
    }
  ],
  "bytecode": "0x60806040523480156200001157600080fd5b506040516200371038038062003710833981810160405260a08110156200003757600080fd5b81019080805190602001909291908051906020019092919080519060200190929190805190602001909291908051906020019092919050505033600c60006101000a81548173ffffffffffffffffffffffffffffffffffffffff021916908373ffffffffffffffffffffffffffffffffffffffff160217905550846000800160006101000a81548173ffffffffffffffffffffffffffffffffffffffff021916908373ffffffffffffffffffffffffffffffffffffffff16021790555083600060040160006101000a81548173ffffffffffffffffffffffffffffffffffffffff021916908373ffffffffffffffffffffffffffffffffffffffff160217905550826000600201819055506200015e610e1083620001d560201b62002fc91790919060201c565b60006008018190555062000183610e1082620001d560201b62002fc91790919060201c565b42016000600601819055506000600801546000600601540160006007018190555060016000600301819055506001600e60006101000a81548160ff021916908315150217905550505050505062000260565b600080831415620001ea57600090506200025a565b6000828402905082848281620001fc57fe5b041462000255576040517f08c379a0000000000000000000000000000000000000000000000000000000008152600401808060200182810382526021815260200180620036ef6021913960400191505060405180910390fd5b809150505b92915050565b61347f80620002706000396000f3fe608060405234801561001057600080fd5b506004361061018e5760003560e01c80637adaa21a116100de578063beaa369a11610097578063d745d3cf11610071578063d745d3cf1461076f578063effa76fc1461079f578063fcecc4df146107e3578063ff939f961461089f5761018e565b8063beaa369a146106af578063cf604bc914610707578063d18e81b3146107515761018e565b80637adaa21a1461052b578063918771cd146105355780639e05da6a1461058d578063a694fc3a146105e5578063ad12101d14610613578063bb2c25561461064b5761018e565b80635a2778e51161014b57806361546cc01161012557806361546cc014610461578063682c93c0146104b957806369fe0e2d146104db5780637a39b8d8146105095761018e565b80635a2778e5146103b95780635c6187aa146104155780635d3eea91146104335761018e565b80631f227e481461019357806320b9588c146102155780632612798d1461026d5780632d2d1008146102c557806335ad1e031461031d57806342819fc414610361575b600080fd5b6101d5600480360360208110156101a957600080fd5b81019080803573ffffffffffffffffffffffffffffffffffffffff1690602001909291905050506108fb565b6040518088815260200187815260200186815260200185815260200184815260200183815260200182815260200197505050505050505060405180910390f35b6102576004803603602081101561022b57600080fd5b81019080803573ffffffffffffffffffffffffffffffffffffffff16906020019092919050505061093d565b6040518082815260200191505060405180910390f35b6102af6004803603602081101561028357600080fd5b81019080803573ffffffffffffffffffffffffffffffffffffffff1690602001909291905050506109c9565b6040518082815260200191505060405180910390f35b610307600480360360208110156102db57600080fd5b81019080803573ffffffffffffffffffffffffffffffffffffffff169060200190929190505050610b74565b6040518082815260200191505060405180910390f35b61035f6004803603602081101561033357600080fd5b81019080803573ffffffffffffffffffffffffffffffffffffffff169060200190929190505050610c03565b005b6103a36004803603602081101561037757600080fd5b81019080803573ffffffffffffffffffffffffffffffffffffffff169060200190929190505050610ced565b6040518082815260200191505060405180910390f35b6103fb600480360360208110156103cf57600080fd5b81019080803573ffffffffffffffffffffffffffffffffffffffff169060200190929190505050610e0c565b604051808215151515815260200191505060405180910390f35b61041d610e2c565b6040518082815260200191505060405180910390f35b61045f6004803603602081101561044957600080fd5b8101908080359060200190929190505050610e9e565b005b6104a36004803603602081101561047757600080fd5b81019080803573ffffffffffffffffffffffffffffffffffffffff1690602001909291905050506113c3565b6040518082815260200191505060405180910390f35b6104c1611403565b604051808215151515815260200191505060405180910390f35b610507600480360360208110156104f157600080fd5b8101908080359060200190929190505050611416565b005b6105116114c9565b604051808215151515815260200191505060405180910390f35b610533611604565b005b6105776004803603602081101561054b57600080fd5b81019080803573ffffffffffffffffffffffffffffffffffffffff169060200190929190505050611a28565b6040518082815260200191505060405180910390f35b6105cf600480360360208110156105a357600080fd5b81019080803573ffffffffffffffffffffffffffffffffffffffff169060200190929190505050611b26565b6040518082815260200191505060405180910390f35b610611600480360360208110156105fb57600080fd5b8101908080359060200190929190505050611c6e565b005b6106496004803603604081101561062957600080fd5b8101908080359060200190929190803590602001909291905050506124b1565b005b6106ad6004803603604081101561066157600080fd5b81019080803573ffffffffffffffffffffffffffffffffffffffff169060200190929190803573ffffffffffffffffffffffffffffffffffffffff1690602001909291905050506128a5565b005b6106f1600480360360208110156106c557600080fd5b81019080803573ffffffffffffffffffffffffffffffffffffffff169060200190929190505050612b49565b6040518082815260200191505060405180910390f35b61070f612b95565b604051808273ffffffffffffffffffffffffffffffffffffffff1673ffffffffffffffffffffffffffffffffffffffff16815260200191505060405180910390f35b610759612bbb565b6040518082815260200191505060405180910390f35b61079d6004803603602081101561078557600080fd5b81019080803515159060200190929190505050612bd1565b005b6107e1600480360360208110156107b557600080fd5b81019080803573ffffffffffffffffffffffffffffffffffffffff169060200190929190505050612c94565b005b6107eb612d95565b604051808c73ffffffffffffffffffffffffffffffffffffffff1673ffffffffffffffffffffffffffffffffffffffff1681526020018b81526020018a81526020018981526020018873ffffffffffffffffffffffffffffffffffffffff1673ffffffffffffffffffffffffffffffffffffffff1681526020018781526020018681526020018581526020018481526020018381526020018281526020019b50505050505050505050505060405180910390f35b6108e1600480360360208110156108b557600080fd5b81019080803573ffffffffffffffffffffffffffffffffffffffff169060200190929190505050612e1d565b604051808215151515815260200191505060405180910390f35b600b6020528060005260406000206000915090508060000154908060010154908060020154908060030154908060040154908060050154908060060154905087565b6000806006015442111580610956575060008060050154145b1561096457600090506109c4565b6109c1610970836109c9565b600b60008573ffffffffffffffffffffffffffffffffffffffff1673ffffffffffffffffffffffffffffffffffffffff16815260200190815260200160002060040154612e3b90919063ffffffff16565b90505b919050565b60008060006005015411610a45576040517f08c379a00000000000000000000000000000000000000000000000000000000081526004018080602001828103825260168152602001807f4e6f205265776172647320696e2074686520506f6f6c0000000000000000000081525060200191505060405180910390fd5b6000610a5083610ced565b90506000610abe610aa8600b60008773ffffffffffffffffffffffffffffffffffffffff1673ffffffffffffffffffffffffffffffffffffffff16815260200190815260200160002060030154600060060154612ec3565b610ab0612bbb565b612edd90919063ffffffff16565b90506000610af7670de0b6b3a7640000610ae985610adb86612f27565b612fc990919063ffffffff16565b61304f90919063ffffffff16565b905060011515600d60008773ffffffffffffffffffffffffffffffffffffffff1673ffffffffffffffffffffffffffffffffffffffff16815260200190815260200160002060009054906101000a900460ff1615151415610b6957610b6660648261304f90919063ffffffff16565b90505b809350505050919050565b6000806000600101541415610b8c5760009050610bfe565b610bfb600060010154610bed620186a0600b60008773ffffffffffffffffffffffffffffffffffffffff1673ffffffffffffffffffffffffffffffffffffffff16815260200190815260200160002060000154612fc990919063ffffffff16565b61304f90919063ffffffff16565b90505b919050565b600c60009054906101000a900473ffffffffffffffffffffffffffffffffffffffff1673ffffffffffffffffffffffffffffffffffffffff163373ffffffffffffffffffffffffffffffffffffffff1614610ca9576040517f08c379a000000000000000000000000000000000000000000000000000000000815260040180806020018281038252602981526020018061339f6029913960400191505060405180910390fd5b80600c60006101000a81548173ffffffffffffffffffffffffffffffffffffffff021916908373ffffffffffffffffffffffffffffffffffffffff16021790555050565b600080610d4d600b60008573ffffffffffffffffffffffffffffffffffffffff1673ffffffffffffffffffffffffffffffffffffffff16815260200190815260200160002060010154610d3f85611b26565b612edd90919063ffffffff16565b90506000610dad600b60008673ffffffffffffffffffffffffffffffffffffffff1673ffffffffffffffffffffffffffffffffffffffff16815260200190815260200160002060020154610d9f610e2c565b612edd90919063ffffffff16565b905060008090506000831480610dc35750600082145b15610dd15760009050610e01565b610dfe82610df0670de0b6b3a764000086612fc990919063ffffffff16565b61304f90919063ffffffff16565b90505b809350505050919050565b600d6020528060005260406000206000915054906101000a900460ff1681565b60008060006003015490506000806001015490506000610e6f610e59600060090154600060060154612ec3565b610e61612bbb565b612edd90919063ffffffff16565b9050610e96610e878284612fc990919063ffffffff16565b84612e3b90919063ffffffff16565b935050505090565b600060060154421015610f19576040517f08c379a00000000000000000000000000000000000000000000000000000000081526004018080602001828103825260148152602001807f506f6f6c206e6f7420737461727465642059657400000000000000000000000081525060200191505060405180910390fd5b6001610f7081600b60003373ffffffffffffffffffffffffffffffffffffffff1673ffffffffffffffffffffffffffffffffffffffff16815260200190815260200160002060060154612e3b90919063ffffffff16565b4311610fc7576040517f08c379a00000000000000000000000000000000000000000000000000000000081526004018080602001828103825260228152602001806133e96022913960400191505060405180910390fd5b43600b60003373ffffffffffffffffffffffffffffffffffffffff1673ffffffffffffffffffffffffffffffffffffffff1681526020019081526020016000206006018190555060008211611084576040517f08c379a00000000000000000000000000000000000000000000000000000000081526004018080602001828103825260118152602001807f43616e6e6f74207769746864726177203000000000000000000000000000000081525060200191505060405180910390fd5b600b60003373ffffffffffffffffffffffffffffffffffffffff1673ffffffffffffffffffffffffffffffffffffffff1681526020019081526020016000206000015482111561113c576040517f08c379a000000000000000000000000000000000000000000000000000000000815260040180806020018281038252601f8152602001807f43616e6e6f74207769746864726177206d6f7265207468616e207374616b650081525060200191505060405180910390fd5b61114533611a28565b600b60003373ffffffffffffffffffffffffffffffffffffffff1673ffffffffffffffffffffffffffffffffffffffff1681526020019081526020016000206004018190555061119433612e1d565b506111ea82600b60003373ffffffffffffffffffffffffffffffffffffffff1673ffffffffffffffffffffffffffffffffffffffff16815260200190815260200160002060000154612edd90919063ffffffff16565b600b60003373ffffffffffffffffffffffffffffffffffffffff1673ffffffffffffffffffffffffffffffffffffffff1681526020019081526020016000206000018190555061124882600060010154612edd90919063ffffffff16565b6000600101819055506000800160009054906101000a900473ffffffffffffffffffffffffffffffffffffffff1673ffffffffffffffffffffffffffffffffffffffff1663a9059cbb33846040518363ffffffff1660e01b8152600401808373ffffffffffffffffffffffffffffffffffffffff1673ffffffffffffffffffffffffffffffffffffffff16815260200182815260200192505050602060405180830381600087803b1580156112fc57600080fd5b505af1158015611310573d6000803e3d6000fd5b505050506040513d602081101561132657600080fd5b8101908080519060200190929190505050503373ffffffffffffffffffffffffffffffffffffffff167ff81475acca41b6158ffa94b90c0570165f1052684e7df9ab735e66ca1f57435f8360405180828152602001806020018281038252600b8152602001807f576964687464726177616c0000000000000000000000000000000000000000008152506020019250505060405180910390a25050565b60006113fc6113d0610e2c565b6113ee620186a06113e086611b26565b612fc990919063ffffffff16565b61304f90919063ffffffff16565b9050919050565b600e60009054906101000a900460ff1681565b600c60009054906101000a900473ffffffffffffffffffffffffffffffffffffffff1673ffffffffffffffffffffffffffffffffffffffff163373ffffffffffffffffffffffffffffffffffffffff16146114bc576040517f08c379a000000000000000000000000000000000000000000000000000000000815260040180806020018281038252602981526020018061339f6029913960400191505060405180910390fd5b8060006002018190555050565b6000600c60009054906101000a900473ffffffffffffffffffffffffffffffffffffffff1673ffffffffffffffffffffffffffffffffffffffff163373ffffffffffffffffffffffffffffffffffffffff1614611571576040517f08c379a000000000000000000000000000000000000000000000000000000000815260040180806020018281038252602981526020018061339f6029913960400191505060405180910390fd5b60006007015442116115eb576040517f08c379a00000000000000000000000000000000000000000000000000000000081526004018080602001828103825260128152602001807f506f6f6c206e6f7420656e64656420596574000000000000000000000000000081525060200191505060405180910390fd5b3373ffffffffffffffffffffffffffffffffffffffff16ff5b60006006015442101561167f576040517f08c379a00000000000000000000000000000000000000000000000000000000081526004018080602001828103825260148152602001807f506f6f6c206e6f7420737461727465642059657400000000000000000000000081525060200191505060405180910390fd5b60016116d681600b60003373ffffffffffffffffffffffffffffffffffffffff1673ffffffffffffffffffffffffffffffffffffffff16815260200190815260200160002060060154612e3b90919063ffffffff16565b431161172d576040517f08c379a00000000000000000000000000000000000000000000000000000000081526004018080602001828103825260228152602001806133e96022913960400191505060405180910390fd5b43600b60003373ffffffffffffffffffffffffffffffffffffffff1673ffffffffffffffffffffffffffffffffffffffff1681526020019081526020016000206006018190555060008060050154116117ee576040517f08c379a00000000000000000000000000000000000000000000000000000000081526004018080602001828103825260168152602001807f4e6f205265776172647320696e2074686520506f6f6c0000000000000000000081525060200191505060405180910390fd5b60006117f933611a28565b905080600b60003373ffffffffffffffffffffffffffffffffffffffff1673ffffffffffffffffffffffffffffffffffffffff168152602001908152602001600020600501819055506000600b60003373ffffffffffffffffffffffffffffffffffffffff1673ffffffffffffffffffffffffffffffffffffffff168152602001908152602001600020600401819055506118a281600060050154612edd90919063ffffffff16565b600060050181905550600060040160009054906101000a900473ffffffffffffffffffffffffffffffffffffffff1673ffffffffffffffffffffffffffffffffffffffff1663a9059cbb33836040518363ffffffff1660e01b8152600401808373ffffffffffffffffffffffffffffffffffffffff1673ffffffffffffffffffffffffffffffffffffffff16815260200182815260200192505050602060405180830381600087803b15801561195757600080fd5b505af115801561196b573d6000803e3d6000fd5b505050506040513d602081101561198157600080fd5b81019080805190602001909291905050505061199c33612e1d565b503373ffffffffffffffffffffffffffffffffffffffff167f2fc029baad553950fe705b54adac427ede59ec14428d842ec4f83ee1a090e8fb8260405180828152602001806020018281038252600c8152602001807f526577617264732053656e7400000000000000000000000000000000000000008152506020019250505060405180910390a25050565b600080611a34836109c9565b9050611a8b81600b60008673ffffffffffffffffffffffffffffffffffffffff1673ffffffffffffffffffffffffffffffffffffffff16815260200190815260200160002060040154612e3b90919063ffffffff16565b600b60008573ffffffffffffffffffffffffffffffffffffffff1673ffffffffffffffffffffffffffffffffffffffff16815260200190815260200160002060040181905550611ada83612e1d565b50600b60008473ffffffffffffffffffffffffffffffffffffffff1673ffffffffffffffffffffffffffffffffffffffff16815260200190815260200160002060040154915050919050565b600080600b60008473ffffffffffffffffffffffffffffffffffffffff1673ffffffffffffffffffffffffffffffffffffffff1681526020019081526020016000206001015490506000600b60008573ffffffffffffffffffffffffffffffffffffffff1673ffffffffffffffffffffffffffffffffffffffff1681526020019081526020016000206000015490506000611c21611c0b600b60008873ffffffffffffffffffffffffffffffffffffffff1673ffffffffffffffffffffffffffffffffffffffff16815260200190815260200160002060030154600060060154612ec3565b611c13612bbb565b612edd90919063ffffffff16565b90506000611c4a611c3b8385612fc990919063ffffffff16565b85612e3b90919063ffffffff16565b9050600060030154811115611c625760006003015490505b80945050505050919050565b600060060154421015611ce9576040517f08c379a00000000000000000000000000000000000000000000000000000000081526004018080602001828103825260148152602001807f506f6f6c206e6f7420737461727465642059657400000000000000000000000081525060200191505060405180910390fd5b600060070154421115611d64576040517f08c379a000000000000000000000000000000000000000000000000000000000815260040180806020018281038252600b8152602001807f506f6f6c20636c6f73656400000000000000000000000000000000000000000081525060200191505060405180910390fd5b6001611dbb81600b60003373ffffffffffffffffffffffffffffffffffffffff1673ffffffffffffffffffffffffffffffffffffffff16815260200190815260200160002060060154612e3b90919063ffffffff16565b4311611e12576040517f08c379a00000000000000000000000000000000000000000000000000000000081526004018080602001828103825260228152602001806133e96022913960400191505060405180910390fd5b43600b60003373ffffffffffffffffffffffffffffffffffffffff1673ffffffffffffffffffffffffffffffffffffffff1681526020019081526020016000206006018190555033614e20611e6682610b74565b10611ebc576040517f08c379a000000000000000000000000000000000000000000000000000000000815260040180806020018281038252603f81526020018061340b603f913960400191505060405180910390fd5b60008311611f32576040517f08c379a000000000000000000000000000000000000000000000000000000000815260040180806020018281038252600e8152602001807f43616e6e6f74207374616b65203000000000000000000000000000000000000081525060200191505060405180910390fd5b611f3b33611a28565b600b60003373ffffffffffffffffffffffffffffffffffffffff1673ffffffffffffffffffffffffffffffffffffffff16815260200190815260200160002060040181905550611f8a33612e1d565b5060008060000160009054906101000a900473ffffffffffffffffffffffffffffffffffffffff1673ffffffffffffffffffffffffffffffffffffffff166370a08231306040518263ffffffff1660e01b8152600401808273ffffffffffffffffffffffffffffffffffffffff1673ffffffffffffffffffffffffffffffffffffffff16815260200191505060206040518083038186803b15801561202e57600080fd5b505afa158015612042573d6000803e3d6000fd5b505050506040513d602081101561205857600080fd5b810190808051906020019092919050505090506000800160009054906101000a900473ffffffffffffffffffffffffffffffffffffffff1673ffffffffffffffffffffffffffffffffffffffff166323b872dd3330876040518463ffffffff1660e01b8152600401808473ffffffffffffffffffffffffffffffffffffffff1673ffffffffffffffffffffffffffffffffffffffff1681526020018373ffffffffffffffffffffffffffffffffffffffff1673ffffffffffffffffffffffffffffffffffffffff1681526020018281526020019350505050602060405180830381600087803b15801561214a57600080fd5b505af115801561215e573d6000803e3d6000fd5b505050506040513d602081101561217457600080fd5b8101908080519060200190929190505050506000612276826000800160009054906101000a900473ffffffffffffffffffffffffffffffffffffffff1673ffffffffffffffffffffffffffffffffffffffff166370a08231306040518263ffffffff1660e01b8152600401808273ffffffffffffffffffffffffffffffffffffffff1673ffffffffffffffffffffffffffffffffffffffff16815260200191505060206040518083038186803b15801561222d57600080fd5b505afa158015612241573d6000803e3d6000fd5b505050506040513d602081101561225757600080fd5b8101908080519060200190929190505050612edd90919063ffffffff16565b905060006122a66103e861229860006002015485612fc990919063ffffffff16565b61304f90919063ffffffff16565b90506122bb8183612edd90919063ffffffff16565b9150600060040160009054906101000a900473ffffffffffffffffffffffffffffffffffffffff1673ffffffffffffffffffffffffffffffffffffffff166000800160009054906101000a900473ffffffffffffffffffffffffffffffffffffffff1673ffffffffffffffffffffffffffffffffffffffff16141561235c5761235281600060050154612e3b90919063ffffffff16565b6000600501819055505b61237482600060010154612e3b90919063ffffffff16565b6000600101819055506123d282600b60003373ffffffffffffffffffffffffffffffffffffffff1673ffffffffffffffffffffffffffffffffffffffff16815260200190815260200160002060000154612e3b90919063ffffffff16565b600b60003373ffffffffffffffffffffffffffffffffffffffff1673ffffffffffffffffffffffffffffffffffffffff1681526020019081526020016000206000018190555061242133612e1d565b503373ffffffffffffffffffffffffffffffffffffffff167f167ca5543be7bdd4d64d74a1255ec46c74aa0b2ad274a73b1a5c910f8d65d26f8360405180828152602001806020018281038252600f8152602001807f5374616b696e672e2e2e202e2e2e2000000000000000000000000000000000008152506020019250505060405180910390a2505050505050565b600c60009054906101000a900473ffffffffffffffffffffffffffffffffffffffff1673ffffffffffffffffffffffffffffffffffffffff163373ffffffffffffffffffffffffffffffffffffffff1614612557576040517f08c379a000000000000000000000000000000000000000000000000000000000815260040180806020018281038252602981526020018061339f6029913960400191505060405180910390fd5b60008060040160009054906101000a900473ffffffffffffffffffffffffffffffffffffffff1673ffffffffffffffffffffffffffffffffffffffff166370a08231306040518263ffffffff1660e01b8152600401808273ffffffffffffffffffffffffffffffffffffffff1673ffffffffffffffffffffffffffffffffffffffff16815260200191505060206040518083038186803b1580156125fa57600080fd5b505afa15801561260e573d6000803e3d6000fd5b505050506040513d602081101561262457600080fd5b81019080805190602001909291905050509050600060040160009054906101000a900473ffffffffffffffffffffffffffffffffffffffff1673ffffffffffffffffffffffffffffffffffffffff166323b872dd3330866040518463ffffffff1660e01b8152600401808473ffffffffffffffffffffffffffffffffffffffff1673ffffffffffffffffffffffffffffffffffffffff1681526020018373ffffffffffffffffffffffffffffffffffffffff1673ffffffffffffffffffffffffffffffffffffffff1681526020018281526020019350505050602060405180830381600087803b15801561271757600080fd5b505af115801561272b573d6000803e3d6000fd5b505050506040513d602081101561274157600080fd5b810190808051906020019092919050505050600061284482600060040160009054906101000a900473ffffffffffffffffffffffffffffffffffffffff1673ffffffffffffffffffffffffffffffffffffffff166370a08231306040518263ffffffff1660e01b8152600401808273ffffffffffffffffffffffffffffffffffffffff1673ffffffffffffffffffffffffffffffffffffffff16815260200191505060206040518083038186803b1580156127fb57600080fd5b505afa15801561280f573d6000803e3d6000fd5b505050506040513d602081101561282557600080fd5b8101908080519060200190929190505050612edd90919063ffffffff16565b905060008060050154141561286c5761286260006001015484612e3b565b6000600101819055505b61287b60006005015482612e3b565b60006005018190555061289984600f54612e3b90919063ffffffff16565b600f8190555050505050565b600c60009054906101000a900473ffffffffffffffffffffffffffffffffffffffff1673ffffffffffffffffffffffffffffffffffffffff163373ffffffffffffffffffffffffffffffffffffffff161461294b576040517f08c379a000000000000000000000000000000000000000000000000000000000815260040180806020018281038252602981526020018061339f6029913960400191505060405180910390fd5b60006007015442116129c5576040517f08c379a00000000000000000000000000000000000000000000000000000000081526004018080602001828103825260128152602001807f506f6f6c206e6f7420656e64656420596574000000000000000000000000000081525060200191505060405180910390fd5b60008173ffffffffffffffffffffffffffffffffffffffff166370a08231306040518263ffffffff1660e01b8152600401808273ffffffffffffffffffffffffffffffffffffffff1673ffffffffffffffffffffffffffffffffffffffff16815260200191505060206040518083038186803b158015612a4457600080fd5b505afa158015612a58573d6000803e3d6000fd5b505050506040513d6020811015612a6e57600080fd5b810190808051906020019092919050505090508173ffffffffffffffffffffffffffffffffffffffff1663a9059cbb84836040518363ffffffff1660e01b8152600401808373ffffffffffffffffffffffffffffffffffffffff1673ffffffffffffffffffffffffffffffffffffffff16815260200182815260200192505050602060405180830381600087803b158015612b0857600080fd5b505af1158015612b1c573d6000803e3d6000fd5b505050506040513d6020811015612b3257600080fd5b810190808051906020019092919050505050505050565b6000600b60008373ffffffffffffffffffffffffffffffffffffffff1673ffffffffffffffffffffffffffffffffffffffff168152602001908152602001600020600001549050919050565b600c60009054906101000a900473ffffffffffffffffffffffffffffffffffffffff1681565b6000612bcc42600060070154613099565b905090565b600c60009054906101000a900473ffffffffffffffffffffffffffffffffffffffff1673ffffffffffffffffffffffffffffffffffffffff163373ffffffffffffffffffffffffffffffffffffffff1614612c77576040517f08c379a000000000000000000000000000000000000000000000000000000000815260040180806020018281038252602981526020018061339f6029913960400191505060405180910390fd5b80600e60006101000a81548160ff02191690831515021790555050565b600c60009054906101000a900473ffffffffffffffffffffffffffffffffffffffff1673ffffffffffffffffffffffffffffffffffffffff163373ffffffffffffffffffffffffffffffffffffffff1614612d3a576040517f08c379a000000000000000000000000000000000000000000000000000000000815260040180806020018281038252602981526020018061339f6029913960400191505060405180910390fd5b6001600d60008373ffffffffffffffffffffffffffffffffffffffff1673ffffffffffffffffffffffffffffffffffffffff16815260200190815260200160002060006101000a81548160ff02191690831515021790555050565b60008060000160009054906101000a900473ffffffffffffffffffffffffffffffffffffffff16908060010154908060020154908060030154908060040160009054906101000a900473ffffffffffffffffffffffffffffffffffffffff169080600501549080600601549080600701549080600801549080600901549080600a015490508b565b6000612e28826130b2565b50612e316131e9565b5060019050919050565b600080828401905083811015612eb9576040517f08c379a000000000000000000000000000000000000000000000000000000000815260040180806020018281038252601b8152602001807f536166654d6174683a206164646974696f6e206f766572666c6f77000000000081525060200191505060405180910390fd5b8091505092915050565b600081831015612ed35781612ed5565b825b905092915050565b6000612f1f83836040518060400160405280601e81526020017f536166654d6174683a207375627472616374696f6e206f766572666c6f770000815250613218565b905092915050565b600080600f54905060001515600e60009054906101000a900460ff1615151415612f5d57612f5a60006001015482613099565b90505b6000612f91600060080154612f83670de0b6b3a764000087612fc990919063ffffffff16565b61304f90919063ffffffff16565b9050612fc0670de0b6b3a7640000612fb28385612fc990919063ffffffff16565b61304f90919063ffffffff16565b92505050919050565b600080831415612fdc5760009050613049565b6000828402905082848281612fed57fe5b0414613044576040517f08c379a00000000000000000000000000000000000000000000000000000000081526004018080602001828103825260218152602001806133c86021913960400191505060405180910390fd5b809150505b92915050565b600061309183836040518060400160405280601a81526020017f536166654d6174683a206469766973696f6e206279207a65726f0000000000008152506132d8565b905092915050565b60008183106130a857816130aa565b825b905092915050565b60006130bc610e2c565b600b60008473ffffffffffffffffffffffffffffffffffffffff1673ffffffffffffffffffffffffffffffffffffffff1681526020019081526020016000206002018190555061310b82611b26565b600b60008473ffffffffffffffffffffffffffffffffffffffff1673ffffffffffffffffffffffffffffffffffffffff16815260200190815260200160002060010181905550613159612bbb565b600b60008473ffffffffffffffffffffffffffffffffffffffff1673ffffffffffffffffffffffffffffffffffffffff16815260200190815260200160002060030181905550600b60008373ffffffffffffffffffffffffffffffffffffffff1673ffffffffffffffffffffffffffffffffffffffff168152602001908152602001600020600101549050919050565b60006131f3610e2c565b600060030181905550613204612bbb565b600060090181905550600060030154905090565b60008383111582906132c5576040517f08c379a00000000000000000000000000000000000000000000000000000000081526004018080602001828103825283818151815260200191508051906020019080838360005b8381101561328a57808201518184015260208101905061326f565b50505050905090810190601f1680156132b75780820380516001836020036101000a031916815260200191505b509250505060405180910390fd5b5060008385039050809150509392505050565b60008083118290613384576040517f08c379a00000000000000000000000000000000000000000000000000000000081526004018080602001828103825283818151815260200191508051906020019080838360005b8381101561334957808201518184015260208101905061332e565b50505050905090810190601f1680156133765780820380516001836020036101000a031916815260200191505b509250505060405180910390fd5b50600083858161339057fe5b04905080915050939250505056fe6d73672e73656e646572206973206e6f7420616c6c6f77656420746f206f70657261746520506f6f6c536166654d6174683a206d756c7469706c69636174696f6e206f766572666c6f7757616974205820424c4f434b53206265747765656e205472616e73616374696f6e7355736572207374616b652520736861726520746f6f20686967682e204c6561766520736f6d6520666f722074686520736d616c6c65722067757973203b2d29a26469706673582212206d893b53fcd27064e392b81c956f3112de676ab551536efb7420f471ff48b4ce64736f6c63430006060033536166654d6174683a206d756c7469706c69636174696f6e206f766572666c6f77",
  "immutableReferences": {},
  "source": "/*\n* Copyright (c) 2020 DeFiat.net\n*\n* Permission is hereby granted, free of charge, to any person obtaining a copy\n* of this software and associated documentation files (the \"Software\"), to deal\n* in the Software without restriction, including without limitation the rights\n* to use, copy, modify, merge, publish, distribute, sublicense, and/or sell\n* copies of the Software, and to permit persons to whom the Software is\n* furnished to do so, subject to the following conditions:\n*\n* The above copyright notice and this permission notice shall be included in all\n* copies or substantial portions of the Software.\n*\n* THE SOFTWARE IS PROVIDED \"AS IS\", WITHOUT WARRANTY OF ANY KIND, EXPRESS OR\n* IMPLIED, INCLUDING BUT NOT LIMITED TO THE WARRANTIES OF MERCHANTABILITY,\n* FITNESS FOR A PARTICULAR PURPOSE AND NONINFRINGEMENT. IN NO EVENT SHALL THE\n* AUTHORS OR COPYRIGHT HOLDERS BE LIABLE FOR ANY CLAIM, DAMAGES OR OTHER\n* LIABILITY, WHETHER IN AN ACTION OF CONTRACT, TORT OR OTHERWISE, ARISING FROM,\n* OUT OF OR IN CONNECTION WITH THE SOFTWARE OR THE USE OR OTHER DEALINGS IN THE\n*/\n\n// File: @openzeppelin/contracts/math/Math.sol\n// 1000000000000000000000 = 1000\n// 29317165514554924562920 = 29000\n\n\n// File: @openzeppelin/contracts/math/SafeMath.sol\npragma solidity ^0.6.0;\n\nimport \"./SafeMath.sol\";\nimport \"./Address.sol\";\nimport \"./_Interfaces.sol\";\n\ncontract DeFiat_Farming_v15exp {\n    using SafeMath for uint256;\n\n    //Structs\n    struct PoolMetrics {\n        address stakedToken;\n        uint256 staked;             // sum of tokens staked in the contract\n        uint256 stakingFee;         // entry fee\n        \n        uint256 stakingPoints;\n\n        address rewardToken;\n        uint256 rewards;        // current rewards in the pool\n\n        uint256 startTime;      // when the pool opens\n        uint256 closingTime;    // when the pool closes. \n        uint256 duration;       // duration of the staking\n        uint256 lastEvent;   // last time metrics were updated.\n        \n        uint256  ratePerToken;      // CALCULATED pool reward Rate per Token (calculated based on total stake and time)\n    }\n    PoolMetrics public poolMetrics;\n\n    struct UserMetrics {\n            uint256 stake;          // native token stake (balanceOf)\n            uint256 stakingPoints;  // staking points at lastEvent\n            uint256 poolPoints;     // pool point at lastEvent\n            uint256 lastEvent;\n\n            uint256 rewardAccrued;  // accrued rewards over time based on staking points\n            uint256 rewardsPaid;    // for information only\n\n            uint256 lastTxBlock;    // latest transaction from the user (antiSpam)\n    }\n    mapping(address => UserMetrics) public userMetrics;\n\n//== constructor \n    constructor(address _stakedToken, address _rewardToken, uint256 _feeBase1000, uint256 _durationHours, uint256 _delayStartHours) public {\n        poolOperator = msg.sender;\n        \n        poolMetrics.stakedToken = address(_stakedToken);\n        poolMetrics.rewardToken = address(_rewardToken);\n        poolMetrics.stakingFee = _feeBase1000; //10 = 1%\n        \n        poolMetrics.duration = _durationHours.mul(3600); //\n        poolMetrics.startTime = block.timestamp + _delayStartHours.mul(3600);\n        poolMetrics.closingTime = poolMetrics.startTime + poolMetrics.duration; //corrected following report\n        \n        poolMetrics.stakingPoints = 1; //avoids div by 0 at start\n        FullRewards = true;\n    }\n\n//==Events\n    event PoolInitalized(uint256 amountAdded, string  _desc);\n    event RewardTaken(address indexed user, uint256 reward, string  _desc);\n\n    event userStaking(address indexed user, uint256 amount, string  _desc);\n    event userWithdrawal(address indexed user, uint256 amount, string  _desc);\n\n    modifier poolLive() {\n        require(block.timestamp >= poolMetrics.startTime,\"Pool not started Yet\"); //good for delayed starts.\n        require(block.timestamp <= poolMetrics.closingTime,\"Pool closed\"); //good for delayed starts.\n        _;\n    }\n    modifier poolStarted() {\n        require(block.timestamp >= poolMetrics.startTime,\"Pool not started Yet\"); //good for delayed starts.\n        _;\n    }\n    modifier poolEnded() {\n        require(block.timestamp > poolMetrics.closingTime,\"Pool not ended Yet\"); //good for delayed starts.\n        _;\n    }\n    modifier antiSpam(uint256 _blocks) {\n        require(block.number > userMetrics[msg.sender].lastTxBlock.add(_blocks), \"Wait X BLOCKS between Transactions\");\n        userMetrics[msg.sender].lastTxBlock = block.number; //update\n        _;\n    } \n    \n//==Basics \n    function currentTime() public view returns (uint256) {\n        return SafeMath.min(block.timestamp, poolMetrics.closingTime); //allows expiration\n    } // SafeMath.min(now, endTime)\n    \n//==Points locking    \n    function viewPoolPoints() public view returns(uint256) {\n            uint256 _previousPoints = poolMetrics.stakingPoints;    // previous points shapshot \n            uint256 _previousStake = poolMetrics.staked;             // previous stake snapshot\n            \n            uint256 _timeHeld = currentTime().sub(\n                        SafeMath.max(poolMetrics.lastEvent, poolMetrics.startTime)\n                                                 );                 // time held with _previous Event\n                                                 \n            return  _previousPoints.add(_previousStake.mul(_timeHeld));    //generated points since event\n    }\n    function lockPoolPoints() internal returns (uint256) { //ON STAKE/UNSTAKE EVENT\n            poolMetrics.stakingPoints = viewPoolPoints();\n            poolMetrics.lastEvent = currentTime();   // update lastStakingEvent\n            return poolMetrics.stakingPoints;\n        } \n    \n    function viewPointsOf(address _address) public view returns(uint256) {\n            uint256 _previousPoints = userMetrics[_address].stakingPoints;    // snapshot\n            uint256 _previousStake = userMetrics[_address].stake;             // stake before event\n        \n            uint256 _timeHeld = currentTime().sub(\n                        SafeMath.max(userMetrics[_address].lastEvent, poolMetrics.startTime)\n                                                 );                          // time held since lastEvent (take RWD, STK, unSTK)\n            \n            uint256 _result = _previousPoints.add(_previousStake.mul(_timeHeld));   \n            \n            if(_result > poolMetrics.stakingPoints){_result = poolMetrics.stakingPoints;}\n            return _result;\n    }\n    function lockPointsOf(address _address) internal returns (uint256) {\n            userMetrics[_address].poolPoints = viewPoolPoints();  // snapshot of pool points at lockEvent\n            userMetrics[_address].stakingPoints = viewPointsOf(_address); \n            userMetrics[_address].lastEvent = currentTime(); \n\n            return userMetrics[_address].stakingPoints;\n    }\n    function pointsSnapshot(address _address) public returns (bool) {\n        lockPointsOf(_address);lockPoolPoints();\n        return true;\n    }\n    \n//==Rewards\n    function viewTrancheReward(uint256 _period) internal view returns(uint256) {\n        //uint256 _poolRewards = poolMetrics.rewards; //tokens in the pool. Note: This can be setup to a fixed amount (totalRewards)\n        uint256 _poolRewards = totalRewards; \n        \n        if(FullRewards == false){ _poolRewards = SafeMath.min(poolMetrics.staked, _poolRewards);} \n        // baseline is the min( staked, rewards); avoids ultra_farming > staking pool - EXPERIMENTAL\n        \n        uint256 _timeRate = _period.mul(1e18).div(poolMetrics.duration);\n        return _poolRewards.mul(_timeRate).div(1e18); //tranche of rewards on period\n    }\n    \n    function userRateOnPeriod(address _address) public view returns (uint256){\n        //calculates the delta of pool points and user points since last Event\n        uint256 _deltaUser = viewPointsOf(_address).sub(userMetrics[_address].stakingPoints); // points generated since lastEvent\n        uint256 _deltaPool = viewPoolPoints().sub(userMetrics[_address].poolPoints);          // pool points generated since lastEvent\n        uint256 _rate = 0;\n        if(_deltaUser == 0 || _deltaPool == 0 ){_rate = 0;} //rounding\n        else {_rate = _deltaUser.mul(1e18).div(_deltaPool);}\n        return _rate;\n        \n    }\n    \n    function viewAdditionalRewardOf(address _address) public view returns(uint256) { // rewards generated since last Event\n        require(poolMetrics.rewards > 0, \"No Rewards in the Pool\");\n        \n  \n        // user weighted average share of Pool since lastEvent\n        uint256 _userRateOnPeriod = userRateOnPeriod(_address); //can drop if pool size increases within period -> slows rewards generation\n        \n        // Pool Yield Rate \n        uint256 _period = currentTime().sub(\n                            SafeMath.max(userMetrics[_address].lastEvent, poolMetrics.startTime)  \n                            );        // time elapsed since last reward or pool started (if never taken rewards)\n\n        // Calculate reward\n        uint256 _reward = viewTrancheReward(_period).mul(_userRateOnPeriod).div(1e18);  //user rate on pool rewards' tranche\n\n        if(assHoles[_address] == true){_reward = _reward.div(100);}\n        return _reward;\n    }\n    \n    function lockRewardOf(address _address) public returns(uint256) {\n        uint256 _additional = viewAdditionalRewardOf(_address); //stakeShare(sinceLastEvent) * poolRewards(sinceLastEvent)\n        userMetrics[_address].rewardAccrued = userMetrics[_address].rewardAccrued.add(_additional); //snapshot rewards.\n        \n        pointsSnapshot(_address); //updates lastEvent and points\n        return userMetrics[_address].rewardAccrued;\n    }  \n    \n    function takeRewards() public poolStarted antiSpam(1) { //1 blocks between rewards\n        require(poolMetrics.rewards > 0, \"No Rewards in the Pool\");\n        \n        uint256 _reward = lockRewardOf(msg.sender); //returns already accrued + additional (also resets time counters)\n\n        userMetrics[msg.sender].rewardsPaid = _reward;   // update user paid rewards\n        \n        userMetrics[msg.sender].rewardAccrued = 0; //flush previously accrued rewards.\n        \n        poolMetrics.rewards = poolMetrics.rewards.sub(_reward);           // update pool rewards\n            \n        IERC20(poolMetrics.rewardToken).transfer(msg.sender, _reward);  // transfer\n            \n        pointsSnapshot(msg.sender); //updates lastEvent\n        //lockRewardOf(msg.sender);\n            \n        emit RewardTaken(msg.sender, _reward, \"Rewards Sent\");          \n    }\n    \n//==staking & unstaking\n\n    modifier antiWhale(address _address) {\n        require(myStakeShare(_address) < 20000, \"User stake% share too high. Leave some for the smaller guys ;-)\"); //max 20%\n        _;\n    } \n    // avoids stakes being deposited once a user reached 20%. \n    // Simplistic implementation as if we calculate \"futureStake\" value very 1st stakers will not be able to deposit.\n    \n    function stake(uint256 _amount) public poolLive antiSpam(1) antiWhale(msg.sender){\n        require(_amount > 0, \"Cannot stake 0\");\n        \n        //initialize\n        userMetrics[msg.sender].rewardAccrued = lockRewardOf(msg.sender); //Locks previous eligible rewards based on lastRewardEvent and lastStakingEvent\n        pointsSnapshot(msg.sender);\n\n        //receive staked\n        uint256 _balanceNow = IERC20(address(poolMetrics.stakedToken)).balanceOf(address(this));\n        IERC20(poolMetrics.stakedToken).transferFrom(msg.sender, address(this), _amount); //will require allowance\n        uint256 amount = IERC20(address(poolMetrics.stakedToken)).balanceOf(address(this)).sub(_balanceNow); //actually received\n        \n        //update pool and user based on stake and fee\n        uint256 _fee = amount.mul(poolMetrics.stakingFee).div(1000);\n        amount = amount.sub(_fee);\n        \n        if(poolMetrics.stakedToken == poolMetrics.rewardToken){poolMetrics.rewards = poolMetrics.rewards.add(_fee);}\n        poolMetrics.staked = poolMetrics.staked.add(amount);\n        userMetrics[msg.sender].stake = userMetrics[msg.sender].stake.add(amount);\n\n        //finalize\n        pointsSnapshot(msg.sender); //updates lastEvent\n        emit userStaking(msg.sender, amount, \"Staking... ... \");\n        \n    } \n    \n    function unStake(uint256 _amount) public poolStarted antiSpam(1) { \n        require(_amount > 0, \"Cannot withdraw 0\");\n        require(_amount <= userMetrics[msg.sender].stake, \"Cannot withdraw more than stake\");\n\n        //initialize\n        userMetrics[msg.sender].rewardAccrued = lockRewardOf(msg.sender); //snapshot of  previous eligible rewards based on lastStakingEvent\n        pointsSnapshot(msg.sender);\n\n        // update metrics\n        userMetrics[msg.sender].stake = userMetrics[msg.sender].stake.sub(_amount);\n        poolMetrics.staked = poolMetrics.staked.sub(_amount);\n\n        // transfer _amount. Put at the end of the function to avoid reentrancy.\n        IERC20(poolMetrics.stakedToken).transfer(msg.sender, _amount);\n        \n        //finalize\n        emit userWithdrawal(msg.sender, _amount, \"Widhtdrawal\");\n    }\n\n    function myStake(address _address) public view returns(uint256) {\n        return userMetrics[_address].stake;\n    }\n    function myStakeShare(address _address) public view returns(uint256) {\n        if(poolMetrics.staked == 0){return 0;}\n        else {\n        return (userMetrics[_address].stake).mul(100000).div(poolMetrics.staked);}\n    } //base 100,000\n    function myPointsShare(address _address) public view returns(uint256) {  //weighted average of your stake over time vs the pool\n        return viewPointsOf(_address).mul(100000).div(viewPoolPoints());\n    } //base 100,000. Drops when taking rewards.=> Refills after (favors strong hands)\n    function myRewards(address _address) public view returns(uint256) {\n        //delayed start obfuscation (avoids disturbances in the force...)\n        if(block.timestamp <= poolMetrics.startTime || poolMetrics.rewards == 0){return 0;}\n        else { return userMetrics[_address].rewardAccrued.add(viewAdditionalRewardOf(_address));} //previousLock + time based extra\n    }\n\n//== OPERATOR FUNCTIONS ==\n\n    address public poolOperator;\n    \n    mapping(address => bool) public assHoles; //frontrunning bots and other idiots\n\n    function setAsshole(address _address) public onlyPoolOperator {\n        assHoles[_address] = true;\n    }\n    \n    function setPoolOperator(address _address) public onlyPoolOperator {\n        poolOperator = _address;\n    }\n    modifier onlyPoolOperator() {\n        require(msg.sender == poolOperator, \"msg.sender is not allowed to operate Pool\");\n        _;\n    }\n    \n    bool public FullRewards;\n    uint256 totalRewards;\n    \n    function setFullRewards(bool _bool) public onlyPoolOperator {\n        FullRewards = _bool;\n    }\n    function loadRewards(uint256 _amount, uint256 _preStake) public onlyPoolOperator { //load tokens in the rewards pool.\n        \n        uint256 _balanceNow = IERC20(address(poolMetrics.rewardToken)).balanceOf(address(this));\n        IERC20(address(poolMetrics.rewardToken)).transferFrom( msg.sender,  address(this),  _amount);\n        uint256 amount = IERC20(address(poolMetrics.rewardToken)).balanceOf(address(this)).sub(_balanceNow); //actually received\n        \n\n        if(poolMetrics.rewards == 0){                                   // initialization\n        poolMetrics.staked = SafeMath.add(poolMetrics.staked,_preStake);}  // creates baseline for pool. Avoids massive movements on rewards\n        \n        poolMetrics.rewards = SafeMath.add(poolMetrics.rewards,amount);\n        totalRewards = totalRewards.add(_amount);\n    }    \n    function setFee(uint256 _fee) public onlyPoolOperator {\n        poolMetrics.stakingFee = _fee;\n    }\n    \n    function flushPool(address _recipient, address _ERC20address) external onlyPoolOperator poolEnded { // poolEnded { // poolEnded returns(bool) {\n            uint256 _amount = IERC20(_ERC20address).balanceOf(address(this));\n            IERC20(_ERC20address).transfer(_recipient, _amount); //use of the _ERC20 traditional transfer\n            //return true;\n        } //get tokens sent by error to contract\n    function killPool() public onlyPoolOperator poolEnded returns(bool) {\n            selfdestruct(msg.sender);\n        } //frees space on the ETH chain\n\n}\n",
  "sourcePath": "/Users/noahcoomer/source/defiat/contracts/DeFiat_AnyStake.sol",
  "compiler": {
    "name": "solc",
    "version": "0.6.6+commit.6c089d02.Emscripten.clang"
  },
  "schemaVersion": "3.2.3",
  "updatedAt": "2020-09-27T09:09:48.850Z",
  "devdoc": {
    "methods": {}
  },
  "userdoc": {
    "methods": {}
  }
}