{
  "contractName": "DeFiat_Points",
  "abi": [
    {
      "inputs": [],
      "stateMutability": "nonpayable",
      "type": "constructor"
    },
    {
      "anonymous": false,
      "inputs": [
        {
          "indexed": true,
          "internalType": "address",
          "name": "owner",
          "type": "address"
        },
        {
          "indexed": true,
          "internalType": "address",
          "name": "spender",
          "type": "address"
        },
        {
          "indexed": false,
          "internalType": "uint256",
          "name": "value",
          "type": "uint256"
        }
      ],
      "name": "Approval",
      "type": "event"
    },
    {
      "anonymous": false,
      "inputs": [
        {
          "indexed": true,
          "internalType": "address",
          "name": "from",
          "type": "address"
        },
        {
          "indexed": true,
          "internalType": "address",
          "name": "to",
          "type": "address"
        },
        {
          "indexed": false,
          "internalType": "uint256",
          "name": "value",
          "type": "uint256"
        }
      ],
      "name": "Transfer",
      "type": "event"
    },
    {
      "inputs": [
        {
          "internalType": "uint256",
          "name": "",
          "type": "uint256"
        }
      ],
      "name": "_discountTranches",
      "outputs": [
        {
          "internalType": "uint256",
          "name": "",
          "type": "uint256"
        }
      ],
      "stateMutability": "view",
      "type": "function"
    },
    {
      "inputs": [
        {
          "internalType": "address",
          "name": "owner",
          "type": "address"
        },
        {
          "internalType": "address",
          "name": "spender",
          "type": "address"
        }
      ],
      "name": "allowance",
      "outputs": [
        {
          "internalType": "uint256",
          "name": "",
          "type": "uint256"
        }
      ],
      "stateMutability": "view",
      "type": "function"
    },
    {
      "inputs": [
        {
          "internalType": "address",
          "name": "spender",
          "type": "address"
        },
        {
          "internalType": "uint256",
          "name": "amount",
          "type": "uint256"
        }
      ],
      "name": "approve",
      "outputs": [
        {
          "internalType": "bool",
          "name": "",
          "type": "bool"
        }
      ],
      "stateMutability": "nonpayable",
      "type": "function"
    },
    {
      "inputs": [
        {
          "internalType": "address",
          "name": "account",
          "type": "address"
        }
      ],
      "name": "balanceOf",
      "outputs": [
        {
          "internalType": "uint256",
          "name": "",
          "type": "uint256"
        }
      ],
      "stateMutability": "view",
      "type": "function"
    },
    {
      "inputs": [
        {
          "internalType": "address",
          "name": "",
          "type": "address"
        }
      ],
      "name": "deFiat_Gov",
      "outputs": [
        {
          "internalType": "bool",
          "name": "",
          "type": "bool"
        }
      ],
      "stateMutability": "view",
      "type": "function"
    },
    {
      "inputs": [],
      "name": "deFiat_Token",
      "outputs": [
        {
          "internalType": "address",
          "name": "",
          "type": "address"
        }
      ],
      "stateMutability": "view",
      "type": "function"
    },
    {
      "inputs": [],
      "name": "decimals",
      "outputs": [
        {
          "internalType": "uint8",
          "name": "",
          "type": "uint8"
        }
      ],
      "stateMutability": "view",
      "type": "function"
    },
    {
      "inputs": [
        {
          "internalType": "address",
          "name": "spender",
          "type": "address"
        },
        {
          "internalType": "uint256",
          "name": "subtractedValue",
          "type": "uint256"
        }
      ],
      "name": "decreaseAllowance",
      "outputs": [
        {
          "internalType": "bool",
          "name": "",
          "type": "bool"
        }
      ],
      "stateMutability": "nonpayable",
      "type": "function"
    },
    {
      "inputs": [
        {
          "internalType": "address",
          "name": "spender",
          "type": "address"
        },
        {
          "internalType": "uint256",
          "name": "addedValue",
          "type": "uint256"
        }
      ],
      "name": "increaseAllowance",
      "outputs": [
        {
          "internalType": "bool",
          "name": "",
          "type": "bool"
        }
      ],
      "stateMutability": "nonpayable",
      "type": "function"
    },
    {
      "inputs": [],
      "name": "name",
      "outputs": [
        {
          "internalType": "string",
          "name": "",
          "type": "string"
        }
      ],
      "stateMutability": "view",
      "type": "function"
    },
    {
      "inputs": [],
      "name": "symbol",
      "outputs": [
        {
          "internalType": "string",
          "name": "",
          "type": "string"
        }
      ],
      "stateMutability": "view",
      "type": "function"
    },
    {
      "inputs": [],
      "name": "totalSupply",
      "outputs": [
        {
          "internalType": "uint256",
          "name": "",
          "type": "uint256"
        }
      ],
      "stateMutability": "view",
      "type": "function"
    },
    {
      "inputs": [
        {
          "internalType": "address",
          "name": "recipient",
          "type": "address"
        },
        {
          "internalType": "uint256",
          "name": "amount",
          "type": "uint256"
        }
      ],
      "name": "transfer",
      "outputs": [
        {
          "internalType": "bool",
          "name": "",
          "type": "bool"
        }
      ],
      "stateMutability": "nonpayable",
      "type": "function"
    },
    {
      "inputs": [
        {
          "internalType": "address",
          "name": "sender",
          "type": "address"
        },
        {
          "internalType": "address",
          "name": "recipient",
          "type": "address"
        },
        {
          "internalType": "uint256",
          "name": "amount",
          "type": "uint256"
        }
      ],
      "name": "transferFrom",
      "outputs": [
        {
          "internalType": "bool",
          "name": "",
          "type": "bool"
        }
      ],
      "stateMutability": "nonpayable",
      "type": "function"
    },
    {
      "inputs": [],
      "name": "txThreshold",
      "outputs": [
        {
          "internalType": "uint256",
          "name": "",
          "type": "uint256"
        }
      ],
      "stateMutability": "view",
      "type": "function"
    },
    {
      "inputs": [
        {
          "internalType": "address",
          "name": "_address",
          "type": "address"
        }
      ],
      "name": "viewDiscountOf",
      "outputs": [
        {
          "internalType": "uint256",
          "name": "",
          "type": "uint256"
        }
      ],
      "stateMutability": "view",
      "type": "function"
    },
    {
      "inputs": [
        {
          "internalType": "address",
          "name": "_address",
          "type": "address"
        }
      ],
      "name": "viewEligibilityOf",
      "outputs": [
        {
          "internalType": "uint256",
          "name": "tranche",
          "type": "uint256"
        }
      ],
      "stateMutability": "view",
      "type": "function"
    },
    {
      "inputs": [],
      "name": "updateMyDiscountOf",
      "outputs": [
        {
          "internalType": "bool",
          "name": "",
          "type": "bool"
        }
      ],
      "stateMutability": "nonpayable",
      "type": "function"
    },
    {
      "inputs": [
        {
          "internalType": "address",
          "name": "_token",
          "type": "address"
        }
      ],
      "name": "setDeFiatToken",
      "outputs": [
        {
          "internalType": "address",
          "name": "",
          "type": "address"
        }
      ],
      "stateMutability": "nonpayable",
      "type": "function"
    },
    {
      "inputs": [
        {
          "internalType": "address",
          "name": "_address",
          "type": "address"
        },
        {
          "internalType": "bool",
          "name": "_rights",
          "type": "bool"
        }
      ],
      "name": "setGovernor",
      "outputs": [],
      "stateMutability": "nonpayable",
      "type": "function"
    },
    {
      "inputs": [
        {
          "internalType": "uint256",
          "name": "_amount",
          "type": "uint256"
        }
      ],
      "name": "setTxTreshold",
      "outputs": [],
      "stateMutability": "nonpayable",
      "type": "function"
    },
    {
      "inputs": [
        {
          "internalType": "address",
          "name": "_address",
          "type": "address"
        },
        {
          "internalType": "uint256",
          "name": "_newDiscount",
          "type": "uint256"
        }
      ],
      "name": "overrideDiscount",
      "outputs": [],
      "stateMutability": "nonpayable",
      "type": "function"
    },
    {
      "inputs": [
        {
          "internalType": "address",
          "name": "_address",
          "type": "address"
        },
        {
          "internalType": "uint256",
          "name": "_newPoints",
          "type": "uint256"
        }
      ],
      "name": "overrideLoyaltyPoints",
      "outputs": [],
      "stateMutability": "nonpayable",
      "type": "function"
    },
    {
      "inputs": [
        {
          "internalType": "uint256",
          "name": "_tranche",
          "type": "uint256"
        },
        {
          "internalType": "uint256",
          "name": "_pointsNeeded",
          "type": "uint256"
        }
      ],
      "name": "setDiscountTranches",
      "outputs": [],
      "stateMutability": "nonpayable",
      "type": "function"
    },
    {
      "inputs": [
        {
          "internalType": "uint256",
          "name": "_pointsNeeded1",
          "type": "uint256"
        },
        {
          "internalType": "uint256",
          "name": "_pointsNeeded2",
          "type": "uint256"
        },
        {
          "internalType": "uint256",
          "name": "_pointsNeeded3",
          "type": "uint256"
        },
        {
          "internalType": "uint256",
          "name": "_pointsNeeded4",
          "type": "uint256"
        },
        {
          "internalType": "uint256",
          "name": "_pointsNeeded5",
          "type": "uint256"
        },
        {
          "internalType": "uint256",
          "name": "_pointsNeeded6",
          "type": "uint256"
        },
        {
          "internalType": "uint256",
          "name": "_pointsNeeded7",
          "type": "uint256"
        },
        {
          "internalType": "uint256",
          "name": "_pointsNeeded8",
          "type": "uint256"
        },
        {
          "internalType": "uint256",
          "name": "_pointsNeeded9",
          "type": "uint256"
        }
      ],
      "name": "setAll10DiscountTranches",
      "outputs": [],
      "stateMutability": "nonpayable",
      "type": "function"
    },
    {
      "inputs": [
        {
          "internalType": "address",
          "name": "_address",
          "type": "address"
        },
        {
          "internalType": "uint256",
          "name": "_txSize",
          "type": "uint256"
        },
        {
          "internalType": "uint256",
          "name": "_points",
          "type": "uint256"
        }
      ],
      "name": "addPoints",
      "outputs": [],
      "stateMutability": "nonpayable",
      "type": "function"
    }
  ],
  "bytecode": "0x60806040523480156200001157600080fd5b506001600660003373ffffffffffffffffffffffffffffffffffffffff1673ffffffffffffffffffffffffffffffffffffffff16815260200190815260200160002060006101000a81548160ff021916908315150217905550620000e66040518060400160405280600d81526020017f44654669617420506f696e7473000000000000000000000000000000000000008152506040518060400160405280600481526020017f4446545000000000000000000000000000000000000000000000000000000000815250620000ec60201b60201c565b620001ed565b8160039080519060200190620001049291906200013e565b5080600490805190602001906200011d9291906200013e565b506012600560006101000a81548160ff021916908360ff1602179055505050565b828054600181600116156101000203166002900490600052602060002090601f016020900481019282601f106200018157805160ff1916838001178555620001b2565b82800160010185558215620001b2579182015b82811115620001b157825182559160200191906001019062000194565b5b509050620001c19190620001c5565b5090565b620001ea91905b80821115620001e6576000816000905550600101620001cc565b5090565b90565b61262c80620001fd6000396000f3fe608060405234801561001057600080fd5b506004361061018e5760003560e01c80635192fbc3116100de578063a457c2d711610097578063afb1f3f611610071578063afb1f3f6146108bb578063d270f9871461093a578063dd62ed3e14610988578063e256c66114610a005761018e565b8063a457c2d7146107d1578063a9059cbb14610837578063ae49311a1461089d5761018e565b80635192fbc3146105ea57806366e5e8bb146106225780636ca534ea1461065057806370a082311461067257806395d89b41146106ca578063a1a20f261461074d5761018e565b80632b3a5e4d1161014b578063395093511161012557806339509351146104925780633ef94fa7146104f85780634ab5d0b3146105505780635160696c1461059a5761018e565b80632b3a5e4d146103d4578063313ce5671461041657806335ab90991461043a5761018e565b806306fdde0314610193578063095ea7b3146102165780630c6f9ab01461027c57806318160ddd146102d857806323b872dd146102f657806323d14d601461037c575b600080fd5b61019b610a4e565b6040518080602001828103825283818151815260200191508051906020019080838360005b838110156101db5780820151818401526020810190506101c0565b50505050905090810190601f1680156102085780820380516001836020036101000a031916815260200191505b509250505060405180910390f35b6102626004803603604081101561022c57600080fd5b81019080803573ffffffffffffffffffffffffffffffffffffffff16906020019092919080359060200190929190505050610af0565b604051808215151515815260200191505060405180910390f35b6102be6004803603602081101561029257600080fd5b81019080803573ffffffffffffffffffffffffffffffffffffffff169060200190929190505050610b0e565b604051808215151515815260200191505060405180910390f35b6102e0610b2e565b6040518082815260200191505060405180910390f35b6103626004803603606081101561030c57600080fd5b81019080803573ffffffffffffffffffffffffffffffffffffffff169060200190929190803573ffffffffffffffffffffffffffffffffffffffff16906020019092919080359060200190929190505050610b38565b604051808215151515815260200191505060405180910390f35b6103d26004803603606081101561039257600080fd5b81019080803573ffffffffffffffffffffffffffffffffffffffff1690602001909291908035906020019092919080359060200190929190505050610c11565b005b610400600480360360208110156103ea57600080fd5b8101908080359060200190929190505050610ced565b6040518082815260200191505060405180910390f35b61041e610d05565b604051808260ff1660ff16815260200191505060405180910390f35b61047c6004803603602081101561045057600080fd5b81019080803573ffffffffffffffffffffffffffffffffffffffff169060200190929190505050610d1c565b6040518082815260200191505060405180910390f35b6104de600480360360408110156104a857600080fd5b81019080803573ffffffffffffffffffffffffffffffffffffffff16906020019092919080359060200190929190505050610d77565b604051808215151515815260200191505060405180910390f35b61053a6004803603602081101561050e57600080fd5b81019080803573ffffffffffffffffffffffffffffffffffffffff169060200190929190505050610e2a565b6040518082815260200191505060405180910390f35b610558610e73565b604051808273ffffffffffffffffffffffffffffffffffffffff1673ffffffffffffffffffffffffffffffffffffffff16815260200191505060405180910390f35b6105e8600480360360408110156105b057600080fd5b81019080803573ffffffffffffffffffffffffffffffffffffffff169060200190929190803515159060200190929190505050610e99565b005b6106206004803603604081101561060057600080fd5b810190808035906020019092919080359060200190929190505050610ff3565b005b61064e6004803603602081101561063857600080fd5b810190808035906020019092919050505061114b565b005b61065861121b565b604051808215151515815260200191505060405180910390f35b6106b46004803603602081101561068857600080fd5b81019080803573ffffffffffffffffffffffffffffffffffffffff16906020019092919050505061127f565b6040518082815260200191505060405180910390f35b6106d26112c7565b6040518080602001828103825283818151815260200191508051906020019080838360005b838110156107125780820151818401526020810190506106f7565b50505050905090810190601f16801561073f5780820380516001836020036101000a031916815260200191505b509250505060405180910390f35b61078f6004803603602081101561076357600080fd5b81019080803573ffffffffffffffffffffffffffffffffffffffff169060200190929190505050611369565b604051808273ffffffffffffffffffffffffffffffffffffffff1673ffffffffffffffffffffffffffffffffffffffff16815260200191505060405180910390f35b61081d600480360360408110156107e757600080fd5b81019080803573ffffffffffffffffffffffffffffffffffffffff16906020019092919080359060200190929190505050611478565b604051808215151515815260200191505060405180910390f35b6108836004803603604081101561084d57600080fd5b81019080803573ffffffffffffffffffffffffffffffffffffffff16906020019092919080359060200190929190505050611545565b604051808215151515815260200191505060405180910390f35b6108a5611563565b6040518082815260200191505060405180910390f35b61093860048036036101208110156108d257600080fd5b81019080803590602001909291908035906020019092919080359060200190929190803590602001909291908035906020019092919080359060200190929190803590602001909291908035906020019092919080359060200190929190505050611569565b005b6109866004803603604081101561095057600080fd5b81019080803573ffffffffffffffffffffffffffffffffffffffff16906020019092919080359060200190929190505050611734565b005b6109ea6004803603604081101561099e57600080fd5b81019080803573ffffffffffffffffffffffffffffffffffffffff169060200190929190803573ffffffffffffffffffffffffffffffffffffffff16906020019092919050505061181a565b6040518082815260200191505060405180910390f35b610a4c60048036036040811015610a1657600080fd5b81019080803573ffffffffffffffffffffffffffffffffffffffff169060200190929190803590602001909291905050506118a1565b005b606060038054600181600116156101000203166002900480601f016020809104026020016040519081016040528092919081815260200182805460018160011615610100020316600290048015610ae65780601f10610abb57610100808354040283529160200191610ae6565b820191906000526020600020905b815481529060010190602001808311610ac957829003601f168201915b5050505050905090565b6000610b04610afd6119bd565b84846119c5565b6001905092915050565b60066020528060005260406000206000915054906101000a900460ff1681565b6000600254905090565b6000610b45848484611bbc565b610c0684610b516119bd565b610c018560405180606001604052806028815260200161254060289139600160008b73ffffffffffffffffffffffffffffffffffffffff1673ffffffffffffffffffffffffffffffffffffffff1681526020019081526020016000206000610bb76119bd565b73ffffffffffffffffffffffffffffffffffffffff1673ffffffffffffffffffffffffffffffffffffffff16815260200190815260200160002054611c289092919063ffffffff16565b6119c5565b600190509392505050565b600560019054906101000a900473ffffffffffffffffffffffffffffffffffffffff1673ffffffffffffffffffffffffffffffffffffffff163373ffffffffffffffffffffffffffffffffffffffff1614610cd4576040517f08c379a000000000000000000000000000000000000000000000000000000000815260040180806020018281038252600a8152602001807f4f6e6c7920746f6b656e0000000000000000000000000000000000000000000081525060200191505060405180910390fd5b6007548210610ce857610ce78382611ce8565b5b505050565b60086020528060005260406000206000915090505481565b6000600560009054906101000a900460ff16905090565b6000806000905060008090505b60098111610d6d576008600082815260200190815260200160002054610d4e8561127f565b10610d5b57809150610d60565b610d6d565b8080600101915050610d29565b5080915050919050565b6000610e20610d846119bd565b84610e1b8560016000610d956119bd565b73ffffffffffffffffffffffffffffffffffffffff1673ffffffffffffffffffffffffffffffffffffffff16815260200190815260200160002060008973ffffffffffffffffffffffffffffffffffffffff1673ffffffffffffffffffffffffffffffffffffffff16815260200190815260200160002054611eaf90919063ffffffff16565b6119c5565b6001905092915050565b6000600960008373ffffffffffffffffffffffffffffffffffffffff1673ffffffffffffffffffffffffffffffffffffffff168152602001908152602001600020549050919050565b600560019054906101000a900473ffffffffffffffffffffffffffffffffffffffff1681565b60011515600660003373ffffffffffffffffffffffffffffffffffffffff1673ffffffffffffffffffffffffffffffffffffffff16815260200190815260200160002060009054906101000a900460ff16151514610f5f576040517f08c379a00000000000000000000000000000000000000000000000000000000081526004018080602001828103825260178152602001807f4f6e6c7920676f7665726e696e6720636f6e747261637400000000000000000081525060200191505060405180910390fd5b8173ffffffffffffffffffffffffffffffffffffffff163373ffffffffffffffffffffffffffffffffffffffff161415610f9857600080fd5b80600660008473ffffffffffffffffffffffffffffffffffffffff1673ffffffffffffffffffffffffffffffffffffffff16815260200190815260200160002060006101000a81548160ff0219169083151502179055505050565b60011515600660003373ffffffffffffffffffffffffffffffffffffffff1673ffffffffffffffffffffffffffffffffffffffff16815260200190815260200160002060009054906101000a900460ff161515146110b9576040517f08c379a00000000000000000000000000000000000000000000000000000000081526004018080602001828103825260178152602001807f4f6e6c7920676f7665726e696e6720636f6e747261637400000000000000000081525060200191505060405180910390fd5b600a821061112f576040517f08c379a00000000000000000000000000000000000000000000000000000000081526004018080602001828103825260108152602001807f6d6178207472616e63686520697320390000000000000000000000000000000081525060200191505060405180910390fd5b8060086000848152602001908152602001600020819055505050565b60011515600660003373ffffffffffffffffffffffffffffffffffffffff1673ffffffffffffffffffffffffffffffffffffffff16815260200190815260200160002060009054906101000a900460ff16151514611211576040517f08c379a00000000000000000000000000000000000000000000000000000000081526004018080602001828103825260178152602001807f4f6e6c7920676f7665726e696e6720636f6e747261637400000000000000000081525060200191505060405180910390fd5b8060078190555050565b60008061122733610d1c565b9050611234600a82611f37565b600960003373ffffffffffffffffffffffffffffffffffffffff1673ffffffffffffffffffffffffffffffffffffffff16815260200190815260200160002081905550600191505090565b60008060008373ffffffffffffffffffffffffffffffffffffffff1673ffffffffffffffffffffffffffffffffffffffff168152602001908152602001600020549050919050565b606060048054600181600116156101000203166002900480601f01602080910402602001604051908101604052809291908181526020018280546001816001161561010002031660029004801561135f5780601f106113345761010080835404028352916020019161135f565b820191906000526020600020905b81548152906001019060200180831161134257829003601f168201915b5050505050905090565b600060011515600660003373ffffffffffffffffffffffffffffffffffffffff1673ffffffffffffffffffffffffffffffffffffffff16815260200190815260200160002060009054906101000a900460ff16151514611431576040517f08c379a00000000000000000000000000000000000000000000000000000000081526004018080602001828103825260178152602001807f4f6e6c7920676f7665726e696e6720636f6e747261637400000000000000000081525060200191505060405180910390fd5b81600560016101000a81548173ffffffffffffffffffffffffffffffffffffffff021916908373ffffffffffffffffffffffffffffffffffffffff16021790559050919050565b600061153b6114856119bd565b84611536856040518060600160405280602581526020016125d260259139600160006114af6119bd565b73ffffffffffffffffffffffffffffffffffffffff1673ffffffffffffffffffffffffffffffffffffffff16815260200190815260200160002060008a73ffffffffffffffffffffffffffffffffffffffff1673ffffffffffffffffffffffffffffffffffffffff16815260200190815260200160002054611c289092919063ffffffff16565b6119c5565b6001905092915050565b60006115596115526119bd565b8484611bbc565b6001905092915050565b60075481565b60011515600660003373ffffffffffffffffffffffffffffffffffffffff1673ffffffffffffffffffffffffffffffffffffffff16815260200190815260200160002060009054906101000a900460ff1615151461162f576040517f08c379a00000000000000000000000000000000000000000000000000000000081526004018080602001828103825260178152602001807f4f6e6c7920676f7665726e696e6720636f6e747261637400000000000000000081525060200191505060405180910390fd5b60006008600080815260200190815260200160002081905550886008600060018152602001908152602001600020819055508760086000600281526020019081526020016000208190555086600860006003815260200190815260200160002081905550856008600060048152602001908152602001600020819055508460086000600581526020019081526020016000208190555083600860006006815260200190815260200160002081905550826008600060078152602001908152602001600020819055508160086000600881526020019081526020016000208190555080600860006009815260200190815260200160002081905550505050505050505050565b60011515600660003373ffffffffffffffffffffffffffffffffffffffff1673ffffffffffffffffffffffffffffffffffffffff16815260200190815260200160002060009054906101000a900460ff161515146117fa576040517f08c379a00000000000000000000000000000000000000000000000000000000081526004018080602001828103825260178152602001807f4f6e6c7920676f7665726e696e6720636f6e747261637400000000000000000081525060200191505060405180910390fd5b61180c826118078461127f565b611fbd565b6118168282611ce8565b5050565b6000600160008473ffffffffffffffffffffffffffffffffffffffff1673ffffffffffffffffffffffffffffffffffffffff16815260200190815260200160002060008373ffffffffffffffffffffffffffffffffffffffff1673ffffffffffffffffffffffffffffffffffffffff16815260200190815260200160002054905092915050565b60011515600660003373ffffffffffffffffffffffffffffffffffffffff1673ffffffffffffffffffffffffffffffffffffffff16815260200190815260200160002060009054906101000a900460ff16151514611967576040517f08c379a00000000000000000000000000000000000000000000000000000000081526004018080602001828103825260178152602001807f4f6e6c7920676f7665726e696e6720636f6e747261637400000000000000000081525060200191505060405180910390fd5b606481111561197557600080fd5b80600960008473ffffffffffffffffffffffffffffffffffffffff1673ffffffffffffffffffffffffffffffffffffffff168152602001908152602001600020819055505050565b600033905090565b600073ffffffffffffffffffffffffffffffffffffffff168373ffffffffffffffffffffffffffffffffffffffff161415611a4b576040517f08c379a00000000000000000000000000000000000000000000000000000000081526004018080602001828103825260248152602001806125ae6024913960400191505060405180910390fd5b600073ffffffffffffffffffffffffffffffffffffffff168273ffffffffffffffffffffffffffffffffffffffff161415611ad1576040517f08c379a00000000000000000000000000000000000000000000000000000000081526004018080602001828103825260228152602001806124d76022913960400191505060405180910390fd5b80600160008573ffffffffffffffffffffffffffffffffffffffff1673ffffffffffffffffffffffffffffffffffffffff16815260200190815260200160002060008473ffffffffffffffffffffffffffffffffffffffff1673ffffffffffffffffffffffffffffffffffffffff168152602001908152602001600020819055508173ffffffffffffffffffffffffffffffffffffffff168373ffffffffffffffffffffffffffffffffffffffff167f8c5be1e5ebec7d5bd14f71427d1e84f3dd0314c0f7b2291e5b200ac8c7c3b925836040518082815260200191505060405180910390a3505050565b611bc7838383612181565b6000611bd233610d1c565b9050611bdf600a82611f37565b600960003373ffffffffffffffffffffffffffffffffffffffff1673ffffffffffffffffffffffffffffffffffffffff1681526020019081526020016000208190555050505050565b6000838311158290611cd5576040517f08c379a00000000000000000000000000000000000000000000000000000000081526004018080602001828103825283818151815260200191508051906020019080838360005b83811015611c9a578082015181840152602081019050611c7f565b50505050905090810190601f168015611cc75780820380516001836020036101000a031916815260200191505b509250505060405180910390fd5b5060008385039050809150509392505050565b600073ffffffffffffffffffffffffffffffffffffffff168273ffffffffffffffffffffffffffffffffffffffff161415611d8b576040517f08c379a000000000000000000000000000000000000000000000000000000000815260040180806020018281038252601f8152602001807f45524332303a206d696e7420746f20746865207a65726f20616464726573730081525060200191505060405180910390fd5b611d9760008383612442565b611dac81600254611eaf90919063ffffffff16565b600281905550611e03816000808573ffffffffffffffffffffffffffffffffffffffff1673ffffffffffffffffffffffffffffffffffffffff16815260200190815260200160002054611eaf90919063ffffffff16565b6000808473ffffffffffffffffffffffffffffffffffffffff1673ffffffffffffffffffffffffffffffffffffffff168152602001908152602001600020819055508173ffffffffffffffffffffffffffffffffffffffff16600073ffffffffffffffffffffffffffffffffffffffff167fddf252ad1be2c89b69c2b068fc378daa952ba7f163c4a11628f55a4df523b3ef836040518082815260200191505060405180910390a35050565b600080828401905083811015611f2d576040517f08c379a000000000000000000000000000000000000000000000000000000000815260040180806020018281038252601b8152602001807f536166654d6174683a206164646974696f6e206f766572666c6f77000000000081525060200191505060405180910390fd5b8091505092915050565b600080831415611f4a5760009050611fb7565b6000828402905082848281611f5b57fe5b0414611fb2576040517f08c379a000000000000000000000000000000000000000000000000000000000815260040180806020018281038252602181526020018061251f6021913960400191505060405180910390fd5b809150505b92915050565b600073ffffffffffffffffffffffffffffffffffffffff168273ffffffffffffffffffffffffffffffffffffffff161415612043576040517f08c379a00000000000000000000000000000000000000000000000000000000081526004018080602001828103825260218152602001806125686021913960400191505060405180910390fd5b61204f82600083612442565b6120ba816040518060600160405280602281526020016124b5602291396000808673ffffffffffffffffffffffffffffffffffffffff1673ffffffffffffffffffffffffffffffffffffffff16815260200190815260200160002054611c289092919063ffffffff16565b6000808473ffffffffffffffffffffffffffffffffffffffff1673ffffffffffffffffffffffffffffffffffffffff168152602001908152602001600020819055506121118160025461244790919063ffffffff16565b600281905550600073ffffffffffffffffffffffffffffffffffffffff168273ffffffffffffffffffffffffffffffffffffffff167fddf252ad1be2c89b69c2b068fc378daa952ba7f163c4a11628f55a4df523b3ef836040518082815260200191505060405180910390a35050565b600073ffffffffffffffffffffffffffffffffffffffff168373ffffffffffffffffffffffffffffffffffffffff161415612207576040517f08c379a00000000000000000000000000000000000000000000000000000000081526004018080602001828103825260258152602001806125896025913960400191505060405180910390fd5b600073ffffffffffffffffffffffffffffffffffffffff168273ffffffffffffffffffffffffffffffffffffffff16141561228d576040517f08c379a00000000000000000000000000000000000000000000000000000000081526004018080602001828103825260238152602001806124926023913960400191505060405180910390fd5b612298838383612442565b612303816040518060600160405280602681526020016124f9602691396000808773ffffffffffffffffffffffffffffffffffffffff1673ffffffffffffffffffffffffffffffffffffffff16815260200190815260200160002054611c289092919063ffffffff16565b6000808573ffffffffffffffffffffffffffffffffffffffff1673ffffffffffffffffffffffffffffffffffffffff16815260200190815260200160002081905550612396816000808573ffffffffffffffffffffffffffffffffffffffff1673ffffffffffffffffffffffffffffffffffffffff16815260200190815260200160002054611eaf90919063ffffffff16565b6000808473ffffffffffffffffffffffffffffffffffffffff1673ffffffffffffffffffffffffffffffffffffffff168152602001908152602001600020819055508173ffffffffffffffffffffffffffffffffffffffff168373ffffffffffffffffffffffffffffffffffffffff167fddf252ad1be2c89b69c2b068fc378daa952ba7f163c4a11628f55a4df523b3ef836040518082815260200191505060405180910390a3505050565b505050565b600061248983836040518060400160405280601e81526020017f536166654d6174683a207375627472616374696f6e206f766572666c6f770000815250611c28565b90509291505056fe45524332303a207472616e7366657220746f20746865207a65726f206164647265737345524332303a206275726e20616d6f756e7420657863656564732062616c616e636545524332303a20617070726f766520746f20746865207a65726f206164647265737345524332303a207472616e7366657220616d6f756e7420657863656564732062616c616e6365536166654d6174683a206d756c7469706c69636174696f6e206f766572666c6f7745524332303a207472616e7366657220616d6f756e74206578636565647320616c6c6f77616e636545524332303a206275726e2066726f6d20746865207a65726f206164647265737345524332303a207472616e736665722066726f6d20746865207a65726f206164647265737345524332303a20617070726f76652066726f6d20746865207a65726f206164647265737345524332303a2064656372656173656420616c6c6f77616e63652062656c6f77207a65726fa2646970667358221220ae93fea573e25e8e1ec20967e60d9fe441ed5e3261b3138907534a816f974a5864736f6c63430006060033",
  "immutableReferences": {},
  "source": "pragma solidity ^0.6.0;\nimport \"_ERC20.sol\";\n\ncontract DeFiat_Points is _ERC20{\n    \n    //global variables\n    address public deFiat_Token;                        //DeFiat token address \n    mapping(address => bool) public deFiat_Gov;         //governing addresses\n    \n    uint256 public txThreshold; //min tansfer to generate points\n    mapping (uint => uint256) public _discountTranches;\n    mapping (address => uint256) private _discounts; //current discount (base100)\n\n\n//== modifiers ==\n    modifier onlyGovernors {\n        require(deFiat_Gov[msg.sender] == true, \"Only governing contract\");\n        _;\n    }\n    modifier onlyToken {\n        require(msg.sender == deFiat_Token, \"Only token\");\n        _;\n    }\n    \n    constructor() public { //token and governing contract\n        deFiat_Gov[msg.sender] = true; //msg.sender is the 1st governor\n        _constructor(\"DeFiat Points\", \"DFTP\"); //calls the ERC20 \"_constructor\" to update token name\n        //no minting. _totalSupply = 0\n    }\n\n//== VIEW ==\n\n    function viewDiscountOf(address _address) public view returns (uint256) {\n        return _discounts[_address];\n    }\n    function viewEligibilityOf(address _address) public view returns (uint256 tranche) {\n        uint256 _tranche = 0;\n        for(uint256 i=0; i<=9; i++){ //from top to bottom \n           if(balanceOf(_address) >= _discountTranches[i]) { \n             _tranche = i;}\n           else{break;} //break when \n        }\n        return _tranche;\n    }\n    function discountPointsNeeded(uint _tranche) internal view returns (uint256 pointsNeeded) {\n        return( _discountTranches[_tranche]); //check the nb of points needed to access discount tranche\n    }\n\n//== SET ==\n    function updateMyDiscountOf() public returns (bool) {\n        uint256 _tranche = viewEligibilityOf(msg.sender);\n        _discounts[msg.sender] =  SafeMath.mul(10, _tranche); //update of discount base100\n        return true;\n    }  //users execute this function to upgrade a status level to the max tranche\n\n//== SET onlyGovernor ==\n    function setDeFiatToken(address _token) external onlyGovernors returns(address){\n        return deFiat_Token = _token;\n    }\n    function setGovernor(address _address, bool _rights) external onlyGovernors {\n        require(msg.sender != _address); //prevents self stripping of rights\n        deFiat_Gov[_address] = _rights;\n    }\n    \n    function setTxTreshold(uint _amount) external onlyGovernors {\n      txThreshold = _amount; \n    } //minimum amount of tokens to generate points per transaction\n    function overrideDiscount(address _address, uint256 _newDiscount) external onlyGovernors {\n      require(_newDiscount <= 100); //100 = 100% discount\n      _discounts[_address]  = _newDiscount;\n    }\n    function overrideLoyaltyPoints(address _address, uint256 _newPoints) external onlyGovernors {\n        _burn(_address, balanceOf(_address)); //burn all points\n        _mint(_address, _newPoints); //mint new points\n    }\n    \n    function setDiscountTranches(uint _tranche, uint256 _pointsNeeded) external onlyGovernors {\n        require(_tranche <10, \"max tranche is 9\"); //tranche 9 = 90% discount\n        _discountTranches[_tranche] = _pointsNeeded;\n    }\n    \n    function setAll10DiscountTranches(\n            uint256 _pointsNeeded1, uint256 _pointsNeeded2, uint256 _pointsNeeded3, uint256 _pointsNeeded4, \n            uint256 _pointsNeeded5, uint256 _pointsNeeded6, uint256 _pointsNeeded7, uint256 _pointsNeeded8, \n            uint256 _pointsNeeded9) public onlyGovernors {\n        _discountTranches[0] = 0;\n        _discountTranches[1] = _pointsNeeded1; //10%\n        _discountTranches[2] = _pointsNeeded2; //20%\n        _discountTranches[3] = _pointsNeeded3; //30%\n        _discountTranches[4] = _pointsNeeded4; //40%\n        _discountTranches[5] = _pointsNeeded5; //50%\n        _discountTranches[6] = _pointsNeeded6; //60%\n        _discountTranches[7] = _pointsNeeded7; //70%\n        _discountTranches[8] = _pointsNeeded8; //80%\n        _discountTranches[9] = _pointsNeeded9; //90%\n    }\n    \n//== MINT points onlyToken ==  \n    function addPoints(address _address, uint256 _txSize, uint256 _points) external onlyToken {\n       if(_txSize >= txThreshold){ _mint(_address, _points);}\n    }\n    \n    function _transfer(address sender, address recipient, uint256 amount) internal override virtual {\n        _ERC20._transfer(sender, recipient, amount);\n        //force update discount\n        uint256 _tranche = viewEligibilityOf(msg.sender);\n        _discounts[msg.sender] =  SafeMath.mul(10, _tranche);\n        \n    }  //overriden to update discount at every points Transfer. Avoids passing tokens to get discounts.\n    \n} \n",
  "sourcePath": "DeFiat_Points.sol",
  "compiler": {
    "name": "solc",
    "version": "0.6.6+commit.6c089d02.Emscripten.clang"
  },
  "schemaVersion": "3.2.3",
  "updatedAt": "2020-08-13T05:13:43.373Z",
  "devdoc": {
    "methods": {
      "allowance(address,address)": {
        "details": "See {IERC20-allowance}."
      },
      "approve(address,uint256)": {
        "details": "See {IERC20-approve}.     * Requirements:     * - `spender` cannot be the zero address."
      },
      "balanceOf(address)": {
        "details": "See {IERC20-balanceOf}."
      },
      "decimals()": {
        "details": "Returns the number of decimals used to get its user representation. For example, if `decimals` equals `2`, a balance of `505` tokens should be displayed to a user as `5,05` (`505 / 10 ** 2`).     * Tokens usually opt for a value of 18, imitating the relationship between Ether and Wei. This is the value {ERC20} uses, unless {_setupDecimals} is called.     * NOTE: This information is only used for _display_ purposes: it in no way affects any of the arithmetic of the contract, including {IERC20-balanceOf} and {IERC20-transfer}."
      },
      "decreaseAllowance(address,uint256)": {
        "details": "Atomically decreases the allowance granted to `spender` by the caller.     * This is an alternative to {approve} that can be used as a mitigation for problems described in {IERC20-approve}.     * Emits an {Approval} event indicating the updated allowance.     * Requirements:     * - `spender` cannot be the zero address. - `spender` must have allowance for the caller of at least `subtractedValue`."
      },
      "increaseAllowance(address,uint256)": {
        "details": "Atomically increases the allowance granted to `spender` by the caller.     * This is an alternative to {approve} that can be used as a mitigation for problems described in {IERC20-approve}.     * Emits an {Approval} event indicating the updated allowance.     * Requirements:     * - `spender` cannot be the zero address."
      },
      "name()": {
        "details": "Returns the name of the token."
      },
      "symbol()": {
        "details": "Returns the symbol of the token, usually a shorter version of the name."
      },
      "totalSupply()": {
        "details": "See {IERC20-totalSupply}."
      },
      "transfer(address,uint256)": {
        "details": "See {IERC20-transfer}.     * Requirements:     * - `recipient` cannot be the zero address. - the caller must have a balance of at least `amount`."
      },
      "transferFrom(address,address,uint256)": {
        "details": "See {IERC20-transferFrom}.     * Emits an {Approval} event indicating the updated allowance. This is not required by the EIP. See the note at the beginning of {ERC20};     * Requirements: - `sender` and `recipient` cannot be the zero address. - `sender` must have a balance of at least `amount`. - the caller must have allowance for ``sender``'s tokens of at least `amount`."
      }
    }
  },
  "userdoc": {
    "methods": {}
  }
}