{
  "contractName": "DeFiat_Gov",
  "abi": [
    {
      "inputs": [],
      "stateMutability": "nonpayable",
      "type": "constructor"
    },
    {
      "anonymous": false,
      "inputs": [
        {
          "indexed": false,
          "internalType": "address",
          "name": "_txOrigin",
          "type": "address"
        },
        {
          "indexed": false,
          "internalType": "uint256",
          "name": "_number",
          "type": "uint256"
        },
        {
          "indexed": false,
          "internalType": "bytes32",
          "name": "_signature",
          "type": "bytes32"
        },
        {
          "indexed": false,
          "internalType": "string",
          "name": "_desc",
          "type": "string"
        }
      ],
      "name": "stdEvent",
      "type": "event"
    },
    {
      "inputs": [],
      "name": "mastermind",
      "outputs": [
        {
          "internalType": "address",
          "name": "",
          "type": "address"
        }
      ],
      "stateMutability": "view",
      "type": "function"
    },
    {
      "inputs": [
        {
          "internalType": "address",
          "name": "_address",
          "type": "address"
        }
      ],
      "name": "viewActorLevelOf",
      "outputs": [
        {
          "internalType": "uint256",
          "name": "",
          "type": "uint256"
        }
      ],
      "stateMutability": "view",
      "type": "function"
    },
    {
      "inputs": [],
      "name": "viewBurnRate",
      "outputs": [
        {
          "internalType": "uint256",
          "name": "",
          "type": "uint256"
        }
      ],
      "stateMutability": "view",
      "type": "function"
    },
    {
      "inputs": [],
      "name": "viewFeeRate",
      "outputs": [
        {
          "internalType": "uint256",
          "name": "",
          "type": "uint256"
        }
      ],
      "stateMutability": "view",
      "type": "function"
    },
    {
      "inputs": [],
      "name": "viewFeeDestination",
      "outputs": [
        {
          "internalType": "address",
          "name": "",
          "type": "address"
        }
      ],
      "stateMutability": "view",
      "type": "function"
    },
    {
      "inputs": [
        {
          "internalType": "address",
          "name": "_address",
          "type": "address"
        },
        {
          "internalType": "uint256",
          "name": "_newLevel",
          "type": "uint256"
        }
      ],
      "name": "setActorLevel",
      "outputs": [],
      "stateMutability": "nonpayable",
      "type": "function"
    },
    {
      "inputs": [
        {
          "internalType": "address",
          "name": "_address",
          "type": "address"
        }
      ],
      "name": "removeAllRights",
      "outputs": [],
      "stateMutability": "nonpayable",
      "type": "function"
    },
    {
      "inputs": [],
      "name": "killContract",
      "outputs": [],
      "stateMutability": "nonpayable",
      "type": "function"
    },
    {
      "inputs": [
        {
          "internalType": "address",
          "name": "_mastermind",
          "type": "address"
        }
      ],
      "name": "setMastermind",
      "outputs": [],
      "stateMutability": "nonpayable",
      "type": "function"
    },
    {
      "inputs": [
        {
          "internalType": "uint256",
          "name": "_burnRate",
          "type": "uint256"
        }
      ],
      "name": "changeBurnRate",
      "outputs": [],
      "stateMutability": "nonpayable",
      "type": "function"
    },
    {
      "inputs": [
        {
          "internalType": "uint256",
          "name": "_feeRate",
          "type": "uint256"
        }
      ],
      "name": "changeFeeRate",
      "outputs": [],
      "stateMutability": "nonpayable",
      "type": "function"
    },
    {
      "inputs": [
        {
          "internalType": "address",
          "name": "_nextDest",
          "type": "address"
        }
      ],
      "name": "setFeeDestination",
      "outputs": [],
      "stateMutability": "nonpayable",
      "type": "function"
    }
  ],
  "bytecode": "0x608060405234801561001057600080fd5b50336000806101000a81548173ffffffffffffffffffffffffffffffffffffffff021916908373ffffffffffffffffffffffffffffffffffffffff1602179055506003600160008060009054906101000a900473ffffffffffffffffffffffffffffffffffffffff1673ffffffffffffffffffffffffffffffffffffffff1673ffffffffffffffffffffffffffffffffffffffff168152602001908152602001600020819055506000809054906101000a900473ffffffffffffffffffffffffffffffffffffffff16600660006101000a81548173ffffffffffffffffffffffffffffffffffffffff021916908373ffffffffffffffffffffffffffffffffffffffff1602179055507fd28f7a1b6f3a917096b03ad23a42399f0a3838b81be3f3830c33cf2b005dba7333600360026000809054906101000a900473ffffffffffffffffffffffffffffffffffffffff16604051602001808273ffffffffffffffffffffffffffffffffffffffff1673ffffffffffffffffffffffffffffffffffffffff1660601b81526014019150506040516020818303038152906040526040518082805190602001908083835b602083106101e257805182526020820191506020810190506020830392506101bf565b6001836020036101000a038019825116818451168082178552505050505050905001915050602060405180830381855afa158015610224573d6000803e3d6000fd5b5050506040513d602081101561023957600080fd5b8101908080519060200190929190505050604051808473ffffffffffffffffffffffffffffffffffffffff1673ffffffffffffffffffffffffffffffffffffffff168152602001838152602001828152602001806020018281038252600b8152602001807f636f6e7374727563746f7200000000000000000000000000000000000000000081525060200194505050505060405180910390a16114da806102e16000396000f3fe608060405234801561001057600080fd5b50600436106100b45760003560e01c8063752be39011610071578063752be390146101f15780637cf0799814610235578063affca9321461028d578063bc97240a146102bb578063bdcdb02f146102d9578063fbe532341461031d576100b4565b80631c02708d146100b95780633150cf80146100c35780634221be9f146100e157806344fbf7f11461012b57806355de0d161461017557806356851060146101c3575b600080fd5b6100c1610361565b005b6100cb61043c565b6040518082815260200191505060405180910390f35b6100e9610446565b604051808273ffffffffffffffffffffffffffffffffffffffff1673ffffffffffffffffffffffffffffffffffffffff16815260200191505060405180910390f35b61013361046b565b604051808273ffffffffffffffffffffffffffffffffffffffff1673ffffffffffffffffffffffffffffffffffffffff16815260200191505060405180910390f35b6101c16004803603604081101561018b57600080fd5b81019080803573ffffffffffffffffffffffffffffffffffffffff16906020019092919080359060200190929190505050610495565b005b6101ef600480360360208110156101d957600080fd5b8101908080359060200190929190505050610730565b005b6102336004803603602081101561020757600080fd5b81019080803573ffffffffffffffffffffffffffffffffffffffff169060200190929190505050610a06565b005b6102776004803603602081101561024b57600080fd5b81019080803573ffffffffffffffffffffffffffffffffffffffff169060200190929190505050610d02565b6040518082815260200191505060405180910390f35b6102b9600480360360208110156102a357600080fd5b8101908080359060200190929190505050610d4b565b005b6102c3611021565b6040518082815260200191505060405180910390f35b61031b600480360360208110156102ef57600080fd5b81019080803573ffffffffffffffffffffffffffffffffffffffff16906020019092919050505061102b565b005b61035f6004803603602081101561033357600080fd5b81019080803573ffffffffffffffffffffffffffffffffffffffff1690602001909291905050506113aa565b005b6000809054906101000a900473ffffffffffffffffffffffffffffffffffffffff1673ffffffffffffffffffffffffffffffffffffffff163373ffffffffffffffffffffffffffffffffffffffff1614610423576040517f08c379a00000000000000000000000000000000000000000000000000000000081526004018080602001828103825260108152602001807f206f6e6c79204d61737465726d696e640000000000000000000000000000000081525060200191505060405180910390fd5b3373ffffffffffffffffffffffffffffffffffffffff16ff5b6000600554905090565b6000809054906101000a900473ffffffffffffffffffffffffffffffffffffffff1681565b6000600660009054906101000a900473ffffffffffffffffffffffffffffffffffffffff16905090565b600160003373ffffffffffffffffffffffffffffffffffffffff1673ffffffffffffffffffffffffffffffffffffffff168152602001908152602001600020548110610549576040517f08c379a000000000000000000000000000000000000000000000000000000000815260040180806020018281038252601e8152602001807f43616e206f6e6c792067697665207269676874732062656c6f7720796f75000081525060200191505060405180910390fd5b80600160008473ffffffffffffffffffffffffffffffffffffffff1673ffffffffffffffffffffffffffffffffffffffff168152602001908152602001600020819055507fd28f7a1b6f3a917096b03ad23a42399f0a3838b81be3f3830c33cf2b005dba73828260023385604051602001808373ffffffffffffffffffffffffffffffffffffffff1673ffffffffffffffffffffffffffffffffffffffff1660601b8152601401828152602001925050506040516020818303038152906040526040518082805190602001908083835b6020831061063c5780518252602082019150602081019050602083039250610619565b6001836020036101000a038019825116818451168082178552505050505050905001915050602060405180830381855afa15801561067e573d6000803e3d6000fd5b5050506040513d602081101561069357600080fd5b8101908080519060200190929190505050604051808473ffffffffffffffffffffffffffffffffffffffff1673ffffffffffffffffffffffffffffffffffffffff168152602001838152602001828152602001806020018281038252600d8152602001807f4c6576656c206368616e6765640000000000000000000000000000000000000081525060200194505050505060405180910390a15050565b6002600160003373ffffffffffffffffffffffffffffffffffffffff1673ffffffffffffffffffffffffffffffffffffffff1681526020019081526020016000205410156107e6576040517f08c379a000000000000000000000000000000000000000000000000000000000815260040180806020018281038252600e8152602001807f6f6e6c7920476f7665726e6f727300000000000000000000000000000000000081525060200191505060405180910390fd5b60c881111561085d576040517f08c379a00000000000000000000000000000000000000000000000000000000081526004018080602001828103825260098152602001807f323025206c696d6974000000000000000000000000000000000000000000000081525060200191505060405180910390fd5b806004819055507fd28f7a1b6f3a917096b03ad23a42399f0a3838b81be3f3830c33cf2b005dba73338260023385604051602001808373ffffffffffffffffffffffffffffffffffffffff1673ffffffffffffffffffffffffffffffffffffffff1660601b8152601401828152602001925050506040516020818303038152906040526040518082805190602001908083835b6020831061091357805182526020820191506020810190506020830392506108f0565b6001836020036101000a038019825116818451168082178552505050505050905001915050602060405180830381855afa158015610955573d6000803e3d6000fd5b5050506040513d602081101561096a57600080fd5b8101908080519060200190929190505050604051808473ffffffffffffffffffffffffffffffffffffffff1673ffffffffffffffffffffffffffffffffffffffff16815260200183815260200182815260200180602001828103825260108152602001807f4275726e52617465204368616e6765640000000000000000000000000000000081525060200194505050505060405180910390a150565b6000809054906101000a900473ffffffffffffffffffffffffffffffffffffffff1673ffffffffffffffffffffffffffffffffffffffff163373ffffffffffffffffffffffffffffffffffffffff1614610ac8576040517f08c379a00000000000000000000000000000000000000000000000000000000081526004018080602001828103825260108152602001807f206f6e6c79204d61737465726d696e640000000000000000000000000000000081525060200191505060405180910390fd5b6000809054906101000a900473ffffffffffffffffffffffffffffffffffffffff1673ffffffffffffffffffffffffffffffffffffffff168173ffffffffffffffffffffffffffffffffffffffff161415610b2257600080fd5b6000600160008373ffffffffffffffffffffffffffffffffffffffff1673ffffffffffffffffffffffffffffffffffffffff168152602001908152602001600020819055507fd28f7a1b6f3a917096b03ad23a42399f0a3838b81be3f3830c33cf2b005dba73816000600284604051602001808273ffffffffffffffffffffffffffffffffffffffff1673ffffffffffffffffffffffffffffffffffffffff1660601b81526014019150506040516020818303038152906040526040518082805190602001908083835b60208310610c0f5780518252602082019150602081019050602083039250610bec565b6001836020036101000a038019825116818451168082178552505050505050905001915050602060405180830381855afa158015610c51573d6000803e3d6000fd5b5050506040513d6020811015610c6657600080fd5b8101908080519060200190929190505050604051808473ffffffffffffffffffffffffffffffffffffffff1673ffffffffffffffffffffffffffffffffffffffff168152602001838152602001828152602001806020018281038252600e8152602001807f526967687473205265766f6b656400000000000000000000000000000000000081525060200194505050505060405180910390a150565b6000600160008373ffffffffffffffffffffffffffffffffffffffff1673ffffffffffffffffffffffffffffffffffffffff168152602001908152602001600020549050919050565b6002600160003373ffffffffffffffffffffffffffffffffffffffff1673ffffffffffffffffffffffffffffffffffffffff168152602001908152602001600020541015610e01576040517f08c379a000000000000000000000000000000000000000000000000000000000815260040180806020018281038252600e8152602001807f6f6e6c7920476f7665726e6f727300000000000000000000000000000000000081525060200191505060405180910390fd5b60c8811115610e78576040517f08c379a00000000000000000000000000000000000000000000000000000000081526004018080602001828103825260098152602001807f323025206c696d6974000000000000000000000000000000000000000000000081525060200191505060405180910390fd5b806005819055507fd28f7a1b6f3a917096b03ad23a42399f0a3838b81be3f3830c33cf2b005dba73338260023385604051602001808373ffffffffffffffffffffffffffffffffffffffff1673ffffffffffffffffffffffffffffffffffffffff1660601b8152601401828152602001925050506040516020818303038152906040526040518082805190602001908083835b60208310610f2e5780518252602082019150602081019050602083039250610f0b565b6001836020036101000a038019825116818451168082178552505050505050905001915050602060405180830381855afa158015610f70573d6000803e3d6000fd5b5050506040513d6020811015610f8557600080fd5b8101908080519060200190929190505050604051808473ffffffffffffffffffffffffffffffffffffffff1673ffffffffffffffffffffffffffffffffffffffff168152602001838152602001828152602001806020018281038252600f8152602001807f46656552617465204368616e676564000000000000000000000000000000000081525060200194505050505060405180910390a150565b6000600454905090565b6000809054906101000a900473ffffffffffffffffffffffffffffffffffffffff1673ffffffffffffffffffffffffffffffffffffffff163373ffffffffffffffffffffffffffffffffffffffff16146110ed576040517f08c379a00000000000000000000000000000000000000000000000000000000081526004018080602001828103825260108152602001807f206f6e6c79204d61737465726d696e640000000000000000000000000000000081525060200191505060405180910390fd5b806000806101000a81548173ffffffffffffffffffffffffffffffffffffffff021916908373ffffffffffffffffffffffffffffffffffffffff1602179055506003600160008373ffffffffffffffffffffffffffffffffffffffff1673ffffffffffffffffffffffffffffffffffffffff168152602001908152602001600020819055506002600160003373ffffffffffffffffffffffffffffffffffffffff1673ffffffffffffffffffffffffffffffffffffffff168152602001908152602001600020819055507fd28f7a1b6f3a917096b03ad23a42399f0a3838b81be3f3830c33cf2b005dba733260006002846000809054906101000a900473ffffffffffffffffffffffffffffffffffffffff16604051602001808373ffffffffffffffffffffffffffffffffffffffff1673ffffffffffffffffffffffffffffffffffffffff1660601b81526014018273ffffffffffffffffffffffffffffffffffffffff1673ffffffffffffffffffffffffffffffffffffffff1660601b8152601401925050506040516020818303038152906040526040518082805190602001908083835b602083106112b75780518252602082019150602081019050602083039250611294565b6001836020036101000a038019825116818451168082178552505050505050905001915050602060405180830381855afa1580156112f9573d6000803e3d6000fd5b5050506040513d602081101561130e57600080fd5b8101908080519060200190929190505050604051808473ffffffffffffffffffffffffffffffffffffffff1673ffffffffffffffffffffffffffffffffffffffff16815260200183815260200182815260200180602001828103825260128152602001807f4d61737465724d696e64204368616e676564000000000000000000000000000081525060200194505050505060405180910390a150565b6002600160003373ffffffffffffffffffffffffffffffffffffffff1673ffffffffffffffffffffffffffffffffffffffff168152602001908152602001600020541015611460576040517f08c379a000000000000000000000000000000000000000000000000000000000815260040180806020018281038252600e8152602001807f6f6e6c7920476f7665726e6f727300000000000000000000000000000000000081525060200191505060405180910390fd5b80600660006101000a81548173ffffffffffffffffffffffffffffffffffffffff021916908373ffffffffffffffffffffffffffffffffffffffff1602179055505056fea26469706673582212204c045a9e91399d8fa2091a5f86412118ae34a9bf42cfb94f26bc1faf167ead7864736f6c63430006060033",
  "immutableReferences": {},
  "source": "pragma solidity ^0.6.0;\n\ncontract DeFiat_Gov {\n    //Governance contract for DeFiat Token.\n\n    address public mastermind;\n    mapping (address => uint256) private actorLevel; //governance = multi-tier level\n    \n    mapping (address => uint256) private override _balances; \n    mapping (address => uint256) private override _allowances; \n     \n    uint256 private burnRate; //% rate of burn at each transaction\n    uint256 private feeRate;\n    address private feeDestination; //target address for fees (will be the staking contract)\n\n    event stdEvent(address _txOrigin, uint256 _number, bytes32 _signature, string _desc);\n\n    //== CONSTRUCTOR\n    constructor() public {\n        mastermind = msg.sender;\n        actorLevel[mastermind] = 3;\n        feeDestination = mastermind;\n        emit stdEvent(msg.sender, 3, sha256(abi.encodePacked(mastermind)), \"constructor\");\n    }\n\n    //== MODIFIERS ==\n    modifier onlyMastermind {\n        require(msg.sender == mastermind, \" only Mastermind\");\n        _;\n    }\n\n    modifier onlyGovernor {\n        require(actorLevel[msg.sender] >= 2,\"only Governors\");\n        _;\n    }\n\n    modifier onlyPartner {\n        require(actorLevel[msg.sender] >= 1,\"only Partners\");\n        _;\n    }\n    \n  //== VIEW ==    \n    function viewActorLevelOf(address _address) public view returns (uint256) {\n        return actorLevel[_address]; //address lvl (3, 2, 1 or 0)\n    }\n\n    function viewBurnRate() public view returns (uint256)  {\n        return burnRate;\n    }\n\n    function viewFeeRate() public view returns (uint256)  {\n        return feeRate;\n    }\n\n    function viewFeeDestination() public view returns (address)  {\n        return feeDestination;\n    }\n    \n    //== SET INTERNAL VARIABLES==\n\n    function setActorLevel(address _address, uint256 _newLevel) public {\n        require(_newLevel < actorLevel[msg.sender], \"Can only give rights below you\");\n        actorLevel[_address] = _newLevel; //updates level -> adds or removes rights\n        emit stdEvent(_address, _newLevel, sha256(abi.encodePacked(msg.sender, _newLevel)), \"Level changed\");\n    }\n    \n    //MasterMind specific \n    function removeAllRights(address _address) public onlyMastermind {\n        require(_address != mastermind);\n        actorLevel[_address] = 0; //removes all rights\n        emit stdEvent(address(_address), 0, sha256(abi.encodePacked(_address)), \"Rights Revoked\");\n    }\n\n    function killContract() public onlyMastermind {\n        selfdestruct(msg.sender); //destroys the contract\n    } //only Mastermind can kill contract\n\n    function setMastermind(address _mastermind) public onlyMastermind {\n        mastermind = _mastermind;     //Only one mastermind\n        actorLevel[_mastermind] = 3; \n        actorLevel[msg.sender] = 2;  //new level for previous mastermind\n        emit stdEvent(tx.origin, 0, sha256(abi.encodePacked(_mastermind, mastermind)), \"MasterMind Changed\");\n    }     //only Mastermind can transfer his own rights\n     \n    function changeBurnRate(uint _burnRate) public onlyGovernor {\n        require(_burnRate <=200, \"20% limit\"); //cannot burn more than 20%\n        burnRate = _burnRate; \n        emit stdEvent(address(msg.sender), _burnRate, sha256(abi.encodePacked(msg.sender, _burnRate)), \"BurnRate Changed\");\n    }     //only governors can change burnRate/tx\n\n    function changeFeeRate(uint _feeRate) public onlyGovernor {\n        require(_feeRate <=200, \"20% limit\"); //cannot take more than 20% fees\n        feeRate = _feeRate;\n        emit stdEvent(address(msg.sender), _feeRate, sha256(abi.encodePacked(msg.sender, _feeRate)), \"FeeRate Changed\");\n    }    //only governors can change feeRate/tx\n\n    function setFeeDestination(address _nextDest) public onlyGovernor {\n         feeDestination = _nextDest;\n    }\n}\n",
  "sourcePath": "/Users/noahcoomer/source/defiat/contracts/DeFiat_Governance.sol",
  "compiler": {
    "name": "solc",
    "version": "0.6.6+commit.6c089d02.Emscripten.clang"
  },
  "schemaVersion": "3.2.3",
  "updatedAt": "2020-09-27T09:09:48.909Z",
  "devdoc": {
    "methods": {}
  },
  "userdoc": {
    "methods": {}
  }
}