{
  "contractName": "Donation",
  "abi": [
    {
      "inputs": [
        {
          "internalType": "address",
          "name": "_token",
          "type": "address"
        },
        {
          "internalType": "uint256",
          "name": "_durationDays",
          "type": "uint256"
        }
      ],
      "stateMutability": "nonpayable",
      "type": "constructor"
    },
    {
      "anonymous": false,
      "inputs": [
        {
          "indexed": false,
          "internalType": "address",
          "name": "user",
          "type": "address"
        },
        {
          "indexed": false,
          "internalType": "uint256",
          "name": "amount",
          "type": "uint256"
        }
      ],
      "name": "ValueReceived",
      "type": "event"
    },
    {
      "stateMutability": "payable",
      "type": "fallback"
    },
    {
      "inputs": [],
      "name": "deadline",
      "outputs": [
        {
          "internalType": "uint256",
          "name": "",
          "type": "uint256"
        }
      ],
      "stateMutability": "view",
      "type": "function"
    },
    {
      "inputs": [],
      "name": "token",
      "outputs": [
        {
          "internalType": "address",
          "name": "",
          "type": "address"
        }
      ],
      "stateMutability": "view",
      "type": "function"
    },
    {
      "stateMutability": "payable",
      "type": "receive"
    },
    {
      "inputs": [
        {
          "internalType": "address",
          "name": "_address",
          "type": "address"
        },
        {
          "internalType": "uint256",
          "name": "_maxETH",
          "type": "uint256"
        },
        {
          "internalType": "uint256",
          "name": "_nbTokens1ETH",
          "type": "uint256"
        }
      ],
      "name": "setParticipant",
      "outputs": [],
      "stateMutability": "nonpayable",
      "type": "function"
    },
    {
      "inputs": [
        {
          "internalType": "address",
          "name": "_address",
          "type": "address"
        }
      ],
      "name": "viewMyAllocation",
      "outputs": [
        {
          "internalType": "uint256",
          "name": "",
          "type": "uint256"
        }
      ],
      "stateMutability": "view",
      "type": "function"
    },
    {
      "inputs": [
        {
          "internalType": "address",
          "name": "_address",
          "type": "address"
        }
      ],
      "name": "viewMyPrice",
      "outputs": [
        {
          "internalType": "uint256",
          "name": "",
          "type": "uint256"
        }
      ],
      "stateMutability": "view",
      "type": "function"
    },
    {
      "inputs": [
        {
          "internalType": "address",
          "name": "_ERC20address",
          "type": "address"
        }
      ],
      "name": "widthdrawAllTokens",
      "outputs": [
        {
          "internalType": "bool",
          "name": "",
          "type": "bool"
        }
      ],
      "stateMutability": "nonpayable",
      "type": "function"
    },
    {
      "inputs": [],
      "name": "_widthdrawETH",
      "outputs": [
        {
          "internalType": "bool",
          "name": "",
          "type": "bool"
        }
      ],
      "stateMutability": "nonpayable",
      "type": "function"
    },
    {
      "inputs": [
        {
          "internalType": "address",
          "name": "_recipient",
          "type": "address"
        },
        {
          "internalType": "address",
          "name": "_ERC20address",
          "type": "address"
        },
        {
          "internalType": "uint256",
          "name": "_amount",
          "type": "uint256"
        }
      ],
      "name": "_widthdrawAnyToken",
      "outputs": [
        {
          "internalType": "bool",
          "name": "",
          "type": "bool"
        }
      ],
      "stateMutability": "nonpayable",
      "type": "function"
    },
    {
      "inputs": [],
      "name": "_killContract",
      "outputs": [
        {
          "internalType": "bool",
          "name": "",
          "type": "bool"
        }
      ],
      "stateMutability": "nonpayable",
      "type": "function"
    }
  ],
  "bytecode": "0x608060405234801561001057600080fd5b50604051610f42380380610f428339818101604052604081101561003357600080fd5b810190808051906020019092919080519060200190929190505050670de0b6b3a7640000801461005f57fe5b816000806101000a81548173ffffffffffffffffffffffffffffffffffffffff021916908373ffffffffffffffffffffffffffffffffffffffff16021790555033600160006101000a81548173ffffffffffffffffffffffffffffffffffffffff021916908373ffffffffffffffffffffffffffffffffffffffff16021790555062015180810242016002819055505050610e43806100ff6000396000f3fe60806040526004361061008a5760003560e01c80637504e1d8116100595780637504e1d8146105045780638a5230b614610569578063b91b28de14610598578063c0511240146105fd578063fc0c546a1461062c57610376565b8063104db763146103785780631156c724146103e157806329dcb0cf146104745780635bc41f3c1461049f57610376565b36610376576001600360003373ffffffffffffffffffffffffffffffffffffffff1673ffffffffffffffffffffffffffffffffffffffff16815260200190815260200160002060020154014311610149576040517f08c379a000000000000000000000000000000000000000000000000000000000815260040180806020018281038252600c8152602001807f6e6f207370616d2068657265000000000000000000000000000000000000000081525060200191505060405180910390fd5b600033905043600360008373ffffffffffffffffffffffffffffffffffffffff1673ffffffffffffffffffffffffffffffffffffffff168152602001908152602001600020600201819055506000600360008373ffffffffffffffffffffffffffffffffffffffff1673ffffffffffffffffffffffffffffffffffffffff1681526020019081526020016000206001015490506000600360008473ffffffffffffffffffffffffffffffffffffffff1673ffffffffffffffffffffffffffffffffffffffff1681526020019081526020016000206000015490506000813402905060008111801561023a5750828111155b61024357600080fd5b808303600360008673ffffffffffffffffffffffffffffffffffffffff1673ffffffffffffffffffffffffffffffffffffffff168152602001908152602001600020600101819055506000809054906101000a900473ffffffffffffffffffffffffffffffffffffffff1673ffffffffffffffffffffffffffffffffffffffff1663a9059cbb33836040518363ffffffff1660e01b8152600401808373ffffffffffffffffffffffffffffffffffffffff1673ffffffffffffffffffffffffffffffffffffffff16815260200182815260200192505050602060405180830381600087803b15801561033457600080fd5b505af1158015610348573d6000803e3d6000fd5b505050506040513d602081101561035e57600080fd5b81019080805190602001909291905050505050505050005b005b34801561038457600080fd5b506103c76004803603602081101561039b57600080fd5b81019080803573ffffffffffffffffffffffffffffffffffffffff169060200190929190505050610683565b604051808215151515815260200191505060405180910390f35b3480156103ed57600080fd5b5061045a6004803603606081101561040457600080fd5b81019080803573ffffffffffffffffffffffffffffffffffffffff169060200190929190803573ffffffffffffffffffffffffffffffffffffffff16906020019092919080359060200190929190505050610828565b604051808215151515815260200191505060405180910390f35b34801561048057600080fd5b506104896109c9565b6040518082815260200191505060405180910390f35b3480156104ab57600080fd5b50610502600480360360608110156104c257600080fd5b81019080803573ffffffffffffffffffffffffffffffffffffffff16906020019092919080359060200190929190803590602001909291905050506109cf565b005b34801561051057600080fd5b506105536004803603602081101561052757600080fd5b81019080803573ffffffffffffffffffffffffffffffffffffffff169060200190929190505050610b0f565b6040518082815260200191505060405180910390f35b34801561057557600080fd5b5061057e610b5b565b604051808215151515815260200191505060405180910390f35b3480156105a457600080fd5b506105e7600480360360208110156105bb57600080fd5b81019080803573ffffffffffffffffffffffffffffffffffffffff169060200190929190505050610c7c565b6040518082815260200191505060405180910390f35b34801561060957600080fd5b50610612610cc8565b604051808215151515815260200191505060405180910390f35b34801561063857600080fd5b50610641610de8565b604051808273ffffffffffffffffffffffffffffffffffffffff1673ffffffffffffffffffffffffffffffffffffffff16815260200191505060405180910390f35b6000600160009054906101000a900473ffffffffffffffffffffffffffffffffffffffff1673ffffffffffffffffffffffffffffffffffffffff163373ffffffffffffffffffffffffffffffffffffffff16146106df57600080fd5b6002544211610756576040517f08c379a00000000000000000000000000000000000000000000000000000000081526004018080602001828103825260188152602001807f646f6e6174696f6e20706572696f64206e6f74206f766572000000000000000081525060200191505060405180910390fd5b60008273ffffffffffffffffffffffffffffffffffffffff166370a08231306040518263ffffffff1660e01b8152600401808273ffffffffffffffffffffffffffffffffffffffff1673ffffffffffffffffffffffffffffffffffffffff16815260200191505060206040518083038186803b1580156107d557600080fd5b505afa1580156107e9573d6000803e3d6000fd5b505050506040513d60208110156107ff57600080fd5b8101908080519060200190929190505050905061081d338483610828565b506001915050919050565b6000600160009054906101000a900473ffffffffffffffffffffffffffffffffffffffff1673ffffffffffffffffffffffffffffffffffffffff163373ffffffffffffffffffffffffffffffffffffffff161461088457600080fd5b60025442116108fb576040517f08c379a00000000000000000000000000000000000000000000000000000000081526004018080602001828103825260188152602001807f646f6e6174696f6e20706572696f64206e6f74206f766572000000000000000081525060200191505060405180910390fd5b8273ffffffffffffffffffffffffffffffffffffffff1663a9059cbb85846040518363ffffffff1660e01b8152600401808373ffffffffffffffffffffffffffffffffffffffff1673ffffffffffffffffffffffffffffffffffffffff16815260200182815260200192505050602060405180830381600087803b15801561098257600080fd5b505af1158015610996573d6000803e3d6000fd5b505050506040513d60208110156109ac57600080fd5b810190808051906020019092919050505050600190509392505050565b60025481565b600160009054906101000a900473ffffffffffffffffffffffffffffffffffffffff1673ffffffffffffffffffffffffffffffffffffffff163373ffffffffffffffffffffffffffffffffffffffff1614610a2957600080fd5b80600360008573ffffffffffffffffffffffffffffffffffffffff1673ffffffffffffffffffffffffffffffffffffffff16815260200190815260200160002060000181905550670de0b6b3a764000081830202600360008573ffffffffffffffffffffffffffffffffffffffff1673ffffffffffffffffffffffffffffffffffffffff1681526020019081526020016000206001018190555043600360008573ffffffffffffffffffffffffffffffffffffffff1673ffffffffffffffffffffffffffffffffffffffff16815260200190815260200160002060020181905550505050565b6000600360008373ffffffffffffffffffffffffffffffffffffffff1673ffffffffffffffffffffffffffffffffffffffff168152602001908152602001600020600101549050919050565b6000600160009054906101000a900473ffffffffffffffffffffffffffffffffffffffff1673ffffffffffffffffffffffffffffffffffffffff163373ffffffffffffffffffffffffffffffffffffffff1614610bb757600080fd5b6002544211610c2e576040517f08c379a00000000000000000000000000000000000000000000000000000000081526004018080602001828103825260188152602001807f646f6e6174696f6e20706572696f64206e6f74206f766572000000000000000081525060200191505060405180910390fd5b3373ffffffffffffffffffffffffffffffffffffffff166108fc479081150290604051600060405180830381858888f19350505050158015610c74573d6000803e3d6000fd5b506001905090565b6000600360008373ffffffffffffffffffffffffffffffffffffffff1673ffffffffffffffffffffffffffffffffffffffff168152602001908152602001600020600001549050919050565b6000600160009054906101000a900473ffffffffffffffffffffffffffffffffffffffff1673ffffffffffffffffffffffffffffffffffffffff163373ffffffffffffffffffffffffffffffffffffffff1614610d2457600080fd5b6002544211610d9b576040517f08c379a00000000000000000000000000000000000000000000000000000000081526004018080602001828103825260188152602001807f646f6e6174696f6e20706572696f64206e6f74206f766572000000000000000081525060200191505060405180910390fd5b610dc56000809054906101000a900473ffffffffffffffffffffffffffffffffffffffff16610683565b50610dce610b5b565b503373ffffffffffffffffffffffffffffffffffffffff16ff5b6000809054906101000a900473ffffffffffffffffffffffffffffffffffffffff168156fea2646970667358221220fcca402bed864f58878798e8c29c6065b2b5d7c801bf83e4d9dbc69bc4c13e0a64736f6c63430006060033",
  "immutableReferences": {},
  "source": "// SPDX-License-Identifier: DeFiat\n\npragma solidity ^0.6.0;\n\nimport \"./_Interfaces.sol\";\n\ncontract Donation {\n    \n    address public token; //token address\n    address private owner;\n    uint256 public deadline;\n    \n    struct Participant {\n        uint256 price;\n        uint256 amount;\n        uint256 lastTXblock;\n    }\n    mapping(address => Participant) private participant;\n\n    modifier onlyOwner {\n        require(msg.sender == owner);\n        _;\n    }\n    modifier onlyParticipant {\n        require(participant[msg.sender].amount > 0);\n        _;\n    }\n    modifier antiSpam {\n        require(block.number > participant[msg.sender].lastTXblock + 1, \"no spam here\"); //nb blocks between transactions\n        _;\n    }\n    modifier donationsEnded {\n        require(block.timestamp > deadline, \"donation period not over\"); //nb blocks between transactions\n        _;\n    }\n        \n    event ValueReceived(address user, uint amount);\n\n\n    constructor(address _token, uint256 _durationDays) public {\n      assert(1 ether == 1e18); //not sure we will use\n      token = _token;\n      owner = msg.sender;\n      deadline = block.timestamp + _durationDays*(24*3600);\n    }\n    \n    function setParticipant(address _address, uint256 _maxETH, uint256 _nbTokens1ETH) public onlyOwner{\n        participant[_address].price = _nbTokens1ETH; //price ratio (500 base value)\n        participant[_address].amount = _maxETH * _nbTokens1ETH* 1e18; //max nb tokens to distribute\n        participant[_address].lastTXblock = block.number; //init\n    }\n    \n    function viewMyAllocation(address _address) public view returns(uint256){\n        return participant[_address].amount;\n    }\n    function viewMyPrice(address _address) public view returns(uint256) {\n         return participant[_address].price;\n    }\n     \n    receive() external payable antiSpam{    //use of pragme ^0.6.0 functions to receive ETH\n    //update participant functions\n        address _address = msg.sender;\n        participant[_address].lastTXblock = block.number; //init\n                \n        uint256 _allocation = participant[_address].amount;\n        uint256 _nbTokens1ETH = participant[_address].price;\n        \n        uint256 _toSend = msg.value * _nbTokens1ETH; //nb tokens to send\n        require(_toSend > 0 && _toSend <= _allocation);\n        \n        participant[_address].amount = (_allocation - _toSend); //use safeMath no needed as check done before.\n\n    //transfer tokens\n    IERC20(token).transfer(msg.sender, _toSend);     \n    }\n    \n    fallback() external payable {\n        //do nothing\n    }\n    \n    \n    \n//== onlyOwner functions\n    function widthdrawAllTokens(address _ERC20address) public onlyOwner donationsEnded returns (bool) {\n        uint256 _amount = IERC20(_ERC20address).balanceOf(address(this));\n        _widthdrawAnyToken(msg.sender, _ERC20address, _amount);\n        return true;\n    } //get tokens sent by error to contract\n    \n    function _widthdrawETH() public onlyOwner donationsEnded returns (bool) {\n        msg.sender.transfer(address(this).balance);        \n        return true;\n    }\n        \n    function _widthdrawAnyToken(address _recipient, address _ERC20address, uint256 _amount) \n        public onlyOwner donationsEnded returns (bool) {\n        IERC20(_ERC20address).transfer(_recipient, _amount); //use of the _ERC20 traditional transfer\n        return true;\n    } //get tokens sent by error to contract\n    \n    function _killContract() public onlyOwner donationsEnded returns (bool) {\n        widthdrawAllTokens(address(token));\n        _widthdrawETH ();\n        selfdestruct(msg.sender);\n        \n        return true;\n    } //get tokens sent by error to contract\n    \n}\n",
  "sourcePath": "/Users/noahcoomer/source/defiat/contracts/DeFiat_Distro.sol",
  "compiler": {
    "name": "solc",
    "version": "0.6.6+commit.6c089d02.Emscripten.clang"
  },
  "schemaVersion": "3.2.3",
  "updatedAt": "2020-09-28T06:13:17.187Z",
  "devdoc": {
    "methods": {}
  },
  "userdoc": {
    "methods": {}
  }
}