{
  "contractName": "ERC20_Utils",
  "abi": [
    {
      "inputs": [
        {
          "internalType": "address",
          "name": "_address",
          "type": "address"
        },
        {
          "internalType": "bool",
          "name": "_bool",
          "type": "bool"
        }
      ],
      "name": "manageAllowed",
      "outputs": [],
      "stateMutability": "nonpayable",
      "type": "function"
    },
    {
      "inputs": [
        {
          "internalType": "address",
          "name": "_token",
          "type": "address"
        }
      ],
      "name": "withdrawAnyToken",
      "outputs": [
        {
          "internalType": "bool",
          "name": "",
          "type": "bool"
        }
      ],
      "stateMutability": "nonpayable",
      "type": "function"
    },
    {
      "inputs": [],
      "name": "kill",
      "outputs": [],
      "stateMutability": "nonpayable",
      "type": "function"
    }
  ],
  "bytecode": "0x608060405234801561001057600080fd5b506105c3806100206000396000f3fe608060405234801561001057600080fd5b50600436106100415760003560e01c806341c0e1b5146100465780637892766c14610050578063ec0b0800146100ac575b600080fd5b61004e6100fc565b005b6100926004803603602081101561006657600080fd5b81019080803573ffffffffffffffffffffffffffffffffffffffff1690602001909291905050506101e8565b604051808215151515815260200191505060405180910390f35b6100fa600480360360408110156100c257600080fd5b81019080803573ffffffffffffffffffffffffffffffffffffffff16906020019092919080351515906020019092919050505061038f565b005b6001151560008061010b6104b5565b73ffffffffffffffffffffffffffffffffffffffff1673ffffffffffffffffffffffffffffffffffffffff16815260200190815260200160002060009054906101000a900460ff161515146101c8576040517f08c379a000000000000000000000000000000000000000000000000000000000815260040180806020018281038252600b8152602001807f6f6e6c79416c6c6f77656400000000000000000000000000000000000000000081525060200191505060405180910390fd5b6101d06104b5565b73ffffffffffffffffffffffffffffffffffffffff16ff5b6000600115156000806101f96104b5565b73ffffffffffffffffffffffffffffffffffffffff1673ffffffffffffffffffffffffffffffffffffffff16815260200190815260200160002060009054906101000a900460ff161515146102b6576040517f08c379a000000000000000000000000000000000000000000000000000000000815260040180806020018281038252600b8152602001807f6f6e6c79416c6c6f77656400000000000000000000000000000000000000000081525060200191505060405180910390fd5b60008273ffffffffffffffffffffffffffffffffffffffff166370a08231306040518263ffffffff1660e01b8152600401808273ffffffffffffffffffffffffffffffffffffffff1673ffffffffffffffffffffffffffffffffffffffff16815260200191505060206040518083038186803b15801561033557600080fd5b505afa158015610349573d6000803e3d6000fd5b505050506040513d602081101561035f57600080fd5b8101908080519060200190929190505050905061038461037d6104b5565b84836104bd565b506001915050919050565b6001151560008061039e6104b5565b73ffffffffffffffffffffffffffffffffffffffff1673ffffffffffffffffffffffffffffffffffffffff16815260200190815260200160002060009054906101000a900460ff1615151461045b576040517f08c379a000000000000000000000000000000000000000000000000000000000815260040180806020018281038252600b8152602001807f6f6e6c79416c6c6f77656400000000000000000000000000000000000000000081525060200191505060405180910390fd5b806000808473ffffffffffffffffffffffffffffffffffffffff1673ffffffffffffffffffffffffffffffffffffffff16815260200190815260200160002060006101000a81548160ff0219169083151502179055505050565b600033905090565b60008273ffffffffffffffffffffffffffffffffffffffff1663a9059cbb85846040518363ffffffff1660e01b8152600401808373ffffffffffffffffffffffffffffffffffffffff1673ffffffffffffffffffffffffffffffffffffffff16815260200182815260200192505050602060405180830381600087803b15801561054657600080fd5b505af115801561055a573d6000803e3d6000fd5b505050506040513d602081101561057057600080fd5b81019080805190602001909291905050505060019050939250505056fea2646970667358221220e0fcb4433a2fba5f2a4cf0c7da354baac2254485f88c74f731211436319da4cc64736f6c63430006060033",
  "immutableReferences": {},
  "source": "// SPDX-License-Identifier: MIT\n\npragma solidity ^0.6.0;\n\nimport \"./_Interfaces.sol\";\nimport \"./Allowable.sol\";\n\ncontract ERC20_Utils is Allowable {\n    //ERC20_utils  \n    function withdrawAnyToken(address _token) external onlyAllowed returns (bool) {\n        uint256 _amount = IERC20(_token).balanceOf(address(this));\n        _withdrawAnyToken(_msgSender(), _token, _amount);\n        return true;\n    } //get tokens sent by error to contract\n\n    function _withdrawAnyToken(address _recipient, address _ERC20address, uint256 _amount) internal returns (bool) {\n        IERC20(_ERC20address).transfer(_recipient, _amount); //use of the _ERC20 traditional transfer\n        return true;\n    } //get tokens sent by error\n\n    function kill() public onlyAllowed{\n        selfdestruct(_msgSender());\n    } //frees space on the ETH chain\n}",
  "sourcePath": "/Users/noahcoomer/source/defiat/contracts/ERC20_Utils.sol",
  "compiler": {
    "name": "solc",
    "version": "0.6.6+commit.6c089d02.Emscripten.clang"
  },
  "schemaVersion": "3.2.3",
  "updatedAt": "2020-09-28T06:13:17.302Z",
  "devdoc": {
    "methods": {}
  },
  "userdoc": {
    "methods": {}
  }
}