{
  "contractName": "FeeBurnRateVote",
  "abi": [
    {
      "inputs": [
        {
          "internalType": "address",
          "name": "_DeFiat_Gov",
          "type": "address"
        },
        {
          "internalType": "uint256",
          "name": "_delayStartHours",
          "type": "uint256"
        },
        {
          "internalType": "uint256",
          "name": "_durationHours",
          "type": "uint256"
        },
        {
          "internalType": "bytes32",
          "name": "_voteName",
          "type": "bytes32"
        },
        {
          "internalType": "uint256",
          "name": "_voteChoices",
          "type": "uint256"
        },
        {
          "internalType": "uint256",
          "name": "_quorum",
          "type": "uint256"
        },
        {
          "internalType": "address",
          "name": "_votingPowerToken",
          "type": "address"
        },
        {
          "internalType": "address",
          "name": "_rewardToken",
          "type": "address"
        },
        {
          "internalType": "uint256",
          "name": "_rewardAmount",
          "type": "uint256"
        }
      ],
      "stateMutability": "nonpayable",
      "type": "constructor"
    },
    {
      "anonymous": false,
      "inputs": [
        {
          "indexed": false,
          "internalType": "address",
          "name": "_Defiat_Gov",
          "type": "address"
        },
        {
          "indexed": false,
          "internalType": "uint256",
          "name": "_voteStart",
          "type": "uint256"
        },
        {
          "indexed": false,
          "internalType": "uint256",
          "name": "_voteEnd",
          "type": "uint256"
        },
        {
          "indexed": false,
          "internalType": "bytes32",
          "name": "_hash",
          "type": "bytes32"
        },
        {
          "indexed": false,
          "internalType": "bytes32",
          "name": "_voteName",
          "type": "bytes32"
        }
      ],
      "name": "voteStarting",
      "type": "event"
    },
    {
      "inputs": [],
      "name": "DeFiat_Gov",
      "outputs": [
        {
          "internalType": "address",
          "name": "",
          "type": "address"
        }
      ],
      "stateMutability": "view",
      "type": "function"
    },
    {
      "inputs": [],
      "name": "activateDecision",
      "outputs": [],
      "stateMutability": "nonpayable",
      "type": "function"
    },
    {
      "inputs": [],
      "name": "claimTokens",
      "outputs": [],
      "stateMutability": "nonpayable",
      "type": "function"
    },
    {
      "inputs": [],
      "name": "decisionActivated",
      "outputs": [
        {
          "internalType": "bool",
          "name": "",
          "type": "bool"
        }
      ],
      "stateMutability": "view",
      "type": "function"
    },
    {
      "inputs": [
        {
          "internalType": "bool",
          "name": "_decision",
          "type": "bool"
        }
      ],
      "name": "forceDecision",
      "outputs": [],
      "stateMutability": "nonpayable",
      "type": "function"
    },
    {
      "inputs": [],
      "name": "forceVoteEnd",
      "outputs": [],
      "stateMutability": "nonpayable",
      "type": "function"
    },
    {
      "inputs": [],
      "name": "killContract",
      "outputs": [],
      "stateMutability": "nonpayable",
      "type": "function"
    },
    {
      "inputs": [],
      "name": "owner",
      "outputs": [
        {
          "internalType": "address",
          "name": "",
          "type": "address"
        }
      ],
      "stateMutability": "view",
      "type": "function"
    },
    {
      "inputs": [],
      "name": "quorum",
      "outputs": [
        {
          "internalType": "uint256",
          "name": "",
          "type": "uint256"
        }
      ],
      "stateMutability": "view",
      "type": "function"
    },
    {
      "inputs": [],
      "name": "rewardAmount",
      "outputs": [
        {
          "internalType": "uint256",
          "name": "",
          "type": "uint256"
        }
      ],
      "stateMutability": "view",
      "type": "function"
    },
    {
      "inputs": [],
      "name": "rewardToken",
      "outputs": [
        {
          "internalType": "address",
          "name": "",
          "type": "address"
        }
      ],
      "stateMutability": "view",
      "type": "function"
    },
    {
      "inputs": [],
      "name": "totalVotes",
      "outputs": [
        {
          "internalType": "uint256",
          "name": "",
          "type": "uint256"
        }
      ],
      "stateMutability": "view",
      "type": "function"
    },
    {
      "inputs": [
        {
          "internalType": "uint256",
          "name": "voteChoice",
          "type": "uint256"
        },
        {
          "internalType": "uint256",
          "name": "votePower",
          "type": "uint256"
        }
      ],
      "name": "vote",
      "outputs": [],
      "stateMutability": "nonpayable",
      "type": "function"
    },
    {
      "inputs": [
        {
          "internalType": "uint256",
          "name": "",
          "type": "uint256"
        }
      ],
      "name": "voteChoices",
      "outputs": [
        {
          "internalType": "uint256",
          "name": "",
          "type": "uint256"
        }
      ],
      "stateMutability": "view",
      "type": "function"
    },
    {
      "inputs": [],
      "name": "voteEnd",
      "outputs": [
        {
          "internalType": "uint256",
          "name": "",
          "type": "uint256"
        }
      ],
      "stateMutability": "view",
      "type": "function"
    },
    {
      "inputs": [],
      "name": "voteName",
      "outputs": [
        {
          "internalType": "bytes32",
          "name": "",
          "type": "bytes32"
        }
      ],
      "stateMutability": "view",
      "type": "function"
    },
    {
      "inputs": [],
      "name": "voteStart",
      "outputs": [
        {
          "internalType": "uint256",
          "name": "",
          "type": "uint256"
        }
      ],
      "stateMutability": "view",
      "type": "function"
    },
    {
      "inputs": [
        {
          "internalType": "address",
          "name": "",
          "type": "address"
        }
      ],
      "name": "votes",
      "outputs": [
        {
          "internalType": "uint256",
          "name": "",
          "type": "uint256"
        }
      ],
      "stateMutability": "view",
      "type": "function"
    },
    {
      "inputs": [],
      "name": "votingPowerToken",
      "outputs": [
        {
          "internalType": "address",
          "name": "",
          "type": "address"
        }
      ],
      "stateMutability": "view",
      "type": "function"
    },
    {
      "inputs": [
        {
          "internalType": "address",
          "name": "",
          "type": "address"
        }
      ],
      "name": "votingTokens",
      "outputs": [
        {
          "internalType": "uint256",
          "name": "",
          "type": "uint256"
        }
      ],
      "stateMutability": "view",
      "type": "function"
    },
    {
      "inputs": [
        {
          "internalType": "address",
          "name": "_ERC20address",
          "type": "address"
        }
      ],
      "name": "widthdrawAnyToken",
      "outputs": [
        {
          "internalType": "bool",
          "name": "",
          "type": "bool"
        }
      ],
      "stateMutability": "nonpayable",
      "type": "function"
    },
    {
      "inputs": [],
      "name": "proposalAction",
      "outputs": [
        {
          "internalType": "bool",
          "name": "",
          "type": "bool"
        }
      ],
      "stateMutability": "nonpayable",
      "type": "function"
    }
  ],
  "bytecode": "0x60806040523480156200001157600080fd5b5060405162001d6f38038062001d6f83398181016040526101208110156200003857600080fd5b81019080805190602001909291908051906020019092919080519060200190929190805190602001909291908051906020019092919080519060200190929190805190602001909291908051906020019092919080519060200190929190505050888888888888888888336000806101000a81548173ffffffffffffffffffffffffffffffffffffffff021916908373ffffffffffffffffffffffffffffffffffffffff16021790555088600160006101000a81548173ffffffffffffffffffffffffffffffffffffffff021916908373ffffffffffffffffffffffffffffffffffffffff160217905550610e1088024201600381905550610e10870260035401600481905550856002819055508467ffffffffffffffff811180156200015e57600080fd5b506040519080825280602002602001820160405280156200018e5781602001602082028036833780820191505090505b5060089080519060200190620001a692919062000436565b5081600c60006101000a81548173ffffffffffffffffffffffffffffffffffffffff021916908373ffffffffffffffffffffffffffffffffffffffff16021790555080600d8190555082600b60006101000a81548173ffffffffffffffffffffffffffffffffffffffff021916908373ffffffffffffffffffffffffffffffffffffffff160217905550836006819055506000600560006101000a81548160ff02191690831515021790555060006002600160009054906101000a900473ffffffffffffffffffffffffffffffffffffffff16600454604051602001808373ffffffffffffffffffffffffffffffffffffffff1673ffffffffffffffffffffffffffffffffffffffff1660601b8152601401828152602001925050506040516020818303038152906040526040518082805190602001908083835b60208310620003065780518252602082019150602081019050602083039250620002e1565b6001836020036101000a038019825116818451168082178552505050505050905001915050602060405180830381855afa15801562000349573d6000803e3d6000fd5b5050506040513d60208110156200035f57600080fd5b810190808051906020019092919050505090507f86aaf4e37804a420cca7359e755ff232e48ed74bf9eb398de7b7a802bf8a5d30600160009054906101000a900473ffffffffffffffffffffffffffffffffffffffff1660035460045484600254604051808673ffffffffffffffffffffffffffffffffffffffff1673ffffffffffffffffffffffffffffffffffffffff1681526020018581526020018481526020018381526020018281526020019550505050505060405180910390a150505050505050505050505050505050505050620004b0565b82805482825590600052602060002090810192821562000475579160200282015b828111156200047457825182559160200191906001019062000457565b5b50905062000484919062000488565b5090565b620004ad91905b80821115620004a95760008160009055506001016200048f565b5090565b90565b6118af80620004c06000396000f3fe608060405234801561001057600080fd5b50600436106101425760003560e01c806388fbd1f1116100b8578063d8bff5a51161007c578063d8bff5a5146103f1578063ddbe8f0914610449578063e031535b14610467578063eca964e314610485578063f7b2a7be146104dd578063f7c618c1146104fb57610142565b806388fbd1f11461027f5780638da5cb5b146102db5780638f13ee7814610325578063aa6453291461036f578063b384abef146103b957610142565b8063556696df1161010a578063556696df146101a15780635e4e0350146101e357806363751583146101ed57806366a08ec61461021d5780636d3977361461023f57806386f5114e1461026157610142565b80630828c085146101475780630d15fd77146101515780631703a0181461016f5780631c02708d1461018d57806348c54b9d14610197575b600080fd5b61014f610545565b005b6101596105a7565b6040518082815260200191505060405180910390f35b6101776105ad565b6040518082815260200191505060405180910390f35b6101956105b3565b005b61019f610625565b005b6101cd600480360360208110156101b757600080fd5b8101908080359060200190929190505050610984565b6040518082815260200191505060405180910390f35b6101eb6109a5565b005b61021b6004803603602081101561020357600080fd5b81019080803515159060200190929190505050610aa8565b005b610225610b1e565b604051808215151515815260200191505060405180910390f35b610247610b31565b604051808215151515815260200191505060405180910390f35b610269610e0d565b6040518082815260200191505060405180910390f35b6102c16004803603602081101561029557600080fd5b81019080803573ffffffffffffffffffffffffffffffffffffffff169060200190929190505050610e13565b604051808215151515815260200191505060405180910390f35b6102e3610f40565b604051808273ffffffffffffffffffffffffffffffffffffffff1673ffffffffffffffffffffffffffffffffffffffff16815260200191505060405180910390f35b61032d610f65565b604051808273ffffffffffffffffffffffffffffffffffffffff1673ffffffffffffffffffffffffffffffffffffffff16815260200191505060405180910390f35b610377610f8b565b604051808273ffffffffffffffffffffffffffffffffffffffff1673ffffffffffffffffffffffffffffffffffffffff16815260200191505060405180910390f35b6103ef600480360360408110156103cf57600080fd5b810190808035906020019092919080359060200190929190505050610fb1565b005b6104336004803603602081101561040757600080fd5b81019080803573ffffffffffffffffffffffffffffffffffffffff16906020019092919050505061154c565b6040518082815260200191505060405180910390f35b610451611564565b6040518082815260200191505060405180910390f35b61046f61156a565b6040518082815260200191505060405180910390f35b6104c76004803603602081101561049b57600080fd5b81019080803573ffffffffffffffffffffffffffffffffffffffff169060200190929190505050611570565b6040518082815260200191505060405180910390f35b6104e5611588565b6040518082815260200191505060405180910390f35b61050361158e565b604051808273ffffffffffffffffffffffffffffffffffffffff1673ffffffffffffffffffffffffffffffffffffffff16815260200191505060405180910390f35b6000809054906101000a900473ffffffffffffffffffffffffffffffffffffffff1673ffffffffffffffffffffffffffffffffffffffff163373ffffffffffffffffffffffffffffffffffffffff161461059e57600080fd5b42600481905550565b60075481565b60065481565b6000809054906101000a900473ffffffffffffffffffffffffffffffffffffffff1673ffffffffffffffffffffffffffffffffffffffff163373ffffffffffffffffffffffffffffffffffffffff161461060c57600080fd5b3373ffffffffffffffffffffffffffffffffffffffff16ff5b600454421161069c576040517f08c379a00000000000000000000000000000000000000000000000000000000081526004018080602001828103825260128152602001807f566f7465206973207374696c6c206f70656e000000000000000000000000000081525060200191505060405180910390fd5b600560009054906101000a900460ff1661071e576040517f08c379a000000000000000000000000000000000000000000000000000000000815260040180806020018281038252601f8152602001807f566f7465206465636973696f6e206d757374206265206163746976617465640081525060200191505060405180910390fd5b6000600a60003373ffffffffffffffffffffffffffffffffffffffff1673ffffffffffffffffffffffffffffffffffffffff16815260200190815260200160002054116107d3576040517f08c379a00000000000000000000000000000000000000000000000000000000081526004018080602001828103825260128152602001807f4e6f20746f6b656e7320746f20636c61696d000000000000000000000000000081525060200191505060405180910390fd5b6000600a60003373ffffffffffffffffffffffffffffffffffffffff1673ffffffffffffffffffffffffffffffffffffffff168152602001908152602001600020549050600b60009054906101000a900473ffffffffffffffffffffffffffffffffffffffff1673ffffffffffffffffffffffffffffffffffffffff1663a9059cbb33836040518363ffffffff1660e01b8152600401808373ffffffffffffffffffffffffffffffffffffffff1673ffffffffffffffffffffffffffffffffffffffff16815260200182815260200192505050602060405180830381600087803b1580156108c057600080fd5b505af11580156108d4573d6000803e3d6000fd5b505050506040513d60208110156108ea57600080fd5b81019080805190602001909291905050505080600a60003373ffffffffffffffffffffffffffffffffffffffff1673ffffffffffffffffffffffffffffffffffffffff1681526020019081526020016000205403600a60003373ffffffffffffffffffffffffffffffffffffffff1673ffffffffffffffffffffffffffffffffffffffff1681526020019081526020016000208190555050565b6008818154811061099157fe5b906000526020600020016000915090505481565b4260045410610a1c576040517f08c379a00000000000000000000000000000000000000000000000000000000081526004018080602001828103825260148152602001807f566f74696e67207374696c6c206f6e676f696e6700000000000000000000000081525060200191505060405180910390fd5b600560009054906101000a900460ff1615610a82576040517f08c379a00000000000000000000000000000000000000000000000000000000081526004018080602001828103825260288152602001806118526028913960400191505060405180910390fd5b6001600560006101000a81548160ff021916908315150217905550610aa5610b31565b50565b6000809054906101000a900473ffffffffffffffffffffffffffffffffffffffff1673ffffffffffffffffffffffffffffffffffffffff163373ffffffffffffffffffffffffffffffffffffffff1614610b0157600080fd5b80600560006101000a81548160ff02191690831515021790555050565b600560009054906101000a900460ff1681565b6000606460065481610b3f57fe5b04600b60009054906101000a900473ffffffffffffffffffffffffffffffffffffffff1673ffffffffffffffffffffffffffffffffffffffff166318160ddd6040518163ffffffff1660e01b815260040160206040518083038186803b158015610ba857600080fd5b505afa158015610bbc573d6000803e3d6000fd5b505050506040513d6020811015610bd257600080fd5b81019080805190602001909291905050500260075411610c5a576040517f08c379a000000000000000000000000000000000000000000000000000000000815260040180806020018281038252601f8152602001807f4e6f7420656e6f75676820766f7465732068617665206265656e20636173740081525060200191505060405180910390fd5b600080600080905060008090505b600880549050811015610cbe578160088281548110610c8357fe5b906000526020600020015410610cb15780925060088181548110610ca357fe5b906000526020600020015491505b8080600101915050610c68565b506000821415610cd15760009250610ce9565b6001821415610ce357600a9250610ce8565b603292505b5b600160009054906101000a900473ffffffffffffffffffffffffffffffffffffffff1673ffffffffffffffffffffffffffffffffffffffff1663affca932846040518263ffffffff1660e01b815260040180828152602001915050600060405180830381600087803b158015610d5e57600080fd5b505af1158015610d72573d6000803e3d6000fd5b50505050600160009054906101000a900473ffffffffffffffffffffffffffffffffffffffff1673ffffffffffffffffffffffffffffffffffffffff166356851060846040518263ffffffff1660e01b815260040180828152602001915050600060405180830381600087803b158015610deb57600080fd5b505af1158015610dff573d6000803e3d6000fd5b505050506001935050505090565b60025481565b60008060009054906101000a900473ffffffffffffffffffffffffffffffffffffffff1673ffffffffffffffffffffffffffffffffffffffff163373ffffffffffffffffffffffffffffffffffffffff1614610e6e57600080fd5b60008273ffffffffffffffffffffffffffffffffffffffff166370a08231306040518263ffffffff1660e01b8152600401808273ffffffffffffffffffffffffffffffffffffffff1673ffffffffffffffffffffffffffffffffffffffff16815260200191505060206040518083038186803b158015610eed57600080fd5b505afa158015610f01573d6000803e3d6000fd5b505050506040513d6020811015610f1757600080fd5b81019080805190602001909291905050509050610f353384836115b4565b506001915050919050565b6000809054906101000a900473ffffffffffffffffffffffffffffffffffffffff1681565b600160009054906101000a900473ffffffffffffffffffffffffffffffffffffffff1681565b600b60009054906101000a900473ffffffffffffffffffffffffffffffffffffffff1681565b6003544211611028576040517f08c379a00000000000000000000000000000000000000000000000000000000081526004018080602001828103825260108152602001807f566f7465206973206e6f74206f70656e0000000000000000000000000000000081525060200191505060405180910390fd5b600454421061109f576040517f08c379a00000000000000000000000000000000000000000000000000000000081526004018080602001828103825260128152602001807f566f74696e67206861732065787069726564000000000000000000000000000081525060200191505060405180910390fd5b6000600960003373ffffffffffffffffffffffffffffffffffffffff1673ffffffffffffffffffffffffffffffffffffffff1681526020019081526020016000205414611154576040517f08c379a000000000000000000000000000000000000000000000000000000000815260040180806020018281038252600d8152602001807f416c726561647920766f7465640000000000000000000000000000000000000081525060200191505060405180910390fd5b6000600b60009054906101000a900473ffffffffffffffffffffffffffffffffffffffff1673ffffffffffffffffffffffffffffffffffffffff166370a08231336040518263ffffffff1660e01b8152600401808273ffffffffffffffffffffffffffffffffffffffff1673ffffffffffffffffffffffffffffffffffffffff16815260200191505060206040518083038186803b1580156111f557600080fd5b505afa158015611209573d6000803e3d6000fd5b505050506040513d602081101561121f57600080fd5b8101908080519060200190929190505050116112a3576040517f08c379a00000000000000000000000000000000000000000000000000000000081526004018080602001828103825260158152602001807f4f6e6c7920686f6c646572732063616e20766f7465000000000000000000000081525060200191505060405180910390fd5b600880549050821061131d576040517f08c379a00000000000000000000000000000000000000000000000000000000081526004018080602001828103825260138152602001807f496e76616c696420766f74652063686f6963650000000000000000000000000081525060200191505060405180910390fd5b600b60009054906101000a900473ffffffffffffffffffffffffffffffffffffffff1673ffffffffffffffffffffffffffffffffffffffff166323b872dd3330846040518463ffffffff1660e01b8152600401808473ffffffffffffffffffffffffffffffffffffffff1673ffffffffffffffffffffffffffffffffffffffff1681526020018373ffffffffffffffffffffffffffffffffffffffff1673ffffffffffffffffffffffffffffffffffffffff1681526020018281526020019350505050602060405180830381600087803b1580156113fa57600080fd5b505af115801561140e573d6000803e3d6000fd5b505050506040513d602081101561142457600080fd5b81019080805190602001909291905050505081600960003373ffffffffffffffffffffffffffffffffffffffff1673ffffffffffffffffffffffffffffffffffffffff1681526020019081526020016000208190555080600a60003373ffffffffffffffffffffffffffffffffffffffff1673ffffffffffffffffffffffffffffffffffffffff1681526020019081526020016000205401600a60003373ffffffffffffffffffffffffffffffffffffffff1673ffffffffffffffffffffffffffffffffffffffff16815260200190815260200160002081905550806008838154811061150d57fe5b9060005260206000200154016008838154811061152657fe5b9060005260206000200181905550806007540160078190555061154833611684565b5050565b60096020528060005260406000206000915090505481565b60045481565b60035481565b600a6020528060005260406000206000915090505481565b600d5481565b600c60009054906101000a900473ffffffffffffffffffffffffffffffffffffffff1681565b60008273ffffffffffffffffffffffffffffffffffffffff1663a9059cbb85846040518363ffffffff1660e01b8152600401808373ffffffffffffffffffffffffffffffffffffffff1673ffffffffffffffffffffffffffffffffffffffff16815260200182815260200192505050602060405180830381600087803b15801561163d57600080fd5b505af1158015611651573d6000803e3d6000fd5b505050506040513d602081101561166757600080fd5b810190808051906020019092919050505050600190509392505050565b600d54600c60009054906101000a900473ffffffffffffffffffffffffffffffffffffffff1673ffffffffffffffffffffffffffffffffffffffff166370a08231306040518263ffffffff1660e01b8152600401808273ffffffffffffffffffffffffffffffffffffffff1673ffffffffffffffffffffffffffffffffffffffff16815260200191505060206040518083038186803b15801561172657600080fd5b505afa15801561173a573d6000803e3d6000fd5b505050506040513d602081101561175057600080fd5b81019080805190602001909291905050501061184e57600c60009054906101000a900473ffffffffffffffffffffffffffffffffffffffff1673ffffffffffffffffffffffffffffffffffffffff1663a9059cbb82600d546040518363ffffffff1660e01b8152600401808373ffffffffffffffffffffffffffffffffffffffff1673ffffffffffffffffffffffffffffffffffffffff16815260200182815260200192505050602060405180830381600087803b15801561181157600080fd5b505af1158015611825573d6000803e3d6000fd5b505050506040513d602081101561183b57600080fd5b8101908080519060200190929190505050505b5056fe566f7465206465636973696f6e2068617320616c7265616479206265656e20616374697661746564a2646970667358221220c25a10a99776e86ebf60074e2029b7d15168709ccb563aa7f9a5c579ab837f6964736f6c63430006060033",
  "immutableReferences": {},
  "source": "pragma solidity ^0.6.0;\n\nimport \"../_Vote.sol\";\n\ncontract FeeBurnRateVote is Vote {\n  constructor (\n    address _DeFiat_Gov,\n    uint256 _delayStartHours,\n    uint256 _durationHours, \n    bytes32 _voteName,\n    uint256 _voteChoices,\n    uint256 _quorum,\n    address _votingPowerToken, \n    address _rewardToken, \n    uint256 _rewardAmount\n  ) public \n    Vote(\n      _DeFiat_Gov, \n      _delayStartHours,\n      _durationHours, \n      _voteName,\n      _voteChoices,\n      _quorum,\n      _votingPowerToken, \n      _rewardToken, \n      _rewardAmount)\n  {\n  }\n\n  function proposalAction() public override QuorumReached returns (bool) {\n    uint256 newRate;\n    uint256 winningChoice;\n    uint256 maxVotes = 0;\n    for (uint i = 0; i < voteChoices.length; i++) {\n      if (voteChoices[i] >= maxVotes) {\n        winningChoice = i;\n        maxVotes = voteChoices[i];\n      }\n    }\n\n    if (winningChoice == 0) {\n      newRate = 0;\n    } else if (winningChoice == 1) {\n      newRate = 10;\n    } else {\n      newRate = 50;\n    }\n\n    IDeFiat_Gov(DeFiat_Gov).changeFeeRate(newRate);\n    IDeFiat_Gov(DeFiat_Gov).changeBurnRate(newRate);\n\n    return true;\n  }\n}",
  "sourcePath": "/Users/noahcoomer/source/defiat/contracts/proposals/FeeBurnRateVote.sol",
  "compiler": {
    "name": "solc",
    "version": "0.6.6+commit.6c089d02.Emscripten.clang"
  },
  "schemaVersion": "3.2.3",
  "updatedAt": "2020-09-17T16:10:55.210Z",
  "devdoc": {
    "methods": {}
  },
  "userdoc": {
    "methods": {}
  }
}