{
  "contractName": "FeeBurnRateVote",
  "abi": [
    {
      "inputs": [
        {
          "internalType": "address",
          "name": "_DeFiat_Gov",
          "type": "address"
        },
        {
          "internalType": "address",
          "name": "_rewardToken",
          "type": "address"
        },
        {
          "internalType": "address",
          "name": "_uniFactoryAddress",
          "type": "address"
        },
        {
          "internalType": "address",
          "name": "_wethAddress",
          "type": "address"
        }
      ],
      "stateMutability": "nonpayable",
      "type": "constructor"
    },
    {
      "anonymous": false,
      "inputs": [
        {
          "indexed": true,
          "internalType": "address",
          "name": "user",
          "type": "address"
        },
        {
          "indexed": false,
          "internalType": "uint256",
          "name": "voteChoice",
          "type": "uint256"
        },
        {
          "indexed": false,
          "internalType": "uint256",
          "name": "timestamp",
          "type": "uint256"
        }
      ],
      "name": "voteSending",
      "type": "event"
    },
    {
      "anonymous": false,
      "inputs": [
        {
          "indexed": false,
          "internalType": "address",
          "name": "_Defiat_Gov",
          "type": "address"
        },
        {
          "indexed": false,
          "internalType": "uint256",
          "name": "_voteStart",
          "type": "uint256"
        },
        {
          "indexed": false,
          "internalType": "uint256",
          "name": "_voteEnd",
          "type": "uint256"
        },
        {
          "indexed": false,
          "internalType": "bytes32",
          "name": "_hash",
          "type": "bytes32"
        },
        {
          "indexed": false,
          "internalType": "string",
          "name": "_voteName",
          "type": "string"
        }
      ],
      "name": "voteStarting",
      "type": "event"
    },
    {
      "inputs": [],
      "name": "DeFiat_Gov",
      "outputs": [
        {
          "internalType": "address",
          "name": "",
          "type": "address"
        }
      ],
      "stateMutability": "view",
      "type": "function"
    },
    {
      "inputs": [],
      "name": "UNIfactory",
      "outputs": [
        {
          "internalType": "address",
          "name": "",
          "type": "address"
        }
      ],
      "stateMutability": "view",
      "type": "function"
    },
    {
      "inputs": [],
      "name": "activateDecision",
      "outputs": [],
      "stateMutability": "nonpayable",
      "type": "function"
    },
    {
      "inputs": [],
      "name": "decisionActivated",
      "outputs": [
        {
          "internalType": "bool",
          "name": "",
          "type": "bool"
        }
      ],
      "stateMutability": "view",
      "type": "function"
    },
    {
      "inputs": [
        {
          "internalType": "bool",
          "name": "_decision",
          "type": "bool"
        }
      ],
      "name": "forceDecision",
      "outputs": [],
      "stateMutability": "nonpayable",
      "type": "function"
    },
    {
      "inputs": [],
      "name": "forceVoteEnd",
      "outputs": [],
      "stateMutability": "nonpayable",
      "type": "function"
    },
    {
      "inputs": [
        {
          "internalType": "address",
          "name": "tokenAddress",
          "type": "address"
        },
        {
          "internalType": "uint256",
          "name": "stakedTokens",
          "type": "uint256"
        }
      ],
      "name": "getLiquidityTokenPower",
      "outputs": [
        {
          "internalType": "uint256",
          "name": "",
          "type": "uint256"
        }
      ],
      "stateMutability": "view",
      "type": "function"
    },
    {
      "inputs": [
        {
          "internalType": "address",
          "name": "_address",
          "type": "address"
        },
        {
          "internalType": "address",
          "name": "_poolAddress",
          "type": "address"
        }
      ],
      "name": "getStake",
      "outputs": [
        {
          "internalType": "uint256",
          "name": "",
          "type": "uint256"
        }
      ],
      "stateMutability": "view",
      "type": "function"
    },
    {
      "inputs": [
        {
          "internalType": "address",
          "name": "_token",
          "type": "address"
        }
      ],
      "name": "getTokenInfo",
      "outputs": [
        {
          "internalType": "string",
          "name": "name",
          "type": "string"
        },
        {
          "internalType": "string",
          "name": "symbol",
          "type": "string"
        },
        {
          "internalType": "uint8",
          "name": "decimals",
          "type": "uint8"
        },
        {
          "internalType": "address",
          "name": "uniPair",
          "type": "address"
        },
        {
          "internalType": "uint256",
          "name": "tokensPerETH",
          "type": "uint256"
        }
      ],
      "stateMutability": "view",
      "type": "function"
    },
    {
      "inputs": [
        {
          "internalType": "address",
          "name": "_token",
          "type": "address"
        }
      ],
      "name": "getUniPrice",
      "outputs": [
        {
          "internalType": "uint256",
          "name": "",
          "type": "uint256"
        }
      ],
      "stateMutability": "view",
      "type": "function"
    },
    {
      "inputs": [],
      "name": "kill",
      "outputs": [],
      "stateMutability": "nonpayable",
      "type": "function"
    },
    {
      "inputs": [
        {
          "internalType": "address",
          "name": "_address",
          "type": "address"
        },
        {
          "internalType": "bool",
          "name": "_bool",
          "type": "bool"
        }
      ],
      "name": "manageAllowed",
      "outputs": [],
      "stateMutability": "nonpayable",
      "type": "function"
    },
    {
      "inputs": [
        {
          "internalType": "address",
          "name": "_address",
          "type": "address"
        }
      ],
      "name": "myVotingPower",
      "outputs": [
        {
          "internalType": "uint256",
          "name": "",
          "type": "uint256"
        }
      ],
      "stateMutability": "view",
      "type": "function"
    },
    {
      "inputs": [],
      "name": "owner",
      "outputs": [
        {
          "internalType": "address",
          "name": "",
          "type": "address"
        }
      ],
      "stateMutability": "view",
      "type": "function"
    },
    {
      "inputs": [],
      "name": "popStakingPool",
      "outputs": [],
      "stateMutability": "nonpayable",
      "type": "function"
    },
    {
      "inputs": [
        {
          "internalType": "address",
          "name": "_poolAddress",
          "type": "address"
        },
        {
          "internalType": "address",
          "name": "_stakedAddress",
          "type": "address"
        }
      ],
      "name": "pushStakingPool",
      "outputs": [],
      "stateMutability": "nonpayable",
      "type": "function"
    },
    {
      "inputs": [],
      "name": "quorum",
      "outputs": [
        {
          "internalType": "uint256",
          "name": "",
          "type": "uint256"
        }
      ],
      "stateMutability": "view",
      "type": "function"
    },
    {
      "inputs": [],
      "name": "rewardAmount",
      "outputs": [
        {
          "internalType": "uint256",
          "name": "",
          "type": "uint256"
        }
      ],
      "stateMutability": "view",
      "type": "function"
    },
    {
      "inputs": [],
      "name": "rewardToken",
      "outputs": [
        {
          "internalType": "address",
          "name": "",
          "type": "address"
        }
      ],
      "stateMutability": "view",
      "type": "function"
    },
    {
      "inputs": [
        {
          "internalType": "uint256",
          "name": "",
          "type": "uint256"
        }
      ],
      "name": "stakingPools",
      "outputs": [
        {
          "internalType": "address",
          "name": "poolAddress",
          "type": "address"
        },
        {
          "internalType": "address",
          "name": "stakedAddress",
          "type": "address"
        }
      ],
      "stateMutability": "view",
      "type": "function"
    },
    {
      "inputs": [],
      "name": "totalVotes",
      "outputs": [
        {
          "internalType": "uint256",
          "name": "",
          "type": "uint256"
        }
      ],
      "stateMutability": "view",
      "type": "function"
    },
    {
      "inputs": [],
      "name": "uniSymbol",
      "outputs": [
        {
          "internalType": "string",
          "name": "",
          "type": "string"
        }
      ],
      "stateMutability": "view",
      "type": "function"
    },
    {
      "inputs": [
        {
          "internalType": "uint256",
          "name": "voteChoice",
          "type": "uint256"
        }
      ],
      "name": "vote",
      "outputs": [],
      "stateMutability": "nonpayable",
      "type": "function"
    },
    {
      "inputs": [
        {
          "internalType": "uint256",
          "name": "",
          "type": "uint256"
        }
      ],
      "name": "voteChoices",
      "outputs": [
        {
          "internalType": "uint256",
          "name": "",
          "type": "uint256"
        }
      ],
      "stateMutability": "view",
      "type": "function"
    },
    {
      "inputs": [],
      "name": "voteEnd",
      "outputs": [
        {
          "internalType": "uint256",
          "name": "",
          "type": "uint256"
        }
      ],
      "stateMutability": "view",
      "type": "function"
    },
    {
      "inputs": [],
      "name": "voteName",
      "outputs": [
        {
          "internalType": "string",
          "name": "",
          "type": "string"
        }
      ],
      "stateMutability": "view",
      "type": "function"
    },
    {
      "inputs": [],
      "name": "voteStart",
      "outputs": [
        {
          "internalType": "uint256",
          "name": "",
          "type": "uint256"
        }
      ],
      "stateMutability": "view",
      "type": "function"
    },
    {
      "inputs": [
        {
          "internalType": "address",
          "name": "",
          "type": "address"
        }
      ],
      "name": "votes",
      "outputs": [
        {
          "internalType": "uint256",
          "name": "voteChoice",
          "type": "uint256"
        },
        {
          "internalType": "uint256",
          "name": "votePower",
          "type": "uint256"
        },
        {
          "internalType": "uint256",
          "name": "timestamp",
          "type": "uint256"
        }
      ],
      "stateMutability": "view",
      "type": "function"
    },
    {
      "inputs": [],
      "name": "wETHaddress",
      "outputs": [
        {
          "internalType": "address",
          "name": "",
          "type": "address"
        }
      ],
      "stateMutability": "view",
      "type": "function"
    },
    {
      "inputs": [
        {
          "internalType": "address",
          "name": "_token",
          "type": "address"
        }
      ],
      "name": "withdrawAnyToken",
      "outputs": [
        {
          "internalType": "bool",
          "name": "",
          "type": "bool"
        }
      ],
      "stateMutability": "nonpayable",
      "type": "function"
    }
  ],
  "bytecode": "0x60806040523480156200001157600080fd5b5060405162003a9438038062003a94833981810160405260808110156200003757600080fd5b810190808051906020019092919080519060200190929190805190602001909291908051906020019092919050505083600060606040518060400160405280601281526020017f466565204275726e205261746520566f746500000000000000000000000000008152506003600088674563918244f400008989818133600360006101000a81548173ffffffffffffffffffffffffffffffffffffffff021916908373ffffffffffffffffffffffffffffffffffffffff16021790555081600160006101000a81548173ffffffffffffffffffffffffffffffffffffffff021916908373ffffffffffffffffffffffffffffffffffffffff16021790555080600260006101000a81548173ffffffffffffffffffffffffffffffffffffffff021916908373ffffffffffffffffffffffffffffffffffffffff1602179055506040518060400160405280600681526020017f554e492d5632000000000000000000000000000000000000000000000000000081525060049080519060200190620001c39291906200056c565b50505089600560006101000a81548173ffffffffffffffffffffffffffffffffffffffff021916908373ffffffffffffffffffffffffffffffffffffffff160217905550610e1089024201600781905550610e1088026007540160088190555086600690805190602001906200023b9291906200056c565b508567ffffffffffffffff811180156200025457600080fd5b50604051908082528060200260200182016040528015620002845781602001602082028036833780820191505090505b50600c90805190602001906200029c929190620005f3565b5083600d60006101000a81548173ffffffffffffffffffffffffffffffffffffffff021916908373ffffffffffffffffffffffffffffffffffffffff16021790555082600e8190555084600a819055506000600960006101000a81548160ff02191690831515021790555060006002600560009054906101000a900473ffffffffffffffffffffffffffffffffffffffff16600854604051602001808373ffffffffffffffffffffffffffffffffffffffff1673ffffffffffffffffffffffffffffffffffffffff1660601b8152601401828152602001925050506040516020818303038152906040526040518082805190602001908083835b60208310620003bb578051825260208201915060208101905060208303925062000396565b6001836020036101000a038019825116818451168082178552505050505050905001915050602060405180830381855afa158015620003fe573d6000803e3d6000fd5b5050506040513d60208110156200041457600080fd5b810190808051906020019092919050505090507fca94af3117437198e5d836315ba80bc7d420cd527c5f5b7d524c69b5b7a5fe5d600560009054906101000a900473ffffffffffffffffffffffffffffffffffffffff16600754600854846006604051808673ffffffffffffffffffffffffffffffffffffffff1673ffffffffffffffffffffffffffffffffffffffff16815260200185815260200184815260200183815260200180602001828103825283818154600181600116156101000203166002900481526020019150805460018160011615610100020316600290048015620005455780601f10620005195761010080835404028352916020019162000545565b820191906000526020600020905b8154815290600101906020018083116200052757829003601f168201915b5050965050505050505060405180910390a15050505050505050505050505050506200066d565b828054600181600116156101000203166002900490600052602060002090601f016020900481019282601f10620005af57805160ff1916838001178555620005e0565b82800160010185558215620005e0579182015b82811115620005df578251825591602001919060010190620005c2565b5b509050620005ef919062000645565b5090565b82805482825590600052602060002090810192821562000632579160200282015b828111156200063157825182559160200191906001019062000614565b5b50905062000641919062000645565b5090565b6200066a91905b80821115620006665760008160009055506001016200064c565b5090565b90565b613417806200067d6000396000f3fe608060405234801561001057600080fd5b50600436106101da5760003560e01c806380cbce0011610104578063c10ac53e116100a2578063ec0b080011610071578063ec0b0800146109ce578063f7b2a7be14610a1e578063f7c618c114610a3c578063f810f82814610a86576101da565b8063c10ac53e146108c8578063d8bff5a51461092c578063ddbe8f0914610992578063e031535b146109b0576101da565b80638da5cb5b116100de5780638da5cb5b146107845780638f13ee78146107ce578063939acd8814610818578063b1bc310514610870576101da565b806380cbce001461067f57806382dda22d1461068957806386f5114e14610701576101da565b80635aad6cf01161017c57806366a08ec61161014b57806366a08ec61461056d57806367b52f541461058f5780636ffc7cf1146105d95780637892766c14610623576101da565b80635aad6cf01461040f5780635e4e0350146104b05780635f9be6d6146104ba578063637515831461053d576101da565b80631703a018116101b85780631703a018146102355780631f69565f1461025357806341c0e1b5146103c3578063556696df146103cd576101da565b80630121b93f146101df5780630828c0851461020d5780630d15fd7714610217575b600080fd5b61020b600480360360208110156101f557600080fd5b8101908080359060200190929190505050610ae8565b005b610215610ebe565b005b61021f610f21565b6040518082815260200191505060405180910390f35b61023d610f27565b6040518082815260200191505060405180910390f35b6102956004803603602081101561026957600080fd5b81019080803573ffffffffffffffffffffffffffffffffffffffff169060200190929190505050610f2d565b6040518080602001806020018660ff1660ff1681526020018573ffffffffffffffffffffffffffffffffffffffff1673ffffffffffffffffffffffffffffffffffffffff168152602001848152602001838103835288818151815260200191508051906020019080838360005b8381101561031d578082015181840152602081019050610302565b50505050905090810190601f16801561034a5780820380516001836020036101000a031916815260200191505b50838103825287818151815260200191508051906020019080838360005b83811015610383578082015181840152602081019050610368565b50505050905090810190601f1680156103b05780820380516001836020036101000a031916815260200191505b5097505050505050505060405180910390f35b6103cb611259565b005b6103f9600480360360208110156103e357600080fd5b8101908080359060200190929190505050611345565b6040518082815260200191505060405180910390f35b61043b6004803603602081101561042557600080fd5b8101908080359060200190929190505050611366565b604051808373ffffffffffffffffffffffffffffffffffffffff1673ffffffffffffffffffffffffffffffffffffffff1681526020018273ffffffffffffffffffffffffffffffffffffffff1673ffffffffffffffffffffffffffffffffffffffff1681526020019250505060405180910390f35b6104b86113ca565b005b6104c26114cd565b6040518080602001828103825283818151815260200191508051906020019080838360005b838110156105025780820151818401526020810190506104e7565b50505050905090810190601f16801561052f5780820380516001836020036101000a031916815260200191505b509250505060405180910390f35b61056b6004803603602081101561055357600080fd5b8101908080351515906020019092919050505061156b565b005b6105756115e2565b604051808215151515815260200191505060405180910390f35b6105976115f5565b604051808273ffffffffffffffffffffffffffffffffffffffff1673ffffffffffffffffffffffffffffffffffffffff16815260200191505060405180910390f35b6105e161161b565b604051808273ffffffffffffffffffffffffffffffffffffffff1673ffffffffffffffffffffffffffffffffffffffff16815260200191505060405180910390f35b6106656004803603602081101561063957600080fd5b81019080803573ffffffffffffffffffffffffffffffffffffffff169060200190929190505050611641565b604051808215151515815260200191505060405180910390f35b6106876117e8565b005b6106eb6004803603604081101561069f57600080fd5b81019080803573ffffffffffffffffffffffffffffffffffffffff169060200190929190803573ffffffffffffffffffffffffffffffffffffffff16906020019092919050505061192f565b6040518082815260200191505060405180910390f35b6107096119f1565b6040518080602001828103825283818151815260200191508051906020019080838360005b8381101561074957808201518184015260208101905061072e565b50505050905090810190601f1680156107765780820380516001836020036101000a031916815260200191505b509250505060405180910390f35b61078c611a8f565b604051808273ffffffffffffffffffffffffffffffffffffffff1673ffffffffffffffffffffffffffffffffffffffff16815260200191505060405180910390f35b6107d6611ab5565b604051808273ffffffffffffffffffffffffffffffffffffffff1673ffffffffffffffffffffffffffffffffffffffff16815260200191505060405180910390f35b61085a6004803603602081101561082e57600080fd5b81019080803573ffffffffffffffffffffffffffffffffffffffff169060200190929190505050611adb565b6040518082815260200191505060405180910390f35b6108b26004803603602081101561088657600080fd5b81019080803573ffffffffffffffffffffffffffffffffffffffff169060200190929190505050611b2c565b6040518082815260200191505060405180910390f35b61092a600480360360408110156108de57600080fd5b81019080803573ffffffffffffffffffffffffffffffffffffffff169060200190929190803573ffffffffffffffffffffffffffffffffffffffff169060200190929190505050611c6a565b005b61096e6004803603602081101561094257600080fd5b81019080803573ffffffffffffffffffffffffffffffffffffffff169060200190929190505050611dbd565b60405180848152602001838152602001828152602001935050505060405180910390f35b61099a611de7565b6040518082815260200191505060405180910390f35b6109b8611ded565b6040518082815260200191505060405180910390f35b610a1c600480360360408110156109e457600080fd5b81019080803573ffffffffffffffffffffffffffffffffffffffff169060200190929190803515159060200190929190505050611df3565b005b610a26611f19565b6040518082815260200191505060405180910390f35b610a44611f1f565b604051808273ffffffffffffffffffffffffffffffffffffffff1673ffffffffffffffffffffffffffffffffffffffff16815260200191505060405180910390f35b610ad260048036036040811015610a9c57600080fd5b81019080803573ffffffffffffffffffffffffffffffffffffffff16906020019092919080359060200190929190505050611f45565b6040518082815260200191505060405180910390f35b6007544211610b5f576040517f08c379a00000000000000000000000000000000000000000000000000000000081526004018080602001828103825260108152602001807f566f7465206973206e6f74206f70656e0000000000000000000000000000000081525060200191505060405180910390fd5b6008544210610bd6576040517f08c379a00000000000000000000000000000000000000000000000000000000081526004018080602001828103825260128152602001807f566f74696e67206861732065787069726564000000000000000000000000000081525060200191505060405180910390fd5b6000601060003373ffffffffffffffffffffffffffffffffffffffff1673ffffffffffffffffffffffffffffffffffffffff1681526020019081526020016000206002015414610c8e576040517f08c379a000000000000000000000000000000000000000000000000000000000815260040180806020018281038252600d8152602001807f416c726561647920766f7465640000000000000000000000000000000000000081525060200191505060405180910390fd5b6000610c9933611b2c565b11610d0c576040517f08c379a00000000000000000000000000000000000000000000000000000000081526004018080602001828103825260158152602001807f4f6e6c7920686f6c646572732063616e20766f7465000000000000000000000081525060200191505060405180910390fd5b600c8054905081108015610d21575060008110155b610d93576040517f08c379a00000000000000000000000000000000000000000000000000000000081526004018080602001828103825260138152602001807f496e76616c696420766f74652063686f6963650000000000000000000000000081525060200191505060405180910390fd5b6000610d9e33611b2c565b9050604051806060016040528083815260200182815260200142815250601060003373ffffffffffffffffffffffffffffffffffffffff1673ffffffffffffffffffffffffffffffffffffffff16815260200190815260200160002060008201518160000155602082015181600101556040820151816002015590505080600c8381548110610e2957fe5b906000526020600020015401600c8381548110610e4257fe5b906000526020600020018190555080600b5401600b81905550610e6433612359565b3373ffffffffffffffffffffffffffffffffffffffff167f4173497bdf60b458d277679ffd98f8f14cdb8d7ee725c3b779c9d721746c07ed8342604051808381526020018281526020019250505060405180910390a25050565b600360009054906101000a900473ffffffffffffffffffffffffffffffffffffffff1673ffffffffffffffffffffffffffffffffffffffff163373ffffffffffffffffffffffffffffffffffffffff1614610f1857600080fd5b42600881905550565b600b5481565b600a5481565b60608060008060008573ffffffffffffffffffffffffffffffffffffffff166306fdde036040518163ffffffff1660e01b815260040160006040518083038186803b158015610f7b57600080fd5b505afa158015610f8f573d6000803e3d6000fd5b505050506040513d6000823e3d601f19601f820116820180604052506020811015610fb957600080fd5b8101908080516040519392919084640100000000821115610fd957600080fd5b83820191506020820185811115610fef57600080fd5b825186600182028301116401000000008211171561100c57600080fd5b8083526020830192505050908051906020019080838360005b83811015611040578082015181840152602081019050611025565b50505050905090810190601f16801561106d5780820380516001836020036101000a031916815260200191505b506040525050508673ffffffffffffffffffffffffffffffffffffffff166395d89b416040518163ffffffff1660e01b815260040160006040518083038186803b1580156110ba57600080fd5b505afa1580156110ce573d6000803e3d6000fd5b505050506040513d6000823e3d601f19601f8201168201806040525060208110156110f857600080fd5b810190808051604051939291908464010000000082111561111857600080fd5b8382019150602082018581111561112e57600080fd5b825186600182028301116401000000008211171561114b57600080fd5b8083526020830192505050908051906020019080838360005b8381101561117f578082015181840152602081019050611164565b50505050905090810190601f1680156111ac5780820380516001836020036101000a031916815260200191505b506040525050508773ffffffffffffffffffffffffffffffffffffffff1663313ce5676040518163ffffffff1660e01b815260040160206040518083038186803b1580156111f957600080fd5b505afa15801561120d573d6000803e3d6000fd5b505050506040513d602081101561122357600080fd5b810190808051906020019092919050505061123d89612526565b6112468a611adb565b9450945094509450945091939590929450565b60011515600080611268612676565b73ffffffffffffffffffffffffffffffffffffffff1673ffffffffffffffffffffffffffffffffffffffff16815260200190815260200160002060009054906101000a900460ff16151514611325576040517f08c379a000000000000000000000000000000000000000000000000000000000815260040180806020018281038252600b8152602001807f6f6e6c79416c6c6f77656400000000000000000000000000000000000000000081525060200191505060405180910390fd5b61132d612676565b73ffffffffffffffffffffffffffffffffffffffff16ff5b600c818154811061135257fe5b906000526020600020016000915090505481565b60116020528060005260406000206000915090508060000160009054906101000a900473ffffffffffffffffffffffffffffffffffffffff16908060010160009054906101000a900473ffffffffffffffffffffffffffffffffffffffff16905082565b4260085410611441576040517f08c379a00000000000000000000000000000000000000000000000000000000081526004018080602001828103825260148152602001807f566f74696e67207374696c6c206f6e676f696e6700000000000000000000000081525060200191505060405180910390fd5b600960009054906101000a900460ff16156114a7576040517f08c379a00000000000000000000000000000000000000000000000000000000081526004018080602001828103825260288152602001806133996028913960400191505060405180910390fd5b6001600960006101000a81548160ff0219169083151502179055506114ca61267e565b50565b60048054600181600116156101000203166002900480601f0160208091040260200160405190810160405280929190818152602001828054600181600116156101000203166002900480156115635780601f1061153857610100808354040283529160200191611563565b820191906000526020600020905b81548152906001019060200180831161154657829003601f168201915b505050505081565b600360009054906101000a900473ffffffffffffffffffffffffffffffffffffffff1673ffffffffffffffffffffffffffffffffffffffff163373ffffffffffffffffffffffffffffffffffffffff16146115c557600080fd5b80600960006101000a81548160ff02191690831515021790555050565b600960009054906101000a900460ff1681565b600160009054906101000a900473ffffffffffffffffffffffffffffffffffffffff1681565b600260009054906101000a900473ffffffffffffffffffffffffffffffffffffffff1681565b600060011515600080611652612676565b73ffffffffffffffffffffffffffffffffffffffff1673ffffffffffffffffffffffffffffffffffffffff16815260200190815260200160002060009054906101000a900460ff1615151461170f576040517f08c379a000000000000000000000000000000000000000000000000000000000815260040180806020018281038252600b8152602001807f6f6e6c79416c6c6f77656400000000000000000000000000000000000000000081525060200191505060405180910390fd5b60008273ffffffffffffffffffffffffffffffffffffffff166370a08231306040518263ffffffff1660e01b8152600401808273ffffffffffffffffffffffffffffffffffffffff1673ffffffffffffffffffffffffffffffffffffffff16815260200191505060206040518083038186803b15801561178e57600080fd5b505afa1580156117a2573d6000803e3d6000fd5b505050506040513d60208110156117b857600080fd5b810190808051906020019092919050505090506117dd6117d6612676565b84836127da565b506001915050919050565b600360009054906101000a900473ffffffffffffffffffffffffffffffffffffffff1673ffffffffffffffffffffffffffffffffffffffff163373ffffffffffffffffffffffffffffffffffffffff161461184257600080fd5b6000600f54116118ba576040517f08c379a000000000000000000000000000000000000000000000000000000000815260040180806020018281038252600f8152602001807f4e6f7468696e6720746f20706f7021000000000000000000000000000000000081525060200191505060405180910390fd5b60116000600f60008154600190039190508190558152602001908152602001600020600080820160006101000a81549073ffffffffffffffffffffffffffffffffffffffff02191690556001820160006101000a81549073ffffffffffffffffffffffffffffffffffffffff02191690555050565b60008173ffffffffffffffffffffffffffffffffffffffff1663beaa369a846040518263ffffffff1660e01b8152600401808273ffffffffffffffffffffffffffffffffffffffff1673ffffffffffffffffffffffffffffffffffffffff16815260200191505060206040518083038186803b1580156119ae57600080fd5b505afa1580156119c2573d6000803e3d6000fd5b505050506040513d60208110156119d857600080fd5b8101908080519060200190929190505050905092915050565b60068054600181600116156101000203166002900480601f016020809104026020016040519081016040528092919081815260200182805460018160011615610100020316600290048015611a875780601f10611a5c57610100808354040283529160200191611a87565b820191906000526020600020905b815481529060010190602001808311611a6a57829003601f168201915b505050505081565b600360009054906101000a900473ffffffffffffffffffffffffffffffffffffffff1681565b600560009054906101000a900473ffffffffffffffffffffffffffffffffffffffff1681565b600080600080611aea856128aa565b8093508194505050611afb85612de4565b9050611b2282611b148386612efc90919063ffffffff16565b612f8290919063ffffffff16565b9350505050919050565b6000806000905060008090505b600f54811015611c6057611b4b613352565b601160008381526020019081526020016000206040518060400160405290816000820160009054906101000a900473ffffffffffffffffffffffffffffffffffffffff1673ffffffffffffffffffffffffffffffffffffffff1673ffffffffffffffffffffffffffffffffffffffff1681526020016001820160009054906101000a900473ffffffffffffffffffffffffffffffffffffffff1673ffffffffffffffffffffffffffffffffffffffff1673ffffffffffffffffffffffffffffffffffffffff168152505090506000611c2786836000015161192f565b9050611c368260200151612fcc565b15611c4c57611c49826020015182611f45565b90505b808401935050508080600101915050611b39565b5080915050919050565b600360009054906101000a900473ffffffffffffffffffffffffffffffffffffffff1673ffffffffffffffffffffffffffffffffffffffff163373ffffffffffffffffffffffffffffffffffffffff1614611cc457600080fd5b60405180604001604052808373ffffffffffffffffffffffffffffffffffffffff1681526020018273ffffffffffffffffffffffffffffffffffffffff1681525060116000600f600081548092919060010191905055815260200190815260200160002060008201518160000160006101000a81548173ffffffffffffffffffffffffffffffffffffffff021916908373ffffffffffffffffffffffffffffffffffffffff16021790555060208201518160010160006101000a81548173ffffffffffffffffffffffffffffffffffffffff021916908373ffffffffffffffffffffffffffffffffffffffff1602179055509050505050565b60106020528060005260406000206000915090508060000154908060010154908060020154905083565b60085481565b60075481565b60011515600080611e02612676565b73ffffffffffffffffffffffffffffffffffffffff1673ffffffffffffffffffffffffffffffffffffffff16815260200190815260200160002060009054906101000a900460ff16151514611ebf576040517f08c379a000000000000000000000000000000000000000000000000000000000815260040180806020018281038252600b8152602001807f6f6e6c79416c6c6f77656400000000000000000000000000000000000000000081525060200191505060405180910390fd5b806000808473ffffffffffffffffffffffffffffffffffffffff1673ffffffffffffffffffffffffffffffffffffffff16815260200190815260200160002060006101000a81548160ff0219169083151502179055505050565b600e5481565b600d60009054906101000a900473ffffffffffffffffffffffffffffffffffffffff1681565b60008060008060008673ffffffffffffffffffffffffffffffffffffffff16630dfe16816040518163ffffffff1660e01b815260040160206040518083038186803b158015611f9357600080fd5b505afa158015611fa7573d6000803e3d6000fd5b505050506040513d6020811015611fbd57600080fd5b8101908080519060200190929190505050905060008773ffffffffffffffffffffffffffffffffffffffff1663d21220a76040518163ffffffff1660e01b815260040160206040518083038186803b15801561201857600080fd5b505afa15801561202c573d6000803e3d6000fd5b505050506040513d602081101561204257600080fd5b81019080805190602001909291905050509050600260009054906101000a900473ffffffffffffffffffffffffffffffffffffffff1673ffffffffffffffffffffffffffffffffffffffff168273ffffffffffffffffffffffffffffffffffffffff161415612159578773ffffffffffffffffffffffffffffffffffffffff16630902f1ac6040518163ffffffff1660e01b815260040160606040518083038186803b1580156120f157600080fd5b505afa158015612105573d6000803e3d6000fd5b505050506040513d606081101561211b57600080fd5b8101908080519060200190929190805190602001909291908051906020019092919050505050809650819550505061215281611adb565b9250612203565b8773ffffffffffffffffffffffffffffffffffffffff16630902f1ac6040518163ffffffff1660e01b815260040160606040518083038186803b15801561219f57600080fd5b505afa1580156121b3573d6000803e3d6000fd5b505050506040513d60608110156121c957600080fd5b8101908080519060200190929190805190602001909291908051906020019092919050505050809550819650505061220082611adb565b92505b6000612242670de0b6b3a764000061223486886dffffffffffffffffffffffffffff16612efc90919063ffffffff16565b612f8290919063ffffffff16565b905060008973ffffffffffffffffffffffffffffffffffffffff166318160ddd6040518163ffffffff1660e01b815260040160206040518083038186803b15801561228c57600080fd5b505afa1580156122a0573d6000803e3d6000fd5b505050506040513d60208110156122b657600080fd5b81019080805190602001909291905050509050600061231a8261230c670de0b6b3a76400006122fe8c6dffffffffffffffffffffffffffff168861319790919063ffffffff16565b612efc90919063ffffffff16565b612f8290919063ffffffff16565b9050612349670de0b6b3a764000061233b838d612efc90919063ffffffff16565b612f8290919063ffffffff16565b9850505050505050505092915050565b600e54600d60009054906101000a900473ffffffffffffffffffffffffffffffffffffffff1673ffffffffffffffffffffffffffffffffffffffff166370a08231306040518263ffffffff1660e01b8152600401808273ffffffffffffffffffffffffffffffffffffffff1673ffffffffffffffffffffffffffffffffffffffff16815260200191505060206040518083038186803b1580156123fb57600080fd5b505afa15801561240f573d6000803e3d6000fd5b505050506040513d602081101561242557600080fd5b81019080805190602001909291905050501061252357600d60009054906101000a900473ffffffffffffffffffffffffffffffffffffffff1673ffffffffffffffffffffffffffffffffffffffff1663a9059cbb82600e546040518363ffffffff1660e01b8152600401808373ffffffffffffffffffffffffffffffffffffffff1673ffffffffffffffffffffffffffffffffffffffff16815260200182815260200192505050602060405180830381600087803b1580156124e657600080fd5b505af11580156124fa573d6000803e3d6000fd5b505050506040513d602081101561251057600080fd5b8101908080519060200190929190505050505b50565b600061253182612fcc565b1561253e57819050612671565b600160009054906101000a900473ffffffffffffffffffffffffffffffffffffffff1673ffffffffffffffffffffffffffffffffffffffff1663e6a4390583600260009054906101000a900473ffffffffffffffffffffffffffffffffffffffff166040518363ffffffff1660e01b8152600401808373ffffffffffffffffffffffffffffffffffffffff1673ffffffffffffffffffffffffffffffffffffffff1681526020018273ffffffffffffffffffffffffffffffffffffffff1673ffffffffffffffffffffffffffffffffffffffff1681526020019250505060206040518083038186803b15801561263357600080fd5b505afa158015612647573d6000803e3d6000fd5b505050506040513d602081101561265d57600080fd5b810190808051906020019092919050505090505b919050565b600033905090565b600080600061268b61321f565b9050600081141561269f57600091506126b7565b60018114156126b157600a91506126b6565b603291505b5b600560009054906101000a900473ffffffffffffffffffffffffffffffffffffffff1673ffffffffffffffffffffffffffffffffffffffff1663affca932836040518263ffffffff1660e01b815260040180828152602001915050600060405180830381600087803b15801561272c57600080fd5b505af1158015612740573d6000803e3d6000fd5b50505050600560009054906101000a900473ffffffffffffffffffffffffffffffffffffffff1673ffffffffffffffffffffffffffffffffffffffff166356851060836040518263ffffffff1660e01b815260040180828152602001915050600060405180830381600087803b1580156127b957600080fd5b505af11580156127cd573d6000803e3d6000fd5b5050505060019250505090565b60008273ffffffffffffffffffffffffffffffffffffffff1663a9059cbb85846040518363ffffffff1660e01b8152600401808373ffffffffffffffffffffffffffffffffffffffff1673ffffffffffffffffffffffffffffffffffffffff16815260200182815260200192505050602060405180830381600087803b15801561286357600080fd5b505af1158015612877573d6000803e3d6000fd5b505050506040513d602081101561288d57600080fd5b810190808051906020019092919050505050600190509392505050565b60008060008060006128bb86612fcc565b15612b8c578573ffffffffffffffffffffffffffffffffffffffff16630dfe16816040518163ffffffff1660e01b815260040160206040518083038186803b15801561290657600080fd5b505afa15801561291a573d6000803e3d6000fd5b505050506040513d602081101561293057600080fd5b81019080805190602001909291905050509250600260009054906101000a900473ffffffffffffffffffffffffffffffffffffffff1673ffffffffffffffffffffffffffffffffffffffff168373ffffffffffffffffffffffffffffffffffffffff161415612a3c578573ffffffffffffffffffffffffffffffffffffffff16630902f1ac6040518163ffffffff1660e01b815260040160606040518083038186803b1580156129df57600080fd5b505afa1580156129f3573d6000803e3d6000fd5b505050506040513d6060811015612a0957600080fd5b81019080805190602001909291908051906020019092919080519060200190929190505050508093508192505050612adb565b8573ffffffffffffffffffffffffffffffffffffffff16630902f1ac6040518163ffffffff1660e01b815260040160606040518083038186803b158015612a8257600080fd5b505afa158015612a96573d6000803e3d6000fd5b505050506040513d6060811015612aac57600080fd5b810190808051906020019092919080519060200190929190805190602001909291905050505080925081935050505b612aff6002826dffffffffffffffffffffffffffff16612efc90919063ffffffff16565b8673ffffffffffffffffffffffffffffffffffffffff166318160ddd6040518163ffffffff1660e01b815260040160206040518083038186803b158015612b4557600080fd5b505afa158015612b59573d6000803e3d6000fd5b505050506040513d6020811015612b6f57600080fd5b810190808051906020019092919050505094509450505050612ddf565b6000612b9787612526565b90508073ffffffffffffffffffffffffffffffffffffffff16630dfe16816040518163ffffffff1660e01b815260040160206040518083038186803b158015612bdf57600080fd5b505afa158015612bf3573d6000803e3d6000fd5b505050506040513d6020811015612c0957600080fd5b81019080805190602001909291905050509350600260009054906101000a900473ffffffffffffffffffffffffffffffffffffffff1673ffffffffffffffffffffffffffffffffffffffff168473ffffffffffffffffffffffffffffffffffffffff161415612d15578073ffffffffffffffffffffffffffffffffffffffff16630902f1ac6040518163ffffffff1660e01b815260040160606040518083038186803b158015612cb857600080fd5b505afa158015612ccc573d6000803e3d6000fd5b505050506040513d6060811015612ce257600080fd5b81019080805190602001909291908051906020019092919080519060200190929190505050508094508193505050612db4565b8073ffffffffffffffffffffffffffffffffffffffff16630902f1ac6040518163ffffffff1660e01b815260040160606040518083038186803b158015612d5b57600080fd5b505afa158015612d6f573d6000803e3d6000fd5b505050506040513d6060811015612d8557600080fd5b810190808051906020019092919080519060200190929190805190602001909291905050505080935081945050505b826dffffffffffffffffffffffffffff16826dffffffffffffffffffffffffffff1695509550505050505b915091565b6000808273ffffffffffffffffffffffffffffffffffffffff1663313ce5676040518163ffffffff1660e01b815260040160206040518083038186803b158015612e2d57600080fd5b505afa158015612e41573d6000803e3d6000fd5b505050506040513d6020811015612e5757600080fd5b8101908080519060200190929190505050905060128160ff161115612ee4576040517f08c379a000000000000000000000000000000000000000000000000000000000815260040180806020018281038252601c8152602001807f4f766572466c6f77207269736b2c206e6f7420737570706f727465640000000081525060200191505060405180910390fd5b60008160ff16602403905080600a0a92505050919050565b600080831415612f0f5760009050612f7c565b6000828402905082848281612f2057fe5b0414612f77576040517f08c379a00000000000000000000000000000000000000000000000000000000081526004018080602001828103825260218152602001806133c16021913960400191505060405180910390fd5b809150505b92915050565b6000612fc483836040518060400160405280601a81526020017f536166654d6174683a206469766973696f6e206279207a65726f00000000000081525061328c565b905092915050565b60006004604051808280546001816001161561010002031660029004801561302b5780601f1061300957610100808354040283529182019161302b565b820191906000526020600020905b815481529060010190602001808311613017575b505091505060405180910390208273ffffffffffffffffffffffffffffffffffffffff166395d89b416040518163ffffffff1660e01b815260040160006040518083038186803b15801561307e57600080fd5b505afa158015613092573d6000803e3d6000fd5b505050506040513d6000823e3d601f19601f8201168201806040525060208110156130bc57600080fd5b81019080805160405193929190846401000000008211156130dc57600080fd5b838201915060208201858111156130f257600080fd5b825186600182028301116401000000008211171561310f57600080fd5b8083526020830192505050908051906020019080838360005b83811015613143578082015181840152602081019050613128565b50505050905090810190601f1680156131705780820380516001836020036101000a031916815260200191505b5060405250505080519060200120141561318d5760019050613192565b600090505b919050565b600080828401905083811015613215576040517f08c379a000000000000000000000000000000000000000000000000000000000815260040180806020018281038252601b8152602001807f536166654d6174683a206164646974696f6e206f766572666c6f77000000000081525060200191505060405180910390fd5b8091505092915050565b600080600080905060008090505b600c805490508110156132835781600c828154811061324857fe5b90600052602060002001541061327657809250600c818154811061326857fe5b906000526020600020015491505b808060010191505061322d565b50819250505090565b60008083118290613338576040517f08c379a00000000000000000000000000000000000000000000000000000000081526004018080602001828103825283818151815260200191508051906020019080838360005b838110156132fd5780820151818401526020810190506132e2565b50505050905090810190601f16801561332a5780820380516001836020036101000a031916815260200191505b509250505060405180910390fd5b50600083858161334457fe5b049050809150509392505050565b6040518060400160405280600073ffffffffffffffffffffffffffffffffffffffff168152602001600073ffffffffffffffffffffffffffffffffffffffff168152509056fe566f7465206465636973696f6e2068617320616c7265616479206265656e20616374697661746564536166654d6174683a206d756c7469706c69636174696f6e206f766572666c6f77a2646970667358221220f3f9d96434351b3842b52553390223ee3699f844c59b10447643819f2169165a64736f6c63430006060033",
  "immutableReferences": {},
  "source": "pragma solidity ^0.6.0;\n\nimport \"../_Vote.sol\";\n\n// contract must be given governor rights\n\ncontract FeeBurnRateVote is _Vote {\n  constructor (\n      address _DeFiat_Gov,\n      address _rewardToken,\n      address _uniFactoryAddress,\n      address _wethAddress\n  ) public \n    _Vote(\n        _DeFiat_Gov,\n        0, // no delay\n        96, // 4 days\n        \"Fee Burn Rate Vote\",\n        3, // 3 choices\n        0,\n        _rewardToken, \n        5 * 1e18,\n        _uniFactoryAddress,\n        _wethAddress\n    )\n  {\n  }\n\n  function proposalAction() internal override returns (bool) {\n    uint256 newRate;\n\n    uint winningChoice = getWinningChoice();\n    if (winningChoice == 0) {\n      newRate = 0;\n    } else if (winningChoice == 1) {\n      newRate = 10;\n    } else {\n      newRate = 50;\n    }\n\n    IDeFiat_Gov(DeFiat_Gov).changeFeeRate(newRate);\n    IDeFiat_Gov(DeFiat_Gov).changeBurnRate(newRate);\n\n    return true;\n  }\n}",
  "sourcePath": "/Users/noahcoomer/source/defiat/contracts/proposals/FeeBurnRateVote.sol",
  "compiler": {
    "name": "solc",
    "version": "0.6.6+commit.6c089d02.Emscripten.clang"
  },
  "schemaVersion": "3.2.3",
  "updatedAt": "2020-10-03T19:27:06.724Z",
  "devdoc": {
    "methods": {}
  },
  "userdoc": {
    "methods": {}
  }
}