{
  "contractName": "FeeBurnRateVote",
  "abi": [
    {
      "inputs": [
        {
          "internalType": "address",
          "name": "_DeFiat_Gov",
          "type": "address"
        },
        {
          "internalType": "address",
          "name": "_rewardToken",
          "type": "address"
        },
        {
          "internalType": "address",
          "name": "_uniFactoryAddress",
          "type": "address"
        },
        {
          "internalType": "address",
          "name": "_wethAddress",
          "type": "address"
        }
      ],
      "stateMutability": "nonpayable",
      "type": "constructor"
    },
    {
      "anonymous": false,
      "inputs": [
        {
          "indexed": true,
          "internalType": "address",
          "name": "user",
          "type": "address"
        },
        {
          "indexed": false,
          "internalType": "uint256",
          "name": "voteChoice",
          "type": "uint256"
        },
        {
          "indexed": false,
          "internalType": "uint256",
          "name": "timestamp",
          "type": "uint256"
        }
      ],
      "name": "voteSending",
      "type": "event"
    },
    {
      "anonymous": false,
      "inputs": [
        {
          "indexed": false,
          "internalType": "address",
          "name": "_Defiat_Gov",
          "type": "address"
        },
        {
          "indexed": false,
          "internalType": "uint256",
          "name": "_voteStart",
          "type": "uint256"
        },
        {
          "indexed": false,
          "internalType": "uint256",
          "name": "_voteEnd",
          "type": "uint256"
        },
        {
          "indexed": false,
          "internalType": "bytes32",
          "name": "_hash",
          "type": "bytes32"
        },
        {
          "indexed": false,
          "internalType": "string",
          "name": "_voteName",
          "type": "string"
        }
      ],
      "name": "voteStarting",
      "type": "event"
    },
    {
      "inputs": [],
      "name": "DeFiat_Gov",
      "outputs": [
        {
          "internalType": "address",
          "name": "",
          "type": "address"
        }
      ],
      "stateMutability": "view",
      "type": "function"
    },
    {
      "inputs": [],
      "name": "UNIfactory",
      "outputs": [
        {
          "internalType": "address",
          "name": "",
          "type": "address"
        }
      ],
      "stateMutability": "view",
      "type": "function"
    },
    {
      "inputs": [],
      "name": "activateDecision",
      "outputs": [],
      "stateMutability": "nonpayable",
      "type": "function"
    },
    {
      "inputs": [],
      "name": "decisionActivated",
      "outputs": [
        {
          "internalType": "bool",
          "name": "",
          "type": "bool"
        }
      ],
      "stateMutability": "view",
      "type": "function"
    },
    {
      "inputs": [
        {
          "internalType": "bool",
          "name": "_decision",
          "type": "bool"
        }
      ],
      "name": "forceDecision",
      "outputs": [],
      "stateMutability": "nonpayable",
      "type": "function"
    },
    {
      "inputs": [],
      "name": "forceVoteEnd",
      "outputs": [],
      "stateMutability": "nonpayable",
      "type": "function"
    },
    {
      "inputs": [
        {
          "internalType": "address",
          "name": "tokenAddress",
          "type": "address"
        },
        {
          "internalType": "uint256",
          "name": "stakedTokens",
          "type": "uint256"
        }
      ],
      "name": "getLiquidityTokenPower",
      "outputs": [
        {
          "internalType": "uint256",
          "name": "",
          "type": "uint256"
        }
      ],
      "stateMutability": "view",
      "type": "function"
    },
    {
      "inputs": [
        {
          "internalType": "address",
          "name": "_address",
          "type": "address"
        },
        {
          "internalType": "address",
          "name": "_poolAddress",
          "type": "address"
        }
      ],
      "name": "getStake",
      "outputs": [
        {
          "internalType": "uint256",
          "name": "",
          "type": "uint256"
        }
      ],
      "stateMutability": "view",
      "type": "function"
    },
    {
      "inputs": [
        {
          "internalType": "address",
          "name": "_token",
          "type": "address"
        }
      ],
      "name": "getTokenInfo",
      "outputs": [
        {
          "internalType": "string",
          "name": "name",
          "type": "string"
        },
        {
          "internalType": "string",
          "name": "symbol",
          "type": "string"
        },
        {
          "internalType": "uint8",
          "name": "decimals",
          "type": "uint8"
        },
        {
          "internalType": "address",
          "name": "uniPair",
          "type": "address"
        },
        {
          "internalType": "uint256",
          "name": "tokensPerETH",
          "type": "uint256"
        }
      ],
      "stateMutability": "view",
      "type": "function"
    },
    {
      "inputs": [
        {
          "internalType": "address",
          "name": "_token",
          "type": "address"
        }
      ],
      "name": "getUniPrice",
      "outputs": [
        {
          "internalType": "uint256",
          "name": "",
          "type": "uint256"
        }
      ],
      "stateMutability": "view",
      "type": "function"
    },
    {
      "inputs": [],
      "name": "kill",
      "outputs": [],
      "stateMutability": "nonpayable",
      "type": "function"
    },
    {
      "inputs": [
        {
          "internalType": "address",
          "name": "_address",
          "type": "address"
        },
        {
          "internalType": "bool",
          "name": "_bool",
          "type": "bool"
        }
      ],
      "name": "manageAllowed",
      "outputs": [],
      "stateMutability": "nonpayable",
      "type": "function"
    },
    {
      "inputs": [
        {
          "internalType": "address",
          "name": "_address",
          "type": "address"
        }
      ],
      "name": "myVotingPower",
      "outputs": [
        {
          "internalType": "uint256",
          "name": "",
          "type": "uint256"
        }
      ],
      "stateMutability": "view",
      "type": "function"
    },
    {
      "inputs": [],
      "name": "owner",
      "outputs": [
        {
          "internalType": "address",
          "name": "",
          "type": "address"
        }
      ],
      "stateMutability": "view",
      "type": "function"
    },
    {
      "inputs": [],
      "name": "popStakingPool",
      "outputs": [],
      "stateMutability": "nonpayable",
      "type": "function"
    },
    {
      "inputs": [
        {
          "internalType": "address",
          "name": "_poolAddress",
          "type": "address"
        },
        {
          "internalType": "address",
          "name": "_stakedAddress",
          "type": "address"
        }
      ],
      "name": "pushStakingPool",
      "outputs": [],
      "stateMutability": "nonpayable",
      "type": "function"
    },
    {
      "inputs": [],
      "name": "quorum",
      "outputs": [
        {
          "internalType": "uint256",
          "name": "",
          "type": "uint256"
        }
      ],
      "stateMutability": "view",
      "type": "function"
    },
    {
      "inputs": [],
      "name": "rewardAmount",
      "outputs": [
        {
          "internalType": "uint256",
          "name": "",
          "type": "uint256"
        }
      ],
      "stateMutability": "view",
      "type": "function"
    },
    {
      "inputs": [],
      "name": "rewardToken",
      "outputs": [
        {
          "internalType": "address",
          "name": "",
          "type": "address"
        }
      ],
      "stateMutability": "view",
      "type": "function"
    },
    {
      "inputs": [
        {
          "internalType": "uint256",
          "name": "",
          "type": "uint256"
        }
      ],
      "name": "stakingPools",
      "outputs": [
        {
          "internalType": "address",
          "name": "poolAddress",
          "type": "address"
        },
        {
          "internalType": "address",
          "name": "stakedAddress",
          "type": "address"
        }
      ],
      "stateMutability": "view",
      "type": "function"
    },
    {
      "inputs": [],
      "name": "totalVotes",
      "outputs": [
        {
          "internalType": "uint256",
          "name": "",
          "type": "uint256"
        }
      ],
      "stateMutability": "view",
      "type": "function"
    },
    {
      "inputs": [],
      "name": "uniSymbol",
      "outputs": [
        {
          "internalType": "string",
          "name": "",
          "type": "string"
        }
      ],
      "stateMutability": "view",
      "type": "function"
    },
    {
      "inputs": [
        {
          "internalType": "uint256",
          "name": "voteChoice",
          "type": "uint256"
        }
      ],
      "name": "vote",
      "outputs": [],
      "stateMutability": "nonpayable",
      "type": "function"
    },
    {
      "inputs": [
        {
          "internalType": "uint256",
          "name": "",
          "type": "uint256"
        }
      ],
      "name": "voteChoices",
      "outputs": [
        {
          "internalType": "uint256",
          "name": "",
          "type": "uint256"
        }
      ],
      "stateMutability": "view",
      "type": "function"
    },
    {
      "inputs": [],
      "name": "voteEnd",
      "outputs": [
        {
          "internalType": "uint256",
          "name": "",
          "type": "uint256"
        }
      ],
      "stateMutability": "view",
      "type": "function"
    },
    {
      "inputs": [],
      "name": "voteName",
      "outputs": [
        {
          "internalType": "string",
          "name": "",
          "type": "string"
        }
      ],
      "stateMutability": "view",
      "type": "function"
    },
    {
      "inputs": [],
      "name": "voteStart",
      "outputs": [
        {
          "internalType": "uint256",
          "name": "",
          "type": "uint256"
        }
      ],
      "stateMutability": "view",
      "type": "function"
    },
    {
      "inputs": [
        {
          "internalType": "address",
          "name": "",
          "type": "address"
        }
      ],
      "name": "votes",
      "outputs": [
        {
          "internalType": "uint256",
          "name": "voteChoice",
          "type": "uint256"
        },
        {
          "internalType": "uint256",
          "name": "timestamp",
          "type": "uint256"
        }
      ],
      "stateMutability": "view",
      "type": "function"
    },
    {
      "inputs": [],
      "name": "wETHaddress",
      "outputs": [
        {
          "internalType": "address",
          "name": "",
          "type": "address"
        }
      ],
      "stateMutability": "view",
      "type": "function"
    },
    {
      "inputs": [
        {
          "internalType": "address",
          "name": "_token",
          "type": "address"
        }
      ],
      "name": "withdrawAnyToken",
      "outputs": [
        {
          "internalType": "bool",
          "name": "",
          "type": "bool"
        }
      ],
      "stateMutability": "nonpayable",
      "type": "function"
    },
    {
      "inputs": [],
      "name": "proposalAction",
      "outputs": [
        {
          "internalType": "bool",
          "name": "",
          "type": "bool"
        }
      ],
      "stateMutability": "nonpayable",
      "type": "function"
    }
  ],
  "bytecode": "0x60806040523480156200001157600080fd5b5060405162003aa438038062003aa4833981810160405260808110156200003757600080fd5b810190808051906020019092919080519060200190929190805190602001909291908051906020019092919050505083600060606040518060400160405280601281526020017f466565204275726e205261746520566f746500000000000000000000000000008152506003600088674563918244f400008989818133600360006101000a81548173ffffffffffffffffffffffffffffffffffffffff021916908373ffffffffffffffffffffffffffffffffffffffff16021790555081600160006101000a81548173ffffffffffffffffffffffffffffffffffffffff021916908373ffffffffffffffffffffffffffffffffffffffff16021790555080600260006101000a81548173ffffffffffffffffffffffffffffffffffffffff021916908373ffffffffffffffffffffffffffffffffffffffff1602179055506040518060400160405280600681526020017f554e492d5632000000000000000000000000000000000000000000000000000081525060049080519060200190620001c39291906200056c565b50505089600560006101000a81548173ffffffffffffffffffffffffffffffffffffffff021916908373ffffffffffffffffffffffffffffffffffffffff160217905550610e1089024201600781905550610e1088026007540160088190555086600690805190602001906200023b9291906200056c565b508567ffffffffffffffff811180156200025457600080fd5b50604051908082528060200260200182016040528015620002845781602001602082028036833780820191505090505b50600c90805190602001906200029c929190620005f3565b5083600d60006101000a81548173ffffffffffffffffffffffffffffffffffffffff021916908373ffffffffffffffffffffffffffffffffffffffff16021790555082600e8190555084600a819055506000600960006101000a81548160ff02191690831515021790555060006002600560009054906101000a900473ffffffffffffffffffffffffffffffffffffffff16600854604051602001808373ffffffffffffffffffffffffffffffffffffffff1673ffffffffffffffffffffffffffffffffffffffff1660601b8152601401828152602001925050506040516020818303038152906040526040518082805190602001908083835b60208310620003bb578051825260208201915060208101905060208303925062000396565b6001836020036101000a038019825116818451168082178552505050505050905001915050602060405180830381855afa158015620003fe573d6000803e3d6000fd5b5050506040513d60208110156200041457600080fd5b810190808051906020019092919050505090507fca94af3117437198e5d836315ba80bc7d420cd527c5f5b7d524c69b5b7a5fe5d600560009054906101000a900473ffffffffffffffffffffffffffffffffffffffff16600754600854846006604051808673ffffffffffffffffffffffffffffffffffffffff1673ffffffffffffffffffffffffffffffffffffffff16815260200185815260200184815260200183815260200180602001828103825283818154600181600116156101000203166002900481526020019150805460018160011615610100020316600290048015620005455780601f10620005195761010080835404028352916020019162000545565b820191906000526020600020905b8154815290600101906020018083116200052757829003601f168201915b5050965050505050505060405180910390a15050505050505050505050505050506200066d565b828054600181600116156101000203166002900490600052602060002090601f016020900481019282601f10620005af57805160ff1916838001178555620005e0565b82800160010185558215620005e0579182015b82811115620005df578251825591602001919060010190620005c2565b5b509050620005ef919062000645565b5090565b82805482825590600052602060002090810192821562000632579160200282015b828111156200063157825182559160200191906001019062000614565b5b50905062000641919062000645565b5090565b6200066a91905b80821115620006665760008160009055506001016200064c565b5090565b90565b613427806200067d6000396000f3fe608060405234801561001057600080fd5b50600436106101e55760003560e01c80637892766c1161010f578063c10ac53e116100a2578063ec0b080011610071578063ec0b0800146109f4578063f7b2a7be14610a44578063f7c618c114610a62578063f810f82814610aac576101e5565b8063c10ac53e146108f5578063d8bff5a514610959578063ddbe8f09146109b8578063e031535b146109d6576101e5565b80638da5cb5b116100de5780638da5cb5b146107b15780638f13ee78146107fb578063939acd8814610845578063b1bc31051461089d576101e5565b80637892766c1461065057806380cbce00146106ac57806382dda22d146106b657806386f5114e1461072e576101e5565b80635aad6cf01161018757806366a08ec61161015657806366a08ec61461057857806367b52f541461059a5780636d397736146105e45780636ffc7cf114610606576101e5565b80635aad6cf01461041a5780635e4e0350146104bb5780635f9be6d6146104c55780636375158314610548576101e5565b80631703a018116101c35780631703a018146102405780631f69565f1461025e57806341c0e1b5146103ce578063556696df146103d8576101e5565b80630121b93f146101ea5780630828c085146102185780630d15fd7714610222575b600080fd5b6102166004803603602081101561020057600080fd5b8101908080359060200190929190505050610b0e565b005b610220610ed4565b005b61022a610f37565b6040518082815260200191505060405180910390f35b610248610f3d565b6040518082815260200191505060405180910390f35b6102a06004803603602081101561027457600080fd5b81019080803573ffffffffffffffffffffffffffffffffffffffff169060200190929190505050610f43565b6040518080602001806020018660ff1660ff1681526020018573ffffffffffffffffffffffffffffffffffffffff1673ffffffffffffffffffffffffffffffffffffffff168152602001848152602001838103835288818151815260200191508051906020019080838360005b8381101561032857808201518184015260208101905061030d565b50505050905090810190601f1680156103555780820380516001836020036101000a031916815260200191505b50838103825287818151815260200191508051906020019080838360005b8381101561038e578082015181840152602081019050610373565b50505050905090810190601f1680156103bb5780820380516001836020036101000a031916815260200191505b5097505050505050505060405180910390f35b6103d661126f565b005b610404600480360360208110156103ee57600080fd5b810190808035906020019092919050505061135b565b6040518082815260200191505060405180910390f35b6104466004803603602081101561043057600080fd5b810190808035906020019092919050505061137c565b604051808373ffffffffffffffffffffffffffffffffffffffff1673ffffffffffffffffffffffffffffffffffffffff1681526020018273ffffffffffffffffffffffffffffffffffffffff1673ffffffffffffffffffffffffffffffffffffffff1681526020019250505060405180910390f35b6104c36113e0565b005b6104cd6114e3565b6040518080602001828103825283818151815260200191508051906020019080838360005b8381101561050d5780820151818401526020810190506104f2565b50505050905090810190601f16801561053a5780820380516001836020036101000a031916815260200191505b509250505060405180910390f35b6105766004803603602081101561055e57600080fd5b81019080803515159060200190929190505050611581565b005b6105806115f8565b604051808215151515815260200191505060405180910390f35b6105a261160b565b604051808273ffffffffffffffffffffffffffffffffffffffff1673ffffffffffffffffffffffffffffffffffffffff16815260200191505060405180910390f35b6105ec611631565b604051808215151515815260200191505060405180910390f35b61060e61178d565b604051808273ffffffffffffffffffffffffffffffffffffffff1673ffffffffffffffffffffffffffffffffffffffff16815260200191505060405180910390f35b6106926004803603602081101561066657600080fd5b81019080803573ffffffffffffffffffffffffffffffffffffffff1690602001909291905050506117b3565b604051808215151515815260200191505060405180910390f35b6106b461195a565b005b610718600480360360408110156106cc57600080fd5b81019080803573ffffffffffffffffffffffffffffffffffffffff169060200190929190803573ffffffffffffffffffffffffffffffffffffffff169060200190929190505050611aa1565b6040518082815260200191505060405180910390f35b610736611b63565b6040518080602001828103825283818151815260200191508051906020019080838360005b8381101561077657808201518184015260208101905061075b565b50505050905090810190601f1680156107a35780820380516001836020036101000a031916815260200191505b509250505060405180910390f35b6107b9611c01565b604051808273ffffffffffffffffffffffffffffffffffffffff1673ffffffffffffffffffffffffffffffffffffffff16815260200191505060405180910390f35b610803611c27565b604051808273ffffffffffffffffffffffffffffffffffffffff1673ffffffffffffffffffffffffffffffffffffffff16815260200191505060405180910390f35b6108876004803603602081101561085b57600080fd5b81019080803573ffffffffffffffffffffffffffffffffffffffff169060200190929190505050611c4d565b6040518082815260200191505060405180910390f35b6108df600480360360208110156108b357600080fd5b81019080803573ffffffffffffffffffffffffffffffffffffffff169060200190929190505050611c9e565b6040518082815260200191505060405180910390f35b6109576004803603604081101561090b57600080fd5b81019080803573ffffffffffffffffffffffffffffffffffffffff169060200190929190803573ffffffffffffffffffffffffffffffffffffffff169060200190929190505050611ddc565b005b61099b6004803603602081101561096f57600080fd5b81019080803573ffffffffffffffffffffffffffffffffffffffff169060200190929190505050611f2f565b604051808381526020018281526020019250505060405180910390f35b6109c0611f53565b6040518082815260200191505060405180910390f35b6109de611f59565b6040518082815260200191505060405180910390f35b610a4260048036036040811015610a0a57600080fd5b81019080803573ffffffffffffffffffffffffffffffffffffffff169060200190929190803515159060200190929190505050611f5f565b005b610a4c612085565b6040518082815260200191505060405180910390f35b610a6a61208b565b604051808273ffffffffffffffffffffffffffffffffffffffff1673ffffffffffffffffffffffffffffffffffffffff16815260200191505060405180910390f35b610af860048036036040811015610ac257600080fd5b81019080803573ffffffffffffffffffffffffffffffffffffffff169060200190929190803590602001909291905050506120b1565b6040518082815260200191505060405180910390f35b6007544211610b85576040517f08c379a00000000000000000000000000000000000000000000000000000000081526004018080602001828103825260108152602001807f566f7465206973206e6f74206f70656e0000000000000000000000000000000081525060200191505060405180910390fd5b6008544210610bfc576040517f08c379a00000000000000000000000000000000000000000000000000000000081526004018080602001828103825260128152602001807f566f74696e67206861732065787069726564000000000000000000000000000081525060200191505060405180910390fd5b6000601060003373ffffffffffffffffffffffffffffffffffffffff1673ffffffffffffffffffffffffffffffffffffffff1681526020019081526020016000206001015414610cb4576040517f08c379a000000000000000000000000000000000000000000000000000000000815260040180806020018281038252600d8152602001807f416c726561647920766f7465640000000000000000000000000000000000000081525060200191505060405180910390fd5b6000610cbf33611c9e565b11610d32576040517f08c379a00000000000000000000000000000000000000000000000000000000081526004018080602001828103825260158152602001807f4f6e6c7920686f6c646572732063616e20766f7465000000000000000000000081525060200191505060405180910390fd5b600c8054905081108015610d47575060008110155b610db9576040517f08c379a00000000000000000000000000000000000000000000000000000000081526004018080602001828103825260138152602001807f496e76616c696420766f74652063686f6963650000000000000000000000000081525060200191505060405180910390fd5b6000610dc433611c9e565b9050604051806040016040528083815260200142815250601060003373ffffffffffffffffffffffffffffffffffffffff1673ffffffffffffffffffffffffffffffffffffffff168152602001908152602001600020600082015181600001556020820151816001015590505080600c8381548110610e3f57fe5b906000526020600020015401600c8381548110610e5857fe5b906000526020600020018190555080600b5401600b81905550610e7a336124c5565b3373ffffffffffffffffffffffffffffffffffffffff167f4173497bdf60b458d277679ffd98f8f14cdb8d7ee725c3b779c9d721746c07ed8342604051808381526020018281526020019250505060405180910390a25050565b600360009054906101000a900473ffffffffffffffffffffffffffffffffffffffff1673ffffffffffffffffffffffffffffffffffffffff163373ffffffffffffffffffffffffffffffffffffffff1614610f2e57600080fd5b42600881905550565b600b5481565b600a5481565b60608060008060008573ffffffffffffffffffffffffffffffffffffffff166306fdde036040518163ffffffff1660e01b815260040160006040518083038186803b158015610f9157600080fd5b505afa158015610fa5573d6000803e3d6000fd5b505050506040513d6000823e3d601f19601f820116820180604052506020811015610fcf57600080fd5b8101908080516040519392919084640100000000821115610fef57600080fd5b8382019150602082018581111561100557600080fd5b825186600182028301116401000000008211171561102257600080fd5b8083526020830192505050908051906020019080838360005b8381101561105657808201518184015260208101905061103b565b50505050905090810190601f1680156110835780820380516001836020036101000a031916815260200191505b506040525050508673ffffffffffffffffffffffffffffffffffffffff166395d89b416040518163ffffffff1660e01b815260040160006040518083038186803b1580156110d057600080fd5b505afa1580156110e4573d6000803e3d6000fd5b505050506040513d6000823e3d601f19601f82011682018060405250602081101561110e57600080fd5b810190808051604051939291908464010000000082111561112e57600080fd5b8382019150602082018581111561114457600080fd5b825186600182028301116401000000008211171561116157600080fd5b8083526020830192505050908051906020019080838360005b8381101561119557808201518184015260208101905061117a565b50505050905090810190601f1680156111c25780820380516001836020036101000a031916815260200191505b506040525050508773ffffffffffffffffffffffffffffffffffffffff1663313ce5676040518163ffffffff1660e01b815260040160206040518083038186803b15801561120f57600080fd5b505afa158015611223573d6000803e3d6000fd5b505050506040513d602081101561123957600080fd5b810190808051906020019092919050505061125389612692565b61125c8a611c4d565b9450945094509450945091939590929450565b6001151560008061127e6127e2565b73ffffffffffffffffffffffffffffffffffffffff1673ffffffffffffffffffffffffffffffffffffffff16815260200190815260200160002060009054906101000a900460ff1615151461133b576040517f08c379a000000000000000000000000000000000000000000000000000000000815260040180806020018281038252600b8152602001807f6f6e6c79416c6c6f77656400000000000000000000000000000000000000000081525060200191505060405180910390fd5b6113436127e2565b73ffffffffffffffffffffffffffffffffffffffff16ff5b600c818154811061136857fe5b906000526020600020016000915090505481565b60116020528060005260406000206000915090508060000160009054906101000a900473ffffffffffffffffffffffffffffffffffffffff16908060010160009054906101000a900473ffffffffffffffffffffffffffffffffffffffff16905082565b4260085410611457576040517f08c379a00000000000000000000000000000000000000000000000000000000081526004018080602001828103825260148152602001807f566f74696e67207374696c6c206f6e676f696e6700000000000000000000000081525060200191505060405180910390fd5b600960009054906101000a900460ff16156114bd576040517f08c379a00000000000000000000000000000000000000000000000000000000081526004018080602001828103825260288152602001806133a96028913960400191505060405180910390fd5b6001600960006101000a81548160ff0219169083151502179055506114e0611631565b50565b60048054600181600116156101000203166002900480601f0160208091040260200160405190810160405280929190818152602001828054600181600116156101000203166002900480156115795780601f1061154e57610100808354040283529160200191611579565b820191906000526020600020905b81548152906001019060200180831161155c57829003601f168201915b505050505081565b600360009054906101000a900473ffffffffffffffffffffffffffffffffffffffff1673ffffffffffffffffffffffffffffffffffffffff163373ffffffffffffffffffffffffffffffffffffffff16146115db57600080fd5b80600960006101000a81548160ff02191690831515021790555050565b600960009054906101000a900460ff1681565b600160009054906101000a900473ffffffffffffffffffffffffffffffffffffffff1681565b600080600061163e6127ea565b90506000811415611652576000915061166a565b600181141561166457600a9150611669565b603291505b5b600560009054906101000a900473ffffffffffffffffffffffffffffffffffffffff1673ffffffffffffffffffffffffffffffffffffffff1663affca932836040518263ffffffff1660e01b815260040180828152602001915050600060405180830381600087803b1580156116df57600080fd5b505af11580156116f3573d6000803e3d6000fd5b50505050600560009054906101000a900473ffffffffffffffffffffffffffffffffffffffff1673ffffffffffffffffffffffffffffffffffffffff166356851060836040518263ffffffff1660e01b815260040180828152602001915050600060405180830381600087803b15801561176c57600080fd5b505af1158015611780573d6000803e3d6000fd5b5050505060019250505090565b600260009054906101000a900473ffffffffffffffffffffffffffffffffffffffff1681565b6000600115156000806117c46127e2565b73ffffffffffffffffffffffffffffffffffffffff1673ffffffffffffffffffffffffffffffffffffffff16815260200190815260200160002060009054906101000a900460ff16151514611881576040517f08c379a000000000000000000000000000000000000000000000000000000000815260040180806020018281038252600b8152602001807f6f6e6c79416c6c6f77656400000000000000000000000000000000000000000081525060200191505060405180910390fd5b60008273ffffffffffffffffffffffffffffffffffffffff166370a08231306040518263ffffffff1660e01b8152600401808273ffffffffffffffffffffffffffffffffffffffff1673ffffffffffffffffffffffffffffffffffffffff16815260200191505060206040518083038186803b15801561190057600080fd5b505afa158015611914573d6000803e3d6000fd5b505050506040513d602081101561192a57600080fd5b8101908080519060200190929190505050905061194f6119486127e2565b8483612857565b506001915050919050565b600360009054906101000a900473ffffffffffffffffffffffffffffffffffffffff1673ffffffffffffffffffffffffffffffffffffffff163373ffffffffffffffffffffffffffffffffffffffff16146119b457600080fd5b6000600f5411611a2c576040517f08c379a000000000000000000000000000000000000000000000000000000000815260040180806020018281038252600f8152602001807f4e6f7468696e6720746f20706f7021000000000000000000000000000000000081525060200191505060405180910390fd5b60116000600f60008154600190039190508190558152602001908152602001600020600080820160006101000a81549073ffffffffffffffffffffffffffffffffffffffff02191690556001820160006101000a81549073ffffffffffffffffffffffffffffffffffffffff02191690555050565b60008173ffffffffffffffffffffffffffffffffffffffff1663beaa369a846040518263ffffffff1660e01b8152600401808273ffffffffffffffffffffffffffffffffffffffff1673ffffffffffffffffffffffffffffffffffffffff16815260200191505060206040518083038186803b158015611b2057600080fd5b505afa158015611b34573d6000803e3d6000fd5b505050506040513d6020811015611b4a57600080fd5b8101908080519060200190929190505050905092915050565b60068054600181600116156101000203166002900480601f016020809104026020016040519081016040528092919081815260200182805460018160011615610100020316600290048015611bf95780601f10611bce57610100808354040283529160200191611bf9565b820191906000526020600020905b815481529060010190602001808311611bdc57829003601f168201915b505050505081565b600360009054906101000a900473ffffffffffffffffffffffffffffffffffffffff1681565b600560009054906101000a900473ffffffffffffffffffffffffffffffffffffffff1681565b600080600080611c5c85612927565b8093508194505050611c6d85612e61565b9050611c9482611c868386612f7990919063ffffffff16565b612fff90919063ffffffff16565b9350505050919050565b6000806000905060008090505b600f54811015611dd257611cbd613362565b601160008381526020019081526020016000206040518060400160405290816000820160009054906101000a900473ffffffffffffffffffffffffffffffffffffffff1673ffffffffffffffffffffffffffffffffffffffff1673ffffffffffffffffffffffffffffffffffffffff1681526020016001820160009054906101000a900473ffffffffffffffffffffffffffffffffffffffff1673ffffffffffffffffffffffffffffffffffffffff1673ffffffffffffffffffffffffffffffffffffffff168152505090506000611d99868360000151611aa1565b9050611da88260200151613049565b15611dbe57611dbb8260200151826120b1565b90505b808401935050508080600101915050611cab565b5080915050919050565b600360009054906101000a900473ffffffffffffffffffffffffffffffffffffffff1673ffffffffffffffffffffffffffffffffffffffff163373ffffffffffffffffffffffffffffffffffffffff1614611e3657600080fd5b60405180604001604052808373ffffffffffffffffffffffffffffffffffffffff1681526020018273ffffffffffffffffffffffffffffffffffffffff1681525060116000600f600081548092919060010191905055815260200190815260200160002060008201518160000160006101000a81548173ffffffffffffffffffffffffffffffffffffffff021916908373ffffffffffffffffffffffffffffffffffffffff16021790555060208201518160010160006101000a81548173ffffffffffffffffffffffffffffffffffffffff021916908373ffffffffffffffffffffffffffffffffffffffff1602179055509050505050565b60106020528060005260406000206000915090508060000154908060010154905082565b60085481565b60075481565b60011515600080611f6e6127e2565b73ffffffffffffffffffffffffffffffffffffffff1673ffffffffffffffffffffffffffffffffffffffff16815260200190815260200160002060009054906101000a900460ff1615151461202b576040517f08c379a000000000000000000000000000000000000000000000000000000000815260040180806020018281038252600b8152602001807f6f6e6c79416c6c6f77656400000000000000000000000000000000000000000081525060200191505060405180910390fd5b806000808473ffffffffffffffffffffffffffffffffffffffff1673ffffffffffffffffffffffffffffffffffffffff16815260200190815260200160002060006101000a81548160ff0219169083151502179055505050565b600e5481565b600d60009054906101000a900473ffffffffffffffffffffffffffffffffffffffff1681565b60008060008060008673ffffffffffffffffffffffffffffffffffffffff16630dfe16816040518163ffffffff1660e01b815260040160206040518083038186803b1580156120ff57600080fd5b505afa158015612113573d6000803e3d6000fd5b505050506040513d602081101561212957600080fd5b8101908080519060200190929190505050905060008773ffffffffffffffffffffffffffffffffffffffff1663d21220a76040518163ffffffff1660e01b815260040160206040518083038186803b15801561218457600080fd5b505afa158015612198573d6000803e3d6000fd5b505050506040513d60208110156121ae57600080fd5b81019080805190602001909291905050509050600260009054906101000a900473ffffffffffffffffffffffffffffffffffffffff1673ffffffffffffffffffffffffffffffffffffffff168273ffffffffffffffffffffffffffffffffffffffff1614156122c5578773ffffffffffffffffffffffffffffffffffffffff16630902f1ac6040518163ffffffff1660e01b815260040160606040518083038186803b15801561225d57600080fd5b505afa158015612271573d6000803e3d6000fd5b505050506040513d606081101561228757600080fd5b810190808051906020019092919080519060200190929190805190602001909291905050505080965081955050506122be81611c4d565b925061236f565b8773ffffffffffffffffffffffffffffffffffffffff16630902f1ac6040518163ffffffff1660e01b815260040160606040518083038186803b15801561230b57600080fd5b505afa15801561231f573d6000803e3d6000fd5b505050506040513d606081101561233557600080fd5b8101908080519060200190929190805190602001909291908051906020019092919050505050809550819650505061236c82611c4d565b92505b60006123ae670de0b6b3a76400006123a086886dffffffffffffffffffffffffffff16612f7990919063ffffffff16565b612fff90919063ffffffff16565b905060008973ffffffffffffffffffffffffffffffffffffffff166318160ddd6040518163ffffffff1660e01b815260040160206040518083038186803b1580156123f857600080fd5b505afa15801561240c573d6000803e3d6000fd5b505050506040513d602081101561242257600080fd5b81019080805190602001909291905050509050600061248682612478670de0b6b3a764000061246a8c6dffffffffffffffffffffffffffff168861321490919063ffffffff16565b612f7990919063ffffffff16565b612fff90919063ffffffff16565b90506124b5670de0b6b3a76400006124a7838d612f7990919063ffffffff16565b612fff90919063ffffffff16565b9850505050505050505092915050565b600e54600d60009054906101000a900473ffffffffffffffffffffffffffffffffffffffff1673ffffffffffffffffffffffffffffffffffffffff166370a08231306040518263ffffffff1660e01b8152600401808273ffffffffffffffffffffffffffffffffffffffff1673ffffffffffffffffffffffffffffffffffffffff16815260200191505060206040518083038186803b15801561256757600080fd5b505afa15801561257b573d6000803e3d6000fd5b505050506040513d602081101561259157600080fd5b81019080805190602001909291905050501061268f57600d60009054906101000a900473ffffffffffffffffffffffffffffffffffffffff1673ffffffffffffffffffffffffffffffffffffffff1663a9059cbb82600e546040518363ffffffff1660e01b8152600401808373ffffffffffffffffffffffffffffffffffffffff1673ffffffffffffffffffffffffffffffffffffffff16815260200182815260200192505050602060405180830381600087803b15801561265257600080fd5b505af1158015612666573d6000803e3d6000fd5b505050506040513d602081101561267c57600080fd5b8101908080519060200190929190505050505b50565b600061269d82613049565b156126aa578190506127dd565b600160009054906101000a900473ffffffffffffffffffffffffffffffffffffffff1673ffffffffffffffffffffffffffffffffffffffff1663e6a4390583600260009054906101000a900473ffffffffffffffffffffffffffffffffffffffff166040518363ffffffff1660e01b8152600401808373ffffffffffffffffffffffffffffffffffffffff1673ffffffffffffffffffffffffffffffffffffffff1681526020018273ffffffffffffffffffffffffffffffffffffffff1673ffffffffffffffffffffffffffffffffffffffff1681526020019250505060206040518083038186803b15801561279f57600080fd5b505afa1580156127b3573d6000803e3d6000fd5b505050506040513d60208110156127c957600080fd5b810190808051906020019092919050505090505b919050565b600033905090565b600080600080905060008090505b600c8054905081101561284e5781600c828154811061281357fe5b90600052602060002001541061284157809250600c818154811061283357fe5b906000526020600020015491505b80806001019150506127f8565b50819250505090565b60008273ffffffffffffffffffffffffffffffffffffffff1663a9059cbb85846040518363ffffffff1660e01b8152600401808373ffffffffffffffffffffffffffffffffffffffff1673ffffffffffffffffffffffffffffffffffffffff16815260200182815260200192505050602060405180830381600087803b1580156128e057600080fd5b505af11580156128f4573d6000803e3d6000fd5b505050506040513d602081101561290a57600080fd5b810190808051906020019092919050505050600190509392505050565b600080600080600061293886613049565b15612c09578573ffffffffffffffffffffffffffffffffffffffff16630dfe16816040518163ffffffff1660e01b815260040160206040518083038186803b15801561298357600080fd5b505afa158015612997573d6000803e3d6000fd5b505050506040513d60208110156129ad57600080fd5b81019080805190602001909291905050509250600260009054906101000a900473ffffffffffffffffffffffffffffffffffffffff1673ffffffffffffffffffffffffffffffffffffffff168373ffffffffffffffffffffffffffffffffffffffff161415612ab9578573ffffffffffffffffffffffffffffffffffffffff16630902f1ac6040518163ffffffff1660e01b815260040160606040518083038186803b158015612a5c57600080fd5b505afa158015612a70573d6000803e3d6000fd5b505050506040513d6060811015612a8657600080fd5b81019080805190602001909291908051906020019092919080519060200190929190505050508093508192505050612b58565b8573ffffffffffffffffffffffffffffffffffffffff16630902f1ac6040518163ffffffff1660e01b815260040160606040518083038186803b158015612aff57600080fd5b505afa158015612b13573d6000803e3d6000fd5b505050506040513d6060811015612b2957600080fd5b810190808051906020019092919080519060200190929190805190602001909291905050505080925081935050505b612b7c6002826dffffffffffffffffffffffffffff16612f7990919063ffffffff16565b8673ffffffffffffffffffffffffffffffffffffffff166318160ddd6040518163ffffffff1660e01b815260040160206040518083038186803b158015612bc257600080fd5b505afa158015612bd6573d6000803e3d6000fd5b505050506040513d6020811015612bec57600080fd5b810190808051906020019092919050505094509450505050612e5c565b6000612c1487612692565b90508073ffffffffffffffffffffffffffffffffffffffff16630dfe16816040518163ffffffff1660e01b815260040160206040518083038186803b158015612c5c57600080fd5b505afa158015612c70573d6000803e3d6000fd5b505050506040513d6020811015612c8657600080fd5b81019080805190602001909291905050509350600260009054906101000a900473ffffffffffffffffffffffffffffffffffffffff1673ffffffffffffffffffffffffffffffffffffffff168473ffffffffffffffffffffffffffffffffffffffff161415612d92578073ffffffffffffffffffffffffffffffffffffffff16630902f1ac6040518163ffffffff1660e01b815260040160606040518083038186803b158015612d3557600080fd5b505afa158015612d49573d6000803e3d6000fd5b505050506040513d6060811015612d5f57600080fd5b81019080805190602001909291908051906020019092919080519060200190929190505050508094508193505050612e31565b8073ffffffffffffffffffffffffffffffffffffffff16630902f1ac6040518163ffffffff1660e01b815260040160606040518083038186803b158015612dd857600080fd5b505afa158015612dec573d6000803e3d6000fd5b505050506040513d6060811015612e0257600080fd5b810190808051906020019092919080519060200190929190805190602001909291905050505080935081945050505b826dffffffffffffffffffffffffffff16826dffffffffffffffffffffffffffff1695509550505050505b915091565b6000808273ffffffffffffffffffffffffffffffffffffffff1663313ce5676040518163ffffffff1660e01b815260040160206040518083038186803b158015612eaa57600080fd5b505afa158015612ebe573d6000803e3d6000fd5b505050506040513d6020811015612ed457600080fd5b8101908080519060200190929190505050905060128160ff161115612f61576040517f08c379a000000000000000000000000000000000000000000000000000000000815260040180806020018281038252601c8152602001807f4f766572466c6f77207269736b2c206e6f7420737570706f727465640000000081525060200191505060405180910390fd5b60008160ff16602403905080600a0a92505050919050565b600080831415612f8c5760009050612ff9565b6000828402905082848281612f9d57fe5b0414612ff4576040517f08c379a00000000000000000000000000000000000000000000000000000000081526004018080602001828103825260218152602001806133d16021913960400191505060405180910390fd5b809150505b92915050565b600061304183836040518060400160405280601a81526020017f536166654d6174683a206469766973696f6e206279207a65726f00000000000081525061329c565b905092915050565b6000600460405180828054600181600116156101000203166002900480156130a85780601f106130865761010080835404028352918201916130a8565b820191906000526020600020905b815481529060010190602001808311613094575b505091505060405180910390208273ffffffffffffffffffffffffffffffffffffffff166395d89b416040518163ffffffff1660e01b815260040160006040518083038186803b1580156130fb57600080fd5b505afa15801561310f573d6000803e3d6000fd5b505050506040513d6000823e3d601f19601f82011682018060405250602081101561313957600080fd5b810190808051604051939291908464010000000082111561315957600080fd5b8382019150602082018581111561316f57600080fd5b825186600182028301116401000000008211171561318c57600080fd5b8083526020830192505050908051906020019080838360005b838110156131c05780820151818401526020810190506131a5565b50505050905090810190601f1680156131ed5780820380516001836020036101000a031916815260200191505b5060405250505080519060200120141561320a576001905061320f565b600090505b919050565b600080828401905083811015613292576040517f08c379a000000000000000000000000000000000000000000000000000000000815260040180806020018281038252601b8152602001807f536166654d6174683a206164646974696f6e206f766572666c6f77000000000081525060200191505060405180910390fd5b8091505092915050565b60008083118290613348576040517f08c379a00000000000000000000000000000000000000000000000000000000081526004018080602001828103825283818151815260200191508051906020019080838360005b8381101561330d5780820151818401526020810190506132f2565b50505050905090810190601f16801561333a5780820380516001836020036101000a031916815260200191505b509250505060405180910390fd5b50600083858161335457fe5b049050809150509392505050565b6040518060400160405280600073ffffffffffffffffffffffffffffffffffffffff168152602001600073ffffffffffffffffffffffffffffffffffffffff168152509056fe566f7465206465636973696f6e2068617320616c7265616479206265656e20616374697661746564536166654d6174683a206d756c7469706c69636174696f6e206f766572666c6f77a26469706673582212205ed5bd31ddb6a74d6d531950959f07cc25f8fe8db86f4064c94907a3cab8d42f64736f6c63430006060033",
  "immutableReferences": {},
  "source": "pragma solidity ^0.6.0;\n\nimport \"../_Vote.sol\";\n\n// contract must be given governor rights\n\ncontract FeeBurnRateVote is _Vote {\n  constructor (\n      address _DeFiat_Gov,\n      address _rewardToken,\n      address _uniFactoryAddress,\n      address _wethAddress\n  ) public \n    _Vote(\n        _DeFiat_Gov,\n        0, // no delay\n        96, // 4 days\n        \"Fee Burn Rate Vote\",\n        3, // 3 choices\n        0,\n        _rewardToken, \n        5 * 1e18,\n        _uniFactoryAddress,\n        _wethAddress\n    )\n  {\n  }\n\n  function proposalAction() public override returns (bool) {\n    uint256 newRate;\n\n    uint winningChoice = getWinningChoice();\n    if (winningChoice == 0) {\n      newRate = 0;\n    } else if (winningChoice == 1) {\n      newRate = 10;\n    } else {\n      newRate = 50;\n    }\n\n    IDeFiat_Gov(DeFiat_Gov).changeFeeRate(newRate);\n    IDeFiat_Gov(DeFiat_Gov).changeBurnRate(newRate);\n\n    return true;\n  }\n}",
  "sourcePath": "/Users/noahcoomer/source/defiat/contracts/proposals/FeeBurnRateVote.sol",
  "compiler": {
    "name": "solc",
    "version": "0.6.6+commit.6c089d02.Emscripten.clang"
  },
  "schemaVersion": "3.2.3",
  "updatedAt": "2020-10-01T08:21:20.839Z",
  "devdoc": {
    "methods": {}
  },
  "userdoc": {
    "methods": {}
  }
}