{
  "contractName": "Uni_Price_v2",
  "abi": [
    {
      "inputs": [
        {
          "internalType": "address",
          "name": "_UNIfactory",
          "type": "address"
        },
        {
          "internalType": "address",
          "name": "_wETHaddress",
          "type": "address"
        }
      ],
      "stateMutability": "nonpayable",
      "type": "constructor"
    },
    {
      "inputs": [],
      "name": "UNIfactory",
      "outputs": [
        {
          "internalType": "address",
          "name": "",
          "type": "address"
        }
      ],
      "stateMutability": "view",
      "type": "function"
    },
    {
      "inputs": [],
      "name": "kill",
      "outputs": [],
      "stateMutability": "nonpayable",
      "type": "function"
    },
    {
      "inputs": [
        {
          "internalType": "address",
          "name": "_address",
          "type": "address"
        },
        {
          "internalType": "bool",
          "name": "_bool",
          "type": "bool"
        }
      ],
      "name": "manageAllowed",
      "outputs": [],
      "stateMutability": "nonpayable",
      "type": "function"
    },
    {
      "inputs": [],
      "name": "owner",
      "outputs": [
        {
          "internalType": "address",
          "name": "",
          "type": "address"
        }
      ],
      "stateMutability": "view",
      "type": "function"
    },
    {
      "inputs": [],
      "name": "wETHaddress",
      "outputs": [
        {
          "internalType": "address",
          "name": "",
          "type": "address"
        }
      ],
      "stateMutability": "view",
      "type": "function"
    },
    {
      "inputs": [
        {
          "internalType": "address",
          "name": "_token",
          "type": "address"
        }
      ],
      "name": "withdrawAnyToken",
      "outputs": [
        {
          "internalType": "bool",
          "name": "",
          "type": "bool"
        }
      ],
      "stateMutability": "nonpayable",
      "type": "function"
    },
    {
      "inputs": [
        {
          "internalType": "address",
          "name": "_token",
          "type": "address"
        }
      ],
      "name": "getUniPrice",
      "outputs": [
        {
          "internalType": "uint256",
          "name": "",
          "type": "uint256"
        }
      ],
      "stateMutability": "view",
      "type": "function"
    },
    {
      "inputs": [
        {
          "internalType": "address",
          "name": "_token",
          "type": "address"
        }
      ],
      "name": "getTokenInfo",
      "outputs": [
        {
          "internalType": "string",
          "name": "name",
          "type": "string"
        },
        {
          "internalType": "string",
          "name": "symbol",
          "type": "string"
        },
        {
          "internalType": "uint8",
          "name": "decimals",
          "type": "uint8"
        },
        {
          "internalType": "address",
          "name": "uniPair",
          "type": "address"
        },
        {
          "internalType": "uint256",
          "name": "tokensPerETH",
          "type": "uint256"
        }
      ],
      "stateMutability": "view",
      "type": "function"
    }
  ],
  "bytecode": "0x608060405234801561001057600080fd5b5060405161195a38038061195a8339818101604052604081101561003357600080fd5b81019080805190602001909291908051906020019092919050505033600360006101000a81548173ffffffffffffffffffffffffffffffffffffffff021916908373ffffffffffffffffffffffffffffffffffffffff16021790555081600160006101000a81548173ffffffffffffffffffffffffffffffffffffffff021916908373ffffffffffffffffffffffffffffffffffffffff16021790555080600260006101000a81548173ffffffffffffffffffffffffffffffffffffffff021916908373ffffffffffffffffffffffffffffffffffffffff1602179055505050611838806101226000396000f3fe608060405234801561001057600080fd5b50600436106100885760003560e01c80637892766c1161005b5780637892766c1461029b5780638da5cb5b146102f7578063939acd8814610341578063ec0b08001461039957610088565b80631f69565f1461008d57806341c0e1b5146101fd57806367b52f54146102075780636ffc7cf114610251575b600080fd5b6100cf600480360360208110156100a357600080fd5b81019080803573ffffffffffffffffffffffffffffffffffffffff1690602001909291905050506103e9565b6040518080602001806020018660ff1660ff1681526020018573ffffffffffffffffffffffffffffffffffffffff1673ffffffffffffffffffffffffffffffffffffffff168152602001848152602001838103835288818151815260200191508051906020019080838360005b8381101561015757808201518184015260208101905061013c565b50505050905090810190601f1680156101845780820380516001836020036101000a031916815260200191505b50838103825287818151815260200191508051906020019080838360005b838110156101bd5780820151818401526020810190506101a2565b50505050905090810190601f1680156101ea5780820380516001836020036101000a031916815260200191505b5097505050505050505060405180910390f35b610205610715565b005b61020f610801565b604051808273ffffffffffffffffffffffffffffffffffffffff1673ffffffffffffffffffffffffffffffffffffffff16815260200191505060405180910390f35b610259610827565b604051808273ffffffffffffffffffffffffffffffffffffffff1673ffffffffffffffffffffffffffffffffffffffff16815260200191505060405180910390f35b6102dd600480360360208110156102b157600080fd5b81019080803573ffffffffffffffffffffffffffffffffffffffff16906020019092919050505061084d565b604051808215151515815260200191505060405180910390f35b6102ff6109f4565b604051808273ffffffffffffffffffffffffffffffffffffffff1673ffffffffffffffffffffffffffffffffffffffff16815260200191505060405180910390f35b6103836004803603602081101561035757600080fd5b81019080803573ffffffffffffffffffffffffffffffffffffffff169060200190929190505050610a1a565b6040518082815260200191505060405180910390f35b6103e7600480360360408110156103af57600080fd5b81019080803573ffffffffffffffffffffffffffffffffffffffff169060200190929190803515159060200190929190505050610a6b565b005b60608060008060008573ffffffffffffffffffffffffffffffffffffffff166306fdde036040518163ffffffff1660e01b815260040160006040518083038186803b15801561043757600080fd5b505afa15801561044b573d6000803e3d6000fd5b505050506040513d6000823e3d601f19601f82011682018060405250602081101561047557600080fd5b810190808051604051939291908464010000000082111561049557600080fd5b838201915060208201858111156104ab57600080fd5b82518660018202830111640100000000821117156104c857600080fd5b8083526020830192505050908051906020019080838360005b838110156104fc5780820151818401526020810190506104e1565b50505050905090810190601f1680156105295780820380516001836020036101000a031916815260200191505b506040525050508673ffffffffffffffffffffffffffffffffffffffff166395d89b416040518163ffffffff1660e01b815260040160006040518083038186803b15801561057657600080fd5b505afa15801561058a573d6000803e3d6000fd5b505050506040513d6000823e3d601f19601f8201168201806040525060208110156105b457600080fd5b81019080805160405193929190846401000000008211156105d457600080fd5b838201915060208201858111156105ea57600080fd5b825186600182028301116401000000008211171561060757600080fd5b8083526020830192505050908051906020019080838360005b8381101561063b578082015181840152602081019050610620565b50505050905090810190601f1680156106685780820380516001836020036101000a031916815260200191505b506040525050508773ffffffffffffffffffffffffffffffffffffffff1663313ce5676040518163ffffffff1660e01b815260040160206040518083038186803b1580156106b557600080fd5b505afa1580156106c9573d6000803e3d6000fd5b505050506040513d60208110156106df57600080fd5b81019080805190602001909291905050506106f989610b91565b6107028a610a1a565b9450945094509450945091939590929450565b60011515600080610724610cca565b73ffffffffffffffffffffffffffffffffffffffff1673ffffffffffffffffffffffffffffffffffffffff16815260200190815260200160002060009054906101000a900460ff161515146107e1576040517f08c379a000000000000000000000000000000000000000000000000000000000815260040180806020018281038252600b8152602001807f6f6e6c79416c6c6f77656400000000000000000000000000000000000000000081525060200191505060405180910390fd5b6107e9610cca565b73ffffffffffffffffffffffffffffffffffffffff16ff5b600160009054906101000a900473ffffffffffffffffffffffffffffffffffffffff1681565b600260009054906101000a900473ffffffffffffffffffffffffffffffffffffffff1681565b60006001151560008061085e610cca565b73ffffffffffffffffffffffffffffffffffffffff1673ffffffffffffffffffffffffffffffffffffffff16815260200190815260200160002060009054906101000a900460ff1615151461091b576040517f08c379a000000000000000000000000000000000000000000000000000000000815260040180806020018281038252600b8152602001807f6f6e6c79416c6c6f77656400000000000000000000000000000000000000000081525060200191505060405180910390fd5b60008273ffffffffffffffffffffffffffffffffffffffff166370a08231306040518263ffffffff1660e01b8152600401808273ffffffffffffffffffffffffffffffffffffffff1673ffffffffffffffffffffffffffffffffffffffff16815260200191505060206040518083038186803b15801561099a57600080fd5b505afa1580156109ae573d6000803e3d6000fd5b505050506040513d60208110156109c457600080fd5b810190808051906020019092919050505090506109e96109e2610cca565b8483610cd2565b506001915050919050565b600360009054906101000a900473ffffffffffffffffffffffffffffffffffffffff1681565b600080600080610a2985610da2565b8093508194505050610a3a85611533565b9050610a6182610a53838661164b90919063ffffffff16565b6116d190919063ffffffff16565b9350505050919050565b60011515600080610a7a610cca565b73ffffffffffffffffffffffffffffffffffffffff1673ffffffffffffffffffffffffffffffffffffffff16815260200190815260200160002060009054906101000a900460ff16151514610b37576040517f08c379a000000000000000000000000000000000000000000000000000000000815260040180806020018281038252600b8152602001807f6f6e6c79416c6c6f77656400000000000000000000000000000000000000000081525060200191505060405180910390fd5b806000808473ffffffffffffffffffffffffffffffffffffffff1673ffffffffffffffffffffffffffffffffffffffff16815260200190815260200160002060006101000a81548160ff0219169083151502179055505050565b6000600160009054906101000a900473ffffffffffffffffffffffffffffffffffffffff1673ffffffffffffffffffffffffffffffffffffffff1663e6a4390583600260009054906101000a900473ffffffffffffffffffffffffffffffffffffffff166040518363ffffffff1660e01b8152600401808373ffffffffffffffffffffffffffffffffffffffff1673ffffffffffffffffffffffffffffffffffffffff1681526020018273ffffffffffffffffffffffffffffffffffffffff1673ffffffffffffffffffffffffffffffffffffffff1681526020019250505060206040518083038186803b158015610c8857600080fd5b505afa158015610c9c573d6000803e3d6000fd5b505050506040513d6020811015610cb257600080fd5b81019080805190602001909291905050509050919050565b600033905090565b60008273ffffffffffffffffffffffffffffffffffffffff1663a9059cbb85846040518363ffffffff1660e01b8152600401808373ffffffffffffffffffffffffffffffffffffffff1673ffffffffffffffffffffffffffffffffffffffff16815260200182815260200192505050602060405180830381600087803b158015610d5b57600080fd5b505af1158015610d6f573d6000803e3d6000fd5b505050506040513d6020811015610d8557600080fd5b810190808051906020019092919050505050600190509392505050565b600080600160009054906101000a900473ffffffffffffffffffffffffffffffffffffffff1673ffffffffffffffffffffffffffffffffffffffff168373ffffffffffffffffffffffffffffffffffffffff1663c45a01556040518163ffffffff1660e01b815260040160206040518083038186803b158015610e2457600080fd5b505afa158015610e38573d6000803e3d6000fd5b505050506040513d6020811015610e4e57600080fd5b810190808051906020019092919050505073ffffffffffffffffffffffffffffffffffffffff1614610e7f57600080fd5b6000610e8a84610b91565b905060008173ffffffffffffffffffffffffffffffffffffffff16630dfe16816040518163ffffffff1660e01b815260040160206040518083038186803b158015610ed457600080fd5b505afa158015610ee8573d6000803e3d6000fd5b505050506040513d6020811015610efe57600080fd5b8101908080519060200190929190505050905060008273ffffffffffffffffffffffffffffffffffffffff1663d21220a76040518163ffffffff1660e01b815260040160206040518083038186803b158015610f5957600080fd5b505afa158015610f6d573d6000803e3d6000fd5b505050506040513d6020811015610f8357600080fd5b81019080805190602001909291905050509050600080600260009054906101000a900473ffffffffffffffffffffffffffffffffffffffff1673ffffffffffffffffffffffffffffffffffffffff168473ffffffffffffffffffffffffffffffffffffffff1614156110bd578473ffffffffffffffffffffffffffffffffffffffff16630902f1ac6040518163ffffffff1660e01b815260040160606040518083038186803b15801561103557600080fd5b505afa158015611049573d6000803e3d6000fd5b505050506040513d606081101561105f57600080fd5b81019080805190602001909291908051906020019092919080519060200190929190505050508093508192505050816dffffffffffffffffffffffffffff16816dffffffffffffffffffffffffffff1696509650505050505061152e565b600260009054906101000a900473ffffffffffffffffffffffffffffffffffffffff1673ffffffffffffffffffffffffffffffffffffffff168373ffffffffffffffffffffffffffffffffffffffff1614156111e1578473ffffffffffffffffffffffffffffffffffffffff16630902f1ac6040518163ffffffff1660e01b815260040160606040518083038186803b15801561115957600080fd5b505afa15801561116d573d6000803e3d6000fd5b505050506040513d606081101561118357600080fd5b81019080805190602001909291908051906020019092919080519060200190929190505050508092508193505050816dffffffffffffffffffffffffffff16816dffffffffffffffffffffffffffff1696509650505050505061152e565b8773ffffffffffffffffffffffffffffffffffffffff16630dfe16816040518163ffffffff1660e01b815260040160206040518083038186803b15801561122757600080fd5b505afa15801561123b573d6000803e3d6000fd5b505050506040513d602081101561125157600080fd5b810190808051906020019092919050505093508773ffffffffffffffffffffffffffffffffffffffff1663d21220a76040518163ffffffff1660e01b815260040160206040518083038186803b1580156112aa57600080fd5b505afa1580156112be573d6000803e3d6000fd5b505050506040513d60208110156112d457600080fd5b81019080805190602001909291905050509250600260009054906101000a900473ffffffffffffffffffffffffffffffffffffffff1673ffffffffffffffffffffffffffffffffffffffff168473ffffffffffffffffffffffffffffffffffffffff1614156113e0578773ffffffffffffffffffffffffffffffffffffffff16630902f1ac6040518163ffffffff1660e01b815260040160606040518083038186803b15801561138357600080fd5b505afa158015611397573d6000803e3d6000fd5b505050506040513d60608110156113ad57600080fd5b8101908080519060200190929190805190602001909291908051906020019092919050505050809350819250505061147f565b8773ffffffffffffffffffffffffffffffffffffffff16630902f1ac6040518163ffffffff1660e01b815260040160606040518083038186803b15801561142657600080fd5b505afa15801561143a573d6000803e3d6000fd5b505050506040513d606081101561145057600080fd5b810190808051906020019092919080519060200190929190805190602001909291905050505080925081935050505b6114a36002826dffffffffffffffffffffffffffff1661164b90919063ffffffff16565b8873ffffffffffffffffffffffffffffffffffffffff166318160ddd6040518163ffffffff1660e01b815260040160206040518083038186803b1580156114e957600080fd5b505afa1580156114fd573d6000803e3d6000fd5b505050506040513d602081101561151357600080fd5b81019080805190602001909291905050509650965050505050505b915091565b6000808273ffffffffffffffffffffffffffffffffffffffff1663313ce5676040518163ffffffff1660e01b815260040160206040518083038186803b15801561157c57600080fd5b505afa158015611590573d6000803e3d6000fd5b505050506040513d60208110156115a657600080fd5b8101908080519060200190929190505050905060128160ff161115611633576040517f08c379a000000000000000000000000000000000000000000000000000000000815260040180806020018281038252601c8152602001807f4f766572466c6f77207269736b2c206e6f7420737570706f727465640000000081525060200191505060405180910390fd5b60008160ff16602403905080600a0a92505050919050565b60008083141561165e57600090506116cb565b600082840290508284828161166f57fe5b04146116c6576040517f08c379a00000000000000000000000000000000000000000000000000000000081526004018080602001828103825260218152602001806117e26021913960400191505060405180910390fd5b809150505b92915050565b600061171383836040518060400160405280601a81526020017f536166654d6174683a206469766973696f6e206279207a65726f00000000000081525061171b565b905092915050565b600080831182906117c7576040517f08c379a00000000000000000000000000000000000000000000000000000000081526004018080602001828103825283818151815260200191508051906020019080838360005b8381101561178c578082015181840152602081019050611771565b50505050905090810190601f1680156117b95780820380516001836020036101000a031916815260200191505b509250505060405180910390fd5b5060008385816117d357fe5b04905080915050939250505056fe536166654d6174683a206d756c7469706c69636174696f6e206f766572666c6f77a26469706673582212201dcf438c97d37ff7b52d60302c89da732e24c409efbb00f47899dcb93e87a78b64736f6c63430006060033",
  "immutableReferences": {},
  "source": "//SPDX-License-Identifier: stupid\n\n\npragma solidity >= 0.6;\n\nimport \"./SafeMath.sol\";\nimport \"./_Interfaces.sol\";\nimport \"./_ERC20.sol\";\nimport \"./ERC20_Utils.sol\";\n\n// oracle for on-chain uniswap prices w/ support for LP tokens\ncontract Uni_Price_v2 is ERC20_Utils {\n    using SafeMath for uint112;\n    using SafeMath for uint256;\n    \n    address public UNIfactory;\n    address public wETHaddress;\n    address public owner;\n \n    modifier onlyOwner {\n        require(msg.sender == owner, \"only owner\");\n        _;\n    }\n    \n    constructor(address _UNIfactory, address _wETHaddress) public {\n        owner = msg.sender;\n        UNIfactory = _UNIfactory; \n        //0x5C69bEe701ef814a2B6a3EDD4B1652CB9cc5aA6f; MAINNET ETH\n        //0x5c69bee701ef814a2b6a3edd4b1652cb9cc5aa6f; RINKEBY ETH\n\n        wETHaddress = _wETHaddress; \n        //0xc02aaa39b223fe8d0a0e5c4f27ead9083c756cc2; MAINNET ETH\n        //0xc778417E063141139Fce010982780140Aa0cD5Ab; RINKEBY ETH\n    }\n    \n    \n    function getUniPair(address _token) internal view returns(address) {\n        return IUniswapV2Factory(UNIfactory).getPair(_token, wETHaddress);\n    }\n\n    function _getUint256Reserves(address _token) internal view returns(uint256 rToken, uint256 rWETH) {\n        require(IUniswapV2Pair(_token).factory() == UNIfactory);\n        address _UNIpair = getUniPair(_token);\n        address _token0 = IUniswapV2Pair(_UNIpair).token0(); \n        address _token1 = IUniswapV2Pair(_UNIpair).token1(); \n        \n        uint112 _rTKN; uint112 _rWETH;\n        \n        if(_token0 == wETHaddress) {\n            (_rWETH, _rTKN, ) = IUniswapV2Pair(_UNIpair).getReserves(); //returns r0, r1, time\n            return (uint256(_rTKN),uint256(_rWETH)); //price in gwei, needs to be corrected by nb of decimals of _token\n         //price of 1 token in GWEI\n        }\n        else if (_token1 == wETHaddress) {\n            (_rTKN, _rWETH, ) = IUniswapV2Pair(_UNIpair).getReserves();\n            return (uint256(_rTKN),uint256(_rWETH)); //price in gwei, needs to be corrected by nb of decimals of _token\n         //price of 1 token in GWEI\n        } else { // we are dealing with a liquidity token\n            _token0 = IUniswapV2Pair(_token).token0();\n            _token1 = IUniswapV2Pair(_token).token1();\n\n            if(_token0 == wETHaddress) {\n                (_rWETH, _rTKN, ) = IUniswapV2Pair(_token).getReserves(); //returns r0, r1, time\n            }\n            else {\n                (_rTKN, _rWETH, ) = IUniswapV2Pair(_token).getReserves();\n            }\n            // formula for eth price of lp tokens in WETH is 2 * wethReserves / totalSupplyLpTokens()\n            return (_rWETH.mul(2), _ERC20(_token).totalSupply());\n        }\n    }  \n    \n    function adjuster(address _token) internal view returns(uint256) {\n        uint8 _decimals = _ERC20(_token).decimals();\n        require(_decimals <= 18,\"OverFlow risk, not supported\");\n        uint256 _temp = 36 - uint256(_decimals);\n        return 10**_temp;\n    }\n    \n    function getUniPrice(address _token) public view returns(uint) {\n\n        uint256 rToken; uint256 rWETH; uint256 _adjuster;\n        (rToken, rWETH) = _getUint256Reserves(_token);\n        _adjuster = adjuster(_token);\n        \n\n        return ( (rToken).mul(_adjuster) ).div(rWETH);       //IN GWEI\n    }\n    \n    function getTokenInfo(address _token) public view returns(\n        string memory name, string memory symbol, uint8 decimals, address uniPair, uint256 tokensPerETH) {\n        return(\n            _ERC20(_token).name(), \n            _ERC20(_token).symbol(), \n            _ERC20(_token).decimals(), \n            getUniPair(_token), \n            getUniPrice(_token)\n            ); //normalized as if every token is 18 decimals\n    }\n}\n\n",
  "sourcePath": "/Users/noahcoomer/source/defiat/contracts/Uni_Price_v2.sol",
  "compiler": {
    "name": "solc",
    "version": "0.6.6+commit.6c089d02.Emscripten.clang"
  },
  "schemaVersion": "3.2.3",
  "updatedAt": "2020-09-27T09:09:48.963Z",
  "devdoc": {
    "methods": {}
  },
  "userdoc": {
    "methods": {}
  }
}